:1000000075C500000C94FA240C942B250C945C25E7
:100010000C948D250C94BE250C94EF250C94202671
:100020000C94512694C5000092C5000090C50000B4
:100030008EC500008CC500008AC5000088C5000080
:1000400086C5000084C5000082C5000080C5000090
:100050007EC500007CC500007AC500000C9412200B
:1000600076C5000074C5000072C5000070C50000B0
:100070006EC500006CC500006AC5000068C50000C0
:1000800066C5000064C5000062C5000060C50000D0
:100090005EC500005CC500005AC500000C945C23DE
:1000A00056C5000054C5000052C5000050C50000F0
:1000B0004EC500004CC500004AC5000048C5000000
:1000C00046C5000044C5000042C5000040C5000010
:1000D0003EC500003CC500003AC5000038C5000020
:1000E00036C50000C807D607E407FE0711083B081D
:1000F0005108760885089708A908C108D408FC08A3
:100100001409390948095A096C0987099A09C40967
:10011000DC09010A100A220A340A530A670A8F0A04
:10012000A70ACC0ADB0AED0AE01FFF0A120B3E0BFE
:10013000560B7B0B8A0B9C0BE01FAE0BC10BED0B20
:10014000050C2A0C390C4B0CE01F5D0C700C9C0C40
:10015000B40CD90CE01FE01FE01FE80CFC0C240DD0
:100160003C0D700D7F0DBB0DC90D0E0E1C0E4F0EFC
:100170005D0E9E0EAC0EE80EF60E3B0F490F7C0F87
:100180008D0FCE0FDC0F181027106C107B10AE10E7
:10019000BD10FE100D114B115A11A111B011E31138
:1001A000F4113512441280128F12D412E312161376
:1001B000251366137513B113C013051414144714D3
:1001C00056149714A614E214F11436154515781533
:1001D0008715C815D715151624166B167A16AD1681
:1001E000BC16FD160C17211736174B17601775171D
:1001F0008A179F17B417C717DA17EC17FE171018CE
:100200002218341846185A186E1882189618AA1808
:10021000BE18D218E618F8180A191C192E19401918
:1002200052196419761986199B19B019C519DA196A
:10023000EF19041A191A291A3E1A531A681A7D1A44
:10024000921AA71ABC1ACC1AE11AF61A0B1B201B19
:10025000351B4A1B5F1B711B831B951BA71BB91BFF
:10026000CB1BDD1BEF1BF91B071C151C231C311CB2
:100270003F1C4D1C5B1C691C731C811C8F1C9D1C2E
:10028000AB1CB91CC71CD51CE31CED1CFB1C091DB9
:10029000171D251D331D411D4F1D5D1D671D751D3E
:1002A000831D911D9F1DAD1DBB1DC91DD71DE11DCA
:1002B000EF1DFD1D0B1E191E271E351E431E511E50
:1002C0005B1E691E771E851E931EA11EAF1EBD1EDE
:1002D000CB1ED51EE31E061F291F4C1F6F1F921F2A
:1002E000B41FD41FD4249E24A624B224BF24E02407
:1002F000ED249A269D268C2690269626D426A12685
:10030000A526AB26AF26B326B926BD26C126D42600
:10031000C726CB26CF268853F01DF90BAA26AE564A
:100320006C4E2238AE3A0E221E51D9609F0C1E1917
:10033000BE4688229C13BE08883284130C32641394
:100340001451C71F0C338C32E80784388E10E20B2F
:10035000A412BB5632490000E002030C5F7D6E2BF5
:10036000994CAE6A6000C045D101D555E4139001A7
:1003700084108001980C3F7EF243BD5EB57E877C81
:10038000B776BF76217CBF7EB77E400150014445E1
:100390004A295111A11E3E5ABF7CBF6E3F463F3ACB
:1003A000BF56BF143F769F7CF147397E9F6C1F423A
:1003B000DF7C3F7C3F7EBF1CA77CBF5DB776E1073B
:1003C0001F7E0F3E9F7D9B6C830FB94E3F4683601F
:1003D000317E22088C314100BD7E9F629C529C7E02
:1003E000BF5E5C29B77E9F70A00310761F51007C12
:1003F000DE799C709C725E394E799C10B2669F5279
:100400001C720C329E7B1451937EDA4AD111E003A8
:10041000C4454104FF7FAED580A83FD300408D1472
:100420002000A1C8DA1281CFD9F1DB40A4A6AF0623
:10043000FF5DA85DC8C134805DA85DC134805DA842
:100440005D084806004DB050160034805DA85D443C
:100450001600000000000000000000000000000086
:10046000000000000000000000000000000000008C
:10047000000000000000000000000000000000007C
:10048000000000000000000000000000000000006C
:10049000000000000000000000000000000000005C
:10083000000000000000000000000000096000004F
:100840000000000071310000007A7361773200000F
:100850006378646534330000207666747235000076
:100860006E62686779360000006D6A75373800007F
:100870002C6B696F303900002E2F6C3B702D0000FF
:100880000027005B3D000000000D5D005C000000E3
:1008900000000000007F000031003437000000300D
:1008A0002E323536381B00002B332D2A390000003C
:1008B0000000000000000000000000000000000038
:1008C00000000000097E000000000000512100002F
:1008D000005A534157400000435844452423000028
:1008E00020564654522500004E424847595E0000AB
:1008F000004D4A55262A00003C4B494F292800004C
:100900003E3F4C3A505F00000022007B2B0000006D
:10091000000D7D007C00000000000000007F000052
:1009200031003437000000302E323536381B0000DD
:100930002B332D2A390000000000000000000000C9
:1009400000000000000000000000000000000000A7
:100950000000000000000000000000000000000097
:100960000000000000000000000000000000000087
:100970000000000000000000000000000000000077
:100980000000000000000000000000000000000067
:100990000000000000000000000000000000000057
:1009A0000000000000000000000000000000000047
:1009B0000000000000000000000000000000000037
:1009C000000000000000000000000A0B02090C0DEE
:1009D0000E080703040100000000000000000000F2
:1009E0000000000000000000000000000000000007
:1009F00000000000121110000000000000000000C4
:100A000000000000000000000000000000000102E3
:100A10001020200808102040102040800201020110
:100A200008040201010204081020408080402010C8
:100A30000804020180040201804020100804020121
:100A40000804020101020408102040800102040889
:100A50001020408005050505070508080808020262
:100A600002020A0A08080404040401010101010148
:100A700001010303030303030303040707070C0C2B
:100A80000C0C0C0C0C0C02020202060606060606F2
:100A900006060B0B0B0B0B0B0B0B000020002300AF
:100AA000260029002C002F00320000010000030165
:100AB0000601090100002200250028002B002E005D
:100AC0003100340002010000050108010B010000A3
:100AD0002100240027002A002D00300033000101EE
:100AE0000000040107010A019606C12211241FBE5D
:100AF000CFEFD1E2DEBFCDBF00E00CBF12E0A0E03F
:100B0000B2E0E2E3FFE400E00BBF02C007900D9209
:100B1000A835B107D9F72DE1A8E5B2E001C01D92D3
:100B2000A53AB207E1F71AE0CCEEDAE000E006C041
:100B300022970109FE010BBF0E949327C83ED107EF
:100B400080E00807A9F70E9405200C94972758CA4F
:100B5000FC018481811104C085ED9CE10C94BF22CD
:100B60000895CF93DF93EC0185ED9CE10E94BF22B5
:100B70001A82DF91CF9108951F93CF93DF93EC01F9
:100B8000162F8A81882311F08F3181F41A8285ED26
:100B90009CE10E94BF226CE370E085ED9CE10E9425
:100BA000AC226B8185ED9CE10E945B22612F85ED7B
:100BB0009CE10E945B228A818F5F8A83DF91CF91C3
:100BC0001F910895CF92DF92EF920F931F93CF93CF
:100BD000DF931F921F92CDB7DEB76C01162FFC0179
:100BE000128213826F702A834983C6DF612F629558
:100BF0006F706061C601C0DF4981642F606BC60100
:100C0000BBDFC601A5DFC601ACDFF601128280E4BE
:100C100083832A81622FC601AFDF602FC601ACDF5C
:100C20006E2DC601A9DF60E0C601A6DFC6010F90E8
:100C30000F90DF91CF911F910F91EF90DF90CF90A8
:100C400087CFEF920F931F932F77E22FF0E0EE0FF5
:100C5000FF1FEA5EFC4F25913491532F56955E732A
:100C6000890135E0169507953A95E1F70F71000F68
:100C70002F71220F660F660FE52EA4DF1F910F91D3
:100C8000EF9008950F931F93CF93DF93EC0185EDC1
:100C90009CE10E9499221C828CE08093B8001A8209
:100CA0001B8206E114E0F8016491CE0165DF0F5F5D
:100CB0001F4FF4E00F321F07B1F7CE0149DF00E00C
:100CC00010E020E2412F602FCE01BBDF1F5F183004
:100CD000C1F70F5F0032A1F7DF91CF911F910F9104
:100CE00008954FE258E063E082E00E94DA2188E54F
:100CF00092E0C8CF0E94A321882329F00E94B62148
:100D00008F3719F0089580E0089588E00895262F20
:100D10002F77482F50E095E0559547959A95E1F744
:100D2000682F6F7188E592E08CCF089587E694E094
:100D30000E94D92181E080935D020895D2CF8091F5
:100D40006A04882321F0806810926A04089580E084
:100D50000895CF93C82F6091690467FF0FC087FD86
:100D60000DC06F3F19F41092680408C080916804A8
:100D7000CEDF909168049F5F90936804C0936904EC
:100D8000CF910895B7DF811180936A04CECF9EC0C2
:100D90008F929F92AF92BF92CF92DF92EF92FF928B
:100DA0001F93CF93DF9300D01F92CDB7DEB718EC1F
:100DB00088EE882E83E0982EA12CB12CB6D0282F57
:100DC00030E040E050E0211531054105510539F191
:100DD00029833A834B835C830E945C20C0906B0420
:100DE000D0906C04E0906D04F0906E0429813A81FB
:100DF0004B815C816C157D058E059F0548F3C5010F
:100E0000B4010E946B272C0D3D1D4E1D5F1D2093CC
:100E10006B0430936C0440936D0450936E04115036
:100E200069F60F900F900F900F90DF91CF911F9167
:100E3000FF90EF90DF90CF90BF90AF909F908F90FA
:100E4000089580918B0490E0982F882720918A0440
:100E5000822B9F739093720480937104811528E113
:100E6000920728F4FC01EF56FB4F808101C08FEF01
:100E70008093850408952091900490E0820F911D45
:100E800020918804820F911D80936F0490937004C9
:100E90009093880408952091900430E0281B310934
:100EA00080918804281B310920936F0430937004CB
:100EB00030938804822F089590E021E0882321F068
:100EC00080FD92278695FACF892F08951092860487
:100ED0001092870410927404109273041092880484
:100EE0001092890410928A0410928B0410928C0440
:100EF00010928D0410928E0410928F041092900420
:100F0000E5E7F4E01192119284E0E538F807D1F7B3
:100F100015DFEFE2F4E0A1E9B4E084918D9331961E
:100F200088E0EF32F807C9F708950F931F93CF9326
:100F3000DF938091890481110C94E01FC091870494
:100F40004C2F50E0440F551FFA01EB58FB4F208106
:100F500031813F733093720420937104211568E14D
:100F6000360728F4F901EF56FB4F808101C08FEF5F
:100F7000809385042F5F3F4F3F73FA01EB58FB4F7F
:100F80003183208390E0FC01EE58FF4F0C948D27B5
:100F900081E0809389048091730490917404049695
:100FA00090937404809373040C94E01F81E0809309
:100FB000890480917304909174040496909374044E
:100FC000809373040C94E01F2091900430E0C901D9
:100FD000880F892F881F990B80938804220F331F55
:100FE000282B2093900480917304909174040596AB
:100FF00090937404809373040C94E01F8091880490
:10100000811104C0C150C770C093870480917304DC
:1010100090917404059690937404809373040C94D7
:10102000E01F3093720420937104211588E1380782
:1010300028F4F901EF56FB4F808101C08FEF8093B8
:101040008504FA01EB58FB4F2F5F3F4F3F7331830D
:101050002083109288040FDF80938604809390048D
:101060008091730490917404089690937404809313
:1010700073040C94E01FCF5FC770C0938704D0E067
:10108000CC0FDD1FCB58DB4F19821882809173047F
:1010900090917404059690937404809373040C9457
:1010A000E01F3093720420937104211568E1360724
:1010B00028F4F901EF56FB4F808101C08FEF809338
:1010C0008504FA01EB58FB4F2F5F3F4F3F7331838D
:1010D0002083809390048091730490917404089607
:1010E00090937404809373040C94E01FC150C770F4
:1010F000C093870480917304909174040596909333
:101100007404809373040C94E01F80918F048F5FAC
:101110008093860480938F0480917304909174046B
:10112000059690937404809373040C94E01F80914F
:101130008F0481508093860480938F048091730480
:1011400090917404059690937404809373040C94A6
:10115000E01F80919004982F917090938804979548
:10116000992797958695892B809390048091730495
:1011700090917404059690937404809373040C9476
:10118000E01F80918604882321F0C150C770C0936E
:10119000870480917304909174040596909374046D
:1011A000809373040C94E01F3093720420937104B5
:1011B000211588E1380728F4F901EF56FB4F8081AB
:1011C00001C08FEF80938504FA01EB58FB4F2F5F2E
:1011D0003F4F3F73318320834EDE8093860480939C
:1011E0009004809173049091740408969093740411
:1011F000809373040C94E01FCF5FC770C093870483
:10120000D0E0CC0FDD1FCB58DB4F88E090E0998316
:10121000888380917304909174040596909374046C
:10122000809373040C94E01F309372042093710434
:10123000211568E1360728F4F901EF56FB4F80814C
:1012400001C08FEF80938504FA01EB58FB4F2F5FAD
:101250003F4F3F733183208380938F0480917304C9
:1012600090917404089690937404809373040C9482
:10127000E01FC150C770C0938704809173049091A0
:101280007404059690937404809373040C94E01F87
:1012900080918E048F5F8093860480938E0480916A
:1012A000730490917404059690937404809373046E
:1012B0000C94E01F80918E0481508093860480936B
:1012C0008E04809173049091740405969093740435
:1012D000809373040C94E01F8091900490E0880F39
:1012E000991F20918804822B80936F04909370043F
:1012F0008093900490938804809173049091740477
:10130000059690937404809373040C94E01F80916D
:10131000860487FD04C0C150C770C09387048091C4
:1013200073049091740405969093740480937304ED
:101330000C94E01F3093720420937104211588E10E
:10134000380728F4F901EF56FB4F808101C08FEF79
:1013500080938504FA01EB58FB4F2F5F3F4F3F739B
:10136000318320831092880496DD809386048093D5
:10137000900480917304909174040896909374047F
:10138000809373040C94E01FCF5FC770C0938704F1
:10139000D0E0CC0FDD1FCB58DB4F80E190E099838C
:1013A00088838091730490917404059690937404DB
:1013B000809373040C94E01F3093720420937104A3
:1013C000211568E1360728F4F901EF56FB4F8081BB
:1013D00001C08FEF80938504FA01EB58FB4F2F5F1C
:1013E0003F4F3F733183208380938E048091730439
:1013F00090917404089690937404809373040C94F1
:10140000E01FC150C770C09387048091730490910E
:101410007404059690937404809373040C94E01FF5
:1014200080918D048F5F8093860480938D048091DA
:1014300073049091740405969093740480937304DC
:101440000C94E01F80918D048150809386048093DA
:101450008D048091730490917404059690937404A4
:10146000809373040C94E01F8091880490E0982F7F
:10147000882720919004822B9093700480936F04AE
:101480009C01369527952093900481708093880461
:1014900080917304909174040596909374048093E2
:1014A00073040C94E01F8091860406DD882321F0EC
:1014B000C150C770C09387048091730490917404E5
:1014C000059690937404809373040C94E01F3093FA
:1014D000720420937104211588E1380728F4F9017A
:1014E000EF56FB4F808101C08FEF80938504FA0196
:1014F000EB58FB4F2F5F3F4F3F7331832083CBDC93
:101500008093860480939004809173049091740476
:10151000089690937404809373040C94E01FCF5F3B
:10152000C770C0938704D0E0CC0FDD1FCB58DB4FD2
:1015300088E190E09983888380917304909174048A
:10154000059690937404809373040C94E01F309379
:10155000720420937104211568E1360728F4F9011B
:10156000EF56FB4F808101C08FEF80938504FA0115
:10157000EB58FB4F2F5F3F4F3F73318320838093A6
:101580008D04809173049091740408969093740470
:10159000809373040C94E01FC150C770C0938704FC
:1015A00080917304909174040596909374048093D1
:1015B00073040C94E01F80918C048F5F80938604E9
:1015C00080938C0480917304909174040596909399
:1015D0007404809373040C94E01F80918C048150F8
:1015E0008093860480938C0480917304909174049A
:1015F000059690937404809373040C94E01F80917B
:101600008804882321F0C150C770C093870480915B
:1016100073049091740405969093740480937304FA
:101620000C94E01F3093720420937104211588E11B
:10163000380728F4F901EF56FB4F908101C09FEF66
:1016400090938504FA01EB58FB4F2F5F3F4F3F7398
:1016500031832083109288048091900489238093A1
:10166000860480939004809173049091740408968A
:1016700090937404809373040C94E01FCF5FC77041
:10168000C0938704D0E0CC0FDD1FCB58DB4F80E246
:1016900090E09983888380917304909174040596F7
:1016A00090937404809373040C94E01F309372043D
:1016B00020937104211568E1360728F4F901EF56EB
:1016C000FB4F808101C08FEF80938504FA01EB58B6
:1016D000FB4F2F5F3F4F3F733183208380938C04F8
:1016E000809173049091740408969093740480938D
:1016F00073040C94E01FC150C770C093870480919D
:101700007304909174040596909374048093730409
:101710000C94E01F80918B048F5F809386048093EC
:101720008B048091730490917404059690937404D3
:10173000809373040C94E01F80918B0481508093FC
:10174000860480938B0480917304909174040596B1
:1017500090937404809373040C94E01F809186042A
:10176000811104C0C150C770C09387048091730475
:1017700090917404059690937404809373040C9470
:10178000E01F3093720420937104211588E138071B
:1017900028F4F901EF56FB4F908101C09FEF909321
:1017A0008504FA01EB58FB4F2F5F3F4F3F733183A6
:1017B0002083109288048091900489278093860466
:1017C0008093900480917304909174040896909390
:1017D0007404809373040C94E01FCF5FC770C093B0
:1017E0008704D0E0CC0FDD1FCB58DB4F88E290E0C0
:1017F00099838883809173049091740405969093E3
:101800007404809373040C94E01F3093720420934B
:101810007104211568E1360728F4F901EF56FB4FF2
:10182000808101C08FEF80938504FA01EB58FB4F54
:101830002F5F3F4F3F733183208380938B048091D0
:1018400073049091740408969093740480937304C5
:101850000C94E01FC150C770C0938704809173043B
:1018600090917404059690937404809373040C947F
:10187000E01F80918A048F5F8093860480938A049E
:1018800080917304909174040596909374048093EE
:1018900073040C94E01F80918A0481508093860425
:1018A00080938A04809173049091740405969093B8
:1018B0007404809373040C94E01F8091860487FF66
:1018C00004C0C150C770C093870480917304909185
:1018D0007404059690937404809373040C94E01F31
:1018E0003093720420937104211588E1380728F49D
:1018F000F901EF56FB4F908101C09FEF9093850453
:10190000FA01EB58FB4F2F5F3F4F3F73318320832A
:101910001092880480919004892B80938604809390
:1019200090048091730490917404089690937404C9
:10193000809373040C94E01FCF5FC770C09387043B
:10194000D0E0CC0FDD1FCB58DB4F80E390E09983D4
:101950008883809173049091740405969093740425
:10196000809373040C94E01F3093720420937104ED
:10197000211568E1360728F4F901EF56FB4F808105
:1019800001C08FEF80938504FA01EB58FB4F2F5F66
:101990003F4F3F733183208380938A048091730487
:1019A00090917404089690937404809373040C943B
:1019B000E01FC150C770C093870480917304909159
:1019C0007404059690937404809373040C94E01F40
:1019D0008091860471DA811104C0C150C770C09330
:1019E0008704809173049091740405969093740415
:1019F000809373040C94E01F30937204209371045D
:101A0000211588E1380728F4F901EF56FB4F808152
:101A100001C08FEF80938504FA01EB58FB4F2F5FD5
:101A20003F4F3F73318320831092880434DA8093D0
:101A300086048091730490917404089690937404C2
:101A4000809373040C94E01FCF5FC770C09387042A
:101A5000D0E0CC0FDD1FCB58DB4F88E390E09983BB
:101A60008883809173049091740405969093740414
:101A7000809373040C94E01F211568E1360728F465
:101A8000F901EF56FB4F608101C06FEF6093850451
:101A9000FA01EB58FB4F2F5F3F4F3F733183208399
:101AA00080918B0490E0982F882720918A04822BC4
:101AB0009F739093720480937104811528E19207BB
:101AC00020F4FC01EF56FB4F6083809173049091EA
:101AD0007404099690937404809373040C94E01F2B
:101AE000C150C770C09387048091730490917404AF
:101AF000059690937404809373040C94E01F211551
:101B000068E1360728F4F901EF56FB4F808101C0E8
:101B10008FEF2F5F3F4F3F7390E03093720420931D
:101B20007104211568E1360728F4F901EF56FB4FDF
:101B3000608101C06FEF60938504FA01EB58FB4FA1
:101B40002F5F3F4F3F7331832083962B9093700418
:101B500080936F0420918804211102C091838083B7
:101B600080917304909174040A9690937404809306
:101B700073040C94E01F81E48093900480917304BB
:101B800090917404089690937404809373040C9459
:101B9000E01F211588E1380728F4F901EF56FB4FC3
:101BA000808101C08FEF2F5F3F4F3F7390E03093F4
:101BB000720420937104211568E1360728F4F901B5
:101BC000EF56FB4F608101C06FEF60938504FA010F
:101BD000EB58FB4F2F5F3F4F3F7331832083962B92
:101BE0009093700480936F042091880421110BC09E
:101BF000CF5FC770C0938704D0E0CC0FDD1FCB58F8
:101C0000DB4F9983888380917304909174040A96C2
:101C100090937404809373040C94E01F83E4809386
:101C200090048091730490917404089690937404C6
:101C3000809373040C94E01F211588E1380728F481
:101C4000F901EF56FB4F808101C08FEF2F5F3F4FAF
:101C50003F7390E03093720420937104211568E182
:101C6000360728F4F901EF56FB4F208101C02FEF12
:101C700020938504922B9093700480936F04FA0153
:101C8000EB58FB4F9183808380917304909174048F
:101C90000B9690937404809373040C94E01F85E476
:101CA00080939004809173049091740408969093AB
:101CB0007404809373040C94E01F211588E13807A5
:101CC00028F4F901EF56FB4F808101C08FEF2F5FA1
:101CD0003F4F3F7390E030937204209371042115BD
:101CE00068E1360728F4F901EF56FB4F608101C027
:101CF0006FEF60938504FA01EB58FB4F2F5F3F4F66
:101D00003F7331832083962B9093700480936F04EC
:101D1000CF5FC770C0938704D0E0CC0FDD1FCB58D6
:101D2000DB4F9983888380917304909174040B96A0
:101D300090937404809373040C94E01F87E4809361
:101D400090048091730490917404089690937404A5
:101D5000809373040C94E01F211588E1380728F460
:101D6000F901EF56FB4F808101C08FEF2F5F3F4F8E
:101D70003F7390E03093720420937104211568E161
:101D8000360728F4F901EF56FB4F608101C06FEF71
:101D900060938504FA01EB58FB4F2F5F3F4F3F7371
:101DA00031832083962B9093700480936F0420914D
:101DB0008604222311F09183808380917304909193
:101DC00074040A9690937404809373040C94E01F37
:101DD00089E4809390048091730490917404089630
:101DE00090937404809373040C94E01F211588E190
:101DF000380728F4F901EF56FB4F808101C08FEFBF
:101E00002F5F3F4F3F7390E0309372042093710433
:101E1000211568E1360728F4F901EF56FB4F608180
:101E200001C06FEF60938504FA01EB58FB4F2F5F01
:101E30003F4F3F7331832083962B909370048093A0
:101E40006F0420918604222359F0CF5FC770C0939E
:101E50008704D0E0CC0FDD1FCB58DB4F99838883FC
:101E600080917304909174040A9690937404809303
:101E700073040C94E01F8BE48093900480917304AE
:101E800090917404089690937404809373040C9456
:101E9000E01F211588E1380728F4F901EF56FB4FC0
:101EA000808101C08FEF2F5F3F4F3F7390E03093F1
:101EB000720420937104211568E1360728F4F901B2
:101EC000EF56FB4F208101C02FEF20938504922B0A
:101ED0009093700480936F04FA01EB58FB4F918349
:101EE000808380917304909174040B969093740492
:101EF000809373040C94E01F0E949F0680938504D6
:101F00008093900480917304909174040896909348
:101F10007404809373040C94E01F211588E1380742
:101F200028F4F901EF56FB4F808101C08FEF2F5F3E
:101F30003F4F3F7390E0309372042093710421155A
:101F400068E1360728F4F901EF56FB4F608101C0C4
:101F50006FEF60938504FA01EB58FB4F2F5F3F4F03
:101F60003F7331832083962B9093700480936F048A
:101F7000CF5FC770C0938704D0E0CC0FDD1FCB5874
:101F8000DB4F9983888380917304909174040B963E
:101F900090937404809373040C94E01F8FE48093F7
:101FA0009004809173049091740408969093740443
:101FB000809373040C94E01F211588E1380728F4FE
:101FC000F901EF56FB4F808101C08FEF2F5F3F4F2C
:101FD0003F7390E03093720420937104211568E1FF
:101FE000360728F4F901EF56FB4F608101C06FEF0F
:101FF00060938504FA01EB58FB4F2F5F3F4F3F730F
:1020000031832083962B9093700480936F042091EA
:10201000860427FD02C09183808380917304909190
:1020200074040A9690937404809373040C94E01FD4
:10203000809190048093850480917304909174043E
:10204000069690937404809373040C94E01F2115FA
:1020500088E1380728F4F901EF56FB4F808101C071
:102060008FEF2F5F3F4F3F7390E0309372042093C8
:102070007104211568E1360728F4F901EF56FB4F8A
:10208000608101C06FEF60938504FA01EB58FB4F4C
:102090002F5F3F4F3F7331832083962B90937004C3
:1020A00080936F042091860427FD0BC0CF5FC7701B
:1020B000C0938704D0E0CC0FDD1FCB58DB4F998352
:1020C000888380917304909174040A9690937404A9
:1020D000809373040C94E01F809190048093850496
:1020E0008091730490917404069690937404809385
:1020F00073040C94E01F211588E1380728F4F901D6
:10210000EF56FB4F808101C08FEF2F5F3F4F3F7332
:1021100090E03093720420937104211568E1360732
:1021200028F4F901EF56FB4F208101C02FEF2093D7
:102130008504922B9093700480936F04FA01EB58FE
:10214000FB4F9183808380917304909174040B966C
:1021500090937404809373040C94E01F8091900416
:1021600080938504809173049091740406969093F3
:102170007404809373040C94E01F211588E13807E0
:1021800028F4F901EF56FB4F808101C08FEF2F5FDC
:102190003F4F3F7390E030937204209371042115F8
:1021A00068E1360728F4F901EF56FB4F608101C062
:1021B0006FEF60938504FA01EB58FB4F2F5F3F4FA1
:1021C0003F7331832083962B9093700480936F0428
:1021D000CF5FC770C0938704D0E0CC0FDD1FCB5812
:1021E000DB4F9983888380917304909174040B96DC
:1021F00090937404809373040C94E01F8091900476
:102200008093850480917304909174040696909352
:102210007404809373040C94E01F211588E138073F
:1022200028F4F901EF56FB4F008101C00FEF2F5F3B
:102230003F4F3F7310E030937204209371042115D7
:1022400068E1360728F4F901EF56FB4F808101C0A1
:102250008FEF80938504EA01CB58DB4F2F5F3F4F10
:102260003F7339832883182B1093700400936F04F5
:10227000809186040E945C07882311F019830883EB
:1022800080917304909174040A96909374048093DF
:1022900073040C94E01F80919004809385048091D6
:1022A000730490917404069690937404809373045D
:1022B0000C94E01F211588E1380728F4F901EF5646
:1022C000FB4F008101C00FEF2F5F3F4F3F7310E0C6
:1022D0003093720420937104211568E1360728F4C5
:1022E000F901EF56FB4F808101C08FEF8093850489
:1022F000FA01EB58FB4F2F5F3F4F3F733183208331
:10230000182B1093700400936F04809186040E9430
:102310005C07882359F0CF5FC770C0938704D0E073
:10232000CC0FDD1FCB58DB4F1983088380917304DA
:10233000909174040A9690937404809373040C949F
:10234000E01F8091900480938504809173049091A4
:102350007404069690937404809373040C94E01FA5
:10236000211588E1380728F4F901EF56FB4F8081E9
:1023700001C08FEF2F5F3F4F3F7390E030937204A7
:1023800020937104211568E1360728F4F901EF560E
:10239000FB4F208101C02FEF20938504922B909357
:1023A000700480936F04FA01EB58FB4F9183808394
:1023B00080917304909174040B96909374048093AD
:1023C00073040C94E01F80919004809385040E9414
:1023D000A9068091730490917404069690937404F6
:1023E000809373040C94E01F211588E1380728F4CA
:1023F000F901EF56FB4F808101C08FEF2F5F3F4FF8
:102400003F7390E03093720420937104211568E1CA
:10241000360728F4F901EF56FB4F608101C06FEFDA
:1024200060938504FA01EB58FB4F2F5F3F4F3F73DA
:1024300031832083962B9093700480936F04CF5F39
:10244000C770C0938704D0E0CC0FDD1FCB58DB4FA3
:102450009983888380917304909174040B96909370
:102460007404809373040C94E01F80919004809313
:10247000850480917304909174040696909374047B
:10248000809373040C94E01F211588E1380728F429
:10249000F901EF56FB4F808101C08FEF2F5F3F4F57
:1024A0003F7390E03093720420937104211568E12A
:1024B000360728F4F901EF56FB4F608101C06FEF3A
:1024C00060938504FA01EB58FB4F2F5F3F4F3F733A
:1024D00031832083962B9093700480936F04209116
:1024E0008804222311F0918380838091730490915A
:1024F00074040A9690937404809373040C94E01F00
:102500008091900480938504809173049091740469
:10251000069690937404809373040C94E01F211525
:1025200088E1380728F4F901EF56FB4F808101C09C
:102530008FEF2F5F3F4F3F7390E0309372042093F3
:102540007104211568E1360728F4F901EF56FB4FB5
:10255000608101C06FEF60938504FA01EB58FB4F77
:102560002F5F3F4F3F7331832083962B90937004EE
:1025700080936F0420918804222359F0CF5FC770A5
:10258000C0938704D0E0CC0FDD1FCB58DB4F99837D
:10259000888380917304909174040A9690937404D4
:1025A000809373040C94E01F8091900480938504C1
:1025B00080917304909174040696909374048093B0
:1025C00073040C94E01F211588E1380728F4F90101
:1025D000EF56FB4F808101C08FEF2F5F3F4F3F735E
:1025E00090E03093720420937104211568E136075E
:1025F00028F4F901EF56FB4F208101C02FEF209303
:102600008504922B9093700480936F04FA01EB5829
:10261000FB4F9183808380917304909174040B9697
:1026200090937404809373040C94E01F8091900441
:10263000809385048091730490917404069690931E
:102640007404809373040C94E01F211588E138070B
:1026500028F4F901EF56FB4F808101C08FEF2F5F07
:102660003F4F3F7390E03093720420937104211523
:1026700068E1360728F4F901EF56FB4F608101C08D
:102680006FEF60938504FA01EB58FB4F2F5F3F4FCC
:102690003F7331832083962B9093700480936F0453
:1026A000CF5FC770C0938704D0E0CC0FDD1FCB583D
:1026B000DB4F9983888380917304909174040B9607
:1026C00090937404809373040C94E01F80919004A1
:1026D000809385048091730490917404069690937E
:1026E0007404809373040C94E01F211588E138076B
:1026F00028F4F901EF56FB4F808101C08FEF2F5F67
:102700003F4F3F7390E03093720420937104211582
:1027100068E1360728F4F901EF56FB4F608101C0EC
:102720006FEF60938504FA01EB58FB4F2F5F3F4F2B
:102730003F7331832083962B9093700480936F04B2
:1027400020918604211102C09183808380917304BB
:10275000909174040A9690937404809373040C947B
:10276000E01F809190048093850480917304909180
:102770007404069690937404809373040C94E01F81
:10278000211588E1380728F4F901EF56FB4F8081C5
:1027900001C08FEF2F5F3F4F3F7390E03093720483
:1027A00020937104211568E1360728F4F901EF56EA
:1027B000FB4F608101C06FEF60938504FA01EB5815
:1027C000FB4F2F5F3F4F3F7331832083962B9093B6
:1027D000700480936F042091860421110BC0CF5F99
:1027E000C770C0938704D0E0CC0FDD1FCB58DB4F00
:1027F0009983888380917304909174040A969093CE
:102800007404809373040C94E01F8091900480936F
:1028100085048091730490917404069690937404D7
:10282000809373040C94E01F211588E1380728F485
:10283000F901EF56FB4F808101C08FEF2F5F3F4FB3
:102840003F7390E03093720420937104211568E186
:10285000360728F4F901EF56FB4F208101C02FEF16
:1028600020938504922B9093700480936F04FA0157
:10287000EB58FB4F91838083809173049091740493
:102880000B9690937404809373040C94E01F8091D2
:10289000900480938504809173049091740406964B
:1028A00090937404809373040C94E01F211588E1C5
:1028B000380728F4F901EF56FB4F808101C08FEFF4
:1028C0002F5F3F4F3F7390E0309372042093710469
:1028D000211568E1360728F4F901EF56FB4F6081B6
:1028E00001C06FEF60938504FA01EB58FB4F2F5F37
:1028F0003F4F3F7331832083962B909370048093D6
:102900006F04CF5FC770C0938704D0E0CC0FDD1F8A
:10291000CB58DB4F99838883809173049091740422
:102920000B9690937404809373040C94E01F809131
:1029300090048093850480917304909174040696AA
:1029400090937404809373040C94E01F211588E124
:10295000380728F4F901EF56FB4F808101C08FEF53
:102960002F5F3F4F3F7390E03093720420937104C8
:10297000211568E1360728F4F901EF56FB4F608115
:1029800001C06FEF60938504FA01EB58FB4F2F5F96
:102990003F4F3F7331832083962B90937004809335
:1029A0006F042091860427FF02C091838083809169
:1029B0007304909174040A96909374048093730442
:1029C0000C94E01F8091900480938504809173049F
:1029D00090917404069690937404809373040C94FD
:1029E000E01F211588E1380728F4F901EF56FB4F65
:1029F000808101C08FEF2F5F3F4F3F7390E0309396
:102A0000720420937104211568E1360728F4F90156
:102A1000EF56FB4F608101C06FEF60938504FA01B0
:102A2000EB58FB4F2F5F3F4F3F7331832083962B33
:102A30009093700480936F042091860427FF0BC04D
:102A4000CF5FC770C0938704D0E0CC0FDD1FCB5899
:102A5000DB4F9983888380917304909174040A9664
:102A600090937404809373040C94E01F80919004FD
:102A700080938504809173049091740406969093DA
:102A80007404809373040C94E01F211588E13807C7
:102A900028F4F901EF56FB4F808101C08FEF2F5FC3
:102AA0003F4F3F7390E030937204209371042115DF
:102AB00068E1360728F4F901EF56FB4F208101C089
:102AC0002FEF20938504922B9093700480936F04D2
:102AD000FA01EB58FB4F91838083809173049091AE
:102AE00074040B9690937404809373040C94E01F09
:102AF0008091900480938504809173049091740474
:102B0000069690937404809373040C94E01F21152F
:102B100088E1380728F4F901EF56FB4F808101C0A6
:102B20008FEF2F5F3F4F3F7390E0309372042093FD
:102B30007104211568E1360728F4F901EF56FB4FBF
:102B4000608101C06FEF60938504FA01EB58FB4F81
:102B50002F5F3F4F3F7331832083962B90937004F8
:102B600080936F04CF5FC770C0938704D0E0CC0F11
:102B7000DD1FCB58DB4F998388838091730490913C
:102B800074040B9690937404809373040C94E01F68
:102B900080919004809385048091730490917404D3
:102BA000069690937404809373040C94E01F21158F
:102BB00088E1380728F4F901EF56FB4F008101C086
:102BC0000FEF2F5F3F4F3F7310E03093720420935D
:102BD0007104211568E1360728F4F901EF56FB4F1F
:102BE000808101C08FEF80938504EA01CB58DB4FD1
:102BF0002F5F3F4F3F7339832883182B1093700446
:102C000000936F04809186040E945C07811102C0CA
:102C10001983088380917304909174040A969093A9
:102C20007404809373040C94E01F8091900480934B
:102C300085048091730490917404069690937404B3
:102C4000809373040C94E01F211588E1380728F461
:102C5000F901EF56FB4F008101C00FEF2F5F3F4F8F
:102C60003F7310E03093720420937104211568E1E2
:102C7000360728F4F901EF56FB4F808101C08FEF32
:102C800080938504FA01EB58FB4F2F5F3F4F3F7352
:102C900031832083182B1093700400936F0480916C
:102CA00086040E945C0781110BC0CF5FC770C09380
:102CB0008704D0E0CC0FDD1FCB58DB4F198308838E
:102CC00080917304909174040A9690937404809395
:102CD00073040C94E01F809190048093850480918C
:102CE0007304909174040696909374048093730413
:102CF0000C94E01F211588E1380728F4F901EF56FC
:102D0000FB4F808101C08FEF2F5F3F4F3F7390E0FB
:102D10003093720420937104211568E1360728F47A
:102D2000F901EF56FB4F208101C02FEF209385045E
:102D3000922B9093700480936F04FA01EB58FB4F31
:102D40009183808380917304909174040B96909387
:102D50007404809373040C94E01F8091900480931A
:102D60008504809173049091740406969093740482
:102D7000809373040C94E01F211588E1380728F430
:102D8000F901EF56FB4F808101C08FEF2F5F3F4F5E
:102D90003F7390E03093720420937104211568E131
:102DA000360728F4F901EF56FB4F608101C06FEF41
:102DB00060938504FA01EB58FB4F2F5F3F4F3F7341
:102DC00031832083962B9093700480936F04CF5FA0
:102DD000C770C0938704D0E0CC0FDD1FCB58DB4F0A
:102DE0009983888380917304909174040B969093D7
:102DF0007404809373040C94E01F8091900480937A
:102E000085048091730490917404069690937404E1
:102E1000809373040C94E01F1092880480919004B6
:102E20000E943B07809386048093900480917304F2
:102E300090917404059690937404809373040C9499
:102E4000E01F1092880480918F040E943B078093BA
:102E50008604809390048091730490917404059685
:102E600090937404809373040C94E01F1092880470
:102E700080918E040E943B07809386048093900487
:102E800080917304909174040596909374048093D8
:102E900073040C94E01F1092880480918D040E94AA
:102EA0003B078093860480939004809173049091F3
:102EB0007404059690937404809373040C94E01F3B
:102EC0001092880480918C040E943B0780938604B2
:102ED000809390048091730490917404059690936C
:102EE0007404809373040C94E01F10928804809102
:102EF0008B040E943B07809386048093900480910A
:102F000073049091740405969093740480937304F1
:102F10000C94E01F1092880480918A040E943B0761
:102F2000809386048093900480917304909174043C
:102F3000059690937404809373040C94E01F109290
:102F400088040E9421070E943B0780938604809397
:102F50009004809173049091740408969093740483
:102F6000809373040C94E01F809190040E943B07AF
:102F700080938604809390048091730490917404EC
:102F8000059690937404809373040C94E01F8091D1
:102F90008F040E943B078093860480939004809165
:102FA0007304909174040596909374048093730451
:102FB0000C94E01F80918E040E943B07809386044E
:102FC000809390048091730490917404059690937B
:102FD000740480937304F4C780918D040E943B07AE
:102FE000809386048093900480917304909174047C
:102FF00005969093740480937304E2C780918C04C7
:103000000E943B0780938604809390048091730410
:103010009091740405969093740480937304D0C7C0
:1030200080918B040E943B078093860480939004D8
:103030008091730490917404059690937404809326
:103040007304BEC780918A040E943B078093860464
:1030500080939004809173049091740405969093EA
:10306000740480937304ACC70E9421070E943B073D
:1030700080938604809390048091730490917404EB
:10308000089690937404809373049AC710928804EE
:10309000809190040E944B07809386048093900453
:1030A00080917304909174040596909374048093B6
:1030B000730486C71092880480918F040E944B0786
:1030C000809386048093900480917304909174049B
:1030D0000596909374048093730472C710928804C9
:1030E00080918E040E944B07809386048093900405
:1030F0008091730490917404059690937404809366
:1031000073045EC71092880480918D040E944B075F
:10311000809386048093900480917304909174044A
:10312000059690937404809373044AC710928804A0
:1031300080918C040E944B078093860480939004B6
:103140008091730490917404059690937404809315
:10315000730436C71092880480918B040E944B0739
:1031600080938604809390048091730490917404FA
:103170000596909374048093730422C71092880478
:1031800080918A040E944B07809386048093900468
:1031900080917304909174040596909374048093C5
:1031A00073040EC7109288040E9421070E944B07E7
:1031B00080938604809390048091730490917404AA
:1031C00008969093740480937304FAC680919004D7
:1031D0000E944B078093860480939004809173042F
:1031E0009091740405969093740480937304E8C6D8
:1031F00080918F040E944B078093860480939004F3
:103200008091730490917404059690937404809354
:103210007304D6C680918E040E944B078093860467
:103220008093900480917304909174040596909318
:10323000740480937304C4C680918D040E944B076C
:103240008093860480939004809173049091740419
:1032500005969093740480937304B2C680918C0495
:103260000E944B078093860480939004809173049E
:103270009091740405969093740480937304A0C68F
:1032800080918B040E944B07809386048093900466
:1032900080917304909174040596909374048093C4
:1032A00073048EC680918A040E944B078093860423
:1032B0008093900480917304909174040596909388
:1032C0007404809373047CC60E9421070E944B07FC
:1032D0008093860480939004809173049091740489
:1032E000089690937404809373046AC610928804BD
:1032F000809190048093860480917304909174046B
:10330000059690937404809373045AC610928804AF
:1033100080918F04909190048923809386048093F8
:1033200090048091730490917404059690937404B2
:103330008093730445C61092880480918E04909106
:103340009004892380938604809390048091730471
:10335000909174040596909374048093730430C61E
:103360001092880480918D04909190048923809319
:103370008604809390048091730490917404059660
:1033800090937404809373041BC6109288048091F8
:103390008C049091900489238093860480939004F8
:1033A00080917304909174040596909374048093B3
:1033B000730406C61092880480918B049091900447
:1033C0008923809386048093900480917304909164
:1033D000740405969093740480937304F1C510925D
:1033E000880480918A0490919004892380938604B4
:1033F0008093900480917304909174040596909347
:10340000740480937304DCC510928804C091900406
:103410000E9421078C2380938604809390048091DE
:1034200073049091740408969093740480937304C9
:10343000C7C510928804109286041092900480915F
:1034400073049091740405969093740480937304AC
:10345000B7C51092880480918F04909190048927B9
:1034600080938604809390048091730490917404F7
:1034700005969093740480937304A2C510928804F7
:1034800080918E0490919004892780938604809384
:103490009004809173049091740405969093740441
:1034A000809373048DC51092880480918D0490914F
:1034B00090048927809386048093900480917304FC
:1034C000909174040596909374048093730478C566
:1034D0001092880480918C049091900489278093A5
:1034E00086048093900480917304909174040596EF
:1034F000909374048093730463C510928804809140
:103500008B04909190048927809386048093900483
:103510008091730490917404059690937404809341
:1035200073044EC51092880480918A04909190048F
:1035300089278093860480939004809173049091EE
:1035400074040596909374048093730439C51092A3
:103550008804C09190040E9421078C2780938604E0
:1035600080939004809173049091740408969093D2
:1035700074048093730424C510928804809190048D
:1035800080938604809173049091740405969093BF
:1035900074048093730414C51092880480918F047E
:1035A00090919004892B809386048093900480915D
:1035B000730490917404059690937404809373043B
:1035C000FFC41092880480918E0490919004892BFE
:1035D0008093860480939004809173049091740486
:1035E00005969093740480937304EAC4109288043F
:1035F00080918D0490919004892B80938604809310
:1036000090048091730490917404059690937404CF
:1036100080937304D5C41092880480918C04909197
:103620009004892B80938604809390048091730486
:103630009091740405969093740480937304C0C4AD
:103640001092880480918B0490919004892B809330
:10365000860480939004809173049091740405967D
:103660009093740480937304ABC410928804809187
:103670008A0490919004892B80938604809390040F
:1036800080917304909174040596909374048093D0
:10369000730496C410928804C09190040E9421077C
:1036A0008C2B809386048093900480917304909176
:1036B00074040896909374048093730481C41092E8
:1036C0008804809190040E944B0780938604809127
:1036D000730490917404059690937404809373041A
:1036E0006FC41092880480918F040E944B078093CE
:1036F00086048091730490917404059690937404E9
:10370000809373045DC41092880480918E040E949B
:103710004B078093860480917304909174040596FE
:1037200090937404809373044BC410928804809126
:103730008D040E944B0780938604809173049091BE
:1037400074040596909374048093730439C41092A2
:10375000880480918C040E944B078093860480919A
:103760007304909174040596909374048093730489
:1037700027C41092880480918B040E944B07809389
:103780008604809173049091740405969093740458
:103790008093730415C41092880480918A040E9457
:1037A0004B0780938604809173049091740405966E
:1037B000909374048093730403C4109288040E944D
:1037C00021070E944B078093860480917304909197
:1037D000740408969093740480937304F1C38091E9
:1037E0007304909174040596909374048093730409
:1037F000E7C380918F04809390048091730490912B
:10380000740405969093740480937304D9C38091D3
:103810008E048093900480917304909174040596B3
:103820009093740480937304CBC380918D04809330
:10383000900480917304909174040596909374049D
:1038400080937304BDC380918C0480939004809115
:103850007304909174040596909374048093730498
:10386000AFC380918B0480939004809173049091F6
:10387000740405969093740480937304A1C380919B
:103880008A04809390048091730490917404059647
:10389000909374048093730493C30E9421078093D0
:1038A000900480917304909174040896909374042A
:1038B0008093730485C38091900480938F048091DA
:1038C0007304909174040596909374048093730428
:1038D00077C3809173049091740405969093740457
:1038E000809373046DC380918E0480938F048091C4
:1038F00073049091740405969093740480937304F8
:103900005FC380918D0480938F04809173049091A4
:1039100074040596909374048093730451C380914A
:103920008C0480938F0480917304909174040596A5
:10393000909374048093730443C380918B048093A9
:103940008F0480917304909174040596909374048D
:103950008093730435C380918A0480938F0480918F
:103960007304909174040596909374048093730487
:1039700027C30E94210780938F0480917304909144
:1039800074040896909374048093730419C380910F
:10399000900480938E048091730490917404059632
:1039A00090937404809373040BC380918F0480936D
:1039B0008E0480917304909174040596909374041E
:1039C00080937304FDC280917304909174040596F2
:1039D0009093740480937304F3C280918D04809358
:1039E0008E048091730490917404059690937404EE
:1039F00080937304E5C280918C0480938E0480913F
:103A000073049091740405969093740480937304E6
:103A1000D7C280918B0480938E048091730490911F
:103A2000740405969093740480937304C9C28091C2
:103A30008A0480938E048091730490917404059697
:103A40009093740480937304BBC20E9421078093F7
:103A50008E0480917304909174040896909374047A
:103A600080937304ADC28091900480938D04809103
:103A70007304909174040596909374048093730476
:103A80009FC280918F0480938D04809173049091E4
:103A900074040596909374048093730491C280918A
:103AA0008E0480938D048091730490917404059624
:103AB000909374048093730483C2809173049091F3
:103AC00074040596909374048093730479C2809172
:103AD0008C0480938D0480917304909174040596F6
:103AE00090937404809373046BC280918B048093D1
:103AF0008D048091730490917404059690937404DE
:103B0000809373045DC280918A0480938D048091B8
:103B100073049091740405969093740480937304D5
:103B20004FC20E94210780938D048091730490916D
:103B300074040896909374048093730441C2809136
:103B4000900480938C048091730490917404059682
:103B5000909374048093730433C280918F04809394
:103B60008C0480917304909174040596909374046E
:103B70008093730425C280918E0480938C0480917D
:103B80007304909174040596909374048093730465
:103B900017C280918D0480938C048091730490915E
:103BA00074040596909374048093730409C2809101
:103BB0007304909174040596909374048093730435
:103BC000FFC180918B0480938C0480917304909149
:103BD000740405969093740480937304F1C18091EA
:103BE0008A0480938C0480917304909174040596E8
:103BF0009093740480937304E3C10E94210780931F
:103C00008C048091730490917404089690937404CA
:103C100080937304D5C18091900480938B0480912C
:103C200073049091740405969093740480937304C4
:103C3000C7C180918F0480938B048091730490910D
:103C4000740405969093740480937304B9C18091B1
:103C50008E0480938B048091730490917404059674
:103C60009093740480937304ABC180918D0480930E
:103C70008B0480917304909174040596909374045E
:103C8000809373049DC180918C0480938B048091F8
:103C90007304909174040596909374048093730454
:103CA0008FC180917304909174040596909374046D
:103CB0008093730485C180918A0480938B048091E2
:103CC0007304909174040596909374048093730424
:103CD00077C10E94210780938B0480917304909197
:103CE00074040896909374048093730469C180915E
:103CF000900480938A0480917304909174040596D3
:103D000090937404809373045BC180918F048093BB
:103D10008A048091730490917404059690937404BE
:103D2000809373044DC180918E0480938A048091A6
:103D300073049091740405969093740480937304B3
:103D40003FC180918D0480938A0480917304909187
:103D500074040596909374048093730431C1809128
:103D60008C0480938A048091730490917404059666
:103D7000909374048093730423C180918B04809387
:103D80008A0480917304909174040596909374044E
:103D90008093730415C18091730490917404059607
:103DA00090937404809373040BC10E942107809345
:103DB0008A0480917304909174040896909374041B
:103DC00080937304FDC080918B0490E0982F882726
:103DD00020918A04822B9F739093720480937104C4
:103DE0002091900420938504811538E1930720F4F5
:103DF000FC01EF56FB4F2083809173049091740473
:103E000007969093740480937304DAC080918B04B6
:103E100090E0982F882720918A04822B9F7390939B
:103E200072048093710420918F042093850481157E
:103E300068E1960720F4FC01EF56FB4F2083809148
:103E400073049091740407969093740480937304A0
:103E5000B7C080918B0490E0982F882720918A0426
:103E6000822B9F73909372048093710420918E042F
:103E700020938504811538E1930720F4FC01EF5667
:103E8000FB4F208380917304909174040796909364
:103E900074048093730494C080918B0490E0982FF5
:103EA000882720918A04822B9F73909372048093B9
:103EB000710420918D0420938504811568E1960793
:103EC00020F4FC01EF56FB4F208380917304909106
:103ED00074040796909374048093730471C0809166
:103EE0008B0490E0982F882720918A04822B9F735F
:103EF000909372048093710420918C042093850424
:103F0000811538E1930720F4FC01EF56FB4F208325
:103F10008091730490917404079690937404809335
:103F200073044EC020918B04822F90E0982F882735
:103F300030918A04832B9F73909372048093710451
:103F400020938504811568E1960720F4FC01EF5663
:103F5000FB4F208380917304909174040796909393
:103F60007404809373042CC020918A0430918B04D4
:103F7000822F90E0932B9F7390937204809371042F
:103F800020938504811538E1930720F4FC01EF5656
:103F9000FB4F208380917304909174040796909353
:103FA0007404809373040CC081E080938904809131
:103FB0007304909174040496909374048093730432
:103FC00080918904811108C08091730490917404D8
:103FD0008634904128F412C0109274041092730435
:103FE000809173049091740486549041909374046A
:103FF000809373040E94C2068CE301C080E0DF91CD
:10400000CF911F910F910895089562D0FDDF0E9416
:10401000C706C0E0D0E00E94C8062097E1F30E94E6
:104020000000F9CF1F920F920FB60F9211242F9319
:104030003F938F939F93AF93BF938091921C9091E6
:10404000931CA091941CB091951C3091911C23E07D
:10405000230F2D3720F40196A11DB11D05C026E8C0
:10406000230F0296A11DB11D2093911C8093921CD9
:104070009093931CA093941CB093951C8091961CD4
:104080009091971CA091981CB091991C0196A11D2C
:10409000B11D8093961C9093971CA093981CB0938D
:1040A000991CBF91AF919F918F913F912F910F904C
:1040B0000FBE0F901F9018952FB7F8946091921C27
:1040C0007091931C8091941C9091951C2FBF089522
:1040D000789484B5826084BD84B5816084BD85B5E3
:1040E000826085BD85B5816085BDEEE6F0E08081AA
:1040F00081608083E1E8F0E01082808182608083CB
:10410000808181608083E0E8F0E08081816080834D
:10411000E1EBF0E0808184608083E0EBF0E080817F
:1041200081608083E1E9F0E080818260808380812A
:1041300081608083E0E9F0E0808181608083E1EA52
:10414000F0E0808182608083808181608083E0EA0A
:10415000F0E0808181608083E1E2F1E08081826033
:104160008083808181608083E0E2F1E080818160F2
:104170008083EAE7F0E080818460808380818260D0
:1041800080838081816080838081806880831092B9
:10419000C10008952091A11C3091A21C90919A1CFD
:1041A000D901A05FBE4F8091A61C4091A71C84132B
:1041B00004C090939A1C80E008958F5F8D3208F0C0
:1041C00080E0E82FF0E0E855F34EE0818093A61CF4
:1041D000EE2379F3E03F11F49160E5CFE03E11F476
:1041E0009260E1CF90FF0EC0E23111F49B7F08C0D6
:1041F000E93511F4977F04C0E13111F491FD9F7E00
:104200009C7FD1CFE23111F49460CDCFE93511F428
:104210009860C9CFE13111F491FD906191FF08C020
:10422000EA54E43318F5F0E0EC5EFD4FE0811FC086
:1042300094FF09C08C91882331F0E838B8F4F0E09D
:10424000EF5EFE4F08C0892F8C7041F0E83870F4A3
:10425000F0E0E857FF4FE20FF31F06C0E83830F4F4
:10426000A9014E0F511DFA01E49101C0E0E09C7FCD
:10427000EE2309F498CF90939A1C8E2F0895CF9235
:10428000DF92EF92FF920F931F93CF93DF93809172
:10429000A51CF9D5EC0110DF00919D1C10919E1C0E
:1042A00020919F1C3091A01C6B017C01C01AD10A87
:1042B000E20AF30A970186010B3F1105210531053A
:1042C00020F010929C1C10929B1C60939D1C70937C
:1042D0009E1C80939F1C9093A01C90919C1C8FEF20
:1042E000890F883050F4DD2701C0CC0F8A95EAF79A
:1042F00080919B1C8C2B80939B1C81E0890F809369
:104300009C1C8B30B9F48091A71C8F5F8D3208F014
:1043100080E09091A61C891749F0E82FF0E0909179
:104320009B1CE855F34E90838093A71C10929C1C15
:1043300010929B1CDF91CF911F910F91FF90EF90F6
:10434000DF90CF9008958091A41C81110DC08091C1
:10435000A31C811109C01EDF982F8093A41C81E04B
:10436000911103C080E0089581E008958091A31C1D
:10437000882319F01092A31C17C08091A41C8823D5
:1043800019F01092A41C01C005DF87FF0BC0982F05
:104390009F7390689093A31C8295869586958370F1
:1043A000806C02C0882311F090E008958FEF9FEF9A
:1043B00008950895CF93DF93D82FC62F8093A51C1F
:1043C0005093A21C4093A11C62E08C2FEED462E0BB
:1043D0008D2FEBD4C250C43130F4EC2FF0E0E0501C
:1043E000FE4F808101C08FEF1092A71C1092A61C77
:1043F0008F3F39F042E050E06FE371E2DF91CF91FF
:1044000089C2DF91CF9108958091051D90E02091A0
:10441000061D821B910908952091061D8091051D9E
:10442000281750F4E22FF0E0E95FF24E808190E02F
:104430002F5F2093061D08958FEF9FEF0895E09161
:10444000061D8091051DE81730F4F0E0E95FF24E9B
:10445000808190E008958FEF9FEF08950895CF92A7
:10446000DF92EF92FF920F931F93CF93DF937C0124
:10447000CB018A012091E11C222389F0EB016B0121
:10448000C40ED51ECC15DD0561F06991D701ED9103
:10449000FC910190F081E02DC7011995F3CF642FB5
:1044A000E2D0C801DF91CF911F910F91FF90EF9063
:1044B000DF90CF900895CF93DF931F92CDB7DEB7F3
:1044C00069832091E11C2223D1F02091E21C20324B
:1044D00040F021E030E0FC013383228380E090E073
:1044E00014C08091E31CE82FF0E0EC51F34E998169
:1044F00090838F5F8093E31C8093E21C04C061E093
:10450000CE010196B0D081E090E00F90DF91CF9185
:104510000895FC011382128248EE53E060E070E0DF
:1045200044835583668377838CE492E09183808310
:1045300008951092061D1092051D1092E31C109212
:10454000E21C22C081E08093E11C6093041D109264
:10455000E31C1092E21C0895F5CF0F93062F21E083
:104560004091E21C64EE7CE18091041D29D0109200
:10457000E31C1092E21C1092E11C0F91089561E07F
:10458000ECCF85ED9CE1C5CF1092941D81E0809326
:10459000921D1092911D61E084E140D461E085E1BB
:1045A0003DD4E9EBF0E080818E7F808380818D7F38
:1045B000808388E48093B80085E48093BC000895EC
:1045C0000F93413208F046C09091941D9111FCCF99
:1045D00092E09093941D0093921D9FEF9093271D5E
:1045E00010926C1D40936B1DFB016DE67DE1DB01BC
:1045F0009A2F961B941718F491919D93F9CF1092CE
:10460000931D9091931D880F892B8093931D80910A
:10461000911D813041F41092911D8091931D8093E2
:10462000BB0085EC01C085EE8093BC00222321F005
:104630008091941D8230E1F38091271D8F3F61F0BE
:104640008091271D803251F08091271D803341F4E5
:1046500083E007C081E005C080E003C082E001C0C4
:1046600084E00F910895613298F42091941D2430D4
:1046700089F46093491DFC018BE49DE1DC012A2F44
:10468000281B261718F421912D93F9CF80E0089567
:1046900081E0089582E0089585ED8093BC008091CB
:1046A000BC0084FDFCCF1092941D089585EC80938E
:1046B000BC001092941D08951F920F920FB60F9296
:1046C00011240BB60F922F933F934F935F936F93E9
:1046D0007F938F939F93AF93BF93EF93FF938091BB
:1046E000B900887F803609F49CC068F5883209F4E7
:1046F0005BC090F4803109F454C038F4882309F485
:10470000F3C0883009F44DC0F2C0883109F44CC0C0
:10471000803209F45DC0EBC0803409F468C048F40D
:10472000803309F455C0883309F0E1C08093271D18
:10473000A7C0803509F44FC0883509F45DC08834BE
:1047400009F0D5C0D3C0883909F4C4C0A8F48837AB
:1047500009F467C038F4883609F463C0803709F477
:1047600060C0C5C0883809F4B5C0803909F45FC09D
:10477000803809F0BCC05BC0803B09F483C038F4CA
:10478000803A09F466C0883A09F47CC0B0C0803C25
:1047900009F4A4C0883C09F4A1C0883B09F487C08F
:1047A000A6C08091931D10C090916C1D80916B1DCF
:1047B000981770F5E0916C1D81E08E0F80936C1D51
:1047C000F0E0E359F24E80818093BB0085EC83C01A
:1047D0008093271D8BC0E0916C1D81E08E0F80932C
:1047E0006C1D8091BB00F0E0E359F24E8083909104
:1047F0006C1D80916B1D6BC0E0916C1D81E08E0F74
:1048000080936C1D8091BB00F0E0E359F24E8083F1
:104810008091921D81116AC081E08093911D84EA8C
:104820005EC083E08093941D1092281DCFCF8091AD
:10483000281D803208F04EC0E091281D81E08E0FC7
:104840008093281D8091BB00F0E0E75DF24E8083ED
:10485000BDCF8091281D803230F4E091281DF0E01A
:10486000E75DF24E108218DF6091281D70E0E09144
:104870008D1DF0918E1D89E29DE119951092281DE4
:1048800015DF35C084E08093941D10924A1D10926C
:10489000491DE0918F1DF091901D19958091491D42
:1048A000811105C081E08093491D10924B1DE0915C
:1048B0004A1D81E08E0F80934A1DF0E0E55BF24EC9
:1048C00080818093BB0090914A1D8091491D98176B
:1048D00008F47CCF85E88093BC0009C085EC809308
:1048E000BC001092941D03C01092271DD5DEFF91CD
:1048F000EF91BF91AF919F918F917F916F915F9158
:104900004F913F912F910F900BBE0F900FBE0F90C4
:104910001F901895883008F06CC0E82FF0E0EE0F7B
:10492000FF1FEB56F24E7183608390E0FC013197DC
:10493000E730F10588F5EE58FE4FEFC2809169002F
:104940008C7F842B80936900E89A08958091690098
:10495000440F551F440F551F837F842B809369009C
:10496000E99A08958091690074E0440F551F7A9583
:10497000E1F78F7C842B80936900EA9A08958091F7
:10498000690066E0440F551F6A95E1F78F73842B29
:1049900080936900EB9A089580916A008C7F842B44
:1049A00080936A00EC9A089580916A00440F551F25
:1049B000440F551F837F842B80936A00ED9A0895DE
:1049C00080916A0024E0440F551F2A95E1F78F7CFF
:1049D000842B80936A00EE9A089580916A0096E095
:1049E000440F551F9A95E1F78F73842B80936A00CB
:1049F000EF9A08951F920F920FB60F9211240BB6E3
:104A00000F922F933F934F935F936F937F938F9367
:104A10009F93AF93BF93EF93FF938091991D9091D4
:104A20009A1D892B29F0E091991DF0919A1D1995F5
:104A3000FF91EF91BF91AF919F918F917F916F9176
:104A40005F914F913F912F910F900BBE0F900FBE32
:104A50000F901F9018951F920F920FB60F9211246E
:104A60000BB60F922F933F934F935F936F937F9368
:104A70008F939F93AF93BF93EF93FF9380919B1D71
:104A800090919C1D892B29F0E0919B1DF0919C1D1C
:104A90001995FF91EF91BF91AF919F918F917F9168
:104AA0006F915F914F913F912F910F900BBE0F909F
:104AB0000FBE0F901F9018951F920F920FB60F9276
:104AC00011240BB60F922F933F934F935F936F93E5
:104AD0007F938F939F93AF93BF93EF93FF938091B7
:104AE0009D1D90919E1D892B29F0E0919D1DF091B7
:104AF0009E1D1995FF91EF91BF91AF919F918F915D
:104B00007F916F915F914F913F912F910F900BBECD
:104B10000F900FBE0F901F9018951F920F920FB617
:104B20000F9211240BB60F922F933F934F935F93E5
:104B30006F937F938F939F93AF93BF93EF93FF9365
:104B400080919F1D9091A01D892B29F0E0919F1DC0
:104B5000F091A01D1995FF91EF91BF91AF919F9199
:104B60008F917F916F915F914F913F912F910F9016
:104B70000BBE0F900FBE0F901F9018951F920F92B3
:104B80000FB60F9211240BB60F922F933F934F93B2
:104B90005F936F937F938F939F93AF93BF93EF93A5
:104BA000FF938091951D9091961D892B29F0E0919E
:104BB000951DF091961D1995FF91EF91BF91AF91C1
:104BC0009F918F917F916F915F914F913F912F9125
:104BD0000F900BBE0F900FBE0F901F9018951F9255
:104BE0000F920FB60F9211240BB60F922F933F9393
:104BF0004F935F936F937F938F939F93AF93BF93E5
:104C0000EF93FF938091971D9091981D892B29F028
:104C1000E091971DF091981D1995FF91EF91BF912B
:104C2000AF919F918F917F916F915F914F913F9144
:104C30002F910F900BBE0F900FBE0F901F901895E5
:104C40001F920F920FB60F9211240BB60F922F9353
:104C50003F934F935F936F937F938F939F93AF9304
:104C6000BF93EF93FF938091A11D9091A21D892B7B
:104C700029F0E091A11DF091A21D1995FF91EF91EE
:104C8000BF91AF919F918F917F916F915F914F9164
:104C90003F912F910F900BBE0F900FBE0F901F9062
:104CA00018951F920F920FB60F9211240BB60F9208
:104CB0002F933F934F935F936F937F938F939F9324
:104CC000AF93BF93EF93FF938091A31D9091A41D89
:104CD000892B29F0E091A31DF091A41D1995FF9156
:104CE000EF91BF91AF919F918F917F916F915F9164
:104CF0004F913F912F910F900BBE0F900FBE0F90D1
:104D00001F90189590E0FC013197E231F10508F011
:104D10004BC0E758FE4F01C1809180008F7703C0E0
:104D2000809180008F7D8093800008958091800025
:104D3000877FF9CF84B58F7702C084B58F7D84BD1E
:104D400008958091B0008F7703C08091B0008F7D6F
:104D50008093B0000895809190008F7707C0809174
:104D600090008F7D03C080919000877F809390009A
:104D700008958091A0008F7707C08091A0008F7D5B
:104D800003C08091A000877F8093A0000895809148
:104D900020018F7707C0809120018F7D03C0809113
:104DA0002001877F809320010895CF93DF9390E0C7
:104DB000FC01E25FF54F2491FC01EC5AF54F849120
:104DC000882349F190E0880F991FFC01E253F54FC9
:104DD000A591B4918C54954FFC01C591D4919FB786
:104DE000611108C0F8948C91209582238C9388815E
:104DF00082230AC0623051F4F8948C91322F30959E
:104E000083238C938881822B888304C0F8948C91AF
:104E1000822B8C939FBFDF91CF9108950F931F93A7
:104E2000CF93DF931F92CDB7DEB7282F30E0F90183
:104E3000E853F64F8491F901E25FF54F1491F901BF
:104E4000EC5AF54F04910023C1F0882319F06983CF
:104E500059DF6981E02FF0E0EE0FFF1FEC54F54FB2
:104E6000A591B4919FB7F8948C91611103C01095EE
:104E7000812301C0812B8C939FBF0F90DF91CF9135
:104E80001F910F910895CF93DF93282F30E0F90100
:104E9000E853F64F8491F901E25FF54FD491F9019F
:104EA000EC5AF54FC491CC2389F081112BDFEC2F04
:104EB000F0E0EE0FFF1FE656F54FA591B4912C914F
:104EC0002D2381E090E021F480E002C080E090E0BA
:104ED000DF91CF910895A1E21A2EAA1BBB1BFD0101
:104EE0000DC0AA1FBB1FEE1FFF1FA217B307E407C9
:104EF000F50720F0A21BB30BE40BF50B661F771F21
:104F0000881F991F1A9469F7609570958095909500
:104F10009B01AC01BD01CF010895EE0FFF1F05906D
:104F2000F491E02D19940790F691E02D1994F894DE
:024F3000FFCFB1
:104F32000001FFFFFFFFFFFFFFFFFFFFFFFFFFFF7C
:104F4200050403022F000000000000000000000022
:104F5200000000000D000000000000000000000042
:104F620000000000000800000000007F0A00150B8E
:104F7200000000001A000019000000005B222F222E
:084F820004220C221F222E2242
:00000001FF
