:100000002EC600000C9455220C94822250C600008B
:100010004EC600004CC600004AC600000C94EF1EFD
:1000200046C6000044C6000042C6000040C60000AC
:100030003EC600003CC600003AC6000038C60000BC
:100040000C94581F34C6000032C6000030C60000B1
:100050002EC600002CC600002AC6000028C60000DC
:1000600026C6000024C60000610B6C0B810B910BAF
:10007000A10BB10BB80BD80BE70B721C721C721CD6
:10008000721C721C721C721C721C721C721C721C00
:10009000721C721C721C721C721CF20B721C721C81
:1000A000020C120C260C380C721C721C721C721C76
:1000B000721C721C721C721C721C721C721C721CD0
:1000C000721C721C721C721C550C710C8D0CA90CCC
:1000D000C50CE00CFB0C160D721C721C721C721C01
:1000E000310D3C0D5B0D7A0D990D721C721C721C4A
:1000F000721C721C721C721C721C721C721C721C90
:10010000721C721C721C721CA80D721C721C721C58
:10011000721C721C721C721CBA0D721C721C721C36
:10012000721C721C721C721CCC0D721C721C721C14
:10013000721C721C721C721CDE0D721C721C721CF2
:10014000721C721C721C721CEE0D721C721C721CD2
:10015000721C721C721C721CFE0D721C721C721CB2
:10016000721C721C721C721C721C721C721C721C1F
:10017000721C721C721C721C721C721C721C721C0F
:10018000721C721C721C0F0E4F0E6E0E8D0EAC0E7A
:10019000CB0EEE0E110F340F570F7A0F9D0FC00FBD
:1001A000E30F061029104C10721C721C721C721C7A
:1001B000721C721C721C721C6F109310B710DB1033
:1001C000721C721C721C721C721C721C721C721CBF
:1001D000721C721C721C721CFF10231147116B11D0
:1001E000721C721C721C721C8F11B711DF11071266
:1001F0002F123E127512AC12E4120F133A1365134C
:10020000721C9013C8130014381464148F14BA1499
:10021000E514F61430156A15A415CF15FA15251630
:10022000501661169B16D5160F173A1765179017BB
:10023000BB17CC17061840187A18A018C618EC1867
:100240001219221957198C19C119E7190D1A331AE5
:10025000591A691A9E1AD31A081B331B5E1B891B75
:10026000B41BC51BFF1B391C0806DC04078FFFD419
:10027000F807C40031C41C35C400CD0135E4109C1E
:10028000F6C40835C410C901C400C900C400C902BD
:1002900090126FFB9AF4E7F3E7F9EDC9CFF9CFFBC2
:1002A00027C91084C400C908C40C36C45D32C40513
:1002B000C909C401C903C10102F108C90733C1005A
:1002C000F400C90637C1039808C300C907C400C9B0
:1002D00006C103E403C904C405C905C10702F10747
:1002E000D40F02F4AB01C080330103FC0701C080CE
:1002F00037371F3733CE011F33371F3733CE011F38
:1003000033371F3733CE1E1F33B9059CE4C69CC656
:10031000C0C403C905C1061FC906C1071FC9071FFD
:10032000B9059CF1B90494AFC6FEB9039488C66EB2
:10033000C672A908B9099803C44930C40032C41C64
:1003400036C400CE01CE1F36E4109CF432C40C3605
:10035000C102980B01C660C6600103FC0190F3C6A0
:1003600060C401CA00CA20CA21CA4006D4309CFB1E
:1003700032C40C36C2009CF306D4109C0290F9A93A
:1003800002E4059CB6C90202C101F404C901C1001E
:10039000F400C900C43B32C400363E90FEFFFFFFAC
:1003A000FFFFFFFFFFFFFFFFFFFFFFFFFFFFFFFF5D
:1003B000FFFFFFFFFFFFFFFFFFFFFFFFFFFFFFFF4D
:1003C000FFFFFFFFFFFFFFFFFFFFFFFFFFFFFFFF3D
:1003D000FFFFFFFFFFFFFFFFFFFFFFFFFFFFFFFF2D
:100A6000FFFFFFFFFFFFFFFF020000000800020181
:100A70000000030407000000000000000001020461
:100A80000810204080010204081020010204081010
:100A90002004040404040404040202020202020307
:100AA00003030303030000000023002600290000C5
:100AB000000000250028002B000000000024002773
:100AC000002A0000000000000000000000000000FC
:100AD000096000000000000071310000007A7361BD
:100AE00077320000637864653433000020766674E2
:100AF000723500006E62686779360000006D6A75B5
:100B0000373800002C6B696F303900002E2F6C3B9A
:100B1000702D00000027005B3D000000000D5D000F
:100B20005C00000000000000007F0000310034374E
:100B3000000000302E323536381B00002B332D2AB2
:100B4000390000000000000000000000000000006C
:100B50000000000000000000097E0000000000000E
:100B600051210000005A534157400000435844456A
:100B70002423000020564654522500004E42484788
:100B8000595E0000004D4A55262A00003C4B494F53
:100B9000292800003E3F4C3A505F00000022007BB5
:100BA0002B000000000D7D007C0000000000000014
:100BB000007F000031003437000000302E3235361F
:100BC000381B00002B332D2A3900000000000000E4
:100BD0000000000000000000000000000000000015
:100BE0000000000000000000000000000000000005
:100BF00000000000000000000000000000000000F5
:100C000000000000000000000000000000000000E4
:100C100000000000000000000000000000000000D4
:100C200000000000000000000000000000000000C4
:100C300000000000000000000000000000000000B4
:100C400000000000000000000000000000000000A4
:100C5000000000000000000000000000D706112482
:100C60001FBECFEFD8E0DEBFCDBF11E0A0E0B1E006
:100C7000ECE1F6E402C005900D92A036B107D9F779
:100C800026E0A0E6B1E001C01D92A738B207E1F767
:100C90001CE0CEE5DCE004C02297FE010E94EF22BA
:100CA000CC35D107C9F70E944B1F0C940C23A8C95F
:100CB0001F93CF93DF93182FC82FD0E040910001EE
:100CC00050910101C417D507E1F09E0184E03595EC
:100CD00027958A95E1F740E165E081E691E0C7D28A
:100CE000212F2F7040E166E081E691E0C0D2212FF4
:100CF00048E264E081E691E01DD3D0930101C09306
:100D00000001DF91CF911F91089561E08EE00E9474
:100D1000652061E08EE00E949E2081E691E0B8D1DE
:100D200043EC5AE063E082E00E940C2280E0C0CFF6
:100D3000242F462F682F81E691E0EAC18091FB01C4
:100D4000089580E0089580E00895009719F48CE0FC
:100D50000C94DC1E20E030E0A901BC018CE00C9476
:100D6000B81C81E691E021D21092FE011092FD01A3
:100D70000E94D521882331F00E94E8219093FE0142
:100D80008093FD018091FD019091FE01009731F06B
:100D900080689093FC018093FB0104C01092FC01D9
:100DA0001092FB011092FE011092FD01089520E0C7
:100DB0004FE060E181E691E007D080E691E00C949D
:100DC0000B2281E090E00895FC011382128287E1FA
:100DD00091E091838083268367834087EFEFF1E082
:100DE00080E023E080FD02C0108201C0208381FFEB
:100DF00003C090819C60908382FF03C090819063C8
:100E0000908383FF03C09081906C90838F5F3196B5
:100E1000803141F70895CF93DF93FC01478150E083
:100E2000FA01EF56F54FE491F0E0EE0FFF1FE155A8
:100E3000F54FA591B491FC01208530E0F901EF5602
:100E4000F54F849190E0880F991F8155954FFC01D3
:100E5000C591D491FA01E358F54F4491F901E35853
:100E6000F54F24913FB7F89488E0722F7095542F76
:100E70005095988167FF02C0922B01C097239883F9
:100E80009C91942B9C939C9195239C93660F8150ED
:100E900081F73FBFDF91CF9108951F93CF93DF93E9
:100EA000EC01142F8E81882389F06EBD0DB407FEEE
:100EB000FDCF812F807F8EBD0DB407FEFDCF129533
:100EC000107F1EBD0DB407FEFDCF0EC0CE01A3DF07
:100ED000612F607FCE019FDF612F6295607FCE0121
:100EE000DF91CF911F9197CFDF91CF911F910895FF
:100EF000462F68EFD2CF462F6AEFCFCFCF93DF9345
:100F0000EC018D81882369F08C81882311F062E2E5
:100F100001C060E2CE01ECDF80E390E00E94F61FAA
:100F20001D82DF91CF910895CF93DF93EC018D81E6
:100F300081110EC08C81882311F066E201C064E249
:100F4000CE01D6DF80E390E00E94F61F81E08D8322
:100F5000DF91CF910895AF92BF92CF92DF92EF923F
:100F6000FF920F931F93CF93DF931F92CDB7DEB7FE
:100F70005C01E62EF42E2983D7DF2981E22FF0E0F1
:100F8000A4E0F595E795AA95E1F7E150FE4FD080F2
:100F90002F70E22FF0E0E150FE4FC0800F2D10E0E7
:100FA0000F5F1F4F8E2D8068E82E8F2D90E0081761
:100FB000190704F16F2D6F716068C50199DF8F2DDE
:100FC000807290E095958795959587956E2D682B05
:100FD000C5018EDF80E390E00E94F61F6D2DC501F4
:100FE0008ADF6C2DC50187DF8AE090E00E94F61F42
:100FF000F394DBCF0F90DF91CF911F910F91FF9072
:10100000EF90DF90CF90BF90AF9008950F931F9314
:10101000CF93DF93EC018C81882359F100E010E03D
:1010200020E0412F602FCE0196DF1F5F1034C1F703
:101030000F5F0830A1F780E090E0FE01E80FF91F94
:101040001186019680389105C1F780E090E0FE019D
:10105000E80FF91FE757FF4F108201968031910585
:10106000B1F7C756DF4F1882DF91CF911F910F91D3
:101070000895CE0143DF61E0CE013ADF63E070E026
:1010800080E090E0DF91CF911F910F910C94D11FE0
:10109000CF93DF93EC0160E08F810E949E2060E09F
:1010A00088850E949E2061E08F810E94652061E01A
:1010B00088850E9465208E81882311F081E58CBD92
:1010C0001C8260E2CE0114DF61E070E080E090E01D
:1010D0000E94D11F60E2CE010BDF80E390E00E940E
:1010E000F61F66E0CE0104DF80E390E00E94F61F69
:1010F0001D82CE018BDF81E08C83CE0187DF6CE027
:10110000CE01F6DE80E390E0DF91CF910C94F61FE4
:10111000362F342B307ED1F5362F369536953695D1
:1011200050E2359F400D11246770E0E8F0E002C006
:10113000F595E7956A95E2F73E2FDC01A40FB11D06
:10114000E09519965C911997E523E317F9F02111C1
:1011500001C030E0E32B1996EC93242F26952695B9
:101160002695FC01E20FF11DE757FF4F477020E87D
:1011700030E002C0359527954A95E2F73081322B51
:101180003083FC01E756FF4F2FEF208308956695CB
:1011900066956695242F30E2639F200D1124FC0193
:1011A000E20FF11D440F2185D6CE6F927F928F9270
:1011B0009F92AF92BF92CF92DF92EF92FF920F93E6
:1011C0001F93CF93DF931F92CDB7DEB76C015C0105
:1011D00029E9A20EB11CF50180818823C1F17601B5
:1011E00050E0B0E88B2E912C870107571F4FF80174
:1011F0008081882321F1612C712CC401062C02C04E
:10120000959587950A94E2F7F801208130E08223D2
:101210009323892B59F0662D650F462F4F716695E4
:1012200066956873C6015983B2DF5981FFEF6F1A63
:101230007F0A28E06216710401F7F8011082FFEFBF
:10124000EF1AFF0A585F503879F6F50110820F90B7
:10125000DF91CF911F910F91FF90EF90DF90CF9092
:10126000BF90AF909F908F907F906F900895CF9296
:10127000DF92EF92FF920F931F93CF93DF93EC01D6
:10128000062FF42E2F70E22FF0E0ED5FFE4F10815D
:1012900010FF02C02FE701C020E04F2D602FCE01CC
:1012A0005ADE22E0E22EEF0C11FBCC24C0F815FF31
:1012B00002C080E401C080E0C82A98E0D92EDF0C8B
:1012C0002C2D4E2D602FCE0146DEE394E394ED10DD
:1012D000F7CF16FF02C02FE701C020E04D2D602F91
:1012E000CE0139DE8AE0E82EEF0C12FBDD24D0F8C7
:1012F00014FF02C080E401C080E0D82A80E1F80E2B
:101300002D2D4E2D602FCE0126DEE394E394EF10B9
:10131000F7CF13FF02C02FE701C020E04F2D602F51
:10132000CE01DF91CF911F910F91FF90EF90DF9051
:10133000CF9011CE8F929F92AF92BF92CF92DF92B9
:10134000EF92FF920F931F93CF93DF931F92CDB72E
:10135000DEB74C01162F342FF22E44E0A42EA60E39
:1013600052E0B52EB30E64E0C62EC30E76E0D72E43
:10137000D30EE8E0EE2EE30EF7FC02C000E001C061
:1013800000E7F6FC0760202F432F612FC40139834B
:10139000E2DD202F4B2D612FC401DDDD202F4C2DF0
:1013A000612FC401D8DD202F4D2D612FC401D3DD65
:1013B00027E74E2D612FC401CEDDFF0CFF0C1F5F10
:1013C00039811A11D9CF0F90DF91CF911F910F91D1
:1013D000FF90EF90DF90CF90BF90AF909F908F9055
:1013E0000895FCC0CF92DF92EF92FF92CF93DF93EC
:1013F00000D000D0CDB7DEB710D1282F30E040E0CC
:1014000050E0211531054105510549F129833A8301
:101410004B835C830E94A21FC0900F02D0901002E9
:10142000E0901102F090120229813A814B815C8197
:101430006C157D058E059F0548F368EE73E080E02E
:1014400090E00E94AF222C0D3D1D4E1D5F1D20938C
:101450000F023093100240931102509312020F902A
:101460000F900F900F90DF91CF91FF90EF90DF9052
:10147000CF9008956091290670911A06E091270691
:10148000462F50E0CA01870F911DE7FD019690930A
:101490001406809313069C012227317036952795F8
:1014A0003E2F3F73322B672767FD04C0482759271B
:1014B00047FD3064309327068093290608954091B4
:1014C000290680911A0630912706982F9F70242FA5
:1014D0002F70920F21E0383008F420E0290F20937C
:1014E0001706407F807F90E0840F911D9093140633
:1014F000809313063F77309327062A3040F02A5016
:1015000020931706409690931406809313068091BB
:101510001306909114068139910548F0805A91097B
:1015200090931406809313063068309327068091B9
:10153000130690911706892B8093290608958FEF43
:1015400080931A06E0911506F0911606CF01892FB7
:10155000992786958695837099278230910549F061
:10156000039761F0F770E859FD4FE491E0931A0694
:101570000895F370ED5EFD4F808105C0E0FF02C06D
:10158000DDDB01C0DEDB80931A060895809115062D
:10159000909116069C01232F3327269526952370BC
:1015A00033272230310531F02330310559F0809155
:1015B0001A067ECBFC01F370ED5EFD4F20911A06FA
:1015C0002083089540911A064170BC01B5E07695DC
:1015D0006795BA95E1F76F718F71AACB10922706C4
:1015E00010922806109229061092200610921F06CB
:1015F00010922206109221061092240610922306C1
:10160000109226061092250610921E0610921D06B4
:1016100010921C0610921B0678CB0F931F93CF934A
:10162000DF9380911B0690911C060097E1F08938AA
:1016300023E1920740F08858934190931C068093D1
:101640001B060C94861C880F991F20911D06309153
:101650001E06280F391F30931E0620931D06109278
:101660001C0610921B068091250690912606019675
:101670009093260680932506909316068093150670
:101680005EDF80911A068093190687FF12C0809151
:1016900025069091260601969093260680932506AE
:1016A00090931606809315064ADF80911A06809360
:1016B00018068091190690E0FC01EC5CFF4F0C9439
:1016C000ED2280911D0690911E06089690931E06AD
:1016D00080931D060C94721C8091280680931A0634
:1016E00090912906909328068093290680911D06E3
:1016F00090911E06079690931E0680931D060C94EB
:10170000721C809127068F778093270680911D0693
:1017100090911E06059690931E0680931D060C94CC
:10172000721C8091270680688093270680911D0691
:1017300090911E06059690931E0680931D060C94AC
:10174000721C80912706877F8093270680911D0653
:1017500090911E06069690931E0680931D060C948B
:10176000721C809127068860809327060C94721C57
:10177000C0912706CF7C80E0E6DA882311F080E173
:1017800001C080E0C82B81E0DEDA882311F080E21E
:1017900001C080E08C2B8093290680911D069091DA
:1017A0001E06059690931E0680931D060C94721CCF
:1017B000E0912906E0932706E770F0E0EE0FFF1FA7
:1017C000E55EFE4F80819181C0DA0C94721C80919D
:1017D0001D0690911E06059690931E0680931D0689
:1017E0000C94721C8091280686958093280680911F
:1017F0001D0690911E06059690931E0680931D0669
:101800000C94721C809129068695809329068091FC
:101810001D0690911E06059690931E0680931D0648
:101820000C94721C809127068078909129069695D9
:10183000892B8093290680911D0690911E0605969E
:1018400090931E0680931D060C94721C80912906AD
:1018500080FB879587F98093290680911D069091DA
:101860001E06059690931E0680931D060C94721C0E
:1018700030912906932F9170909318062091270696
:10188000822F80783695832B8093290690FB27F949
:101890002093270680911D0690911E060596909331
:1018A0001E0680931D060C94721C80912506909153
:1018B000260680931A06409129069C012227242B94
:1018C00030932606209325068093290680911D06D5
:1018D00090911E06089690931E0680931D060C9408
:1018E000721C809123069091240680931A064091E1
:1018F00029069C012227242B3093240620932306BB
:101900008093290680911D0690911E06089690935B
:101910001E0680931D060C94721C809121069091E6
:10192000220680931A06409129069C012227242B27
:1019300030932206209321068093290680911D066C
:1019400090911E06089690931E0680931D060C9497
:10195000721C80911F069091200680931A06409178
:1019600029069C012227242B3093200620931F0652
:101970008093290680911D0690911E0608969093EB
:101980001E0680931D060C94721C809125062091E2
:10199000260620931A063091290690E0932B909307
:1019A0002606809325062093290680911D06909196
:1019B0001E06089690931E0680931D060C94721CBA
:1019C000809123062091240620931A06309129063F
:1019D00090E0932B9093240680932306209329066E
:1019E00080911D0690911E06089690931E06809386
:1019F0001D060C94721C80912106209122062093D2
:101A00001A063091290690E0932B9093220680933A
:101A100021062093290680911D0690911E060896A6
:101A200090931E0680931D060C94721C80911F06D5
:101A30002091200620931A063091290690E0932BDE
:101A40009093200680931F062093290680911D06FF
:101A500090911E06089690931E0680931D060C9486
:101A6000721C80911D0690911E06079690931E068B
:101A700080931D060C94721C80912306909124067D
:101A80009093140680931306209125063091260624
:101A900030932406209323069093260680932506F0
:101AA00080911D0690911E06079690931E068093C6
:101AB0001D060C94721C8091210690912206909331
:101AC0001406809313062091250630912606309344
:101AD0002206209321069093260680932506809166
:101AE0001D0690911E06079690931E0680931D0674
:101AF0000C94721C80911F069091200690931406FE
:101B000080931306209125063091260630932006F7
:101B100020931F06909326068093250680911D062C
:101B200090911E06079690931E0680931D060C94B6
:101B3000721C809128068093290680911D06909141
:101B40001E06069690931E0680931D060C94721C2A
:101B500080912906909128068923809329068091F7
:101B60001D0690911E06069690931E0680931D06F4
:101B70000C94721C8091290690912806892B8093E1
:101B8000290680911D0690911E06069690931E06CA
:101B900080931D060C94721C809129069091280652
:101BA00089278093290680911D0690911E0606962E
:101BB00090931E0680931D060C94721C809128063B
:101BC00080931A067CDC80911D0690911E060B9670
:101BD00090931E0680931D060C94721C809128061B
:101BE00080931A0647DC80911D0690911E06079689
:101BF00090931E0680931D060C94721C80912806FB
:101C0000809580931A0636DC80911D0690911E0601
:101C1000089690931E0680931D060C94721CC0912A
:101C20001806D0E0DC2FCC2700911D0610911E066F
:101C300060E177E280E090E0601B710B810991091F
:101C400022E030E040E050E00E94D122C217D307EA
:101C500068F4CC0FDD1FC00FD11FD0931E06C093B8
:101C60001D0610921C0610921B060CC0C21BD30B43
:101C7000D0931C06C0931B0680E197E290931E064A
:101C800080931D061092290680911D0690911E06D4
:101C90000D9690931E0680931D060C94721C209145
:101CA00025063091260640911806842F90E047FDC6
:101CB0009F6F820F931F9093160680931506909343
:101CC00026068093250680911D0690911E060B9690
:101CD00090931E0680931D060C94721C209123067F
:101CE0003091240640911806842F90E047FD9F6FA5
:101CF000820F931F909316068093150690932606E5
:101D00008093250680911D0690911E060B96909358
:101D10001E0680931D060C94721C209121063091A2
:101D2000220640911806842F90E047FD9F6F820F96
:101D3000931F909316068093150690932606809322
:101D4000250680911D0690911E060B9690931E0607
:101D500080931D060C94721C20911F063091200662
:101D600040911806842F90E047FD9F6F820F931FCC
:101D70009093160680931506909326068093250669
:101D800080911D0690911E060B9690931E068093DF
:101D90001D060C94721C2091250630912606409158
:101DA0001806842F90E047FD9F6F820F931F90933A
:101DB0001606809315062091290627FD04C09093EE
:101DC00026068093250680911D0690911E060A9690
:101DD00090931E0680931D060C94721C209123067E
:101DE0003091240640911806842F90E047FD9F6FA4
:101DF000820F931F90931606809315062091290653
:101E000027FD04C0909326068093250680911D0629
:101E100090911E060A9690931E0680931D060C94C0
:101E2000721C209121063091220640911806842FC1
:101E300090E047FD9F6F820F931F9093160680934B
:101E400015062091290627FD04C09093260680934D
:101E5000250680911D0690911E060A9690931E06F7
:101E600080931D060C94721C20911F063091200651
:101E700040911806842F90E047FD9F6F820F931FBB
:101E800090931606809315062091290627FD04C01D
:101E9000909326068093250680911D0690911E063C
:101EA0000A9690931E0680931D060C94721C209136
:101EB00025063091260640911806842F90E047FDB4
:101EC0009F6F820F931F90931606809315062091A3
:101ED0002906211104C0909326068093250680913F
:101EE0001D0690911E060A9690931E0680931D066D
:101EF0000C94721C20912306309124064091180600
:101F0000842F90E047FD9F6F820F931F90931606DA
:101F10008093150620912906211104C0909326066E
:101F20008093250680911D0690911E060A96909337
:101F30001E0680931D060C94721C20912106309180
:101F4000220640911806842F90E047FD9F6F820F74
:101F5000931F909316068093150620912906211150
:101F600004C0909326068093250680911D069091CB
:101F70001E060A9690931E0680931D060C94721CF2
:101F800020911F063091200640911806842F90E082
:101F900047FD9F6F820F931F90931606809315063F
:101FA00020912906211104C09093260680932506CE
:101FB00080911D0690911E060A9690931E068093AE
:101FC0001D060C94721C2091250630912606409126
:101FD0001806842F90E047FD9F6F820F931F909308
:101FE00016068093150620912906222321F090934E
:101FF00026068093250680911D0690911E060A965E
:1020000090931E0680931D060C94721C209123064B
:102010003091240640911806842F90E047FD9F6F71
:10202000820F931F90931606809315062091290620
:10203000222321F0909326068093250680911D0689
:1020400090911E060A9690931E0680931D060C948E
:10205000721C209121063091220640911806842F8F
:1020600090E047FD9F6F820F931F90931606809319
:10207000150620912906222321F0909326068093AD
:10208000250680911D0690911E060A9690931E06C5
:1020900080931D060C94721C20911F06309120061F
:1020A00040911806842F90E047FD9F6F820F931F89
:1020B000909316068093150620912906222321F07D
:1020C000909326068093250680911D0690911E060A
:1020D0000A9690931E0680931D060C94721C209104
:1020E00025063091260640911806842F90E047FD82
:1020F0009F6F820F931F90931606809315061FDA29
:1021000080911A068F5F80931A06809329063EDA23
:1021100080911D0690911E06469690931E06809310
:102120001D060C94721C20912306309124064091C8
:102130001806842F90E047FD9F6F820F931F9093A6
:10214000160680931506FBD980911A068F5F80933F
:102150001A06809329061ADA80911D0690911E06B0
:10216000469690931E0680931D060C94721C209137
:1021700021063091220640911806842F90E047FDF9
:102180009F6F820F931F9093160680931506D7D9E1
:1021900080911A068F5F80931A0680932906F6D9DC
:1021A00080911D0690911E06469690931E06809380
:1021B0001D060C94721C20911F0630912006409140
:1021C0001806842F90E047FD9F6F820F931F909316
:1021D000160680931506B3D980911A068F5F8093F7
:1021E0001A0680932906D2D980911D0690911E0669
:1021F000469690931E0680931D060C94721C2091A7
:1022000025063091260640911806842F90E047FD60
:102210009F6F820F931F90931606809315068FD998
:1022200080911A06815080931A0680932906AED9B0
:1022300080911D0690911E06469690931E068093EF
:102240001D060C94721C20912306309124064091A7
:102250001806842F90E047FD9F6F820F931F909385
:102260001606809315066BD980911A0681508093CB
:102270001A06809329068AD980911D0690911E0620
:10228000469690931E0680931D060C94721C209116
:1022900021063091220640911806842F90E047FDD8
:1022A0009F6F820F931F909316068093150647D950
:1022B00080911A06815080931A068093290666D968
:1022C00080911D0690911E06469690931E0680935F
:1022D0001D060C94721C20911F063091200640911F
:1022E0001806842F90E047FD9F6F820F931F9093F5
:1022F00016068093150623D980911A068150809383
:102300001A068093290642D980911D0690911E06D7
:10231000469690931E0680931D060C94721C809125
:102320001806803821F480912806809318062091A1
:1023300025063091260640911806842F90E047FD2F
:102340009F6F820F931F9093160680931506F7D800
:1023500080911A068093290680911D0690911E0691
:10236000429690931E0680931D060C94721C8091D9
:102370001806803821F48091280680931806209151
:1023800023063091240640911806842F90E047FDE3
:102390009F6F820F931F9093160680931506CFD8D8
:1023A00080911A068093290680911D0690911E0641
:1023B000429690931E0680931D060C94721C809189
:1023C0001806803821F48091280680931806209101
:1023D00021063091220640911806842F90E047FD97
:1023E0009F6F820F931F9093160680931506A7D8B0
:1023F00080911A068093290680911D0690911E06F1
:10240000429690931E0680931D060C94721C809138
:102410001806803821F480912806809318062091B0
:102420001F063091200640911806842F90E047FD4A
:102430009F6F820F931F90931606809315067FD887
:1024400080911A068093290680911D0690911E06A0
:10245000429690931E0680931D060C94721C8091E8
:1024600018068093290680911D0690911E060A96F3
:1024700090931E0680931D060C94721C8091180682
:10248000803821F480912806809318062091180640
:1024900027FF0BC080912306909124069A95820F06
:1024A000911D90932406809323068091230690919A
:1024B0002406909316068093150627FD06C0820F0A
:1024C000911D909324068093230639D880911A0693
:1024D0008093290680911D0690911E064296909346
:1024E0001E0680931D060C94721C8091180680387D
:1024F00021F480912806809318062091180627FF62
:102500000BC080912106909122069A95820F911D11
:1025100090932206809321068091210690912206B5
:10252000909316068093150627FD06C0820F911D15
:10253000909322068093210602D880911A068093F8
:10254000290680911D0690911E06429690931E06C4
:1025500080931D060C94721C80911806803821F41B
:1025600080912806809318062091180627FF0BC03B
:1025700080911F06909120069A95820F911D90934D
:10258000200680931F0680911F069091200690934D
:1025900016068093150627FD06C0820F911D9093A5
:1025A000200680931F060E949F0A80911A0680933E
:1025B000290680911D0690911E06429690931E0654
:1025C00080931D060C94721C80911806803821F4AB
:1025D00080912806809318062091250630912606C2
:1025E00040911806842F90E047FD9F6F820F931F44
:1025F00090931606809315060E949F0A80912906E3
:1026000080931A060E94C60A80911D0690911E06AC
:10261000429690931E0680931D060C94721C809126
:102620001806803821F4809128068093180620919E
:1026300023063091240640911806842F90E047FD30
:102640009F6F820F931F90931606809315060E942A
:102650009F0A8091290680931A060E94C60A8091DB
:102660001D0690911E06429690931E0680931D06AD
:102670000C94721C80911806803821F480912806F1
:102680008093180620912106309122064091180669
:10269000842F90E047FD9F6F820F931F9093160643
:1026A000809315060E949F0A8091290680931A063E
:1026B0000E94C60A80911D0690911E064296909334
:1026C0001E0680931D060C94721C8091180680389B
:1026D00021F4809128068093180620911F063091DE
:1026E000200640911806842F90E047FD9F6F820FCF
:1026F000931F90931606809315060E949F0A80915F
:10270000290680931A060E94C60A80911D069091A0
:102710001E06429690931E0680931D060C94721C12
:1027200080911806803821F480912806809318063D
:102730002091180627FF0BC0809123069091240654
:102740009A95820F911D9093240680932306809181
:10275000230690912406909316068093150627FD74
:1027600006C0820F911D90932406809323068091CA
:10277000290680931A060E94C60A80911D06909130
:102780001E06429690931E0680931D060C94721CA2
:1027900080911806803821F48091280680931806CD
:1027A0002091180627FF0BC08091210690912206E8
:1027B0009A95820F911D9093220680932106809115
:1027C000210690912206909316068093150627FD08
:1027D00006C0820F911D909322068093210680915E
:1027E000290680931A060E94C60A80911D069091C0
:1027F0001E06429690931E0680931D060C94721C32
:1028000080911806803821F480912806809318065C
:102810002091180627FF0BC080911F06909120067B
:102820009A95820F911D9093200680931F068091A8
:102830001F0690912006909316068093150627FD9B
:1028400006C0820F911D9093200680931F068091F1
:10285000290680931A060E94C60A80911D0690914F
:102860001E06429690931E0680931D060C94721CC1
:1028700080911806803821F48091280680931806EC
:10288000209125063091260640911806842F90E06D
:1028900047FD9F6F820F931F909316068093150636
:1028A0000E949F0A8091290690911A06892380939D
:1028B000290680911D0690911E06429690931E0651
:1028C00080931D060C94721C80911806803821F4A8
:1028D00080912806809318062091230630912406C3
:1028E00040911806842F90E047FD9F6F820F931F41
:1028F00090931606809315060E949F0A80912906E0
:1029000090911A0689238093290680911D06909143
:102910001E06429690931E0680931D06E3C7809183
:102920001806803821F4809128068093180620919B
:1029300021063091220640911806842F90E047FD31
:102940009F6F820F931F90931606809315060E9427
:102950009F0A8091290690911A068923809329065F
:1029600080911D0690911E06429690931E068093BC
:102970001D06B8C780911806803821F4809128067A
:102980008093180620911F0630912006409118066A
:10299000842F90E047FD9F6F820F931F9093160640
:1029A000809315060E949F0A8091290690911A062D
:1029B00089238093290680911D0690911E064296D8
:1029C00090931E0680931D068DC7809129069091D5
:1029D000180689238093290680911D0690911E0672
:1029E0000A9690931E0680931D067CC78091180658
:1029F000803821F4809128068093180620911806CB
:102A000027FF0BC080912306909124069A95820F90
:102A1000911D909324068093230680912306909124
:102A20002406909316068093150627FD06C0820F94
:102A3000911D90932406809323060E949F0A809103
:102A4000290690911A0689238093290680911D06F4
:102A500090911E06429690931E0680931D0642C7D3
:102A600080911806803821F48091280680931806FA
:102A70002091180627FF0BC0809121069091220615
:102A80009A95820F911D9093220680932106809142
:102A9000210690912206909316068093150627FD35
:102AA00006C0820F911D90932206809321060E94FA
:102AB0009F0A8091290690911A06892380932906FE
:102AC00080911D0690911E06429690931E0680935B
:102AD0001D0608C780911806803821F480912806C9
:102AE000809318062091180627FF0BC080911F06BF
:102AF000909120069A95820F911D909320068093C5
:102B00001F0680911F0690912006909316068093D1
:102B1000150627FD06C0820F911D90932006809315
:102B20001F060E949F0A8091290690911A06892308
:102B30008093290680911D0690911E0642969093DF
:102B40001E0680931D06CEC680911806803821F49B
:102B5000809128068093180620912506309126063C
:102B600040911806842F90E047FD9F6F820F931FBE
:102B700090931606809315060E949F0A809129065D
:102B800090911A06892B8093290680911D069091B9
:102B90001E06429690931E0680931D06A3C6809142
:102BA0001806803821F48091280680931806209119
:102BB00023063091240640911806842F90E047FDAB
:102BC0009F6F820F931F90931606809315060E94A5
:102BD0009F0A8091290690911A06892B80932906D5
:102BE00080911D0690911E06429690931E0680933A
:102BF0001D0678C680911806803821F48091280639
:102C000080931806209121063091220640911806E3
:102C1000842F90E047FD9F6F820F931F90931606BD
:102C2000809315060E949F0A8091290690911A06AA
:102C3000892B8093290680911D0690911E0642964D
:102C400090931E0680931D064DC68091180680380D
:102C500021F4809128068093180620911F06309158
:102C6000200640911806842F90E047FD9F6F820F49
:102C7000931F90931606809315060E949F0A8091D9
:102C8000290690911A06892B8093290680911D06AA
:102C900090911E06429690931E0680931D0622C6B2
:102CA0008091290690911806892B8093290680919E
:102CB0001D0690911E060A9690931E0680931D068F
:102CC00011C680911806803821F4809128068093DF
:102CD00018062091180627FF0BC0809123069091BB
:102CE00024069A95820F911D9093240680932306C3
:102CF00080912306909124069093160680931506E2
:102D000027FD06C0820F911D909324068093230611
:102D10000E949F0A8091290690911A06892B809320
:102D2000290680911D0690911E06429690931E06DC
:102D300080931D06D7C580911806803821F48091B4
:102D40002806809318062091180627FF0BC0809153
:102D50002106909122069A95820F911D909322064A
:102D60008093210680912106909122069093160669
:102D70008093150627FD06C0820F911D90932206B1
:102D8000809321060E949F0A8091290690911A063D
:102D9000892B8093290680911D0690911E064296EC
:102DA00090931E0680931D069DC58091180680385D
:102DB00021F480912806809318062091180627FF99
:102DC0000BC080911F06909120069A95820F911D4D
:102DD0009093200680931F0680911F0690912006F5
:102DE000909316068093150627FD06C0820F911D4D
:102DF0009093200680931F060E949F0A80912906C7
:102E000090911A06892B8093290680911D06909136
:102E10001E06429690931E0680931D0663C5809100
:102E20001806803821F48091280680931806209196
:102E300025063091260640911806842F90E047FD24
:102E40009F6F820F931F90931606809315060E9422
:102E50009F0A8091290690911A0689278093290656
:102E600080911D0690911E06429690931E068093B7
:102E70001D0638C580911806803821F480912806F7
:102E8000809318062091230630912406409118065D
:102E9000842F90E047FD9F6F820F931F909316063B
:102EA000809315060E949F0A8091290690911A0628
:102EB00089278093290680911D0690911E064296CF
:102EC00090931E0680931D060DC5809118068038CC
:102ED00021F48091280680931806209121063091D4
:102EE000220640911806842F90E047FD9F6F820FC5
:102EF000931F90931606809315060E949F0A809157
:102F0000290690911A0689278093290680911D062B
:102F100090911E06429690931E0680931D06E2C471
:102F200080911806803821F4809128068093180635
:102F300020911F063091200640911806842F90E0C2
:102F400047FD9F6F820F931F90931606809315067F
:102F50000E949F0A8091290690911A0689278093E2
:102F6000290680911D0690911E06429690931E069A
:102F700080931D06B7C48091290690911806892771
:102F80008093290680911D0690911E060A969093C3
:102F90001E0680931D06A6C480911806803821F471
:102FA00080912806809318062091180627FF0BC0F1
:102FB00080912306909124069A95820F911D9093FB
:102FC00024068093230680912306909124069093F3
:102FD00016068093150627FD06C0820F911D90935B
:102FE0002406809323060E949F0A809129069091CF
:102FF0001A0689278093290680911D0690911E0646
:10300000429690931E0680931D066CC4809118060C
:10301000803821F4809128068093180620911806A4
:1030200027FF0BC080912106909122069A95820F6E
:10303000911D909322068093210680912106909104
:103040002206909316068093150627FD06C0820F70
:10305000911D90932206809321060E949F0A8091E1
:10306000290690911A0689278093290680911D06CA
:1030700090911E06429690931E0680931D0632C4C0
:1030800080911806803821F48091280680931806D4
:103090002091180627FF0BC080911F0690912006F3
:1030A0009A95820F911D9093200680931F06809120
:1030B0001F0690912006909316068093150627FD13
:1030C00006C0820F911D9093200680931F060E94D8
:1030D0009F0A8091290690911A06892780932906D4
:1030E00080911D0690911E06429690931E06809335
:1030F0001D06F8C380911806803821F480912806B7
:1031000080931806209125063091260640911806D6
:10311000842F90E047FD9F6F820F931F90931606B8
:10312000809315060E949F0A0E945F0A80911D06E7
:1031300090911E06479690931E0680931D06D2C35B
:1031400080911806803821F4809128068093180613
:10315000209123063091240640911806842F90E098
:1031600047FD9F6F820F931F90931606809315065D
:103170000E949F0A0E945F0A80911D0690911E0680
:10318000479690931E0680931D06ACC38091180647
:10319000803821F48091280680931806209121061A
:1031A0003091220640911806842F90E047FD9F6FD2
:1031B000820F931F90931606809315060E949F0A14
:1031C0000E945F0A80911D0690911E06479690937B
:1031D0001E0680931D0686C380911806803821F450
:1031E000809128068093180620911F0630912006B2
:1031F00040911806842F90E047FD9F6F820F931F28
:1032000090931606809315060E949F0A0E945F0AFB
:1032100080911D0690911E06479690931E068093FE
:103220001D0660C38091180680931A060E945F0AEB
:1032300080911D0690911E060F9690931E06809316
:103240001D0650C380911806803821F4809128060D
:10325000809318062091180627FF0BC08091230643
:10326000909124069A95820F911D90932406809345
:10327000230680912306909124069093160680934E
:10328000150627FD06C0820F911D9093240680939A
:1032900023060E949F0A0E945F0A80911D0690915A
:1032A0001E06479690931E0680931D061BC38091B1
:1032B0001806803821F48091280680931806209102
:1032C000180627FF0BC080912106909122069A953F
:1032D000820F911D909322068093210680912106F2
:1032E00090912206909316068093150627FD06C03E
:1032F000820F911D90932206809321060E949F0ABF
:103300000E945F0A80911D0690911E064796909339
:103310001E0680931D06E6C280911806803821F4AF
:1033200080912806809318062091180627FF0BC06D
:1033300080911F06909120069A95820F911D90937F
:10334000200680931F0680911F069091200690937F
:1033500016068093150627FD06C0820F911D9093D7
:10336000200680931F060E949F0A0E945F0A809198
:103370001D0690911E06479690931E0680931D068B
:10338000B1C280911806803821F48091280680937C
:103390001806209125063091260640911806842FA4
:1033A00090E047FD9F6F820F931F909316068093C6
:1033B00015060E949F0A0E943A0A80911D0690916C
:1033C0001E06439690931E0680931D068BC2809125
:1033D0001806803821F480912806809318062091E1
:1033E00023063091240640911806842F90E047FD73
:1033F0009F6F820F931F90931606809315060E946D
:103400009F0A0E943A0A80911D0690911E064396DB
:1034100090931E0680931D0665C280911806803821
:1034200021F480912806809318062091210630917E
:10343000220640911806842F90E047FD9F6F820F6F
:10344000931F90931606809315060E949F0A0E9470
:103450003A0A80911D0690911E06439690931E068F
:1034600080931D063FC280911806803821F4809118
:1034700028068093180620911F063091200640915F
:103480001806842F90E047FD9F6F820F931F909343
:103490001606809315060E949F0A0E943A0A8091A0
:1034A0001D0690911E06439690931E0680931D065E
:1034B00019C28091180680931A060E943A0A8091D8
:1034C0001D0690911E060B9690931E0680931D0676
:1034D00009C280911806803821F4809128068093D3
:1034E00018062091180627FF0BC0809123069091A3
:1034F00024069A95820F911D9093240680932306AB
:1035000080912306909124069093160680931506C9
:1035100027FD06C0820F911D9093240680932306F9
:103520000E949F0A0E943A0A80911D0690911E06F1
:10353000439690931E0680931D06D4C18091180671
:10354000803821F48091280680931806209118066F
:1035500027FF0BC080912106909122069A95820F39
:10356000911D9093220680932106809121069091CF
:103570002206909316068093150627FD06C0820F3B
:10358000911D90932206809321060E949F0A0E941B
:103590003A0A80911D0690911E06439690931E064E
:1035A00080931D069FC180911806803821F4809178
:1035B0002806809318062091180627FF0BC08091DB
:1035C0001F06909120069A95820F911D90932006D8
:1035D00080931F0680911F069091200690931606F7
:1035E0008093150627FD06C0820F911D909320063B
:1035F00080931F060E949F0A0E943A0A80911D062E
:1036000090911E06439690931E0680931D066AC1F4
:1036100080911806803821F480912806809318063E
:10362000209125063091260640911806842F90E0BF
:1036300047FD9F6F820F931F909316068093150688
:103640000E949F0A80911A06809580931A060E9414
:103650003A0A80911D0690911E06449690931E068C
:1036600080931D063FC180911806803821F4809117
:103670002806809318062091230630912406409155
:103680001806842F90E047FD9F6F820F931F909341
:103690001606809315060E949F0A80911A0680954F
:1036A00080931A060E943A0A80911D0690911E0688
:1036B000449690931E0680931D0614C180911806AF
:1036C000803821F4809128068093180620912106E5
:1036D0003091220640911806842F90E047FD9F6F9D
:1036E000820F931F90931606809315060E949F0ADF
:1036F00080911A06809580931A060E943A0A80915A
:103700001D0690911E06449690931E0680931D06FA
:10371000E9C080911806803821F4809128068093B2
:10372000180620911F063091200640911806842F1C
:1037300090E047FD9F6F820F931F90931606809332
:1037400015060E949F0A80911A06809580931A069A
:103750000E943A0A80911D0690911E06449690930D
:103760001E0680931D06BEC080911806809580932A
:103770001A060E943A0A80911D0690911E060C9628
:1037800090931E0680931D06ADC080911806803868
:1037900021F480912806809318062091180627FFAF
:1037A0000BC080912306909124069A95820F911D5B
:1037B00090932406809323068091230690912406FB
:1037C000909316068093150627FD06C0820F911D63
:1037D00090932406809323060E949F0A80911A06E4
:1037E000809580931A060E943A0A80911D06909156
:1037F0001E06449690931E0680931D0673C080910A
:103800001806803821F480912806809318062091AC
:10381000180627FF0BC080912106909122069A95E9
:10382000820F911D9093220680932106809121069C
:1038300090912206909316068093150627FD06C0E8
:10384000820F911D90932206809321060E949F0A69
:1038500080911A06809580931A060E943A0A8091F8
:103860001D0690911E06449690931E0680931D0699
:1038700039C080911806803821F480912806809301
:1038800018062091180627FF0BC080911F06909103
:1038900020069A95820F911D9093200680931F0613
:1038A00080911F069091200690931606809315062E
:1038B00027FD06C0820F911D9093200680931F065E
:1038C0000E949F0A80911A06809580931A060E9492
:1038D0003A0A80911D0690911E06449690931E060A
:1038E00080931D0680911D0690911E06803127E26F
:1038F000920780F08051974290931E0680931D0698
:1039000082E00E94A30681110E94EE0A0E94B10685
:1039100082E301C080E0DF91CF911F910F91089564
:10392000CF92DF92EF92FF920F931F93CF93DF938B
:103930006C017A01EB01E60EF71E00E010E0CE15F7
:10394000DF0561F06991D601ED91FC910190F08164
:10395000E02DC6010995080F191FF1CFC801DF91AD
:10396000CF911F910F91FF90EF90DF90CF9008952E
:103970003F924F925F926F927F928F929F92AF92FF
:10398000BF92CF92DF92EF92FF920F931F93CF934C
:10399000DF9300D000D0CDB7DEB78B0129013A010B
:1039A00090910201981721F09F3F09F0CFC104C008
:1039B000E8E6FAE0349081C080930201E8E6FAE09C
:1039C000E491EF3F09F4C2C1E13031F1E23009F492
:1039D0004BC0E11171C014BC15BC94B5926094BD8C
:1039E00095B5916095BD282F30E0F901EF56F54F60
:1039F000E491F0E0EE0FFF1FE155F54F4591549132
:103A000050933A0640933906F901E358F54F249153
:103A100020933806312C53C0109280001092810000
:103A200090918100986090938100909181009160C5
:103A300090938100282F30E0F901EF56F54FE49183
:103A4000F0E0EE0FFF1FE155F54F45915491509373
:103A5000330640933206F901E358F54F2491209341
:103A60003106332433942BC01092B0001092B10071
:103A70009091B00092609093B0009091B1009160ED
:103A80009093B100282F30E0F901EF56F54FE49103
:103A9000F0E0EE0FFF1FE155F54F45915491509323
:103AA0002C0640932B06F901E358F54F24912093FF
:103AB0002A0652E0352E03C03E2E37FC47C161E096
:103AC00004D34801A12CB12C832D8D7F09F0C1C0F6
:103AD00060E072E18AE790E0A501940162D5298354
:103AE0003A834B835C8369017A0181E0C81AD1086B
:103AF000E108F1089FEFC916D104E104F10409F0CF
:103B000008F495C060E472E48FE090E0A5019401B0
:103B100048D569017A01E1E0CE1AD108E108F1083F
:103B2000F2E03F1218C08FEFC816D104E104F1048F
:103B300009F008F486C060E970ED83E090E0A5012B
:103B400094012FD569017A0191E0C91AD108E108E1
:103B5000F10883E001C082E0EFEFCE16D104E1046A
:103B6000F10409F008F464C068E478EE81E090E0C4
:103B7000A501940116D569017A01F1E0CF1AD108A7
:103B8000E108F1083320D9F082E038121AC09FEF23
:103B9000C916D104E104F10409F008F4D5C064E2C7
:103BA00074EF80E090E0A5019401FBD469017A01F3
:103BB000E1E0CE1AD108E108F10885E003C083E016
:103BC00001C084E0FFEFCF16D104E104F10481F1DC
:103BD00078F162E17AE780E090E0A5019401E1D418
:103BE00069017A0181E0C81AD108E108F1083110B1
:103BF00002C084E001C086E09FEFC916D104E10451
:103C0000F104B1F0A8F0C980DA80EB80FC809AE082
:103C1000F594E794D794C7949A95D1F7E1E0CE1A3A
:103C2000D108E108F108332031F087E00BC081E0D2
:103C3000332011F007C085E095B5987F982B95BD8E
:103C400036C082E09091B100987F982B9093B1009C
:103C50002EC060E072E18AE790E0A5019401A1D452
:103C600069017A01F1E0CF1AD108E108F108C11425
:103C7000D10481E0E806F10480F068E478EE81E0A8
:103C800090E0A50194018DD469017A0191E0C91AEF
:103C9000D108E108F10893E001C091E0E1E03E12B3
:103CA00006C080918100887F892B80938100411418
:103CB00051046104710461F0D801AA0FBB1FA30174
:103CC000920191D428EE33E040E050E048D403C0A4
:103CD0002FEF3FEFA901F1E03F16A1F082E0381687
:103CE00019F1311033C0C7BC20933B0630933C061A
:103CF00040933D0650933E0680916E008260809313
:103D00006E0024C0D0928900C092880020933406AF
:103D100030933506409336065093370680916F00F6
:103D2000826080936F0012C0C092B30020932D0672
:103D300030932E0640932F065093300680917000EA
:103D400082608093700002C084E07CCF0F900F905F
:103D50000F900F90DF91CF911F910F91FF90EF90F7
:103D6000DF90CF90BF90AF909F908F907F906F909B
:103D70005F904F903F900895813039F018F0823075
:103D800051F0089510926E00089580916F008D7F1C
:103D900080936F000895809170008D7F80937000F4
:103DA00081E08093B0008091B100887F846080932F
:103DB000B1001092B3000895CF93C82F80910201F3
:103DC0008C1307C0E8E6FAE084919FEF909302011C
:103DD00001C08FEFD1DF60E08C2FCF91AFC11F9278
:103DE0000F920FB60F9211242F933F934F935F932F
:103DF0006F937F938F939F93AF93BF93EF93FF93B3
:103E000080912D0690912E06A0912F06B09130063C
:103E1000892B8A2B8B2B51F190912A06E0912B064E
:103E2000F0912C0680818927808380912D069091C6
:103E30002E06A0912F06B0913006181619061A0604
:103E40001B06BCF480912D0690912E06A0912F06A2
:103E5000B09130060197A109B10980932D06909386
:103E60002E06A0932F06B093300603C08091020166
:103E7000A3DFFF91EF91BF91AF919F918F917F91C0
:103E80006F915F914F913F912F910F900FBE0F90C7
:103E90001F9018950895B5D0FDDF0E94F109C0E08C
:103EA000D0E00E94F2092097E1F30E940000F9CFD0
:103EB0001F920F920FB60F9211242F933F938F935F
:103EC0009F93AF93BF938091400690914106A0913C
:103ED0004206B091430630913F0623E0230F2D3771
:103EE00020F40196A11DB11D05C026E8230F0296FE
:103EF000A11DB11D20933F0680934006909341067B
:103F0000A0934206B09343068091440690914506E3
:103F1000A0914606B09147060196A11DB11D809360
:103F2000440690934506A0934606B0934706BF917A
:103F3000AF919F918F913F912F910F900FBE0F9056
:103F40001F9018952FB7F894609140067091410624
:103F500080914206909143062FBF08953FB7F89491
:103F60008091440690914506A0914606B09147067F
:103F700026B5A89B05C02F3F19F00196A11DB11DC4
:103F80003FBF6627782F892F9A2F620F711D811DE1
:103F9000911D42E0660F771F881F991F4A95D1F740
:103FA0000895CF92DF92EF92FF92CF93DF936B0150
:103FB0007C01D4DFEB01C114D104E104F10479F0F8
:103FC0001AD1CCDF6C1B7D0B683E7340A0F381E0FF
:103FD000C81AD108E108F108C851DC4FECCFDF91D5
:103FE000CF91FF90EF90DF90CF90089501970097C9
:103FF00039F0880F991F880F991F02970197F1F7E1
:104000000895789484B5826084BD84B5816084BD50
:1040100085B5826085BD85B5816085BDEEE6F0E041
:10402000808181608083E1E8F0E01082808182609D
:104030008083808181608083E0E8F0E0808181601E
:104040008083E1EBF0E0808184608083E0EBF0E04E
:10405000808181608083EAE7F0E0808184608083F2
:10406000808182608083808181608083808180689C
:1040700080831092C1000895833081F028F481304C
:1040800099F08230A1F008958730A9F08830B9F016
:104090008430D1F4809180008F7D03C080918000B6
:1040A0008F7780938000089584B58F7702C084B5A0
:1040B0008F7D84BD08958091B0008F7703C080917B
:1040C000B0008F7D8093B0000895CF93DF9390E090
:1040D000FC01E358F54F2491FC01EF56F54F849114
:1040E000882349F190E0880F991FFC01E754F54FB0
:1040F000A591B4918155954FFC01C591D4919FB77D
:10410000611108C0F8948C91209582238C9388814A
:1041100082230AC0623051F4F8948C91322F30958A
:1041200083238C938881822B888304C0F8948C919C
:10413000822B8C939FBFDF91CF9108950F931F9394
:10414000CF93DF931F92CDB7DEB7282F30E0F90170
:10415000E759F54F8491F901E358F54F1491F901AE
:10416000EF56F54F04910023C1F0882319F06983BD
:1041700083DF6981E02FF0E0EE0FFF1FE155F54F7F
:10418000A591B4919FB7F8948C91611103C01095DB
:10419000812301C0812B8C939FBF0F90DF91CF9122
:1041A0001F910F910895CF93DF93282F30E0F901ED
:1041B000E759F54F8491F901E358F54FD491F9018E
:1041C000EF56F54FC491CC2389F0811155DFEC2FC8
:1041D000F0E0EE0FFF1FEB55F54FA591B4912C9138
:1041E0002D2381E090E021F480E002C080E090E0A7
:1041F000DF91CF910895089520914F063091500698
:1042000090914806D901A05FBE4F8091540640911D
:104210005506841304C09093480680E008958F5F8C
:104220008D3208F080E0E82FF0E0EA5AF94FE081A3
:1042300080935406EE2379F3E03F11F49160E5CFCB
:10424000E03E11F49260E1CF90FF0EC0E23111F434
:104250009B7F08C0E93511F4977F04C0E13111F468
:1042600091FD9F7E9C7FD1CFE23111F49460CDCF40
:10427000E93511F49860C9CFE13111F491FD9061F5
:1042800091FF08C0EA54E43318F5F0E0E55DFE4F15
:10429000E0811FC094FF09C08C91882331F0E83879
:1042A000B8F4F0E0EF5EFE4F08C0892F8C7041F04B
:1042B000E83870F4F0E0E857FF4FE20FF31F06C054
:1042C000E83830F4A9014E0F511DFA01E49101C004
:1042D000E0E09C7FEE2309F498CF909348068E2F60
:1042E0000895CF92DF92EF92FF920F931F93CF9397
:1042F000DF938091530657DFEC0124DE00914B06DB
:1043000010914C0620914D0630914E066B017C01B8
:10431000C01AD10AE20AF30A970186010B3F110580
:104320002105310520F010924A061092490660934B
:104330004B0670934C0680934D0690934E069091D9
:104340004A068FEF890F883050F4DD2701C0CC0F6B
:104350008A95EAF7809149068C2B8093490681E083
:10436000890F80934A068B30B9F4809155068F5F90
:104370008D3208F080E090915406891749F0E82FBB
:10438000F0E090914906EA5AF94F908380935506E0
:1043900010924A0610924906DF91CF911F910F911A
:1043A000FF90EF90DF90CF90089580915206811199
:1043B0000DC080915106811109C01EDF982F809396
:1043C000520681E0911103C080E0089581E00895D4
:1043D00080915106882319F01092510617C08091E0
:1043E0005206882319F01092520601C005DF87FF9C
:1043F0000BC0982F9F739068909351068295869575
:1044000086958370806C02C0882311F090E0089537
:104410008FEF9FEF08950895CF93DF93D82FC62F86
:10442000809353065093500640934F0662E08C2FC2
:104430004CDE62E08D2F49DEC23031F0C33011F026
:104440008FEF03C081E001C080E01092550610920A
:1044500054068F3F39F042E050E061E771E2DF91AE
:10446000CF9103C0DF91CF9108958230E8F4E82F17
:10447000F0E0EE0FFF1FED57F94F7183608381303D
:1044800041F0809169008C7F842B80936900E89AC9
:10449000089580916900440F551F440F551F837F75
:1044A000842B80936900E99A08951F920F920FB6AA
:1044B0000F9211242F933F934F935F936F937F93AA
:1044C0008F939F93AF93BF93EF93FF938091830656
:1044D00090918406892B29F0E0918306F09184065F
:1044E0000995FF91EF91BF91AF919F918F917F912E
:1044F0006F915F914F913F912F910F900FBE0F9051
:104500001F9018951F920F920FB60F9211242F93A0
:104510003F934F935F936F937F938F939F93AF934B
:10452000BF93EF93FF938091850690918606892B28
:1045300029F0E0918506F09186060995FF91EF91AB
:10454000BF91AF919F918F917F916F915F914F91AB
:104550003F912F910F900FBE0F901F901895A1E2E1
:104560001A2EAA1BBB1BFD010DC0AA1FBB1FEE1FED
:10457000FF1FA217B307E407F50720F0A21BB30B38
:10458000E40BF50B661F771F881F991F1A9469F7B4
:1045900060957095809590959B01AC01BD01CF0110
:1045A0000895052E97FB16F400940FD057FD05D003
:1045B000D6DF07FC02D046F408C0509540953095F0
:1045C00021953F4F4F4F5F4F08959095809570957F
:1045D00061957F4F8F4F9F4F0895EE0FFF1F0590FE
:1045E000F491E02D099409D0A59F900DB49F900DF2
:1045F000A49F800D911D11240895A29FB001B39F27
:10460000C001A39F700D811D1124911DB29F700DDB
:0C461000811D1124911D0895F894FFCF26
:10461C000100FF3F065B4F666D7D077F67777C3936
:10462C005E797100000000E106901C0000D1007F53
:10463C000150029C026D031B0400002F00000000BF
:10464C0000000000000000000000000D0000000051
:10465C000000000000000000000000000800000046
:10466C0000007F0A00150B000000001A0000190062
:00000001FF
