:100000000C94E9120C94432F0C94742F0C94A52F8C
:100010000C94D62F0C9407300C9438300C94693023
:100020000C949A300C941A130C941A130C941A13FF
:100030000C941A130C941A130C941A130C941A138C
:100040000C941A130C941A130C941A130C941A137C
:100050000C941A130C941A130C941A130C94552B19
:100060000C941A130C941A130C941A130C941A135C
:100070000C941A130C941A130C941A130C941A134C
:100080000C941A130C941A130C941A130C941A133C
:100090000C941A130C941A130C941A130C941A132C
:1000A0000C941A130C941A130C941A130C941A131C
:1000B0000C941A130C941A130C941A130C941A130C
:1000C0000C941A130C941A130C941A130C941A13FC
:1000D0000C941A130C941A130C941A130C941A13EC
:1000E0000C941A13B914C714D514EF14031523155F
:1000F0003A155515651577158915A115B515D3153B
:10010000EC150716171629163B1656166A168A1688
:10011000A316BE16CE16E016F216111726174417B0
:100120005D17781788179A17D92AAC17C017E217E6
:10013000FB17161826183818D92A4A185E1880187E
:100140009918B418C418D618D92AE818FC181E191A
:1001500037195219D92AD92AD92A62197719951922
:10016000AE19D319E319131A211A5B1A691A901AD6
:100170009E1AD41AE21A121B201B5A1B681B8F1BD3
:10018000A01BD61BE41B141C231C5E1C6D1C961CA0
:10019000A51CDD1CEC1C1F1D2E1D6A1D7C1DA51D34
:1001A000B71DEF1DFE1D301E421E7E1E901EB91E85
:1001B000C81E001F0F1F411F501F8C1F9B1FC41FF5
:1001C000D31F0B201A204C205B209720A620CF2085
:1001D000DE201621252158216721A321B221DB2110
:1001E000EA212222312246225B22702285229A2293
:1001F000AF22C422D922EB22FD220F232123332355
:100200004523572369237D239123A523B923CD2398
:10021000E123F52309241B242D243F2451246324A6
:10022000752487249924A924BE24D324E824FD24FA
:10023000122527253C254C25612576258B25A025D3
:10024000B525CA25DF25EF25042619262E264326A7
:1002500058266D2682269426A626B826CA26DC268F
:10026000EE26002712271C272A273827462754273F
:10027000622770277E278C279627A427B227C027BE
:10028000CE27DC27EA27F827062810281E282C2846
:100290003A28482856286428722880288A289828CE
:1002A000A628B428C228D028DE28EC28FA28042959
:1002B000122920292E293C294A29582966297429DE
:1002C0007E298C299A29A829B629C429D229E0296E
:1002D000EE29F829062A232A402A5D2A7A2A972A13
:1002E000B32ACD2A1D2FE72EEF2EFB2E082F292F04
:1002F000362FE330E630D530D930DF301D31EA30EB
:10030000EE30F430F830FC30023106310A311D3164
:10031000103114311831C0443D000700000044235F
:1003200020D00000000044262004000000004429E2
:10033000200400000000442C200400000000442F92
:100340002004000000004432200400000000443576
:100350002004000E07C18080800403F02E00E730E7
:10036000DFC18081041DF02E203E4430FC30FB09AB
:10037000483F002E00366A46C000468300446700AE
:100380000C4D494B452034204F5320284329205001
:10039000535220323031350D00060C46D000065D38
:1003A00046B900C63C1F68AF00461A010006204649
:1003B000B9004D3C0D68AF003C6060A900142046B8
:1003C000D000448800461A01A846B9003600072E1E
:1003D000203639F7F807C7B0681A0146D000304810
:1003E000C0002844C000E6DD2E203637FC30FB3646
:1003F000393C08680C013C0C68FA003C0D68F600BA
:10040000F7F830C63639F83C20600701461A01007B
:100410003E00361F3E203150FE00461A013637445A
:100420004F01C7B06807011401F8F03E20440701EE
:10043000E6DD2E203635FC30FB36001E2006205B24
:1004400063615D260421482F01060161C76306012F
:100450005B260421483D01A85B301948360106019E
:100460005DA8613635E730EFF407000000000000BA
:10047000000000000000000000000000000000007C
:10048000000000000000000000000000000000006C
:10049000000000000000000000000000000000005C
:1004A000000000000000000000000000000000004C
:1023200000000009600000000000007131000000A2
:102330007A7361773200006378646534330000207B
:10234000766674723500006E626867793600000048
:102350006D6A75373800002C6B696F303900002EBC
:102360002F6C3B702D00000027005B3D000000003B
:102370000D5D005C00000000000000007F000031E7
:10238000003437000000302E323536381B00002B69
:10239000332D2A390000000000000000000000007A
:1023A0000000000000000000000000097E000000A6
:1023B00000000051210000005A53415740000043E3
:1023C0005844452423000020564654522500004E10
:1023D000424847595E0000004D4A55262A00003CFD
:1023E0004B494F292800003E3F4C3A505F00000007
:1023F00022007B2B000000000D7D007C000000000F
:10240000000000007F000031003437000000302E53
:10241000323536381B00002B332D2A3900000000DE
:1024200000000000000000000000000000000000AC
:10243000000000000000000000000000000000009C
:10244000000000000000000000000000000000008C
:10245000000000000000000000000000000000007C
:10246000000000000000000000000000000000006C
:10247000000000000000000000000000000000005C
:10248000000000000000000000000000000000004C
:10249000000000000000000000000000000000003C
:1024A000000000000000000000000000000000002C
:1024B000000A0B02090C0D0E0807030401000000BE
:1024C000000000000000000000000000000000000C
:1024D00000000000000000000000001211100000C9
:1024E00000000000000000000000000000000000EC
:1024F00000000000000102102020080810204010F9
:1025000020408002010201080402010102040810B7
:1025100020408080402010080402018004020180D5
:1025200040201008040201080402010102040810FE
:1025300020408001020408102040800505050507A1
:102540000508080808020202020A0A08080404042E
:10255000040101010101010101030303030303035A
:1025600003040707070C0C0C0C0C0C0C0C020202E9
:102570000206060606060606060B0B0B0B0B0B0BDC
:102580000B000020002300260029002C002F003221
:1025900000000100000301060109010000220025DE
:1025A0000028002B002E003100340002010000053D
:1025B0000108010B0100002100240027002A002D42
:1025C000003000330001010000040107010A01008E
:1025D0005D1311241FBECFEFD1E2DEBFCDBF00E0FF
:1025E0000CBF12E0A0E0B2E0E4ECF3E600E00BBFC9
:1025F00002C007900D92A035B107D9F723E1A0E5FD
:10260000B2E001C01D92A831B207E1F715E2C2EDB8
:10261000D5E200E006C022970109FE010BBF0E942F
:10262000DC31C03DD10780E00807A9F70E94482BA4
:102630000C94E0310C94000046E153E263E082E048
:102640000E94A92E20E042E060E181E692E00C9435
:10265000CC2C0E94722E811102C080E008950E944D
:10266000852E8F3719F08F37C0F7089588E00895C9
:102670001F93CF93DF9310926002EC0110E0E0E52E
:10268000F2E0DE018D91819382E0E036F807D1F728
:10269000412F60E081E692E00E94B42C60E572E098
:1026A00081E692E00E94462B1F5F6096123039F758
:1026B000DF91CF911F9108950895CF92EF920F93DC
:1026C00089E792E00E94A82E84E0C82E95E0E92ECA
:1026D00006E027E048E069E081E692E00E946F2D85
:1026E0000F91EF90CF900895A7DFEBE7F2E08AE239
:1026F000819392E0EB39F907D9F710929B02089584
:1027000080919C020895813029F46032A1F41092E6
:102710007A020895833079F46F73603208F460644C
:1027200080917A02E82FF0E0E558FD4F60838F5FDB
:102730008F7180937A0208958CDF882319F080933B
:102740009C02E7D0B9DF8BE792E092CFBFC08F92B7
:102750009F92AF92BF92CF92DF92EF92FF921F9320
:10276000CF93DF9300D01F92CDB7DEB718EC88EE81
:10277000882E83E0982EA12CB12CCFD0282F30E0CA
:1027800040E050E0211531054105510539F129831B
:102790003A834B835C830E949F2BC0909D02D09014
:1027A0009E02E0909F02F090A00229813A814B8125
:1027B0005C816C157D058E059F0548F3C501B4014C
:1027C0000E94B4312C0D3D1D4E1D5F1D20939D02B6
:1027D00030939E0240939F025093A002115069F6DD
:1027E0000F900F900F900F90DF91CF911F91FF905E
:1027F000EF90DF90CF90BF90AF909F908F90089513
:102800002091C30290E0820F911D2091BB02820FA4
:10281000911D8093A2029093A3029093BB0208950E
:102820002091C30230E0281B31098091BB02281B94
:1028300031092093A2023093A3023093BB02822F6E
:10284000089590E021E0882321F080FD922786956D
:10285000FACF892F0895E091A402F091A502E11525
:1028600080E2F80730F4EA5EFC4FE491E093B802AE
:102870000895E11580E3F80728F4FF71EC53FD4F4C
:10288000808101C08FEF8093B80208958091BE02CD
:1028900090E0982F88272091BD02822B9F73909300
:1028A000A5028093A402D7DF8091B8020895E09139
:1028B000A402F091A502E11580E3F80730F4FF715E
:1028C000EC53FD4F8091B802808308951092B902B5
:1028D0001092BA021092A7021092A6021092BB02A6
:1028E0001092BC021092BD021092BE021092BF0262
:1028F0001092C0021092C1021092C2021092C30242
:10290000E8EAF2E01192119282E0E83BF807D1F791
:10291000EBCE81E08093A1020895DF92EF92FF92C7
:102920000F931F93CF93DF938091BC0281110C947E
:10293000D92AD090BA020D2D10E0000F111F980176
:1029400028553D4F7901F901C081D181DF73D093C2
:10295000A502C093A4027FDF2196DF73F701D18324
:10296000C0838091B80290E0FC01EE58FF4F0C94B8
:10297000D63181E08093BC028091A6029091A7029B
:1029800004969093A7028093A6020C94D92A81E022
:102990008093BC028091A6029091A7020496909326
:1029A000A7028093A6020C94D92A2091C30230E09A
:1029B000C901880F892F881F990B8093BB02220FB2
:1029C000331F282B2093C3028091A6029091A70267
:1029D00005969093A7028093A6020C94D92A809121
:1029E000BB02811105C0EFEFED0DE770E093BA0275
:1029F0008091A6029091A70205969093A7028093DA
:102A0000A6020C94D92AD093A502C093A40223DF76
:102A1000F801E855FD4F2196DF73D183C0831092F2
:102A2000BB028091B802ECDE8093B9028093C302AE
:102A30008091A6029091A70208969093A702809396
:102A4000A6020C94D92AE1E0ED0DE770E093BA02FA
:102A5000F0E0EE0FFF1FE855FD4F118210828091CC
:102A6000A6029091A70205969093A7028093A602D2
:102A70000C94D92AD093A502C093A402ECDEF801ED
:102A8000E855FD4F2196DF73D183C0838091B80252
:102A90008093C3028091A6029091A702089690931A
:102AA000A7028093A6020C94D92AEFEFED0DE770F0
:102AB000E093BA028091A6029091A70205969093A6
:102AC000A7028093A6020C94D92A8091C2028F5F3C
:102AD0008093B9028093C2028091A6029091A702CE
:102AE00005969093A7028093A6020C94D92A809110
:102AF000C20281508093B9028093C2028091A602E3
:102B00009091A70205969093A7028093A6020C9439
:102B1000D92A8091C302982F91709093BB02979508
:102B2000992797958695892B8093C3028091A60259
:102B30009091A70205969093A7028093A6020C9409
:102B4000D92A8091B902882329F0EFEFED0DE770C3
:102B5000E093BA028091A6029091A7020596909305
:102B6000A7028093A6020C94D92AD093A502C09301
:102B7000A40271DEF801E855FD4F2196DF73D18381
:102B8000C0838091B8023CDE8093B9028093C30277
:102B90008091A6029091A70208969093A702809335
:102BA000A6020C94D92AE1E0ED0DE770E093BA0299
:102BB000F0E0EE0FFF1FE855FD4F88E090E09183B5
:102BC00080838091A6029091A70205969093A70218
:102BD0008093A6020C94D92AD093A502C093A40294
:102BE0003ADEF801E855FD4F2196DF73D183C083AB
:102BF0008091B8028093C2028091A6029091A702B0
:102C000008969093A7028093A6020C94D92AEFEF1E
:102C1000ED0DE770E093BA028091A6029091A702B1
:102C200005969093A7028093A6020C94D92A8091CE
:102C3000C1028F5F8093B9028093C1028091A60286
:102C40009091A70205969093A7028093A6020C94F8
:102C5000D92A8091C10281508093B9028093C10228
:102C60008091A6029091A70205969093A702809367
:102C7000A6020C94D92A8091C30290E0880F991F74
:102C80002091BB02822B8093A2029093A302809397
:102C9000C3029093BB028091A6029091A702059671
:102CA0009093A7028093A6020C94D92A8091B9022E
:102CB00087FD05C0EFEFED0DE770E093BA0280915C
:102CC000A6029091A70205969093A7028093A60270
:102CD0000C94D92AD093A502C093A402BCDDF801BC
:102CE000E855FD4F2196DF73D183C0831092BB025C
:102CF0008091B80295DD8093B9028093C3028091E0
:102D0000A6029091A70208969093A7028093A6022C
:102D10000C94D92AE1E0ED0DE770E093BA02F0E0FF
:102D2000EE0FFF1FE855FD4F80E190E09183808317
:102D30008091A6029091A70205969093A702809396
:102D4000A6020C94D92AD093A502C093A40283DDD5
:102D5000F801E855FD4F2196DF73D183C083809140
:102D6000B8028093C1028091A6029091A7020896B2
:102D70009093A7028093A6020C94D92AEFEFED0D51
:102D8000E770E093BA028091A6029091A70205969F
:102D90009093A7028093A6020C94D92A8091C00236
:102DA0008F5F8093B9028093C0028091A6029091B8
:102DB000A70205969093A7028093A6020C94D92AA5
:102DC0008091C00281508093B9028093C0028091AB
:102DD000A6029091A70205969093A7028093A6025F
:102DE0000C94D92A8091BB0290E0982F88272091DB
:102DF000C302822B9093A3028093A2029C0136957A
:102E000027952093C30281708093BB028091A60214
:102E10009091A70205969093A7028093A6020C9426
:102E2000D92A8091B9020DDD882329F0EFEFED0D4D
:102E3000E770E093BA028091A6029091A7020596EE
:102E40009093A7028093A6020C94D92AD093A5024E
:102E5000C093A40200DDF801E855FD4F2196DF7311
:102E6000D183C0838091B802DBDC8093B902809368
:102E7000C3028091A6029091A70208969093A702A0
:102E80008093A6020C94D92AE1E0ED0DE770E0935F
:102E9000BA02F0E0EE0FFF1FE855FD4F88E190E029
:102EA000918380838091A6029091A70205969093CA
:102EB000A7028093A6020C94D92AD093A502C093AE
:102EC000A402C9DCF801E855FD4F2196DF73D183D8
:102ED000C0838091B8028093C0028091A602909135
:102EE000A70208969093A7028093A6020C94D92A71
:102EF000EFEFED0DE770E093BA028091A60290919A
:102F0000A70205969093A7028093A6020C94D92A53
:102F10008091BF028F5F8093B9028093BF0280913E
:102F2000A6029091A70205969093A7028093A6020D
:102F30000C94D92A8091BF0281508093B90280936A
:102F4000BF028091A6029091A70205969093A702D6
:102F50008093A6020C94D92A8091BB02882329F081
:102F6000EFEFED0DE770E093BA028091A602909129
:102F7000A70205969093A7028093A6020C94D92AE3
:102F8000D093A502C093A40266DCF801E855FD4F7A
:102F90002196DF73D183C0831092BB028091B80267
:102FA0009091C30289238093B9028093C3028091D8
:102FB000A6029091A70208969093A7028093A6027A
:102FC0000C94D92AE1E0ED0DE770E093BA02F0E04D
:102FD000EE0FFF1FE855FD4F80E290E09183808364
:102FE0008091A6029091A70205969093A7028093E4
:102FF000A6020C94D92AD093A502C093A4022BDC7C
:10300000F801E855FD4F2196DF73D183C08380918D
:10301000B8028093BF028091A6029091A702089601
:103020009093A7028093A6020C94D92AEFEFED0D9E
:10303000E770E093BA028091A6029091A7020596EC
:103040009093A7028093A6020C94D92A8091BE0285
:103050008F5F8093B9028093BE028091A602909107
:10306000A70205969093A7028093A6020C94D92AF2
:103070008091BE0281508093B9028093BE028091FC
:10308000A6029091A70205969093A7028093A602AC
:103090000C94D92A8091B902811105C0EFEFED0D92
:1030A000E770E093BA028091A6029091A70205967C
:1030B0009093A7028093A6020C94D92AD093A502DC
:1030C000C093A402C8DBF801E855FD4F2196DF73D9
:1030D000D183C0831092BB028091B8029091C30249
:1030E00089278093B9028093C3028091A6029091B0
:1030F000A70208969093A7028093A6020C94D92A5F
:10310000E1E0ED0DE770E093BA02F0E0EE0FFF1F93
:10311000E855FD4F88E290E0918380838091A6027C
:103120009091A70205969093A7028093A6020C9413
:10313000D92AD093A502C093A4028DDBF801E855EB
:10314000FD4F2196DF73D183C0838091B8028093B5
:10315000BE028091A6029091A70208969093A702C2
:103160008093A6020C94D92AEFEFED0DE770E0935F
:10317000BA028091A6029091A70205969093A702A9
:103180008093A6020C94D92A8091BD028F5F809310
:10319000B9028093BD028091A6029091A702059684
:1031A0009093A7028093A6020C94D92A8091BD0225
:1031B00081508093B9028093BD028091A6029091C4
:1031C000A70205969093A7028093A6020C94D92A91
:1031D0008091B90287FF05C0EFEFED0DE770E09336
:1031E000BA028091A6029091A70205969093A70239
:1031F0008093A6020C94D92AD093A502C093A4026E
:103200002ADBF801E855FD4F2196DF73D183C08397
:103210001092BB028091B8029091C302892B8093D7
:10322000B9028093C3028091A6029091A7020896EA
:103230009093A7028093A6020C94D92AE1E0ED0DA9
:10324000E770E093BA02F0E0EE0FFF1FE855FD4F84
:1032500080E390E0918380838091A6029091A70201
:1032600005969093A7028093A6020C94D92AD09336
:10327000A502C093A402EFDAF801E855FD4F2196AC
:10328000DF73D183C0838091B8028093BD028091A7
:10329000A6029091A70208969093A7028093A60297
:1032A0000C94D92AEFEFED0DE770E093BA0280910C
:1032B000A6029091A70205969093A7028093A6027A
:1032C0000C94D92A8091B902BCDA811105C0EFEFC4
:1032D000ED0DE770E093BA028091A6029091A702EB
:1032E00005969093A7028093A6020C94D92AD093B6
:1032F000A502C093A402AFDAF801E855FD4F21966C
:10330000DF73D183C0831092BB028091B80288DA48
:103310008093B9028091A6029091A702089690939B
:10332000A7028093A6020C94D92AE1E0ED0DE77084
:10333000E093BA02F0E0EE0FFF1FE855FD4F88E37F
:1033400090E0918380838091A6029091A7020596D8
:103350009093A7028093A6020C94D92AD093A50239
:10336000C093A40278DAF801E855FD4F2196DF7387
:10337000D183C0838091BE0290E0982F882720914E
:10338000BD02822B9F739093A5028093A4028FDAD3
:103390008091A6029091A70209969093A70280932C
:1033A000A6020C94D92AEFEFED0DE770E093BA0274
:1033B0008091A6029091A70205969093A702809310
:1033C000A6020C94D92AD093A502C093A40243DA92
:1033D0002196DF73E090B802F12CD093A502C09340
:1033E000A40239DAF801E855FD4F2196DF73D18345
:1033F000C0838091B8029701382BC9013093A30292
:103400002093A2022091BB02211102C091838083EC
:103410008091A6029091A7020A969093A7028093AA
:10342000A6020C94D92A81E48093C3028091A6025B
:103430009091A70208969093A7028093A6020C94FD
:10344000D92AD093A502C093A40205DA2196DF738E
:10345000E090B802F12CD093A502C093A402FBD94E
:10346000F801E855FD4F2196DF73D183C083809129
:10347000B802F701F82BCF01F093A302E093A20268
:103480002091BB0221110CC0E1E0ED0DE770E0934B
:10349000BA02F0E0EE0FFF1FE855FD4F91838083E5
:1034A0008091A6029091A7020A969093A70280931A
:1034B000A6020C94D92A83E48093C3028091A602C9
:1034C0009091A70208969093A7028093A6020C946D
:1034D000D92AD093A502C093A402BDD9E090B80226
:1034E000F12C2196DF73D093A502C093A402B3D927
:1034F0008091B8029701382B3093A3022093A20247
:10350000F801E855FD4F318320838091A602909108
:10351000A7020B969093A7028093A6020C94D92A37
:1035200085E48093C3028091A6029091A702089639
:103530009093A7028093A6020C94D92AD093A50257
:10354000C093A40288D92196DF73E090B802F12CD1
:10355000D093A502C093A4027ED9F801E855FD4F8F
:103560002196DF73D183C0838091B802F701F82BD5
:10357000CF01F093A302E093A202E1E0ED0DE7702A
:10358000E093BA02F0E0EE0FFF1FE855FD4F918384
:1035900080838091A6029091A7020B969093A70238
:1035A0008093A6020C94D92A87E48093C302809169
:1035B000A6029091A70208969093A7028093A60274
:1035C0000C94D92AD093A502C093A40244D9219681
:1035D000DF73E090B802F12CD093A502C093A4024F
:1035E0003AD9F801E855FD4F2196DF73D183C083A6
:1035F0008091B8029701382BC9013093A302209320
:10360000A2022091B902222311F09183808380913C
:10361000A6029091A7020A969093A7028093A60211
:103620000C94D92A89E48093C3028091A6029091D8
:10363000A70208969093A7028093A6020C94D92A19
:10364000D093A502C093A40206D92196DF73E0901F
:10365000B802F12CD093A502C093A402FCD8F801C3
:10366000E855FD4F2196DF73D183C0838091B80266
:10367000F701F82BCF01F093A302E093A20220916F
:10368000B902222361F0E1E0ED0DE770E093BA02A8
:10369000F0E0EE0FFF1FE855FD4F9183808380918E
:1036A000A6029091A7020A969093A7028093A60281
:1036B0000C94D92A8BE48093C3028091A602909146
:1036C000A70208969093A7028093A6020C94D92A89
:1036D000D093A502C093A402BED8E090B802F12C0A
:1036E0002196DF73D093A502C093A402B4D8809131
:1036F000B8029701382B3093A3022093A202F8015D
:10370000E855FD4F318320838091A6029091A70256
:103710000B969093A7028093A6020C94D92A0E943C
:1037200080138093B8028093C3028091A602909187
:10373000A70208969093A7028093A6020C94D92A18
:10374000D093A502C093A40286D82196DF73E0909F
:10375000B802F12CD093A502C093A4027CD8F80142
:10376000E855FD4F2196DF73D183C0838091B80265
:10377000F701F82BCF01F093A302E093A202E1E05E
:10378000ED0DE770E093BA02F0E0EE0FFF1FE85591
:10379000FD4F918380838091A6029091A7020B96A2
:1037A0009093A7028093A6020C94D92A8FE4809369
:1037B000C3028091A6029091A70208969093A70257
:1037C0008093A6020C94D92AD093A502C093A40298
:1037D00042D82196DF73E090B802F12CD093A50275
:1037E000C093A40238D8F801E855FD4F2196DF7345
:1037F000D183C0838091B8029701382BC9013093DF
:10380000A3022093A2022091B90227FD02C0918356
:1038100080838091A6029091A7020A969093A702B6
:103820008093A6020C94D92A8091C3028093B80297
:103830008091A6029091A70206969093A70280938A
:10384000A6020C94D92AD093A502C093A40203D84F
:103850002196DF73E090B802F12CD093A502C093BB
:10386000A4020E942B14F801E855FD4F2196DF7346
:10387000D183C0838091B802F701F82BCF01F09378
:10388000A302E093A2022091B90227FD0CC0E1E05F
:10389000ED0DE770E093BA02F0E0EE0FFF1FE85580
:1038A000FD4F918380838091A6029091A7020A9692
:1038B0009093A7028093A6020C94D92A8091C30208
:1038C0008093B8028091A6029091A70206969093E9
:1038D000A7028093A6020C94D92AD093A502C09384
:1038E000A4020E942B14E090B802F12C2196DF7301
:1038F000D093A502C093A4020E942B148091B80219
:103900009701382B3093A3022093A202F801E855C7
:10391000FD4F318320838091A6029091A7020B96E0
:103920009093A7028093A6020C94D92A8091C30297
:103930008093B8028091A6029091A7020696909378
:10394000A7028093A6020C94D92AD093A502C09313
:10395000A4020E942B142196DF73E090B802F12C90
:10396000D093A502C093A4020E942B14F801E8553D
:10397000FD4F2196DF73D183C0838091B802F70198
:10398000F82BCF01F093A302E093A202E1E0ED0D4A
:10399000E770E093BA02F0E0EE0FFF1FE855FD4F2D
:1039A000918380838091A6029091A7020B969093B9
:1039B000A7028093A6020C94D92A8091C302809317
:1039C000B8028091A6029091A70206969093A70252
:1039D0008093A6020C94D92AD093A502C093A40286
:1039E0000E942B142196DF73E090B802F12CD09343
:1039F000A502C093A4020E942B1408551D4F2196C6
:103A0000DF73F801D183C0838091B802F82AF09265
:103A1000A302E092A2028091B9020E94211488239D
:103A200019F0F801F182E0828091A6029091A7023C
:103A30000A969093A7028093A6020C94D92A8091AB
:103A4000C3028093B8028091A6029091A7020696C5
:103A50009093A7028093A6020C94D92AD093A50232
:103A6000C093A4020E942B142196DF73E090B80249
:103A7000F12CD093A502C093A4020E942B14F8014C
:103A8000E855FD4F2196DF73D183C0838091B80242
:103A9000F82AF092A302E092A2028091B9020E9459
:103AA0002114882361F0E1E0ED0DE770E093BA02A4
:103AB000F0E0EE0FFF1FE855FD4FF182E0828091AC
:103AC000A6029091A7020A969093A7028093A6025D
:103AD0000C94D92A6091C3026093B80280E00E94DE
:103AE00083138091A6029091A70206969093A70255
:103AF0008093A6020C94D92AD093A502C093A40265
:103B00000E942B14E090B802F12C2196DF73D09321
:103B1000A502C093A4020E942B148091B8029701C1
:103B2000382B3093A3022093A202F801E855FD4FF1
:103B3000318320838091A6029091A7020B969093E7
:103B4000A7028093A6020C94D92A6091C3026093C5
:103B5000B80281E00E9483138091A6029091A7028F
:103B600006969093A7028093A6020C94D92AD0932C
:103B7000A502C093A4020E942B142196DF73E0904B
:103B8000B802F12CD093A502C093A4020E942B147A
:103B9000F801E855FD4F2196DF73D183C0838091F2
:103BA000B802F701F82BCF01F093A302E093A20231
:103BB000E1E0ED0DE770E093BA02F0E0EE0FFF1FD9
:103BC000E855FD4F918380838091A6029091A702D2
:103BD0000B969093A7028093A6020C94D92A809109
:103BE000C3028093B8028091A6029091A702069624
:103BF0009093A7028093A6020C94D92AD093A50291
:103C0000C093A4020E942B142196DF73E090B802A7
:103C1000F12CD093A502C093A4020E942B14F801AA
:103C2000E855FD4F2196DF73D183C0838091B802A0
:103C30009701382BC9013093A3022093A20220914F
:103C4000BB02222311F0918380838091A602909180
:103C5000A7020A969093A7028093A6020C94D92AF1
:103C60006091C3026093B80282E00E948313809146
:103C7000A6029091A70206969093A7028093A602AF
:103C80000C94D92AD093A502C093A4020E942B14AD
:103C90002196DF73E090B802F12CD093A502C09377
:103CA000A4020E942B14F801E855FD4F2196DF7302
:103CB000D183C0838091B802F701F82BCF01F09334
:103CC000A302E093A2022091BB02222361F0E1E073
:103CD000ED0DE770E093BA02F0E0EE0FFF1FE8553C
:103CE000FD4F918380838091A6029091A7020A964E
:103CF0009093A7028093A6020C94D92A6091C302E4
:103D00006093B80283E00E9483138091A602909191
:103D1000A70206969093A7028093A6020C94D92A34
:103D2000D093A502C093A4020E942B14E090B80285
:103D3000F12C2196DF73D093A502C093A4020E94B8
:103D40002B148091B8029701382B3093A302209353
:103D5000A202F801E855FD4F318320838091A6022D
:103D60009091A7020B969093A7028093A6020C94C1
:103D7000D92A8091C3028093B8028091A6029091C3
:103D8000A70206969093A7028093A6020C94D92AC4
:103D9000D093A502C093A4020E942B142196DF7336
:103DA000E090B802F12CD093A502C093A4020E9427
:103DB0002B14F801E855FD4F2196DF73D183C083A2
:103DC0008091B802F701F82BCF01F093A302E093A2
:103DD000A202E1E0ED0DE770E093BA02F0E0EE0F31
:103DE000FF1FE855FD4F918380838091A60290913B
:103DF000A7020B969093A7028093A6020C94D92A4F
:103E00008091C3028093B8028091A6029091A7028C
:103E100006969093A7028093A6020C94D92AD09379
:103E2000A502C093A4020E942B142196DF73E09098
:103E3000B802F12CD093A502C093A4020E942B14C7
:103E4000F801E855FD4F2196DF73D183C08380913F
:103E5000B8029701382BC9013093A3022093A20224
:103E60002091B902211102C0918380838091A60222
:103E70009091A7020A969093A7028093A6020C94B1
:103E8000D92A8091C3028093B8028091A6029091B2
:103E9000A70206969093A7028093A6020C94D92AB3
:103EA000D093A502C093A4020E942B142196DF7325
:103EB000E090B802F12CD093A502C093A4020E9416
:103EC0002B14F801E855FD4F2196DF73D183C08391
:103ED0008091B802F701F82BCF01F093A302E09391
:103EE000A2022091B90221110CC0E1E0ED0DE770B2
:103EF000E093BA02F0E0EE0FFF1FE855FD4F91830B
:103F000080838091A6029091A7020A969093A702BF
:103F10008093A6020C94D92A8091C3028093B802A0
:103F20008091A6029091A70206969093A702809393
:103F3000A6020C94D92AD093A502C093A4020E9491
:103F40002B14E090B802F12C2196DF73D093A502D8
:103F5000C093A4020E942B148091B8029701382BC1
:103F60003093A3022093A202F801E855FD4F31835C
:103F700020838091A6029091A7020B969093A702AE
:103F80008093A6020C94D92A8091C3028093B80230
:103F90008091A6029091A70206969093A702809323
:103FA000A6020C94D92AD093A502C093A4020E9421
:103FB0002B142196DF73E090B802F12CD093A50268
:103FC000C093A4020E942B14F801E855FD4F2196DE
:103FD000DF73D183C0838091B802F701F82BCF0142
:103FE000F093A302E093A202E1E0ED0DE770E0930D
:103FF000BA02F0E0EE0FFF1FE855FD4F918380837A
:104000008091A6029091A7020B969093A7028093AD
:10401000A6020C94D92A8091C3028093B8028091A1
:10402000A6029091A70206969093A7028093A602FB
:104030000C94D92AD093A502C093A4020E942B14F9
:104040002196DF73E090B802F12CD093A502C093C3
:10405000A4020E942B14F801E855FD4F2196DF734E
:10406000D183C0838091B8029701382BC901309366
:10407000A3022093A2022091B90227FF02C09183DC
:1040800080838091A6029091A7020A969093A7023E
:104090008093A6020C94D92A8091C3028093B8021F
:1040A0008091A6029091A70206969093A702809312
:1040B000A6020C94D92AD093A502C093A4020E9410
:1040C0002B142196DF73E090B802F12CD093A50257
:1040D000C093A4020E942B14F801E855FD4F2196CD
:1040E000DF73D183C0838091B802F701F82BCF0131
:1040F000F093A302E093A2022091B90227FF0CC023
:10410000E1E0ED0DE770E093BA02F0E0EE0FFF1F83
:10411000E855FD4F918380838091A6029091A7027C
:104120000A969093A7028093A6020C94D92A8091B4
:10413000C3028093B8028091A6029091A7020696CE
:104140009093A7028093A6020C94D92AD093A5023B
:10415000C093A4020E942B14E090B802F12C219687
:10416000DF73D093A502C093A4020E942B14809108
:10417000B8029701382B3093A3022093A202F801D2
:10418000E855FD4F318320838091A6029091A702CC
:104190000B969093A7028093A6020C94D92A809143
:1041A000C3028093B8028091A6029091A70206965E
:1041B0009093A7028093A6020C94D92AD093A502CB
:1041C000C093A4020E942B142196DF73E090B802E2
:1041D000F12CD093A502C093A4020E942B14F801E5
:1041E000E855FD4F2196DF73D183C0838091B802DB
:1041F000F701F82BCF01F093A302E093A202E1E0D4
:10420000ED0DE770E093BA02F0E0EE0FFF1FE85506
:10421000FD4F918380838091A6029091A7020B9617
:104220009093A7028093A6020C94D92A8091C3028E
:104230008093B8028091A6029091A702069690936F
:10424000A7028093A6020C94D92AD093A502C0930A
:10425000A4020E942B142196DF73E090B802F12C87
:10426000D093A502C093A4020E942B1408551D4FA1
:104270002196DF73F801D183C0838091B802F82AB8
:10428000F092A302E092A2028091B9020E9421144E
:10429000811103C0F801F182E0828091A602909121
:1042A000A7020A969093A7028093A6020C94D92A9B
:1042B0008091C3028093B8028091A6029091A702D8
:1042C00006969093A7028093A6020C94D92AD093C5
:1042D000A502C093A4020E942B142196DF73E090E4
:1042E000B802F12CD093A502C093A4020E942B1413
:1042F000F801E855FD4F2196DF73D183C08380918B
:10430000B802F82AF092A302E092A2028091B902C8
:104310000E94211481110CC0E1E0ED0DE770E093E3
:10432000BA02F0E0EE0FFF1FE855FD4FF182E08288
:104330008091A6029091A7020A969093A70280937B
:10434000A6020C94D92A8091C3028093B80280916E
:10435000A6029091A70206969093A7028093A602C8
:104360000C94D92AD093A502C093A4020E942B14C6
:10437000E090B802F12C2196DF73D093A502C09390
:10438000A4020E942B148091B8029701382B30931D
:10439000A3022093A202F801E855FD4F3183208348
:1043A0008091A6029091A7020B969093A70280930A
:1043B000A6020C94D92A8091C3028093B8028091FE
:1043C000A6029091A70206969093A7028093A60258
:1043D0000C94D92AD093A502C093A4020E942B1456
:1043E0002196DF73E090B802F12CD093A502C09320
:1043F000A4020E942B14F801E855FD4F2196DF73AB
:10440000D183C0838091B802F701F82BCF01F093DC
:10441000A302E093A202E1E0ED0DE770E093BA029F
:10442000F0E0EE0FFF1FE855FD4F918380838091F0
:10443000A6029091A7020B969093A7028093A602E2
:104440000C94D92A8091C3028093B8028091A6026D
:104450009091A70206969093A7028093A6020C94CF
:10446000D92A1092BB028091C3020E94001480934B
:10447000B9028093C3028091A6029091A70205968B
:104480009093A7028093A6020C94D92A1092BB02A3
:104490008091C2020E9400148093B9028093C302EB
:1044A0008091A6029091A70205969093A70280930F
:1044B000A6020C94D92A1092BB028091C1020E94DC
:1044C00000148093B9028093C3028091A602909158
:1044D000A70205969093A7028093A6020C94D92A6E
:1044E0001092BB028091C0020E9400148093B90216
:1044F0008093C3028091A6029091A70205969093A3
:10450000A7028093A6020C94D92A1092BB02809134
:10451000BF020E9400148093B9028093C30280916D
:10452000A6029091A70205969093A7028093A602F7
:104530000C94D92A1092BB028091BE020E940014F2
:104540008093B9028093C3028091A6029091A70242
:1045500005969093A7028093A6020C94D92A1092F4
:10456000BB028091BD020E9400148093B902809327
:10457000C3028091A6029091A70205969093A7028C
:104580008093A6020C94D92A1092BB020E94461472
:104590000E9400148093B9028093C3028091A60206
:1045A0009091A70208969093A7028093A6020C947C
:1045B000D92A8091C3020E9400148093B90280938B
:1045C000C3028091A6029091A70205969093A7023C
:1045D0008093A602EEC78091C2020E9400148093CD
:1045E000B9028093C3028091A6029091A70205961A
:1045F0009093A7028093A602DCC78091C1020E941B
:1046000000148093B9028093C3028091A602909116
:10461000A70205969093A7028093A602CAC780912D
:10462000C0020E9400148093B9028093C30280915B
:10463000A6029091A70205969093A7028093A602E6
:10464000B8C78091BF020E9400148093B902809382
:10465000C3028091A6029091A70205969093A702AB
:104660008093A602A6C78091BE020E940014809388
:10467000B9028093C3028091A6029091A702059689
:104680009093A7028093A60294C78091BD020E94D6
:1046900000148093B9028093C3028091A602909186
:1046A000A70205969093A7028093A60282C70E9454
:1046B00046140E9400148093B9028093C302809133
:1046C000A6029091A70208969093A7028093A60253
:1046D00070C71092BB028091C3020E941014809395
:1046E000B9028093C3028091A6029091A702059619
:1046F0009093A7028093A6025CC71092BB028091A0
:10470000C2020E9410148093B9028093C302809168
:10471000A6029091A70205969093A7028093A60205
:1047200048C71092BB028091C1020E94101480936E
:10473000B9028093C3028091A6029091A7020596C8
:104740009093A7028093A60234C71092BB02809177
:10475000C0020E9410148093B9028093C30280911A
:10476000A6029091A70205969093A7028093A602B5
:1047700020C71092BB028091BF020E941014809348
:10478000B9028093C3028091A6029091A702059678
:104790009093A7028093A6020CC71092BB0280914F
:1047A000BE020E9410148093B9028093C3028091CC
:1047B000A6029091A70205969093A7028093A60265
:1047C000F8C61092BB028091BD020E941014809323
:1047D000B9028093C3028091A6029091A702059628
:1047E0009093A7028093A602E4C61092BB020E9497
:1047F00046140E9410148093B9028093C3028091E2
:10480000A6029091A70208969093A7028093A60211
:10481000D0C68091C3020E9410148093B902809385
:10482000C3028091A6029091A70205969093A702D9
:104830008093A602BEC68091C2020E94101480938B
:10484000B9028093C3028091A6029091A7020596B7
:104850009093A7028093A602ACC68091C1020E94E9
:1048600010148093B9028093C3028091A6029091A4
:10487000A70205969093A7028093A6029AC68091FC
:10488000C0020E9410148093B9028093C3028091E9
:10489000A6029091A70205969093A7028093A60284
:1048A00088C68091BF020E9410148093B902809341
:1048B000C3028091A6029091A70205969093A70249
:1048C0008093A60276C68091BE020E941014809347
:1048D000B9028093C3028091A6029091A702059627
:1048E0009093A7028093A60264C68091BD020E94A5
:1048F00010148093B9028093C3028091A602909114
:10490000A70205969093A7028093A60252C60E9422
:1049100046140E9410148093B9028093C3028091C0
:10492000A6029091A70208969093A7028093A602F0
:1049300040C61092BB028091C3028093B90280915D
:10494000A6029091A70205969093A7028093A602D3
:1049500030C61092BB028091C2029091C30289239B
:104960008093B9028093C3028091A6029091A7021E
:1049700005969093A7028093A6021BC61092BB02D5
:104980008091C1029091C30289238093B9028093E0
:10499000C3028091A6029091A70205969093A70268
:1049A0008093A60206C61092BB028091C00290912D
:1049B000C30289238093B9028093C3028091A60227
:1049C0009091A70205969093A7028093A602F1C545
:1049D0001092BB028091BF029091C3028923809301
:1049E000B9028093C3028091A6029091A702059616
:1049F0009093A7028093A602DCC51092BB0280911F
:104A0000BE029091C30289238093B9028093C302AE
:104A10008091A6029091A70205969093A702809399
:104A2000A602C7C51092BB028091BD029091C3023D
:104A300089238093B9028093C3028091A60290914A
:104A4000A70205969093A7028093A602B2C5109282
:104A5000BB02C091C3020E9446148C238093B9020A
:104A60008093C3028091A6029091A702089690932A
:104A7000A7028093A6029DC51092BB021092B902B4
:104A80001092C3028091A6029091A702059690937E
:104A9000A7028093A6028DC51092BB028091C2022C
:104AA0009091C30289278093B9028093C3028091B9
:104AB000A6029091A70205969093A7028093A60262
:104AC00078C51092BB028091C1029091C3028927E0
:104AD0008093B9028093C3028091A6029091A702AD
:104AE00005969093A7028093A60263C51092BB021D
:104AF0008091C0029091C30289278093B90280936C
:104B0000C3028091A6029091A70205969093A702F6
:104B10008093A6024EC51092BB028091BF02909175
:104B2000C30289278093B9028093C3028091A602B1
:104B30009091A70205969093A7028093A60239C58B
:104B40001092BB028091BE029091C302892780938C
:104B5000B9028093C3028091A6029091A7020596A4
:104B60009093A7028093A60224C51092BB02809165
:104B7000BD029091C30289278093B9028093C3023A
:104B80008091A6029091A70205969093A702809328
:104B9000A6020FC51092BB02C091C3020E94461428
:104BA0008C278093B9028093C3028091A6029091D2
:104BB000A70208969093A7028093A602FAC41092C7
:104BC000BB028091C3028093B9028091A6029091AA
:104BD000A70205969093A7028093A602EAC41092BA
:104BE000BB028091C2029091C302892B8093B902CB
:104BF0008093C3028091A6029091A702059690939C
:104C0000A7028093A602D5C41092BB028091C10274
:104C10009091C302892B8093B9028093C302809143
:104C2000A6029091A70205969093A7028093A602F0
:104C3000C0C41092BB028091C0029091C302892B24
:104C40008093B9028093C3028091A6029091A7023B
:104C500005969093A7028093A602ABC41092BB0264
:104C60008091BF029091C302892B8093B9028093F7
:104C7000C3028091A6029091A70205969093A70285
:104C80008093A60296C41092BB028091BE029091BE
:104C9000C302892B8093B9028093C3028091A6023C
:104CA0009091A70205969093A7028093A60281C4D3
:104CB0001092BB028091BD029091C302892B809318
:104CC000B9028093C3028091A6029091A702059633
:104CD0009093A7028093A6026CC41092BB02C0916D
:104CE000C3020E9446148C2B8093B9028093C302A6
:104CF0008091A6029091A70208969093A7028093B4
:104D0000A60257C41092BB028091C3020E941014E5
:104D10008093B9028091A6029091A7020596909384
:104D2000A7028093A60245C41092BB028091C202E2
:104D30000E9410148093B9028091A6029091A7025C
:104D400005969093A7028093A60233C41092BB02EB
:104D50008091C1020E9410148093B9028091A60232
:104D60009091A70205969093A7028093A60221C472
:104D70001092BB028091C0020E9410148093B9026D
:104D80008091A6029091A70205969093A702809326
:104D9000A6020FC41092BB028091BF020E941014A1
:104DA0008093B9028091A6029091A70205969093F4
:104DB000A7028093A602FDC31092BB028091BE029F
:104DC0000E9410148093B9028091A6029091A702CC
:104DD00005969093A7028093A602EBC31092BB02A4
:104DE0008091BD020E9410148093B9028091A602A6
:104DF0009091A70205969093A7028093A602D9C32B
:104E00001092BB020E9446140E9410148093B902B3
:104E10008091A6029091A70208969093A702809392
:104E2000A602C7C38091A6029091A702059690930F
:104E3000A7028093A602BDC38091C2028093C302E1
:104E40008091A6029091A70205969093A702809365
:104E5000A602AFC38091C1028093C3028091A602D3
:104E60009091A70205969093A7028093A602A1C3F2
:104E70008091C0028093C3028091A6029091A70204
:104E800005969093A7028093A60293C38091BF02D8
:104E90008093C3028091A6029091A70205969093F9
:104EA000A7028093A60285C38091BE028093C302AD
:104EB0008091A6029091A70205969093A7028093F5
:104EC000A60277C38091BD028093C3028091A6029F
:104ED0009091A70205969093A7028093A60269C3BA
:104EE0000E9446148093C3028091A6029091A7026B
:104EF00008969093A7028093A6025BC38091C30299
:104F00008093C2028091A6029091A7020596909389
:104F1000A7028093A6024DC38091A6029091A7029A
:104F200005969093A7028093A60243C38091C10285
:104F30008093C2028091A6029091A7020596909359
:104F4000A7028093A60235C38091C0028093C2025B
:104F50008091A6029091A70205969093A702809354
:104F6000A60227C38091BF028093C2028091A6024D
:104F70009091A70205969093A7028093A60219C369
:104F80008091BE028093C2028091A6029091A702F6
:104F900005969093A7028093A6020BC38091BD0251
:104FA0008093C2028091A6029091A70205969093E9
:104FB000A7028093A602FDC20E9446148093C202FB
:104FC0008091A6029091A70208969093A7028093E1
:104FD000A602EFC28091C3028093C1028091A60213
:104FE0009091A70205969093A7028093A602E1C232
:104FF0008091C2028093C1028091A6029091A70283
:1050000005969093A7028093A602D3C28091A60230
:105010009091A70205969093A7028093A602C9C219
:105020008091C0028093C1028091A6029091A70254
:1050300005969093A7028093A602BBC28091BF02FF
:105040008093C1028091A6029091A7020596909349
:10505000A7028093A602ADC28091BE028093C102D6
:105060008091A6029091A70205969093A702809343
:10507000A6029FC28091BD028093C1028091A602C8
:105080009091A70205969093A7028093A60291C2E1
:105090000E9446148093C1028091A6029091A702BB
:1050A00008969093A7028093A60283C28091C302C0
:1050B0008093C0028091A6029091A70205969093DA
:1050C000A7028093A60275C28091C2028093C0029B
:1050D0008091A6029091A70205969093A7028093D3
:1050E000A60267C28091C1028093C0028091A6028D
:1050F0009091A70205969093A7028093A60259C2A9
:105100008091A6029091A70205969093A7028093A2
:10511000A6024FC28091BF028093C0028091A60276
:105120009091A70205969093A7028093A60241C290
:105130008091BE028093C0028091A6029091A70246
:1051400005969093A7028093A60233C28091BD0278
:105150008093C0028091A6029091A7020596909339
:10516000A7028093A60225C20E9446148093C00223
:105170008091A6029091A70208969093A70280932F
:10518000A60217C28091C3028093BF028091A6023B
:105190009091A70205969093A7028093A60209C258
:1051A0008091C2028093BF028091A6029091A702D3
:1051B00005969093A7028093A602FBC18091C1023D
:1051C0008093BF028091A6029091A70205969093CA
:1051D000A7028093A602EDC18091C0028093BF0216
:1051E0008091A6029091A70205969093A7028093C2
:1051F000A602DFC18091A6029091A7020596909326
:10520000A7028093A602D5C18091BE028093BF02FF
:105210008091A6029091A70205969093A702809391
:10522000A602C7C18091BD028093BF028091A602F1
:105230009091A70205969093A7028093A602B9C108
:105240000E9446148093BF028091A6029091A7020B
:1052500008969093A7028093A602ABC18091C302E7
:105260008093BE028091A6029091A702059690932A
:10527000A7028093A6029DC18091C2028093BE02C4
:105280008091A6029091A70205969093A702809321
:10529000A6028FC18091C1028093BE028091A602B6
:1052A0009091A70205969093A7028093A60281C1D0
:1052B0008091C0028093BE028091A6029091A702C5
:1052C00005969093A7028093A60273C18091BF02B6
:1052D0008093BE028091A6029091A70205969093BA
:1052E000A7028093A60265C18091A6029091A702B1
:1052F00005969093A7028093A6025BC18091BD02A0
:105300008093BE028091A6029091A7020596909389
:10531000A7028093A6024DC10E9446148093BE024C
:105320008091A6029091A70208969093A70280937D
:10533000A6023FC18091C3028093BD028091A60264
:105340009091A70205969093A7028093A60231C17F
:105350008091C2028093BD028091A6029091A70223
:1053600005969093A7028093A60223C18091C10263
:105370008093BD028091A6029091A702059690931A
:10538000A7028093A60215C18091C0028093BD023E
:105390008091A6029091A70205969093A702809310
:1053A000A60207C18091BF028093BD028091A60230
:1053B0009091A70205969093A7028093A602F9C048
:1053C0008091BE028093BD028091A6029091A702B7
:1053D00005969093A7028093A602EBC08091A60247
:1053E0009091A70205969093A7028093A602E1C030
:1053F0000E9446148093BD028091A6029091A7025C
:1054000008969093A7028093A602D3C08091BE0213
:1054100090E0982F88272091BD02822B9F73909354
:10542000A5028093A4028091C3028093B8020E94D7
:1054300057148091A6029091A70207969093A70215
:105440008093A602B6C08091BE0290E0982F882774
:105450002091BD02822B9F739093A5028093A4029A
:105460008091C2028093B8020E9457148091A602D4
:105470009091A70207969093A7028093A60299C0E5
:105480008091BE0290E0982F88272091BD02822B48
:105490009F739093A5028093A4028091C102809390
:1054A000B8020E9457148091A6029091A702079615
:1054B0009093A7028093A6027CC08091BE0290E0E8
:1054C000982F88272091BD02822B9F739093A5026D
:1054D0008093A4028091C0028093B8020E94571466
:1054E0008091A6029091A70207969093A7028093BD
:1054F000A6025FC08091BE0290E0982F882720917D
:10550000BD02822B9F739093A5028093A402809189
:10551000BF028093B8020E9457148091A602909116
:10552000A70207969093A7028093A60242C02091FB
:10553000BE02822F90E0982F88273091BD02832BE6
:105540009F739093A5028093A4022093B8020E94B7
:1055500057148091A6029091A70207969093A702F4
:105560008093A60226C02091BD023091BE02822FF8
:1055700090E0932B9F739093A5028093A4022093B5
:10558000B8020E9457148091A6029091A702079634
:105590009093A7028093A6020CC081E08093BC0286
:1055A0008091A6029091A70204969093A7028093FF
:1055B000A6028091A102882321F01092A1021092EC
:1055C000BC028091BC02811108C08091A60290911A
:1055D000A7028A309A4128F412C01092A7021092B2
:1055E000A6028091A6029091A7028A509A419093B8
:1055F000A7028093A6020E949C138CE301C080E066
:10560000DF91CF911F910F91FF90EF90DF90089560
:10561000CF92DF92EF92FF920F931F93CF93DF937E
:105620006C017A01EB01E60EF71E00E010E0CE15EA
:10563000DF0561F06991D601ED91FC910190F08157
:10564000E02DC6011995080F191FF1CFC801DF9190
:10565000CF911F910F91FF90EF90DF90CF90089521
:105660006115710581F0DB010D900020E9F7AD01B6
:1056700041505109461B570BDC01ED91FC91028012
:10568000F381E02D199480E090E00895E9CF08952A
:105690006DD0FDDF0E94A613C0E0D0E00E94A713EA
:1056A0002097E1F30E940000F9CF1F920F920FB6EE
:1056B0000F9211242F933F938F939F93AF93BF9398
:1056C0008091C5129091C612A091C712B091C812D4
:1056D0003091C41223E0230F2D3720F40196A11D31
:1056E000B11D05C026E8230F0296A11DB11D209310
:1056F000C4128093C5129093C612A093C712B093A0
:10570000C8128091C9129091CA12A091CB12B09187
:10571000CC120196A11DB11D8093C9129093CA129B
:10572000A093CB12B093CC12BF91AF919F918F9168
:105730003F912F910F900FBE0F901F9018952FB78C
:10574000F8946091C5127091C6128091C712909121
:10575000C8122FBF08950197009739F0880F991F3D
:10576000880F991F02970197F1F70895789484B5EF
:10577000826084BD84B5816084BD85B5826085BD4D
:1057800085B5816085BDEEE6F0E080818160808333
:10579000E1E8F0E010828081826080838081816016
:1057A0008083E0E8F0E0808181608083E1EBF0E0DD
:1057B000808184608083E0EBF0E080818160808381
:1057C000E1E9F0E080818260808380818160808374
:1057D000E0E9F0E0808181608083E1EAF0E08081AF
:1057E00082608083808181608083E0EAF0E0808154
:1057F00081608083E1E2F1E080818260808380814A
:1058000081608083E0E2F1E0808181608083EAE76B
:10581000F0E08081846080838081826080838081E9
:10582000816080838081806880831092C1000895A8
:10583000CF93DF93EC0160E08E8139D581E090E079
:105840008ADF61E08E8133D581E090E084DF60E023
:105850008E812DD584E690E0DF91CF917CCFCF92E1
:10586000DF92EF92FF920F931F93CF93DF937C0110
:10587000C0E0D0E0C62ED12C87010C0F1D1F61E0C7
:10588000F8018781DBD4B6010C2E02C075956795AF
:105890000A94E2F76170F801878109D52196C43036
:1058A000D10551F7C701DF91CF911F910F91FF9063
:1058B000EF90DF90CF90BCCFCF92DF92EF92FF922C
:1058C0000F931F93CF93DF937C01C0E0D0E0C62EEF
:1058D000D12C87010C0F1D1F61E0F8018781AED428
:1058E000B6010C2E02C0759567950A94E2F76170B7
:1058F000F8018781DCD42196C830D10551F7C70162
:10590000DF91CF911F910F91FF90EF90DF90CF909B
:105910008FCF1F93CF93DF93EC01162F642F8C81D1
:10592000C6D48D818F3F11F060E0C1D48F85612F87
:1059300084FF05C0CE01DF91CF911F91BDCF70E0F4
:1059400084E0759567958A95E1F7CE0188DF612F30
:10595000CE01DF91CF911F9182CF40E0DACF61E09D
:10596000FCDF80ED97E0F7CE443008F043E0FC0127
:105970002389421710F04FEF420FFC01E40FF11D95
:105980002489260F2068622FE8CFFC016089262F2A
:105990002460208B6C60E1CFCF93DF93EC01423029
:1059A00018F08F8588608F874B8B1C8A80E48D8BE5
:1059B0006E8B70E0605C7F4F6F8B222329F041304B
:1059C00019F48F8584608F8780E593ECC4DE60E0F6
:1059D0008C816DD460E08E816AD48D818F3F11F00F
:1059E00060E065D46F8564FD16C063E0CE0137DFEB
:1059F00084E991E1B0DE63E0CE0131DF84E991E139
:105A0000AADE63E0CE012BDF86E990E0A4DE62E04F
:105A1000CE0125DF11C06062CE019FDF84E991E1F4
:105A20009ADE6F856062CE0198DF86E990E093DEB2
:105A30006F856062CE0191DF6F856062CE018DDF80
:105A400084E0888BCE01A1DFCE0189DF82E0898BE3
:105A500066E0CE01DF91CF9180CF6F927F928F92DF
:105A6000AF92CF92EF920F931F93CF93DF93CDB767
:105A7000DEB73C01162F842F5E854F8538899989C2
:105A8000F301848325830683E782C086A18682860C
:105A9000538744873587968761E0D0D3F3018581AA
:105AA0008F3F11F061E0CAD361E0F3018681C6D374
:105AB000112319F0F301178603C080E1F3018787F2
:105AC00020E041E060E1C301DF91CF911F910F9190
:105AD000EF90CF90AF908F907F906F905DCF8F922F
:105AE000AF92CF92EF920F93DC0113961C921E920D
:105AF0001297E4E0F2E0ED93FC931F921F921F9245
:105B00001F928C2CAE2CC02EE22E042F2FEF462F8E
:105B100061E0A3DF0F900F900F900F900F91EF9027
:105B2000CF90AF908F90089541E0F3DE81E090E058
:105B300008952091D4123091D5129091CD12D901AF
:105B4000A05FBE4F8091D9124091DA12841304C035
:105B50009093CD1280E008958F5F8D3208F080E041
:105B6000E82FF0E0E552FD4EE0818093D912EE235C
:105B700079F3E03F11F49160E5CFE03E11F49260DB
:105B8000E1CF90FF0EC0E23111F49B7F08C0E935F0
:105B900011F4977F04C0E13111F491FD9F7E9C7F49
:105BA000D1CFE23111F49460CDCFE93511F4986092
:105BB000C9CFE13111F491FD906191FF08C0EA5421
:105BC000E43318F5F0E0E45EFD4FE0811FC094FF80
:105BD00009C08C91882331F0E838B8F4F0E0EF5E2A
:105BE000FE4F08C0892F8C7041F0E83870F4F0E067
:105BF000E857FF4FE20FF31F06C0E83830F4A90161
:105C00004E0F511DFA01E49101C0E0E09C7FEE23AC
:105C100009F498CF9093CD128E2F0895CF92DF92F2
:105C2000EF92FF920F931F93CF93DF938091D8123F
:105C300073D3EC0184DD0091D0121091D112209128
:105C4000D2123091D3126B017C01C01AD10AE20A40
:105C5000F30A970186010B3F11052105310520F05C
:105C60001092CF121092CE126093D0127093D11274
:105C70008093D2129093D3129091CF128FEF890F0D
:105C8000883050F4DD2701C0CC0F8A95EAF7809167
:105C9000CE128C2B8093CE1281E0890F8093CF128D
:105CA0008B30B9F48091DA128F5F8D3208F080E08A
:105CB0009091D912891749F0E82FF0E09091CE1217
:105CC000E552FD4E90838093DA121092CF1210921B
:105CD000CE12DF91CF911F910F91FF90EF90DF9047
:105CE000CF9008958091D71281110DC08091D61266
:105CF000811109C01EDF982F8093D71281E0911186
:105D000003C080E0089581E008958091D612882331
:105D100019F01092D61217C08091D712882319F06B
:105D20001092D71201C005DF87FF0BC0982F9F7319
:105D300090689093D6128295869586958370806C34
:105D400002C0882311F090E008958FEF9FEF08952F
:105D50000895CF93DF93D82FC62F8093D8125093F6
:105D6000D5124093D41262E08C2F68D262E08D2F5E
:105D700065D2C250C43130F4EC2FF0E0E85FFD4F43
:105D8000808101C08FEF1092DA121092D9128F3FEA
:105D900039F042E050E06EE07EE2DF91CF9103C047
:105DA000DF91CF910895883008F06CC0E82FF0E0C3
:105DB000EE0FFF1FE85FFC4E7183608390E0FC01F3
:105DC0003197E730F10588F5EE58FE4FEFC280912C
:105DD00069008C7F842B80936900E89A08958091F4
:105DE0006900440F551F440F551F837F842B8093F8
:105DF0006900E99A08958091690074E0440F551F85
:105E00007A95E1F78F7C842B80936900EA9A089554
:105E10008091690066E0440F551F6A95E1F78F7322
:105E2000842B80936900EB9A089580916A008C7F9F
:105E3000842B80936A00EC9A089580916A00440F45
:105E4000551F440F551F837F842B80936A00ED9A62
:105E5000089580916A0024E0440F551F2A95E1F7C8
:105E60008F7C842B80936A00EE9A089580916A005B
:105E700096E0440F551F9A95E1F78F73842B80931A
:105E80006A00EF9A08951F920F920FB60F92112495
:105E90000BB60F922F933F934F935F936F937F9324
:105EA0008F939F93AF93BF93EF93FF9380910C13C6
:105EB00090910D13892B29F0E0910C13F0910D13A3
:105EC0001995FF91EF91BF91AF919F918F917F9124
:105ED0006F915F914F913F912F910F900BBE0F905B
:105EE0000FBE0F901F9018951F920F920FB60F9232
:105EF00011240BB60F922F933F934F935F936F93A1
:105F00007F938F939F93AF93BF93EF93FF93809172
:105F10000E1390910F13892B29F0E0910E13F0913D
:105F20000F131995FF91EF91BF91AF919F918F91B1
:105F30007F916F915F914F913F912F910F900BBE89
:105F40000F900FBE0F901F9018951F920F920FB6D3
:105F50000F9211240BB60F922F933F934F935F93A1
:105F60006F937F938F939F93AF93BF93EF93FF9321
:105F70008091101390911113892B29F0E091101347
:105F8000F09111131995FF91EF91BF91AF919F91EE
:105F90008F917F916F915F914F913F912F910F90D2
:105FA0000BBE0F900FBE0F901F9018951F920F926F
:105FB0000FB60F9211240BB60F922F933F934F936E
:105FC0005F936F937F938F939F93AF93BF93EF9361
:105FD000FF938091121390911313892B29F0E09174
:105FE0001213F09113131995FF91EF91BF91AF9197
:105FF0009F918F917F916F915F914F913F912F91E1
:106000000F900BBE0F900FBE0F901F9018951F9210
:106010000F920FB60F9211240BB60F922F933F934E
:106020004F935F936F937F938F939F93AF93BF93A0
:10603000EF93FF938091081390910913892B29F016
:10604000E0910813F09109131995FF91EF91BF9119
:10605000AF919F918F917F916F915F914F913F9100
:106060002F910F900BBE0F900FBE0F901F901895A1
:106070001F920F920FB60F9211240BB60F922F930F
:106080003F934F935F936F937F938F939F93AF93C0
:10609000BF93EF93FF9380910A1390910B13892B79
:1060A00029F0E0910A13F0910B131995FF91EF91EC
:1060B000BF91AF919F918F917F916F915F914F9120
:1060C0003F912F910F900BBE0F900FBE0F901F901E
:1060D00018951F920F920FB60F9211240BB60F92C4
:1060E0002F933F934F935F936F937F938F939F93E0
:1060F000AF93BF93EF93FF93809114139091151377
:10610000892B29F0E0911413F09115131995FF9143
:10611000EF91BF91AF919F918F917F916F915F911F
:106120004F913F912F910F900BBE0F900FBE0F908C
:106130001F9018951F920F920FB60F9211240BB655
:106140000F922F933F934F935F936F937F938F9310
:106150009F93AF93BF93EF93FF938091161390910A
:106160001713892B29F0E0911613F0911713199545
:10617000FF91EF91BF91AF919F918F917F916F911F
:106180005F914F913F912F910F900BBE0F900FBEDB
:106190000F901F90189590E0FC013197E231F105C6
:1061A00008F04BC0E758FE4F01C1809180008F7707
:1061B00003C0809180008F7D80938000089580913E
:1061C0008000877FF9CF84B58F7702C084B58F7D3B
:1061D00084BD08958091B0008F7703C08091B00096
:1061E0008F7D8093B0000895809190008F7707C0D5
:1061F000809190008F7D03C080919000877F809375
:10620000900008958091A0008F7707C08091A00032
:106210008F7D03C08091A000877F8093A0000895A8
:10622000809120018F7707C0809120018F7D03C06E
:1062300080912001877F809320010895CF93DF9381
:1062400090E0FC01EB50FB4D2491FC01E55CFA4D24
:106250008491882349F190E0880F991FFC01EB5449
:10626000FA4DA591B49185569A4DFC01C591D491F2
:106270009FB7611108C0F8948C91209582238C936C
:10628000888182230AC0623051F4F8948C91322FB5
:10629000309583238C938881822B888304C0F89463
:1062A0008C91822B8C939FBFDF91CF9108950F9398
:1062B0001F93CF93DF931F92CDB7DEB7282F30E027
:1062C000F901E155FB4D8491F901EB50FB4D14911F
:1062D000F901E55CFA4D04910023C1F0882319F01F
:1062E000698359DF6981E02FF0E0EE0FFF1FE5566B
:1062F000FA4DA591B4919FB7F8948C91611103C0A8
:106300001095812301C0812B8C939FBF0F90DF914B
:10631000CF911F910F910895CF93DF93282F30E0F5
:10632000F901E155FB4D8491F901EB50FB4DD491FE
:10633000F901E55CFA4DC491CC2389F081112BDF82
:10634000EC2FF0E0EE0FFF1FEF57FA4DA591B4913F
:106350002C912D2381E090E021F480E002C080E0C8
:1063600090E0DF91CF910895A1E21A2EAA1BBB1BEA
:10637000FD010DC0AA1FBB1FEE1FFF1FA217B30711
:10638000E407F50720F0A21BB30BE40BF50B661F27
:10639000771F881F991F1A9469F7609570958095EB
:1063A00090959B01AC01BD01CF010895EE0FFF1F39
:1063B0000590F491E02D19940790F691E02D199431
:0463C000F894FFCF7F
:1063C40000000000942D082B0001FFFFFFFFFFFFDA
:1063D400FFFFFFFFFFFFFFFF050403022F00000084
:1063E4000000000000000000000000000D0000009C
:1063F4000000000000000000000000000008000091
:106404000000007F0A00150B000000001A000019AC
:00000001FF
