:100000000C94690B0C94D92A0C940A2B0C943B2B5E
:100010000C946C2B0C949D2B0C94CE2B0C94FF2BDE
:100020000C94302C0C949A0B0C949A0B0C949A0B05
:100030000C949A0B0C949A0B0C949A0B0C949A0BAC
:100040000C949A0B0C949A0B0C949A0B0C949A0B9C
:100050000C949A0B0C949A0B0C949A0B0C943A27D0
:100060000C949A0B0C949A0B0C949A0B0C949A0B7C
:100070000C949A0B0C949A0B0C949A0B0C949A0B6C
:100080000C949A0B0C949A0B0C949A0B0C949A0B5C
:100090000C949A0B0C949A0B0C949A0B0C949A0B4C
:1000A0000C949A0B0C949A0B0C949A0B0C949A0B3C
:1000B0000C949A0B0C949A0B0C949A0B0C949A0B2C
:1000C0000C949A0B0C949A0B0C949A0B0C949A0B1C
:1000D0000C949A0B0C949A0B0C949A0B0C949A0B0C
:1000E0000C949A0B190F270F350F4D0F610F870FC7
:1000F000A20FC10FD10FE30FF50F0D102110451006
:10010000621081109110A310B510D510E9100F11D5
:100110002C114B115B116D117F119E11B311D71171
:10012000F411131223123512082747125B128112A1
:100130009E12BD12CD12DF120827F11205132B13E8
:10014000481367137713891308279B13AF13D5132D
:10015000F2131114082708270827211436145A14FB
:100160007714A414B414DE14F0142415361557159E
:1001700066159615A515CF15DE1512162116421611
:10018000511681169016BA16CC1600170F17301795
:100190003F176F177E17AA17B917EF17FE171F180B
:1001A000301860186F189918A818DC18EB180C197B
:1001B0001B194B195A1984199319C719D619F7190C
:1001C000061A361A451A6F1A7E1AB21AC11AE21A9C
:1001D000F11A211B301B5C1B6B1BA11BB01BD11B1D
:1001E000E01B101C1F1C381C511C6A1C831C9C1C0F
:1001F000B51CCE1CFB1C121D291D401D571D6E1D5C
:10020000851D9C1DC71DE01DF91D121E2B1E441EC1
:100210005D1E761EA31EBA1ED11EE81EFF1E151FF0
:100220002B1F411F6B1F7D1F941FAB1FC21FD91FA8
:10023000F01F0720322044205B2072208920A0205C
:10024000B720CE20F9200B2122213921502167210E
:100250007E219521C021D621EC21022218222E22B6
:1002600044225A2284228E229C22AA22B822C6220A
:10027000D422E222062314231E232C233A234823CC
:100280005623642388239623A423AE23BC23CA23A6
:10029000D823E6230A241824262434243E244C247C
:1002A0005A2468248C249A24A824B624C424CE2456
:1002B000DC24EA240E251C252A253825462554252C
:1002C0005E256C2590259E25AC25BA25C825D6250A
:1002D000E425EE2512263426562678269A26BC26B4
:1002E000DD26FC265D2860284F28532859289728AA
:1002F000642868286E28722876287C28802884281C
:1003000097288A288E289228B32A7D2A852A912A1E
:100310009E2ABF2ACC2AC03CDB449E6CA32AE33928
:100320001B396A02EA2B202B605D945AAD49684D57
:10033000A379802AC06DAA49C02AC025402B522526
:100340004055FD25402FC02B932CC803E009BA244B
:10035000C221E7782A54000092202D007D5F3A2FB9
:100360008D58AA3B120091149444D555D22580444F
:10037000C001800489486F7BB274CF79CF73ED13CD
:10038000E773E77B4F12EF7BEF73100410441115F6
:10039000380E5444CF206A79EF5BAF7B27796E6BC0
:1003A000E779E749677BED5B97744F7AAD5B24791A
:1003B000FD5B6F5B6F7BEF49EF13EF5DE773972496
:1003C0006D7B6D2BED5FAD5AAD248F782779A4122C
:1003D0004F722A00C00F1400CF7BA47BC079C97B69
:1003E000EF79184FEF73E45B82244172645D491228
:1003F000F85FC05BC07B784F781FC049A372E47977
:10040000407B402BE87F4055ED72B878D44492246D
:1004100091151500FF7F0D00FF0000000000000097
:1004200000000000000044000000020044009800AA
:1004300000004400800000004600400006002E003E
:100440000000360039000600FF005D00A8005D00D6
:10045000C7003400B0005D00A8005D003000C60099
:100460003C00410048001D0000003100C7000400AE
:100470000100F8003C000A004800140000003E00A3
:10048000000044002A0000000000000000000000FE
:10049000000000000000000000000000000000005C
:1004A000000000000000000000000000000000004C
:1004B000000000000000000000000000000000003C
:1004C000000000000000000000000000000000002C
:1004D000000000000000000000000000000000001C
:1004E000000000000000000000000000000000000C
:1004F00000000000000000000000000000000000FC
:1005000000000000000000000000000000000000EB
:100510000000000000000600FF005D00A8005D0074
:10052000C800C100340080005D00A8005D00080024
:1005300048008600000000000000000000000000ED
:10054000000000000000360000002E000100410005
:100550003C00800060009C000000C000C000F8006B
:100560000E00000008004800A7000000C6005F0061
:10057000300048009C0000002800C5003C0003003B
:1005800048009C0000000000000000000000000087
:10059000000000000000000000000000000000005B
:1005A000000000000000000000000000000000004B
:1005B000000000000000000000000000000000003B
:1005C000000000000000000000000000000000002B
:1008100000000000000046004000060026006800BE
:100820004600510006002E0002003600420026005D
:10083000120046005B0006002E0000003600E000BB
:100840000600A000F80030004800170002001E005B
:10085000E10041003C00800060001E000200E0005A
:10086000F300C7003100F80018004800250002001E
:100870003600FF00FC000600FF005D00A8005D00E0
:100880003600E000C7005D00A8005D0030004800B1
:100890003700020044001C000200520075006E0088
:1008A0006E0069006E0067002000540056002000B2
:1008B00044006900730070006C0061007900000062
:1008C0000000000000000000000000000000000028
:1008D0000000000000000000000000000000000018
:1008E0000000000000000000000000000000000008
:1008F00000000000000000000000000000000000F8
:101010000000000000002E00000036000000160056
:1010200008001E00000043002400010048000800E2
:1010300006000E00010009004800100006004300F1
:1010400083000A00D8000E000100090048001A00C1
:1010500006001100480014000600FB0030004800A4
:10106000040006002800C5003C00040048000400FD
:10107000060000000000000000000000000000006A
:101080000000000000000000000000000000000060
:101090000000000000000600FF005D00A800C8007E
:1010A0005D005F000600A0005D00A8005D00080074
:1010B00048004700060007000600A0005D00A800E9
:1010C0005D0021004800510006000700C700340001
:1010D00080005D00A8005D003000210048005B003A
:1010E000060007000000440075006D0070006500F8
:1010F000640020004F004B0000000E0000001600AE
:101100000000100048007600060008004800760045
:10111000060007000000060001005100C0000E009C
:1011200001001600010011004800880006000900B7
:101130004800880006002E000000360000001E0057
:1011400003002600FF0016000900C2001200C700BD
:10115000120051000E00010009004800A100060025
:101160001A00110048009E00060006000100510010
:101170000E00010009004800AF000600C500BB00DA
:101180006800C000060030004800980006002800F3
:10119000440098000600C600BC006800C9000600B4
:1011A0003000440098000600160001000E00010007
:1011B00009004800CD00060011004800CD000600DF
:1011C000A800510000000000000000000000000026
:1011D000000000000000000000000000000000000F
:1011E00000000000000000000000000000000000FF
:1011F00000000000000000000000000000000000EF
:1012000000000000000000000000000000000000DE
:101210000000000000002E000000360000001E004C
:101220000400160008003E00000043000A006000B1
:101230000A0007000E000100090048001100070025
:10124000430087000A00F8000E000100110048006A
:1012500011000700300048000600070005002800C4
:101260001900480006000700000000000000000010
:10127000000000000000000000000000000000006E
:10128000000000000000000000000000000000005E
:10129000000000000000000000000000000000004E
:1012A000000000000000000000000000000000003E
:1012B000000000000000000000000000000000002E
:1012C000000000000000000000000000000000001E
:1012D000000000000000000000000000000000000E
:1012E00000000000000000000000000000000000FE
:1012F00000000000000000000000000000000000EE
:1013000000000000000000000000000000000000DD
:1013100000000000000000000000000000000000CD
:1013200000000000000000000000000000000000BD
:1013300000000000000000000000000000000000AD
:10134000000000000000000000000000000000009D
:10135000000000000000000000000000000000008D
:10136000000000000000000000000000000000007D
:10137000000000000000000000000000000000006D
:10138000000000000000000000000000000000005D
:10139000000000000000000000000000000000004D
:1013A000000000000000000000000000000000003D
:1013B000000000000000000000000000000000002D
:1013C000000000000000000000000000000000001D
:1013D000000000000000000000000000000000000D
:1013E00000000000000000000000000000000000FD
:1013F00000000000000000000000000000000000ED
:1014000000000000000000000000000000000000DC
:1014100000000000000000000A0B02090C0D0E087D
:1014200007030401000000000000000000000000AD
:1014300000000000000000000000000000000000AC
:101440000000121110000000000000000000000069
:101450000000000000000000000000000102102059
:1014600020080810204010204080020102010804DA
:10147000020101020408102040808040201008046E
:1014800002018004020180402010080402010804C7
:10149000020101020408102040800102040810200B
:1014A0004080050505050705080808080202020234
:1014B0000A0A0808040404040101010101010101F0
:1014C0000303030303030303040707070C0C0C0CBB
:1014D0000C0C0C0C020202020606060606060606A4
:1014E0000B0B0B0B0B0B0B0B00002000230026003B
:1014F00029002C002F00320000010000030106012A
:10150000090100002200250028002B002E003100D8
:10151000340002010000050108010B010000210058
:10152000240027002A002D003000330001010000B4
:10153000040107010A010000000000000000000093
:101540000000000960000000000000713100000090
:101550007A73617732000063786465343300002069
:10156000766674723500006E626867793600000036
:101570006D6A75373800002C6B696F303900002EAA
:101580002F6C3B702D00000027005B3D0000000029
:101590000D5D005C00000000000000007F000031D5
:1015A000003437000000302E323536381B00002B57
:1015B000332D2A3900000000000000000000000068
:1015C0000000000000000000000000097E00000094
:1015D00000000051210000005A53415740000043D1
:1015E0005844452423000020564654522500004EFE
:1015F000424847595E0000004D4A55262A00003CEB
:101600004B494F292800003E3F4C3A505F000000F4
:1016100022007B2B000000000D7D007C00000000FC
:10162000000000007F000031003437000000302E41
:10163000323536381B00002B332D2A3900000000CC
:10164000000000000000000000000000000000009A
:10165000000000000000000000000000000000008A
:10166000000000000000000000000000000000007A
:10167000000000000000000000000000000000006A
:10168000000000000000000000000000000000005A
:10169000000000000000000000000000000000004A
:1016A000000000000000000000000000000000003A
:1016B000000000000000000000000000000000002A
:1016C000000000000000000000000000000000001A
:1016D000280E11241FBECFEFD1E2DEBFCDBF00E048
:1016E0000CBF12E0A0E0B2E0EEE1F9E500E00BBFD4
:1016F00002C007900D92A834B107D9F72CE1A8E4F5
:10170000B2E001C01D92AD30B207E1F716E1C2EDC3
:10171000D6E100E006C022970109FE010BBF0E943E
:10172000892CC03DD10780E00807A9F70E942D272A
:101730000C948D2C0C940000FC0122836383448361
:101740000895CF93DF93FC01438150E0FA01EE55F9
:10175000FB4EE491F0E0EE0FFF1FEE5FFA4EA59115
:10176000B491FC01248130E0F901EE55FB4E8491E7
:1017700090E0880F991F8E5F9A4EFC01C591D4911D
:10178000FA01E45AFB4E4491F901E45AFB4E2491CC
:101790003FB7F89488E0722F7095542F5095988138
:1017A00067FF02C0922B01C0972398839C91942BD2
:1017B0009C939C9195239C93660F815081F73FBF2A
:1017C000DF91CF9108951F93CF93DF93EC01142FF6
:1017D0008A81882389F06EBD0DB407FEFDCF812F6D
:1017E000807F8EBD0DB407FEFDCF1295107F1EBD0C
:1017F0000DB407FEFDCF0EC0CE01A3DF612F607FC9
:10180000CE019FDF612F6295607FCE01DF91CF9186
:101810001F9197CFDF91CF911F910895462F68EFC9
:10182000D2CFCF93DF93EC0160E08B810E94D1286F
:1018300060E08C810E94D12861E08B810E94982811
:1018400061E08C810E9498288A81882311F081E5CB
:101850008CBD188260E2CE01E1DF61E070E080E0E3
:1018600090E00E94B32760E2CE01D8DF80E390E0F1
:101870000E94D82766E0CE01D1DF80E390E00E948D
:10188000D827198281E088836CE0CE01C7DF80E32E
:1018900090E0DF91CF910C94D827462F6AEF93CF39
:1018A000CF93DF93EC01898181110EC08881882359
:1018B00011F066E201C064E2CE01B0DF80E390E0A7
:1018C0000E94D82781E08983DF91CF910895EF921C
:1018D000FF920F931F93CF93DF931F92CDB7DEB785
:1018E0007C018B01FC018081882301F1C7014983C0
:1018F000D7DF602F6F716068C70190DF4981642F67
:101900006068C80180729927969587959695879506
:10191000682BC70183DF80E390E00F90DF91CF91C8
:101920001F910F91FF90EF900C94D8270F90DF91AB
:10193000CF911F910F91FF90EF9008950F931F93F8
:10194000CF93DF931F921F92CDB7DEB78C01842F08
:10195000462F50E0682F70E0C8012A833983B7DF33
:101960003981632FC80199DF2A81622FC80195DF71
:101970008AE090E00F900F90DF91CF911F910F912F
:101980000C94D827FF920F931F93CF93DF938C0172
:10199000C0E0D0E040E050E0BE01C80198DFF8E0D0
:1019A000FF2E60E0C80179DF60E0C80176DF8AE0E1
:1019B00090E00E94D827FA94A1F72196C034D1056F
:1019C00049F7DF91CF911F910F91FF9008957F927A
:1019D0008F929F92AF92BF92CF92DF92EF92FF923F
:1019E0000F931F93CF93DF936C01962EF9018081A3
:1019F0008F7790E0880F991F8A5E9C4FAA2797FDEA
:101A0000A095BA2FABBFFC01C791D691F901818196
:101A10008F7790E0880F991F8A5E9C4FAA2797FDC9
:101A2000A095BA2FABBFFC01E790F690F901828137
:101A30008F7790E0880F991F8A5E9C4FAA2797FDA9
:101A4000A095BA2FABBFFC01A790B690F901038116
:101A50000F7710E0000F111F0A5E1C4F222717FDA1
:101A60002095322F2BBFF8010791169195E0892E12
:101A7000840E9E0127703327322F22273295307F24
:101A8000C70187709927982F8827282B392BC801E1
:101A900087709927282B392B77247394740EC501EE
:101AA0008770992754E0880F991F5A95E1F7282BE2
:101AB000392B692DC60142DF63E0D695C7956A953B
:101AC000E1F773E0F694E7947A95E1F7E3E0B694F2
:101AD000A794EA95E1F7F3E016950795FA95E1F7F3
:101AE000781411F0472DC5CFDF91CF911F910F9141
:101AF000FF90EF90DF90CF90BF90AF909F908F902E
:101B00007F90089580915102811121C081E08093DE
:101B10005102E3E9F2E0119283E0E339F807D9F7E3
:101B200010924E0261E086E30E94982861E086E30D
:101B30000E94D12861E089E492E073DE89E492E0BA
:101B400021DF46E355E163E082E00C943F2A0895EB
:101B50000F931F93CF93DF9380915202811105C0A1
:101B60000E94082A8823E1F12BC01092520203E55B
:101B700012E0C0E0D0E0A80143555240F801808156
:101B80008823B1F0108283E0559547958A95E1F757
:101B9000440F440F440FBE016C717727759567950C
:101BA000759567959E012D563D4F89E492E00FDFB4
:101BB0000F5F1F4F2496C115F1E0DF07E1F6D0CF8C
:101BC0000E941B2A87FD03C080934E0202C0109220
:101BD0004E0280914E028F3719F488E080934E02B6
:101BE000DF91CF911F910F91089580914E0288232C
:101BF00021F0806810924E02089580E0089587FFDA
:101C000021C090914F0297FD1DC08F3F19F4109293
:101C1000500218C090915002E92FF0E0DF01AD565C
:101C2000BD4F2C91821751F0F595E795F595E79505
:101C3000ED5AFD4F21E02083209352028C939F5F49
:101C40009093500280934F020895089581E0089583
:101C500020E047E368E389E492E06EDD88E492E007
:101C60000C943E2A7EC0CF92DF92EF92FF92CF93E8
:101C7000DF9300D01F92CDB7DEB7A9D0282F30E078
:101C800040E050E0211531054105510549F1298316
:101C90003A834B835C830E948427C0909303D09047
:101CA0009403E0909503F090960329813A814B814B
:101CB0005C816C157D058E059F0548F368EE73E029
:101CC00080E090E00E94612C2C0D3D1D4E1D5F1D9B
:101CD000209393033093940340939503509396037A
:101CE0000F900F900F900F90DF91CF91FF90EF909A
:101CF000DF90CF9008952091B81B8091AE1B90E0AB
:101D0000820F911D2091B01B820F911D8093AB1B00
:101D10009093AC1B9093B01B8093AE1B0895809161
:101D2000B81B90E02091AE1B821B91092091B01B43
:101D3000821B91098093AB1B9093AC1B9170909385
:101D4000B01B8093AE1B08959FEF882341F080FF66
:101D500004C021E0911120E0922F8695F6CF892FC3
:101D60000895CF93DF931092AF1B1092B01B109287
:101D7000B11B1092B21B1092B31B1092B41B1092A5
:101D8000B51B1092B61B1092B71B1092B81B109285
:101D9000AD1B10929A1B1092991B1092981B1092D7
:101DA000971B26E134E0C7E9D3E0C901AA2797FDD4
:101DB000A095BA2FABBFFC01879189932E5F3F4F4F
:101DC00084E12631380789F7DF91CF919BCE0F93BD
:101DD0001F93CF93DF938091AF1B81110C94082741
:101DE000C091AD1B4C2F50E0440F551FFA01E75630
:101DF000F44E208131813093AA1B2093A91B211519
:101E000088E1380728F4F901E956FC4F808101C0C8
:101E10008FEF8093AE1B2F5F3F4F3F70FA01E75665
:101E2000F44E3183208390E0FC01EE58FF4F0C9478
:101E3000832C81E08093AF1B8091971B9091981B1E
:101E400004969093981B8093971B0C94082781E02D
:101E50008093AF1B8091971B9091981B0496909351
:101E6000981B8093971B0C9408272091B81B30E097
:101E7000C901959587958093B01B220F331F282B9E
:101E80002093B81B8091971B9091981B0596909377
:101E9000981B8093971B0C9408278091B01B81118D
:101EA00005C0EFEFEC0FE770E093AD1B8091971B3F
:101EB0009091981B04969093981B8093971B0C9479
:101EC00008271092B01B3093AA1B2093A91BF9017D
:101ED000E956FC4F80818093AE1BFA01E756F44E21
:101EE0002F5F3F4F3F703183208305DF8091AE1B12
:101EF0008093B11B8093B81B8091971B9091981B86
:101F000008969093981B8093971B0C940827109227
:101F1000AA1B1092A91BE1E0EC0FE770E093AD1B48
:101F2000F0E0EE0FFF1FE756F44E11821082809111
:101F3000971B9091981B05969093981B8093971BE5
:101F40000C9408273093AA1B2093A91BF901E9568A
:101F5000FC4F80818093AE1BFA01E756F44E2F5F51
:101F60003F4F3F70318320838093B81B8091971B34
:101F70009091981B08969093981B8093971B0C94B4
:101F80000827EFEFEC0FE770E093AD1B8091971BF4
:101F90009091981B05969093981B8093971B0C9497
:101FA00008278091B71B8F5F8093B71B8093B11B6D
:101FB0008091971B9091981B05969093981B809306
:101FC000971B0C9408278091B71B81508093B71BF7
:101FD0008093B11B8091971B9091981B05969093CD
:101FE000981B8093971B0C9408278091B81B982FFF
:101FF00091709093B01B9795992797958695892B0B
:102000008093B81B8091971B9091981B0596909395
:10201000981B8093971B0C9408278091B11B8823F1
:1020200029F0EFEFEC0FE770E093AD1B8091971B69
:102030009091981B04969093981B8093971B0C94F7
:1020400008273093AA1B2093A91BF901E956FC4FDE
:1020500080818093AE1BFA01E756F44E2F5F3F4F0D
:102060003F703183208347DE8091AE1B8093B11B8C
:102070008093B81B8091971B9091981B0896909322
:10208000981B8093971B0C94082788E090E090930E
:10209000AA1B8093A91BE1E0EC0FE770E093AD1B56
:1020A000F0E0EE0FFF1FE756F44E9183808380919E
:1020B000971B9091981B05969093981B8093971B64
:1020C0000C9408273093AA1B2093A91BF901E95609
:1020D000FC4F80818093AE1BFA01E756F44E2F5FD0
:1020E0003F4F3F70318320838093B71B8091971BB4
:1020F0009091981B08969093981B8093971B0C9433
:102100000827EFEFEC0FE770E093AD1B8091971B72
:102110009091981B05969093981B8093971B0C9415
:1021200008278091B61B8F5F8093B61B8093B11BED
:102130008091971B9091981B05969093981B809384
:10214000971B0C9408278091B61B81508093B61B77
:102150008093B11B8091971B9091981B059690934B
:10216000981B8093971B0C9408272091B81B30E094
:10217000C901880F991F4091B01B842B9093AC1B11
:102180008093AB1B220F232F221F330B2093B01BF6
:102190008093B81B8091971B9091981B0596909304
:1021A000981B8093971B0C9408278091B11B87FD87
:1021B00005C0EFEFEC0FE770E093AD1B8091971B2C
:1021C0009091981B04969093981B8093971B0C9466
:1021D00008271092B01B3093AA1B2093A91BF9016A
:1021E000E956FC4F80818093AE1BFA01E756F44E0E
:1021F0002F5F3F4F3F703183208391DD8091AE1B75
:102200008093B11B8093B81B8091971B9091981B72
:1022100008969093981B8093971B0C94082780E155
:1022200090E09093AA1B8093A91BE1E0EC0FE7706C
:10223000E093AD1BF0E0EE0FFF1FE756F44E9183E5
:1022400080838091971B9091981B05969093981B83
:102250008093971B0C9408273093AA1B2093A91BEB
:10226000F901E956FC4F80818093AE1BFA01E756D5
:10227000F44E2F5F3F4F3F70318320838093B61B16
:102280008091971B9091981B08969093981B809330
:10229000971B0C940827EFEFEC0FE770E093AD1B52
:1022A0008091971B9091981B05969093981B809313
:1022B000971B0C9408278091B51B8F5F8093B51BEB
:1022C0008093B11B8091971B9091981B05969093DA
:1022D000981B8093971B0C9408278091B51B815005
:1022E0008093B51B8093B11B8091971B9091981B95
:1022F00005969093981B8093971B0C9408278091C8
:10230000B01B90E0982F88272091B81B822B9093C8
:10231000AC1B8093AB1B282F21702093B01B96958C
:1023200087958093B81B8091971B9091981B059679
:102330009093981B8093971B0C9408278091B11B56
:1023400003DD811105C0EFEFEC0FE770E093AD1BEB
:102350008091971B9091981B04969093981B809363
:10236000971B0C9408273093AA1B2093A91BF901F3
:10237000E956FC4F80818093AE1BFA01E756F44E7C
:102380002F5F3F4F3F7031832083C9DC8091AE1BAC
:102390008093B11B8093B81B8091971B9091981BE1
:1023A00008969093981B8093971B0C94082788E1BC
:1023B00090E09093AA1B8093A91BE1E0EC0FE770DB
:1023C000E093AD1BF0E0EE0FFF1FE756F44E918354
:1023D00080838091971B9091981B05969093981BF2
:1023E0008093971B0C9408273093AA1B2093A91B5A
:1023F000F901E956FC4F80818093AE1BFA01E75644
:10240000F44E2F5F3F4F3F70318320838093B51B85
:102410008091971B9091981B08969093981B80939E
:10242000971B0C940827EFEFEC0FE770E093AD1BC0
:102430008091971B9091981B05969093981B809381
:10244000971B0C9408278091B41B8F5F8093B41B5B
:102450008093B11B8091971B9091981B0596909348
:10246000981B8093971B0C9408278091B41B815074
:102470008093B41B8093B11B8091971B9091981B04
:1024800005969093981B8093971B0C940827809136
:10249000B01B882329F0EFEFEC0FE770E093AD1B42
:1024A0008091971B9091981B04969093981B809312
:1024B000971B0C9408271092B01B3093AA1B2093F3
:1024C000A91BF901E956FC4F8081FA01E756F44E49
:1024D0002F5F3F4F3F70318320839091B81B89233A
:1024E0008093AE1B8093B11B8093B81B8091971B88
:1024F0009091981B08969093981B8093971B0C942F
:10250000082780E290E09093AA1B8093A91BE1E04A
:10251000EC0FE770E093AD1BF0E0EE0FFF1FE75606
:10252000F44E918380838091971B9091981B059620
:102530009093981B8093971B0C9408273093AA1BA9
:102540002093A91BF901E956FC4F80818093AE1BB3
:10255000FA01E756F44E2F5F3F4F3F7031832083DF
:102560008093B41B8091971B9091981B0896909331
:10257000981B8093971B0C940827EFEFEC0FE770E4
:10258000E093AD1B8091971B9091981B05969093BB
:10259000981B8093971B0C9408278091B31B8F5F27
:1025A0008093B31B8093B11B8091971B9091981BD4
:1025B00005969093981B8093971B0C940827809105
:1025C000B31B81508093B31B8093B11B8091971BE9
:1025D0009091981B05969093981B8093971B0C9451
:1025E00008278091B11B811105C0EFEFEC0FE77058
:1025F000E093AD1B8091971B9091981B049690934C
:10260000981B8093971B0C9408271092B01B309353
:10261000AA1B2093A91BF901E956FC4F8081FA01FE
:10262000E756F44E2F5F3F4F3F70318320839091E8
:10263000B81B89278093AE1B8093B11B8093B81B76
:102640008091971B9091981B08969093981B80936C
:10265000971B0C94082788E290E09093AA1B809324
:10266000A91BE1E0EC0FE770E093AD1BF0E0EE0F8B
:10267000FF1FE756F44E918380838091971B9091C2
:10268000981B05969093981B8093971B0C94082792
:102690003093AA1B2093A91BF901E956FC4F8081B6
:1026A0008093AE1BFA01E756F44E2F5F3F4F3F7009
:1026B000318320838093B31B8091971B9091981B4B
:1026C00008969093981B8093971B0C940827EFEF24
:1026D000EC0FE770E093AD1B8091971B9091981BD6
:1026E00005969093981B8093971B0C9408278091D4
:1026F000B21B8F5F8093B21B8093B11B8091971B9D
:102700009091981B05969093981B8093971B0C941F
:1027100008278091B21B81508093B21B8093B11B1C
:102720008091971B9091981B05969093981B80938E
:10273000971B0C9408278091B11B87FF05C0EFEF12
:10274000EC0FE770E093AD1B8091971B9091981B65
:1027500004969093981B8093971B0C9408271092D3
:10276000B01B3093AA1B2093A91BF901E956FC4F1B
:102770008081FA01E756F44E2F5F3F4F3F7031835F
:1027800020839091B81B892B8093AE1B8093B11B43
:102790008093B81B8091971B9091981B08969093FB
:1027A000981B8093971B0C94082780E390E09093EC
:1027B000AA1B8093A91BE1E0EC0FE770E093AD1B2F
:1027C000F0E0EE0FFF1FE756F44E91838083809177
:1027D000971B9091981B05969093981B8093971B3D
:1027E0000C9408273093AA1B2093A91BF901E956E2
:1027F000FC4F80818093AE1BFA01E756F44E2F5FA9
:102800003F4F3F70318320838093B21B8091971B91
:102810009091981B08969093981B8093971B0C940B
:102820000827EFEFEC0FE770E093AD1B8091971B4B
:102830009091981B05969093981B8093971B0C94EE
:1028400008278091B11B80DA882329F0EFEFEC0F85
:10285000E770E093AD1B8091971B9091981B0496B5
:102860009093981B8093971B0C9408271092B01B91
:102870003093AA1B2093A91BF901E956FC4F8081D4
:102880008093AE1BFA01E756F44E2F5F3F4F3F7027
:102890003183208344DA8091AE1B8093B11B8091F9
:1028A000971B9091981B08969093981B8093971B69
:1028B0000C94082788E390E09093AA1B8093A91BAF
:1028C000E1E0EC0FE770E093AD1BF0E0EE0FFF1FCF
:1028D000E756F44E918380838091971B9091981BCB
:1028E00005969093981B8093971B0C940827F901E9
:1028F000E956FC4F60816093AE1BFA01E756F44E37
:102900002F5F3F4F3F70318320838091B31B90E056
:10291000982F88272091B21B822B9093AA1B80931B
:10292000A91B811528E1920720F4FC01E956FC4F10
:1029300060838091971B9091981B09969093981BA8
:102940008093971B0C940827EFEFEC0FE770E09350
:10295000AD1B8091971B9091981B05969093981BA7
:102960008093971B0C940827F901E956FC4F80814E
:1029700090E09093AC1B8093AB1B61816093AE1B86
:10298000962B9093AA1B8093A91BFA01E756F44E4D
:102990002E5F3F4F3F70318320832091B01B211168
:1029A00002C0918380838091971B9091981B0A9617
:1029B0009093981B8093971B0C9408271092AE1B42
:1029C00014D98093AE1B8093B81B8091971B909174
:1029D000981B08969093981B8093971B0C9408273C
:1029E000F901E956FC4F808190E09093AC1B8093F5
:1029F000AB1B61816093AE1B962B9093AA1B8093B7
:102A0000A91BFA01E756F44E2E5F3F4F3F7031830A
:102A100020832091B01B21110CC0E1E0EC0FE77086
:102A2000E093AD1BF0E0EE0FFF1FE756F44E9183ED
:102A300080838091971B9091981B0A969093981B86
:102A40008093971B0C9408271092AE1BFFD880939D
:102A5000AE1B8093B81B8091971B9091981B089692
:102A60009093981B8093971B0C940827F901E956C3
:102A7000FC4F808190E09093AC1B8093AB1B218135
:102A80002093AE1B922B9093AA1B8093A91BFA0153
:102A9000E756F44E918380838091971B9091981B09
:102AA0000B969093981B8093971B0C940827109279
:102AB000AE1B1092B81B8091971B9091981B0896A3
:102AC0009093981B8093971B0C940827F901E95663
:102AD000FC4F808190E09093AC1B8093AB1B618195
:102AE0006093AE1B962B9093AA1B8093A91BFA01AF
:102AF000E756F44E2E5F3F4F3F7031832083E1E075
:102B0000EC0FE770E093AD1BF0E0EE0FFF1FE75610
:102B1000F44E918380838091971B9091981B0B9624
:102B20009093981B8093971B0C9408271092AE1BD0
:102B30001092B81B8091971B9091981B08969093C8
:102B4000981B8093971B0C940827F901E956FC4FBA
:102B5000808190E09093AC1B8093AB1B618160936C
:102B6000AE1B962B9093AA1B8093A91BFA01E756E4
:102B7000F44E2E5F3F4F3F70318320832091B11B75
:102B8000222311F0918380838091971B9091981B51
:102B90000A969093981B8093971B0C940827109289
:102BA000AE1B1092B81B8091971B9091981B0896B2
:102BB0009093981B8093971B0C940827F901E95672
:102BC000FC4F808190E09093AC1B8093AB1B6181A4
:102BD0006093AE1B962B9093AA1B8093A91BFA01BE
:102BE000E756F44E2E5F3F4F3F7031832083209194
:102BF000B11B222361F0E1E0EC0FE770E093AD1B25
:102C0000F0E0EE0FFF1FE756F44E91838083809132
:102C1000971B9091981B0A969093981B8093971BF3
:102C20000C9408271092AE1B1092B81B8091971B32
:102C30009091981B08969093981B8093971B0C94E7
:102C40000827F901E956FC4F808190E09093AC1B76
:102C50008093AB1B21812093AE1B922B9093AA1BD8
:102C60008093A91BFA01E756F44E918380838091EB
:102C7000971B9091981B0B969093981B8093971B92
:102C80000C9408271092AE1B1092B81B8091971BD2
:102C90009091981B08969093981B8093971B0C9487
:102CA0000827F901E956FC4F808190E09093AC1B16
:102CB0008093AB1B61816093AE1B962B9093AA1BF4
:102CC0008093A91BFA01E756F44E2E5F3F4F3F70E9
:102CD00031832083E1E0EC0FE770E093AD1BF0E07F
:102CE000EE0FFF1FE756F44E918380838091971B70
:102CF0009091981B0B969093981B8093971B0C9424
:102D000008271092AE1B1092B81B8091971B9091D0
:102D1000981B08969093981B8093971B0C940827F8
:102D2000F901E956FC4F808190E09093AC1B8093B1
:102D3000AB1B61816093AE1B962B9093AA1B809373
:102D4000A91BFA01E756F44E2E5F3F4F3F703183C7
:102D500020832091B11B27FD02C091838083809145
:102D6000971B9091981B0A969093981B8093971BA2
:102D70000C9408278091B81B8093AE1B81700E9431
:102D8000250E8091971B9091981B06969093981B07
:102D90008093971B0C940827F901E956FC4F80811A
:102DA00090E09093AC1B8093AB1B61816093AE1B52
:102DB000962B9093AA1B8093A91BFA01E756F44E19
:102DC0002E5F3F4F3F70318320832091B11B27FD41
:102DD0000CC0E1E0EC0FE770E093AD1BF0E0EE0F0C
:102DE000FF1FE756F44E918380838091971B90914B
:102DF000981B0A969093981B8093971B0C94082716
:102E00008091B81B8093AE1B8091971B9091981B6B
:102E100006969093981B8093971B0C940827F901B2
:102E2000E956FC4F808190E09093AC1B8093AB1BE4
:102E300021812093AE1B922B9093AA1B8093A91BF8
:102E4000FA01E756F44E918380838091971B90910D
:102E5000981B0B969093981B8093971B0C940827B4
:102E60008091B81B8093AE1B8091971B9091981B0B
:102E700006969093981B8093971B0C940827F90152
:102E8000E956FC4F808190E09093AC1B8093AB1B84
:102E900061816093AE1B962B9093AA1B8093A91B14
:102EA000FA01E756F44E2E5F3F4F3F703183208387
:102EB000E1E0EC0FE770E093AD1BF0E0EE0FFF1FD9
:102EC000E756F44E918380838091971B9091981BD5
:102ED0000B969093981B8093971B0C9408278091D6
:102EE000B81B8093AE1B8091971B9091981B069600
:102EF0009093981B8093971B0C940827F901E9562F
:102F0000FC4F008110E01093AC1B0093AB1B818140
:102F10008093AE1B182B1093AA1B0093A91BEA01E8
:102F2000C756D44E2E5F3F4F3F7039832883809120
:102F3000B11B0E94A40E811102C0198308838091E5
:102F4000971B9091981B0A969093981B8093971BC0
:102F50000C9408278091B81B8093AE1B8091971B1F
:102F60009091981B06969093981B8093971B0C94B6
:102F70000827F901E956FC4F008110E01093AC1BC3
:102F80000093AB1B81818093AE1B182B1093AA1B5F
:102F90000093A91BFA01E756F44E2E5F3F4F3F7096
:102FA000318320838091B11B0E94A40E81110CC03B
:102FB000E1E0EC0FE770E093AD1BF0E0EE0FFF1FD8
:102FC000E756F44E118300838091971B9091981BD4
:102FD0000A969093981B8093971B0C9408278091D6
:102FE000B81B8093AE1B8091971B9091981B0696FF
:102FF0009093981B8093971B0C940827F901E9562E
:10300000FC4F808190E09093AC1B8093AB1B21819F
:103010002093AE1B922B9093AA1B8093A91BFA01BD
:10302000E756F44E918380838091971B9091981B73
:103030000B969093981B8093971B0C940827809174
:10304000B81B8093AE1B0E94FF0D8091971B90913F
:10305000981B06969093981B8093971B0C940827B7
:10306000F901E956FC4F808190E09093AC1B80936E
:10307000AB1B61816093AE1B962B9093AA1B809330
:10308000A91BFA01E756F44E2E5F3F4F3F70318384
:103090002083E1E0EC0FE770E093AD1BF0E0EE0F72
:1030A000FF1FE756F44E918380838091971B909188
:1030B000981B0B969093981B8093971B0C94082752
:1030C0008091B81B8093AE1B8091971B9091981BA9
:1030D00006969093981B8093971B0C940827F901F0
:1030E000E956FC4F808190E09093AC1B8093AB1B22
:1030F00061816093AE1B962B9093AA1B8093A91BB2
:10310000FA01E756F44E2E5F3F4F3F703183208324
:103110002091B01B222311F0918380838091971B13
:103120009091981B0A969093981B8093971B0C94F0
:1031300008278091B81B8093AE1B8091971B9091BC
:10314000981B06969093981B8093971B0C940827C6
:10315000F901E956FC4F808190E09093AC1B80937D
:10316000AB1B61816093AE1B962B9093AA1B80933F
:10317000A91BFA01E756F44E2E5F3F4F3F70318393
:1031800020832091B01B222361F0E1E0EC0FE77077
:10319000E093AD1BF0E0EE0FFF1FE756F44E918376
:1031A00080838091971B9091981B0A969093981B0F
:1031B0008093971B0C9408278091B81B8093AE1BBB
:1031C0008091971B9091981B06969093981B8093E3
:1031D000971B0C940827F901E956FC4F808190E079
:1031E0009093AC1B8093AB1B21812093AE1B922B41
:1031F0009093AA1B8093A91BFA01E756F44E918382
:1032000080838091971B9091981B0B969093981BAD
:103210008093971B0C9408278091B81B8093AE1B5A
:103220008091971B9091981B06969093981B809382
:10323000971B0C940827F901E956FC4F808190E018
:103240009093AC1B8093AB1B61816093AE1B962B5C
:103250009093AA1B8093A91BFA01E756F44E2E5FA8
:103260003F4F3F7031832083E1E0EC0FE770E09344
:10327000AD1BF0E0EE0FFF1FE756F44E9183808305
:103280008091971B9091981B0B969093981B80931D
:10329000971B0C9408278091B81B8093AE1B8091DC
:1032A000971B9091981B06969093981B8093971B61
:1032B0000C940827F901E956FC4F808190E0909327
:1032C000AC1B8093AB1B61816093AE1B962B9093DC
:1032D000AA1B8093A91BFA01E756F44E2E5F3F4FBD
:1032E0003F70318320832091B11B211102C0918353
:1032F00080838091971B9091981B0A969093981BBE
:103300008093971B0C9408278091B81B8093AE1B69
:103310008091971B9091981B06969093981B809391
:10332000971B0C940827F901E956FC4F808190E027
:103330009093AC1B8093AB1B61816093AE1B962B6B
:103340009093AA1B8093A91BFA01E756F44E2E5FB7
:103350003F4F3F70318320832091B11B21110CC05E
:10336000E1E0EC0FE770E093AD1BF0E0EE0FFF1F24
:10337000E756F44E918380838091971B9091981B20
:103380000A969093981B8093971B0C940827809122
:10339000B81B8093AE1B8091971B9091981B06964B
:1033A0009093981B8093971B0C940827F901E9567A
:1033B000FC4F808190E09093AC1B8093AB1B2181EC
:1033C0002093AE1B922B9093AA1B8093A91BFA010A
:1033D000E756F44E918380838091971B9091981BC0
:1033E0000B969093981B8093971B0C9408278091C1
:1033F000B81B8093AE1B8091971B9091981B0696EB
:103400009093981B8093971B0C940827F901E95619
:10341000FC4F808190E09093AC1B8093AB1B61814B
:103420006093AE1B962B9093AA1B8093A91BFA0165
:10343000E756F44E2E5F3F4F3F7031832083E1E02B
:10344000EC0FE770E093AD1BF0E0EE0FFF1FE756C7
:10345000F44E918380838091971B9091981B0B96DB
:103460009093981B8093971B0C9408278091B81B0E
:103470008093AE1B8091971B9091981B069690931A
:10348000981B8093971B0C940827F901E956FC4F71
:10349000808190E09093AC1B8093AB1B6181609323
:1034A000AE1B962B9093AA1B8093A91BFA01E7569B
:1034B000F44E2E5F3F4F3F70318320832091B11B2C
:1034C00027FF02C0918380838091971B9091981B66
:1034D0000A969093981B8093971B0C9408278091D1
:1034E000B81B8093AE1B8091971B9091981B0696FA
:1034F0009093981B8093971B0C940827F901E95629
:10350000FC4F808190E09093AC1B8093AB1B61815A
:103510006093AE1B962B9093AA1B8093A91BFA0174
:10352000E756F44E2E5F3F4F3F703183208320914A
:10353000B11B27FF0CC0E1E0EC0FE770E093AD1B7F
:10354000F0E0EE0FFF1FE756F44E918380838091E9
:10355000971B9091981B0A969093981B8093971BAA
:103560000C9408278091B81B8093AE1B8091971B09
:103570009091981B06969093981B8093971B0C94A0
:103580000827F901E956FC4F808190E09093AC1B2D
:103590008093AB1B21812093AE1B922B9093AA1B8F
:1035A0008093A91BFA01E756F44E918380838091A2
:1035B000971B9091981B0B969093981B8093971B49
:1035C0000C9408278091B81B8093AE1B8091971BA9
:1035D0009091981B06969093981B8093971B0C9440
:1035E0000827F901E956FC4F808190E09093AC1BCD
:1035F0008093AB1B61816093AE1B962B9093AA1BAB
:103600008093A91BFA01E756F44E2E5F3F4F3F709F
:1036100031832083E1E0EC0FE770E093AD1BF0E035
:10362000EE0FFF1FE756F44E918380838091971B26
:103630009091981B0B969093981B8093971B0C94DA
:1036400008278091B81B8093AE1B8091971B9091A7
:10365000981B06969093981B8093971B0C940827B1
:10366000F901E956FC4F008110E01093AC1B009368
:10367000AB1B81818093AE1B182B1093AA1B009368
:10368000A91BEA01C756D44E2E5F3F4F3F703983C6
:1036900028838091B11B0E94A40E882311F0198306
:1036A00008838091971B9091981B0A969093981B82
:1036B0008093971B0C9408278091B81B8093AE1BB6
:1036C0008091971B9091981B06969093981B8093DE
:1036D000971B0C940827F901E956FC4F008110E074
:1036E0001093AC1B0093AB1B81818093AE1B182BF6
:1036F0001093AA1B0093A91BFA01E756F44E2E5F04
:103700003F4F3F70318320838091B11B0E94A40EF4
:10371000882361F0E1E0EC0FE770E093AD1BF0E08F
:10372000EE0FFF1FE756F44E118300838091971B25
:103730009091981B0A969093981B8093971B0C94DA
:1037400008278091B81B8093AE1B8091971B9091A6
:10375000981B06969093981B8093971B0C940827B0
:10376000F901E956FC4F808190E09093AC1B809367
:10377000AB1B21812093AE1B922B9093AA1B8093AD
:10378000A91BFA01E756F44E918380838091971B21
:103790009091981B0B969093981B8093971B0C9479
:1037A00008278091B81B8093AE1B8091971B909146
:1037B000981B06969093981B8093971B0C94082750
:1037C000F901E956FC4F808190E09093AC1B809307
:1037D000AB1B61816093AE1B962B9093AA1B8093C9
:1037E000A91BFA01E756F44E2E5F3F4F3F7031831D
:1037F0002083E1E0EC0FE770E093AD1BF0E0EE0F0B
:10380000FF1FE756F44E918380838091971B909120
:10381000981B0B969093981B8093971B0C940827EA
:103820008091B81B8093AE1B8091971B9091981B41
:1038300006969093981B8093971B0C9408271092E0
:10384000B01B8091B81B8093AE1B0E947B0E8091B1
:10385000AE1B8093B11B8093B81B8091971B9091F6
:10386000981B05969093981B8093971B0C940827A0
:103870001092B01B8091B71B8093AE1B0E947B0EF1
:103880008091AE1B8093B11B8093B81B8091971BD6
:103890009091981B05969093981B8093971B0C947E
:1038A00008271092B01B8091B61B8093AE1B0E941C
:1038B0007B0E8091AE1B8093B11B8093B81B8091CF
:1038C000971B9091981B05969093981B8093971B3C
:1038D0000C9408271092B01B8091B51B8093AE1BEF
:1038E0000E947B0E8091AE1B8093B11B8093B81B0E
:1038F0008091971B9091981B05969093981B8093AD
:10390000971B0C9408271092B01B8091B41B8093D6
:10391000AE1B0E947B0E8091AE1B8093B11B8093E7
:10392000B81B8091971B9091981B05969093981BBC
:103930008093971B0C9408271092B01B8091B31BA7
:103940008093AE1B0E947B0E8091AE1B8093B11BB7
:103950008093B81B8091971B9091981B059690932C
:10396000981B8093971B0C9408271092B01B809192
:10397000B21B8093AE1B0E947B0E8091AE1B809386
:10398000B11B8093B81B8091971B9091981B059653
:103990009093981B8093971B0C9408271092B01B50
:1039A0008091B31B90E0982F88272091B21B822B27
:1039B0009093AA1B8093A91B811538E1930728F4E3
:1039C000FC01E956FC4F808101C08FEF8093AE1B54
:1039D0000E947B0E8091AE1B8093B11B8093B81B1D
:1039E0008091971B9091981B08969093981B8093B9
:1039F000971B0C9408278091B81B8093AE1B0E94E4
:103A00007B0E8091AE1B8093B11B8093B81B80917D
:103A1000971B9091981B05969093981B8093971BEA
:103A20000C9408278091B71B8093AE1B0E947B0EDD
:103A30008091AE1B8093B11B8093B81B8091971B24
:103A40009091981B05969093981B8093971B0C94CC
:103A500008278091B61B8093AE1B0E947B0E80913D
:103A6000AE1B8093B11B8093B81B8091971B9091E4
:103A7000981B05969093981B8093971B0C9408278E
:103A80008091B51B8093AE1B0E947B0E8091AE1B74
:103A90008093B11B8093B81B8091971B9091981BCA
:103AA00005969093981B8093971B0C940827809100
:103AB000B41B8093AE1B0E947B0E8091AE1B809343
:103AC000B11B8093B81B8091971B9091981B059612
:103AD0009093981B8093971B0C9408278091B31B9D
:103AE0008093AE1B0E947B0E8091AE1B8093B11B16
:103AF0008093B81B8091971B9091981B059690938B
:103B0000981B8093971B0C9408278091B21B80937D
:103B1000AE1B0E947B0E8091AE1B8093B11B8093E5
:103B2000B81B8091971B9091981B05969093981BBA
:103B30008093971B0C9408278091B31B90E0982FDB
:103B400088272091B21B822B9093AA1B8093A91BDC
:103B5000811528E1920728F4FC01E956FC4F808189
:103B600001C08FEF8093AE1B0E947B0E8091AE1B35
:103B70008093B11B8093B81B8091971B9091981BE9
:103B800008969093981B8093971B0C94082710928B
:103B9000B01B8091B81B8093AE1B0E948F0E80914A
:103BA000AE1B8093B11B8093B81B8091971B9091A3
:103BB000981B05969093981B8093971B0C9408274D
:103BC0001092B01B8091B71B8093AE1B0E948F0E8A
:103BD0008091AE1B8093B11B8093B81B8091971B83
:103BE0009091981B05969093981B8093971B0C942B
:103BF00008271092B01B8091B61B8093AE1B0E94C9
:103C00008F0E8091AE1B8093B11B8093B81B809167
:103C1000971B9091981B05969093981B8093971BE8
:103C20000C9408271092B01B8091B51B8093AE1B9B
:103C30000E948F0E8091AE1B8093B11B8093B81BA6
:103C40008091971B9091981B05969093981B809359
:103C5000971B0C9408271092B01B8091B41B809383
:103C6000AE1B0E948F0E8091AE1B8093B11B809380
:103C7000B81B8091971B9091981B05969093981B69
:103C80008093971B0C9408271092B01B8091B31B54
:103C90008093AE1B0E948F0E8091AE1B8093B11B50
:103CA0008093B81B8091971B9091981B05969093D9
:103CB000981B8093971B0C9408271092B01B80913F
:103CC000B21B8093AE1B0E948F0E8091AE1B80931F
:103CD000B11B8093B81B8091971B9091981B059600
:103CE0009093981B8093971B0C9408271092B01BFD
:103CF0008091B31B90E0982F88272091B21B822BD4
:103D00009093AA1B8093A91B811538E1930728F48F
:103D1000FC01E956FC4F808101C08FEF8093AE1B00
:103D20000E948F0E8091AE1B8093B11B8093B81BB5
:103D30008091971B9091981B08969093981B809365
:103D4000971B0C9408278091B81B8093AE1B0E9490
:103D50008F0E8091AE1B8093B11B8093B81B809116
:103D6000971B9091981B05969093981B8093971B97
:103D70000C9408278091B71B8093AE1B0E948F0E76
:103D80008091AE1B8093B11B8093B81B8091971BD1
:103D90009091981B05969093981B8093971B0C9479
:103DA00008278091B61B8093AE1B0E948F0E8091D6
:103DB000AE1B8093B11B8093B81B8091971B909191
:103DC000981B05969093981B8093971B0C9408273B
:103DD0008091B51B8093AE1B0E948F0E8091AE1B0D
:103DE0008093B11B8093B81B8091971B9091981B77
:103DF00005969093981B8093971B0C9408278091AD
:103E0000B41B8093AE1B0E948F0E8091AE1B8093DB
:103E1000B11B8093B81B8091971B9091981B0596BE
:103E20009093981B8093971BF3C78091B31B80934B
:103E3000AE1B0E948F0E8091AE1B8093B11B8093AE
:103E4000B81B8091971B9091981B05969093981B97
:103E50008093971BDDC78091B21B8093AE1B0E949D
:103E60008F0E8091AE1B8093B11B8093B81B809105
:103E7000971B9091981B05969093981B8093971B86
:103E8000C7C78091B31B90E0982F88272091B21B61
:103E9000822B9093AA1B8093A91B811528E192077E
:103EA00028F4FC01E956FC4F808101C08FEF80931C
:103EB000AE1B0E948F0E8091AE1B8093B11B80932E
:103EC000B81B8091971B9091981B08969093981B14
:103ED0008093971B9DC71092B01B8091B81B809355
:103EE000AE1B8093B11B8091971B9091981B0596F8
:103EF0009093981B8093971B8BC71092B01B809157
:103F0000B81B9091B71B89238093AE1B8093B11B84
:103F10008093B81B8091971B9091981B0596909366
:103F2000981B8093971B74C71092B01B8091B81B8D
:103F30009091B61B89238093AE1B8093B11B809315
:103F4000B81B8091971B9091981B05969093981B96
:103F50008093971B5DC71092B01B8091B81B909106
:103F6000B51B89238093AE1B8093B11B8093B81B34
:103F70008091971B9091981B05969093981B809326
:103F8000971B46C71092B01B8091B81B9091B41B31
:103F900089238093AE1B8093B11B8093B81B8091C3
:103FA000971B9091981B05969093981B8093971B55
:103FB0002FC71092B01B8091B81B9091B31B89231F
:103FC0008093AE1B8093B11B8093B81B8091971B8D
:103FD0009091981B05969093981B8093971B18C7F8
:103FE0001092B01B8091B81B9091B21B89238093D3
:103FF000AE1B8093B11B8093B81B8091971B90914F
:10400000981B05969093981B8093971B01C710925D
:10401000B01B8091B31B90E0982F88272091B21B92
:10402000822B9093AA1B8093A91B811538E19307DB
:1040300028F4FC01E956FC4F908101C09FEF80916C
:10404000B81B89238093AE1B8093B11B8093B81B50
:104050008091971B9091981B08969093981B809342
:10406000971BD6C61092B01B1092AE1B1092B11BBC
:104070001092B81B8091971B9091981B0596909376
:10408000981B8093971BC4C61092B01B8091B81BDD
:104090009091B71B89278093AE1B8093B11B8093AF
:1040A000B81B8091971B9091981B05969093981B35
:1040B0008093971BADC61092B01B8091B81B909156
:1040C000B61B89278093AE1B8093B11B8093B81BCE
:1040D0008091971B9091981B05969093981B8093C5
:1040E000971B96C61092B01B8091B81B9091B51B80
:1040F00089278093AE1B8093B11B8093B81B80915E
:10410000971B9091981B05969093981B8093971BF3
:104110007FC61092B01B8091B81B9091B41B892769
:104120008093AE1B8093B11B8093B81B8091971B2B
:104130009091981B05969093981B8093971B68C647
:104140001092B01B8091B81B9091B31B892780936C
:10415000AE1B8093B11B8093B81B8091971B9091ED
:10416000981B05969093981B8093971B51C61092AD
:10417000B01B8091B81B9091B21B89278093AE1B16
:104180008093B11B8093B81B8091971B9091981BD3
:1041900005969093981B8093971B3AC61092B01B7C
:1041A0008091B31B90E0982F88272091B21B822B1F
:1041B0009093AA1B8093A91B811528E1920728F4EC
:1041C000FC01E956FC4F908101C09FEF8091B81B24
:1041D00089278093AE1B8093B11B8093B81B80917D
:1041E000971B9091981B08969093981B8093971B10
:1041F0000FC61092B01B8091B81B8093AE1B8093AA
:10420000B11B8091971B9091981B05969093981BDA
:104210008093971BFDC51092B01B8091B81B9091A5
:10422000B71B892B8093AE1B8093B11B8093B81B67
:104230008091971B9091981B05969093981B809363
:10424000971BE6C51092B01B8091B81B9091B61BCE
:10425000892B8093AE1B8093B11B8093B81B8091F8
:10426000971B9091981B05969093981B8093971B92
:10427000CFC51092B01B8091B81B9091B51B892BB4
:104280008093AE1B8093B11B8093B81B8091971BCA
:104290009091981B05969093981B8093971BB8C597
:1042A0001092B01B8091B81B9091B41B892B809306
:1042B000AE1B8093B11B8093B81B8091971B90918C
:1042C000981B05969093981B8093971BA1C51092FD
:1042D000B01B8091B81B9091B31B892B8093AE1BB0
:1042E0008093B11B8093B81B8091971B9091981B72
:1042F00005969093981B8093971B8AC51092B01BCC
:104300008091B81B9091B21B892B8093AE1B809338
:10431000B11B8093B81B8091971B9091981B0596B9
:104320009093981B8093971B73C51092B01B80913C
:10433000B31B90E0982F88272091B21B822B90937B
:10434000AA1B8093A91B811538E1930728F4FC016F
:10435000E956FC4F908101C09FEF8091B81B892BDB
:104360008093AE1B8093B11B8093B81B8091971BE9
:104370009091981B08969093981B8093971B48C523
:104380001092B01B8091B81B8093AE1B0E948F0EC1
:104390008091AE1B8093B11B8091971B9091981BCD
:1043A00005969093981B8093971B32C51092B01B73
:1043B0008091B71B8093AE1B0E948F0E8091AE1B25
:1043C0008093B11B8091971B9091981B05969093B9
:1043D000981B8093971B1CC51092B01B8091B61B35
:1043E0008093AE1B0E948F0E8091AE1B8093B11BF9
:1043F0008091971B9091981B05969093981B8093A2
:10440000971B06C51092B01B8091B51B8093AE1B05
:104410000E948F0E8091AE1B8093B11B8091971BE1
:104420009091981B05969093981B8093971BF0C4CE
:104430001092B01B8091B41B8093AE1B0E948F0E14
:104440008091AE1B8093B11B8091971B9091981B1C
:1044500005969093981B8093971BDAC41092B01B1B
:104460008091B31B8093AE1B0E948F0E8091AE1B78
:104470008093B11B8091971B9091981B0596909308
:10448000981B8093971BC4C41092B01B8091B21BE1
:104490008093AE1B0E948F0E8091AE1B8093B11B48
:1044A0008091971B9091981B05969093981B8093F1
:1044B000971BAEC41092B01B8091B31B90E0982F55
:1044C00088272091B21B822B9093AA1B8093A91B53
:1044D000811528E1920728F4FC01E956FC4F808100
:1044E00001C08FEF8093AE1B0E948F0E8091AE1B98
:1044F0008093B11B8091971B9091981B0896909385
:10450000981B8093971B84C48091971B9091981B54
:1045100005969093981B8093971B7AC48091B71B44
:104520008093B81B8091971B9091981B0596909350
:10453000981B8093971B6CC48091B61B8093B81B0B
:104540008091971B9091981B05969093981B809350
:10455000971B5EC48091B51B8093B81B8091971BFD
:104560009091981B05969093981B8093971B50C42D
:104570008091B41B8093B81B8091971B9091981BDE
:1045800005969093981B8093971B42C48091B31B10
:104590008093B81B8091971B9091981B05969093E0
:1045A000981B8093971B34C48091B21B8093B81BD7
:1045B0008091971B9091981B05969093981B8093E0
:1045C000971B26C48091B31B90E0982F88272091D9
:1045D000B21B822B9093AA1B8093A91B811538E1F3
:1045E000930728F4FC01E956FC4F808101C08FEF4E
:1045F0008093AE1B8093B81B8091971B9091981B62
:1046000008969093981B8093971B02C48091B81BC7
:104610008093B71B8091971B9091981B0596909360
:10462000981B8093971BF4C38091971B9091981BC4
:1046300005969093981B8093971BEAC38091B61BB5
:104640008093B71B8091971B9091981B0596909330
:10465000981B8093971BDCC38091B51B8093B71B7D
:104660008091971B9091981B05969093981B80932F
:10467000971BCEC38091B41B8093B71B8091971B6F
:104680009091981B05969093981B8093971BC0C39D
:104690008091B31B8093B71B8091971B9091981BBF
:1046A00005969093981B8093971BB2C38091B21B81
:1046B0008093B71B8091971B9091981B05969093C0
:1046C000981B8093971BA4C38091B31B90E0982FF5
:1046D00088272091B21B822B9093AA1B8093A91B41
:1046E000811528E1920728F4FC01E956FC4F8081EE
:1046F00001C08FEF8093AE1B8093B71B8091971BF7
:104700009091981B08969093981B8093971B80C359
:104710008091B81B8093B61B8091971B9091981B3A
:1047200005969093981B8093971B72C38091B71B3B
:104730008093B61B8091971B9091981B0596909340
:10474000981B8093971B64C38091971B9091981B33
:1047500005969093981B8093971B5AC38091B51B25
:104760008093B61B8091971B9091981B0596909310
:10477000981B8093971B4CC38091B41B8093B61BEE
:104780008091971B9091981B05969093981B80930E
:10479000971B3EC38091B31B8093B61B8091971BE0
:1047A0009091981B05969093981B8093971B30C30C
:1047B0008091B21B8093B61B8091971B9091981BA0
:1047C00005969093981B8093971B22C38091B31BEF
:1047D00090E0982F88272091B21B822B9093AA1BE0
:1047E0008093A91B811538E1930728F4FC01E95651
:1047F000FC4F808101C08FEF8093AE1B8093B61B6E
:104800008091971B9091981B08969093981B80938A
:10481000971BFEC28091B81B8093B51B8091971B9C
:104820009091981B05969093981B8093971BF0C2CC
:104830008091B71B8093B51B8091971B9091981B1B
:1048400005969093981B8093971BE2C28091B61BAC
:104850008093B51B8091971B9091981B0596909320
:10486000981B8093971BD4C28091971B9091981BA3
:1048700005969093981B8093971BCAC28091B41B96
:104880008093B51B8091971B9091981B05969093F0
:10489000981B8093971BBCC28091B31B8093B51B60
:1048A0008091971B9091981B05969093981B8093ED
:1048B000971BAEC28091B21B8093B51B8091971B52
:1048C0009091981B05969093981B8093971BA0C27C
:1048D0008091B31B90E0982F88272091B21B822BE8
:1048E0009093AA1B8093A91B811528E1920728F4B5
:1048F000FC01E956FC4F808101C08FEF8093AE1B15
:104900008093B51B8091971B9091981B089690936C
:10491000981B8093971B7CC28091B81B8093B41B1B
:104920008091971B9091981B05969093981B80936C
:10493000971B6EC28091B71B8093B41B8091971B0D
:104940009091981B05969093981B8093971B60C23B
:104950008091B61B8093B41B8091971B9091981BFC
:1049600005969093981B8093971B52C28091B51B1C
:104970008093B41B8091971B9091981B0596909300
:10498000981B8093971B44C28091971B9091981B12
:1049900005969093981B8093971B3AC28091B31B06
:1049A0008093B41B8091971B9091981B05969093D0
:1049B000981B8093971B2CC28091B21B8093B41BD1
:1049C0008091971B9091981B05969093981B8093CC
:1049D000971B1EC28091B31B90E0982F88272091CF
:1049E000B21B822B9093AA1B8093A91B811538E1DF
:1049F000930728F4FC01E956FC4F808101C08FEF3A
:104A00008093AE1B8093B41B8091971B9091981B51
:104A100008969093981B8093971BFAC18091B81BBE
:104A20008093B31B8091971B9091981B0596909350
:104A3000981B8093971BECC18091B71B8093B31B8D
:104A40008091971B9091981B05969093981B80934B
:104A5000971BDEC18091B61B8093B31B8091971B7F
:104A60009091981B05969093981B8093971BD0C1AB
:104A70008091B51B8093B31B8091971B9091981BDD
:104A800005969093981B8093971BC2C18091B41B8D
:104A90008093B31B8091971B9091981B05969093E0
:104AA000981B8093971BB4C18091971B9091981B82
:104AB00005969093981B8093971BAAC18091B21B77
:104AC0008093B31B8091971B9091981B05969093B0
:104AD000981B8093971B9CC18091B31B90E0982FEB
:104AE00088272091B21B822B9093AA1B8093A91B2D
:104AF000811528E1920728F4FC01E956FC4F8081DA
:104B000001C08FEF8093AE1B8093B31B8091971BE6
:104B10009091981B08969093981B8093971B78C14F
:104B20008091B81B8093B21B8091971B9091981B2A
:104B300005969093981B8093971B6AC18091B71B31
:104B40008093B21B8091971B9091981B0596909330
:104B5000981B8093971B5CC18091B61B8093B21BFE
:104B60008091971B9091981B05969093981B80932A
:104B7000971B4EC18091B51B8093B21B8091971BF0
:104B80009091981B05969093981B8093971B40C11A
:104B90008091B41B8093B21B8091971B9091981BBE
:104BA00005969093981B8093971B32C18091B31BFD
:104BB0008093B21B8091971B9091981B05969093C0
:104BC000981B8093971B24C18091971B9091981BF1
:104BD00005969093981B8093971B1AC18091B31BE5
:104BE00090E0982F88272091B21B822B9093AA1BCC
:104BF0008093A91B811538E1930728F4FC01E9563D
:104C0000FC4F808101C08FEF8093AE1B8093B21B5D
:104C10008091971B9091981B08969093981B809376
:104C2000971BF6C08091B31B90E0982F88272091A6
:104C3000B21B822B9093AA1B8093A91B2091B81BB7
:104C40002093AE1B811538E1930720F4FC01E9564F
:104C5000FC4F20838091971B9091981B079690930F
:104C6000981B8093971BD4C08091B31B90E0982F22
:104C700088272091B21B822B9093AA1B8093A91B9B
:104C80002091B71B2093AE1B811538E1930720F4C8
:104C9000FC01E956FC4F20838091971B9091981B53
:104CA00007969093981B8093971BB2C08091B31B7B
:104CB00090E0982F88272091B21B822B9093AA1BFB
:104CC0008093A91B2091B61B2093AE1B811538E160
:104CD000930720F4FC01E956FC4F20838091971B39
:104CE0009091981B07969093981B8093971B90C068
:104CF0008091B31B90E0982F88272091B21B822BC4
:104D00009093AA1B8093A91B2091B51B2093AE1BE7
:104D1000811538E1930720F4FC01E956FC4F20830C
:104D20008091971B9091981B07969093981B809366
:104D3000971B6EC08091B31B90E0982F882720911D
:104D4000B21B822B9093AA1B8093A91B2091B41BAA
:104D50002093AE1B811538E1930720F4FC01E9563E
:104D6000FC4F20838091971B9091981B07969093FE
:104D7000981B8093971B4CC02091B31B822F90E00F
:104D8000982F88273091B21B832B9093AA1B809376
:104D9000A91B2093AE1B811538E1930720F4FC0179
:104DA000E956FC4F20838091971B9091981B0796A2
:104DB0009093981B8093971B2BC02091B21B30912E
:104DC000B31B822F90E0932B9093AA1B8093A91B77
:104DD0002093AE1B811538E1930720F4FC01E956BE
:104DE000FC4F20838091971B9091981B079690937E
:104DF000981B8093971B0CC081E08093AF1B809120
:104E0000971B9091981B04969093981B8093971BE7
:104E10008091AF1B811108C08091971B9091981BC6
:104E20008634904128F412C01092981B1092971B60
:104E30008091971B9091981B865490419093981B5A
:104E40008093971B0E94A80D8CE301C080E0DF9146
:104E5000CF911F910F9108950895B5D0FDDF0E9465
:104E6000320EC0E0D0E00E94330E2097E1F30E94A2
:104E70000000F9CF1F920F920FB60F9211242F93BB
:104E80003F938F939F93AF93BF938091BA1B909161
:104E9000BB1BA091BC1BB091BD1B3091B91B23E083
:104EA000230F2D3720F40196A11DB11D05C026E862
:104EB000230F0296A11DB11D2093B91B8093BA1B2D
:104EC0009093BB1BA093BC1BB093BD1B8091BE1BDA
:104ED0009091BF1BA091C01BB091C11B0196A11D59
:104EE000B11D8093BE1B9093BF1BA093C01BB093BA
:104EF000C11BBF91AF919F918F913F912F910F90C7
:104F00000FBE0F901F9018952FB7F8946091BA1BA1
:104F10007091BB1B8091BC1B9091BD1B2FBF08954E
:104F20003FB7F8948091BE1B9091BF1BA091C01B0E
:104F3000B091C11B26B5A89B05C02F3F19F0019663
:104F4000A11DB11D3FBF6627782F892F9A2F620FB1
:104F5000711D811D911D42E0660F771F881F991FEB
:104F60004A95D1F70895CF92DF92EF92FF92CF93B7
:104F7000DF936B017C01D4DFEB01C114D104E104A8
:104F8000F10479F06BD1CCDF6C1B7D0B683E734074
:104F9000A0F381E0C81AD108E108F108C851DC4F3C
:104FA000ECCFDF91CF91FF90EF90DF90CF900895FD
:104FB0000197009739F0880F991F880F991F029762
:104FC0000197F1F70895789484B5826084BD84B523
:104FD000816084BD85B5826085BD85B5816085BDF4
:104FE000EEE6F0E0808181608083E1E8F0E010820D
:104FF000808182608083808181608083E0E8F0E04E
:10500000808181608083E1EBF0E080818460808337
:10501000E0EBF0E0808181608083E1E9F0E0808175
:1050200082608083808181608083E0E9F0E080811C
:1050300081608083E1EAF0E080818260808380810A
:1050400081608083E0EAF0E0808181608083E1E23A
:10505000F1E0808182608083808181608083E0E2F2
:10506000F1E0808181608083EAE7F0E08081846004
:105070008083808182608083808181608083808161
:10508000806880831092C100089590E0FC01319700
:10509000E231F10508F04BC0EE58FE4F34C4809168
:1050A00080008F7703C0809180008F7D8093800087
:1050B000089580918000877FF9CF84B58F7702C0F3
:1050C00084B58F7D84BD08958091B0008F7703C033
:1050D0008091B0008F7D8093B00008958091900002
:1050E0008F7707C0809190008F7D03C080919000E2
:1050F000877F8093900008958091A0008F7707C0EC
:105100008091A0008F7D03C08091A000877F809355
:10511000A0000895809120018F7707C08091200121
:105120008F7D03C080912001877F809320010895A7
:10513000CF93DF9390E0FC01E45AFB4E2491FC01F5
:10514000EE55FB4E8491882349F190E0880F991F1A
:10515000FC01E45EFA4EA591B4918E5F9A4EFC017B
:10516000C591D4919FB7611108C0F8948C91209596
:1051700082238C93888182230AC0623051F4F89490
:105180008C91322F309583238C938881822B888356
:1051900004C0F8948C91822B8C939FBFDF91CF91A8
:1051A00008950F931F93CF93DF931F92CDB7DEB770
:1051B000282F30E0F901EA5EFB4E8491F901E45AB0
:1051C000FB4E1491F901EE55FB4E04910023C1F002
:1051D000882319F0698359DF6981E02FF0E0EE0F31
:1051E000FF1FEE5FFA4EA591B4919FB7F8948C9192
:1051F000611103C01095812301C0812B8C939FBF47
:105200000F90DF91CF911F910F910895CF93DF936E
:10521000282F30E0F901EA5EFB4E8491F901E45A4F
:10522000FB4ED491F901EE55FB4EC491CC2389F08D
:1052300081112BDFEC2FF0E0EE0FFF1FE851FB4E4A
:10524000A591B4912C912D2381E090E021F480E090
:1052500002C080E090E0DF91CF9108950895209101
:10526000C91B3091CA1B9091C21BD901A05FBE4FD0
:105270008091CE1B4091CF1B841304C09093C21B1E
:1052800080E008958F5F8D3208F080E0E82FF0E035
:10529000E053F44EE0818093CE1BEE2379F3E03FA0
:1052A00011F49160E5CFE03E11F49260E1CF90FF00
:1052B0000EC0E23111F49B7F08C0E93511F4977FED
:1052C00004C0E13111F491FD9F7E9C7FD1CFE2318A
:1052D00011F49460CDCFE93511F49860C9CFE13174
:1052E00011F491FD906191FF08C0EA54E43318F580
:1052F000F0E0EC5EFD4FE0811FC094FF09C08C918F
:10530000882331F0E838B8F4F0E0EF5EFE4F08C0D3
:10531000892F8C7041F0E83870F4F0E0E857FF4FC7
:10532000E20FF31F06C0E83830F4A9014E0F511DFB
:10533000FA01E49101C0E0E09C7FEE2309F498CFEC
:105340009093C21B8E2F0895CF92DF92EF92FF921F
:105350000F931F93CF93DF938091CD1B57DFEC0109
:10536000D3DD0091C51B1091C61B2091C71B309146
:10537000C81B6B017C01C01AD10AE20AF30A97012B
:1053800086010B3F11052105310520F01092C41B49
:105390001092C31B6093C51B7093C61B8093C71BE1
:1053A0009093C81B9091C41B8FEF890F883050F4E5
:1053B000DD2701C0CC0F8A95EAF78091C31B8C2BA7
:1053C0008093C31B81E0890F8093C41B8B30B9F499
:1053D0008091CF1B8F5F8D3208F080E09091CE1BC3
:1053E000891749F0E82FF0E09091C31BE053F44E89
:1053F00090838093CF1B1092C41B1092C31BDF912C
:10540000CF911F910F91FF90EF90DF90CF90089573
:105410008091CC1B81110DC08091CB1B811109C0E3
:105420001EDF982F8093CC1B81E0911103C080E098
:10543000089581E008958091CB1B882319F0109284
:10544000CB1B17C08091CC1B882319F01092CC1B6A
:1054500001C005DF87FF0BC0982F9F739068909362
:10546000CB1B8295869586958370806C02C08823BD
:1054700011F090E008958FEF9FEF08950895CF9376
:10548000DF93D82FC62F8093CD1B5093CA1B409318
:10549000C91B62E08C2F4CDE62E08D2F49DEC250CA
:1054A000C43130F4EC2FF0E0E050FE4F808101C0B9
:1054B0008FEF1092CF1B1092CE1B8F3F39F042E03E
:1054C00050E064EA79E2DF91CF9103C0DF91CF91A0
:1054D0000895883008F06CC0E82FF0E0EE0FFF1F51
:1054E000E350F44E7183608390E0FC013197E73024
:1054F000F10588F5EC57FE4F06C2809169008C7F5C
:10550000842B80936900E89A089580916900440F84
:10551000551F440F551F837F842B80936900E99AA0
:1055200008958091690074E0440F551F7A95E1F762
:105530008F7C842B80936900EA9A0895809169009A
:1055400066E0440F551F6A95E1F78F73842B8093B3
:105550006900EB9A089580916A008C7F842B809378
:105560006A00EC9A089580916A00440F551F440F19
:10557000551F837F842B80936A00ED9A0895809154
:105580006A0024E0440F551F2A95E1F78F7C842B95
:1055900080936A00EE9A089580916A0096E0440F25
:1055A000551F9A95E1F78F73842B80936A00EF9AC9
:1055B00008951F920F920FB60F9211240BB60F92FF
:1055C0002F933F934F935F936F937F938F939F930B
:1055D000AF93BF93EF93FF938091011C9091021CB6
:1055E000892B29F0E091011CF091021C1995FF9183
:1055F000EF91BF91AF919F918F917F916F915F914B
:105600004F913F912F910F900BBE0F900FBE0F90B7
:105610001F9018951F920F920FB60F9211240BB680
:105620000F922F933F934F935F936F937F938F933B
:105630009F93AF93BF93EF93FF938091031C90913F
:10564000041C892B29F0E091031CF091041C19958E
:10565000FF91EF91BF91AF919F918F917F916F914A
:105660005F914F913F912F910F900BBE0F900FBE06
:105670000F901F9018951F920F920FB60F92112442
:105680000BB60F922F933F934F935F936F937F933C
:105690008F939F93AF93BF93EF93FF938091051CDC
:1056A0009091061C892B29F0E091051CF091061CB5
:1056B0001995FF91EF91BF91AF919F918F917F913C
:1056C0006F915F914F913F912F910F900BBE0F9073
:1056D0000FBE0F901F9018951F920F920FB60F924A
:1056E00011240BB60F922F933F934F935F936F93B9
:1056F0007F938F939F93AF93BF93EF93FF9380918B
:10570000071C9091081C892B29F0E091071CF0914F
:10571000081C1995FF91EF91BF91AF919F918F91C7
:105720007F916F915F914F913F912F910F900BBEA1
:105730000F900FBE0F901F9018951F920F920FB6EB
:105740000F9211240BB60F922F933F934F935F93B9
:105750006F937F938F939F93AF93BF93EF93FF9339
:105760008091FD1B9091FE1B892B29F0E091FD1B80
:10577000F091FE1B1995FF91EF91BF91AF919F9111
:105780008F917F916F915F914F913F912F910F90EA
:105790000BBE0F900FBE0F901F9018951F920F9287
:1057A0000FB60F9211240BB60F922F933F934F9386
:1057B0005F936F937F938F939F93AF93BF93EF9379
:1057C000FF938091FF1B9091001C892B29F0E091A1
:1057D000FF1BF091001C1995FF91EF91BF91AF91C4
:1057E0009F918F917F916F915F914F913F912F91F9
:1057F0000F900BBE0F900FBE0F901F9018951F9229
:105800000F920FB60F9211240BB60F922F933F9366
:105810004F935F936F937F938F939F93AF93BF93B8
:10582000EF93FF938091091C90910A1C892B29F01A
:10583000E091091CF0910A1C1995FF91EF91BF911D
:10584000AF919F918F917F916F915F914F913F9118
:105850002F910F900BBE0F900FBE0F901F901895B9
:105860001F920F920FB60F9211240BB60F922F9327
:105870003F934F935F936F937F938F939F93AF93D8
:10588000BF93EF93FF9380910B1C90910C1C892B7D
:1058900029F0E0910B1CF0910C1C1995FF91EF91F0
:1058A000BF91AF919F918F917F916F915F914F9138
:1058B0003F912F910F900BBE0F900FBE0F901F9036
:1058C0001895A1E21A2EAA1BBB1BFD010DC0AA1F31
:1058D000BB1FEE1FFF1FA217B307E407F50720F059
:1058E000A21BB30BE40BF50B661F771F881F991FD4
:1058F0001A9469F760957095809590959B01AC011D
:10590000BD01CF010895EE0FFF1F0590F491E02D2A
:0E59100019940790F691E02D1994F894FFCFAA
:10591E000001FFFFFFFFFFFFFFFFFFFFFFFFFFFF86
:10592E00050403022F00000000000000000000002C
:10593E00000000000D00000000000000000000004C
:10594E0000000000000800000000007F0A00150B98
:08595E00000000001A0000190E
:00000001FF
