:100000005CC000007FC000007DC000007BC000001D
:1000100079C0000077C0000075C0000073C0000008
:1000200071C000006FC000006DC000006BC0000018
:1000300069C0000067C0000065C0000063C0000028
:10004000CAC200005FC000005DC000005BC00000CD
:1000500059C0000057C0000055C0000053C0000048
:1000600051C000004FC00000000000080002010065
:100070000003040700000000000000000102040863
:100080001020408001020408102001020408102002
:10009000040404040404040402020202020203032E
:1000A0000303030300000000250028002B000000CC
:1000B0000000240027002A00B10211241FBECFEF48
:1000C000D8E0DEBFCDBF11E0A0E0B1E0E6ECF8E0A3
:1000D00002C005900D92A830B107D9F725E0A8E03D
:1000E000B1E001C01D92A632B207E1F710E0CAEB01
:1000F000D0E003C02297FE01E0D3C83BD107D1F77F
:100100005FD2DFC37DCF81E090E00895FC011382D0
:10011000128284E091E09183808326836783408705
:100120000895FC01403408F046C067FD44C0A62F86
:10013000A695A695A695B0E080E1489FA00DB11DBB
:100140001124562F577080E890E002C0969587954D
:100150005A95E2F72130310569F02230310589F0F6
:10016000232BB9F4AE0FBF1F809551969C915197E8
:1001700098230DC0AE0FBF1F51969C915197982B9D
:1001800006C0AE0FBF1F51969C915197982751966C
:100190009C938585481708F445878785481710F094
:1001A0004F5F47878685681708F4668780896817D8
:1001B00010F06F5F608B0895CF93DF93FC01478150
:1001C00050E0FA01E057FF4FE491F0E0EE0FFF1F1F
:1001D000EC55FF4FA591B491FC01208530E0F90169
:1001E000E057FF4F849190E0880F991F8C559F4FE7
:1001F000FC01C591D491FA01E458FF4F4491F901F3
:10020000E458FF4F24913FB7F89488E0722F70951F
:10021000542F5095988167FF02C0922B01C09723FD
:1002200098839C91942B9C939C9195239C93660F0F
:10023000815081F73FBFDF91CF9108951F93CF93F6
:10024000DF93EC01142F8E81882389F06EBD0DB4ED
:1002500007FEFDCF812F807F8EBD0DB407FEFDCF41
:100260001295107F1EBD0DB407FEFDCF0EC0CE014E
:10027000A3DF612F607FCE019FDF612F6295607FDA
:10028000CE01DF91CF911F9197CFDF91CF911F9139
:100290000895462F68EFD2CF462F6AEFCFCFCF9386
:1002A000DF93EC018D81882361F08C81882311F02C
:1002B00062E201C060E2CE01ECDF80E390E01DD29B
:1002C0001D82DF91CF910895CF93DF93EC018D8153
:1002D00081110DC08C81882311F066E201C064E2B7
:1002E000CE01D7DF80E390E008D281E08D83DF91FB
:1002F000CF910895EF92FF920F931F93CF93DF93C7
:100300001F92CDB7DEB77C018B01FC01848188236D
:10031000F9F0C7014983D8DF602F6F716068C701AA
:10032000B8DF4981642F6068C8018072992796956B
:10033000879596958795682BC701ABDF80E390E0A2
:100340000F90DF91CF911F910F91FF90EF90D5C14A
:100350000F90DF91CF911F910F91FF90EF90089533
:100360008F929F92AF92BF92CF92DF92EF92FF92C5
:100370000F931F93CF93DF93EC018C81882309F4B3
:1003800049C088899E84981608F044C0BD849F8522
:10039000B91608F03FC09294BFE09B2290E00F9600
:1003A00014E0959587951A95E1F7882EE92CF12CA4
:1003B0006E0181E1C80ED11C8F85B81628F50B2D72
:1003C00010E0A701B801CE0195DFF3E0000F111F87
:1003D000FA95E1F70E0D1F1D000F111F0C0D1D1DCD
:1003E000A92CA81478F4F8016081CE0155DFF8013A
:1003F0006181CE0151DF8AE090E07FD1A3940E5F4E
:100400001F4FEFCFB394D8CF80E48D8780E88E87DD
:100410001F86188ADF91CF911F910F91FF90EF9067
:10042000DF90CF90BF90AF909F908F900895CF9323
:10043000DF93EC018C818823A1F0FE01719680E0AE
:1004400094E0DF019C011D9221503040E1F71D86B0
:1004500080E48F871E8680E8888BCE01DF91CF9164
:100460007FCFCE011CDF61E0CE0113DF63E070E0DF
:1004700080E090E0DF91CF911BC1CF93DF93EC013F
:1004800060E08F81E2D160E08885DFD161E08F811B
:10049000A3D161E08885A0D18E81882311F081E508
:1004A0008CBD1C8260E2CE01F4DE61E070E080E091
:1004B00090E0FED060E2CE01ECDE80E390E01DD162
:1004C00066E0CE01E6DE80E390E017D11D82CE012A
:1004D000AEDF81E08C83FE01719680E094E0DF0165
:1004E0009C011D9221503040E1F71D8680E48F87EA
:1004F0001E8680E8888BCE0133DF6CE0CE01C9DE3A
:1005000080E390E0DF91CF91F8C061E08EE064D1AC
:1005100061E08EE09AD161E08CE091E0AECF609135
:100520000A0170910B016F5F7F4F6F777727709390
:100530000B0160930A016115710549F4809108016E
:10054000909109010196909309018093080121E09F
:1005500030E0409108018CE091E0E3DD8CE091E037
:10056000FFCE20E04FE060E18CE091E0CFCDCF9274
:10057000DF92EF92FF920F931F93CF93DF936C0163
:100580007A01EB01E60EF71E00E010E0CE15DF0564
:1005900061F06991D601ED91FC910190F081E02D1F
:1005A000C6010995080F191FF1CFC801DF91CF913E
:1005B0001F910F91FF90EF90DF90CF9008950895D5
:1005C000A7D0FDDFA2DFC0E0D0E0A9DF2097E9F3EC
:1005D0000E940000FACF1F920F920FB60F921124C3
:1005E0002F933F938F939F93AF93BF9380911E055B
:1005F00090911F05A0912005B091210530911D0516
:1006000023E0230F2D3720F40196A11DB11D05C055
:1006100026E8230F0296A11DB11D20931D0580938E
:100620001E0590931F05A0932005B093210580918E
:10063000220590912305A0912405B09125050196EE
:10064000A11DB11D8093220590932305A09324053D
:10065000B0932505BF91AF919F918F913F912F91BD
:100660000F900FBE0F901F9018953FB7F894809190
:10067000220590912305A0912405B091250526B56A
:10068000A89B05C02F3F19F00196A11DB11D3FBFCA
:100690006627782F892F9A2F620F711D811D911D5A
:1006A00042E0660F771F881F991F4A95D1F708957A
:1006B000CF92DF92EF92FF92CF93DF936B017C0199
:1006C000D4DFEB01C114D104E104F10479F0F2D0DC
:1006D000CCDF6C1B7D0B683E7340A0F381E0C81A31
:1006E000D108E108F108C851DC4FECCFDF91CF9180
:1006F000FF90EF90DF90CF9008950197009739F029
:10070000880F991F880F991F02970197F1F7089595
:10071000789484B5826084BD84B5816084BD85B5DC
:10072000826085BD85B5816085BDEEE6F0E08081A3
:1007300081608083E1E8F0E01082808182608083C4
:10074000808181608083E0E8F0E080818160808347
:10075000E1EBF0E0808184608083E0EBF0E0808179
:1007600081608083EAE7F0E080818460808380811B
:1007700082608083808181608083808180688083C3
:100780001092C1000895833081F028F4813099F0EF
:100790008230A1F008958730A9F08830B9F0843014
:1007A000D1F4809180008F7D03C0809180008F778D
:1007B00080938000089584B58F7702C084B58F7DC3
:1007C00084BD08958091B0008F7703C08091B00000
:1007D0008F7D8093B0000895CF93DF9390E0FC016C
:1007E000E458FF4F2491FC01E057FF4F8491882388
:1007F00049F190E0880F991FFC01E255FF4FA59148
:10080000B4918C559F4FFC01C591D4919FB7611154
:1008100008C0F8948C91209582238C938881822340
:100820000AC0623051F4F8948C91322F30958323B2
:100830008C938881822B888304C0F8948C91822BBE
:100840008C939FBFDF91CF9108950F931F93CF9308
:10085000DF931F92CDB7DEB7282F30E0F901E859BA
:10086000FF4F8491F901E458FF4F1491F901E057CB
:10087000FF4F04910023C1F0882319F0698383DFBF
:100880006981E02FF0E0EE0FFF1FEC55FF4FA591BF
:10089000B4919FB7F8948C91611103C01095812396
:1008A00001C0812B8C939FBF0F90DF91CF911F913F
:1008B0000F9108950895EE0FFF1F0590F491E02D1C
:0608C0000994F894FFCF3B
:0808C600000000008300B702EE
:00000001FF
