:100000000C94E9120C94D8350C9409360C943A36B9
:100010000C946B360C949C360C94CD360C94FE36B6
:100020000C942F370C941A130C941A130C941A1363
:100030000C941A130C94CC310C941A130C941A13BC
:100040000C941A130C941A130C941A130C941A137C
:100050000C941A130C941A130C941A130C9439322E
:100060000C941A130C941A130C941A130C941A135C
:100070000C941A130C941A130C941A130C941A134C
:100080000C941A130C941A130C941A130C941A133C
:100090000C941A130C941A130C941A130C941A132C
:1000A0000C941A130C941A130C941A130C941A131C
:1000B0000C941A130C941A130C941A130C941A130C
:1000C0000C941A130C941A130C941A130C941A13FC
:1000D0000C941A130C941A130C941A130C941A13EC
:1000E0000C941A1340164E165C1674168816A81631
:1000F000C316DE16EE16001712172A173E175C17E6
:1001000079179417A417B617C817E817FC171C1807
:1001100039185418641876188818A718BC18DA18F3
:10012000F718121922193419672E46195A197E190F
:100130009B19B619C619D819672EEA19FE19221A81
:100140003F1A5A1A6A1A7C1A672E8E1AA21AC61AEF
:10015000E31AFE1A672E672E672E0E1B231B411B08
:100160005E1B821B921BC41BD61B121C211C4A1C2B
:10017000591C911CA01CD21CE11C1D1D2C1D551DC1
:10018000641D9D1DAC1DE01DF11D2F1E3E1E691E30
:10019000781EB21EC11EF81E071F471F561F811F63
:1001A000901FCA1FD91F0D201C205A20692094209F
:1001B000A320DD20EC2020212F216D217C21A721EF
:1001C000B621F021FF213322422280228F22BA223F
:1001D000C92203231223492358239823A723D22378
:1001E000E1231B242A2443245C2475248E24A72481
:1001F000C024D924FC2413252A25412558256F2500
:1002000086259D25BE25D725F025092622263B26B5
:1002100054266C268E26A426BA26D026E626FC2650
:100220001227282748275A27712788279F27B6276C
:10023000CD27E42709281B28322849286028772859
:100240008E28A528CA28DC28F3280A29212938293C
:100250004F2966298B29A129B729CD29E329F92915
:100260000F2A252A452A4F2A5D2A6B2A792A872AAE
:10027000952AA32ABF2ACD2AD72AE52AF32A012BB9
:100280000F2B1D2B392B472B552B5F2B6D2B7B2BCE
:10029000892B972BB32BC12BCF2BDD2BE72BF52BEA
:1002A000032C112C2D2C3B2C492C572C652C6F2CFE
:1002B0007D2C8B2CA72CB52CC32CD12CDF2CED2C1A
:1002C000F72C052D212D2F2D3D2D4B2D592D672D33
:1002D000752D7F2D9B2DB72DD32DEF2D0B2E272E7A
:1002E000422E5B2E5C335F334E335233583396339A
:1002F000633367336D33713375337B337F338333CC
:10030000963389338D339133B2357C3584359035CE
:100310009D35BE35CB352E3C3600FE3048040028D6
:10032000C53C404804002E3C3600C00041F8513026
:100330004414000000000000000000000000000065
:1003400000000000000000000000000000000000AD
:10035000000000000000000000000000000000009D
:10036000000000000000000000000000000000008D
:10037000000000000000000000000000000000007D
:102310000000000000000200000A0B02090C0D0E74
:102320000807030401000000000000000000000096
:10233000000000000000000000000000000000009D
:10234000000000121110000000000000000000005A
:10235000000000000000000000000000000102106A
:1023600020200808102040102040800201020108AF
:10237000040201010204081020408080402010085F
:1023800004020180040201804020100804020108B8
:102390000402010102040810204080010204081018
:1023A0002040800505050507050808080802020207
:1023B000020A0A08080404040401010101010101E0
:1023C000010303030303030303040707070C0C0CB7
:1023D0000C0C0C0C0C02020202060606060606068F
:1023E000060B0B0B0B0B0B0B0B0000200023002626
:1023F0000029002C002F003200000100000301061C
:1024000001090100002200250028002B002E0031C8
:1024100000340002010000050108010B0100002149
:1024200000240027002A002D0030003300010100A5
:1024300000040107010A0100000000000000000084
:102440000000000009600000000000007131000081
:10245000007A73617732000063786465343300007A
:1024600020766674723500006E6268677936000007
:10247000006D6A75373800002C6B696F30390000C9
:102480002E2F6C3B702D00000027005B3D000000EC
:10249000000D5D005C00000000000000007F0000F7
:1024A00031003437000000302E323536381B000042
:1024B0002B332D2A3900000000000000000000002E
:1024C000000000000000000000000000097E000085
:1024D0000000000051210000005A53415740000005
:1024E00043584445242300002056465452250000FA
:1024F0004E424847595E0000004D4A55262A0000CA
:102500003C4B494F292800003E3F4C3A505F0000A9
:102510000022007B2B000000000D7D007C000000ED
:1025200000000000007F0000310034370000003060
:102530002E323536381B00002B332D2A390000008F
:10254000000000000000000000000000000000008B
:10255000000000000000000000000000000000007B
:10256000000000000000000000000000000000006B
:10257000000000000000000000000000000000005B
:10258000000000000000000000000000000000004B
:10259000000000000000000000000000000000003B
:1025A000000000000000000000000000000000002B
:1025B000000000000000000000000000000000001B
:1025C000000000000000000000000000000000000B
:1025D000171511241FBECFEFD1E2DEBFCDBF00E043
:1025E0000CBF12E0A0E0B2E0E6E8FFE600E00BBFBF
:1025F00002C007900D92AA34B107D9F727E1AAE4E7
:10260000B2E001C01D92AA33B207E1F715E2C2EDB4
:10261000D5E200E006C022970109FE010BBF0E942F
:10262000AE37C03DD10780E00807A9F70E942C32E1
:102630000C94C1370C940000FC0122836383448313
:102640000895CF93DF93FC01438150E0FA01ED55EB
:10265000FC4DE491F0E0EE0FFF1FED5FFB4DA59107
:10266000B491FC01248130E0F901ED55FC4D8491D9
:1026700090E0880F991F8D5F9B4DFC01C591D4910F
:10268000FA01E35AFC4D4491F901E35AFC4D2491BF
:102690003FB7F89488E0722F7095542F5095988129
:1026A00067FF02C0922B01C0972398839C91942BC3
:1026B0009C939C9195239C93660F815081F73FBF1B
:1026C000DF91CF9108951F93CF93DF93EC01142FE7
:1026D0008A81882389F06EBD0DB407FEFDCF812F5E
:1026E000807F8EBD0DB407FEFDCF1295107F1EBDFD
:1026F0000DB407FEFDCF0EC0CE01A3DF612F607FBA
:10270000CE019FDF612F6295607FCE01DF91CF9177
:102710001F9197CFDF91CF911F910895462F68EFBA
:10272000D2CFCF93DF93EC0160E08B810E94D03356
:1027300060E08C810E94D03361E08B810E949733EE
:1027400061E08C810E9497338A81882311F081E5B2
:102750008CBD188260E2CE01E1DF61E070E080E0D4
:1027600090E00E94B23260E2CE01D8DF80E390E0D8
:102770000E94D73266E0CE01D1DF80E390E00E9474
:10278000D732198281E088836CE0CE01C7DF80E315
:1027900090E0DF91CF910C94D732462F6AEF93CF20
:1027A000CF93DF93EC01898181110EC0888188234A
:1027B00011F066E201C064E2CE01B0DF80E390E098
:1027C0000E94D73281E08983DF91CF910895EF9203
:1027D000FF920F931F93CF93DF931F92CDB7DEB776
:1027E0007C018B01FC018081882301F1C7014983B1
:1027F000D7DF602F6F716068C70190DF4981642F58
:102800006068C801807299279695879596958795F7
:10281000682BC70183DF80E390E00F90DF91CF91B9
:102820001F910F91FF90EF900C94D7320F90DF9192
:10283000CF911F910F91FF90EF900895CF92DF926B
:10284000EF92FF920F93CF93DF931F921F92CDB71A
:10285000DEB77C01842F462F50E0682F70E0C7015F
:1028600029833A83B4DF2981C22E3A81D32E020F05
:102870000C1531F0F60161916F01C7018EDFF8CFC1
:102880008AE090E00F900F90DF91CF910F91FF9031
:10289000EF90DF90CF900C94D732FF920F931F935D
:1028A000CF93DF938C01C0E0D0E040E050E0BE0168
:1028B000C8018DDFF8E0FF2E60E0C8016EDF60E048
:1028C000C8016BDF8AE090E00E94D732FA94A1F74A
:1028D0002196C034D10549F7DF91CF911F910F9117
:1028E000FF900895CF931092930210929202E2E526
:1028F000F2E081E0C1E0819392E0E239F907D1F79B
:10290000C093510280915002811118C047E354E2F4
:1029100063E082E00E943E35C093500261E086E3AE
:102920000E94973361E086E30E94D03361E08BE43C
:1029300092E0F7DE8BE492E0CF91AFCFCF91089594
:10294000809193028068089591E090935102E82F5E
:10295000F0E0EE5AFD4F90830895AF92BF92CF9270
:10296000DF92EF92FF920F93CF93DF931F92CDB739
:10297000DEB780915102811105C00E94073588237E
:1029800089F127C01092510282E5C82E82E0D82E2C
:102990005601E12CF12C4A2D4C19F5018081882338
:1029A00069F0108249830E94952E9C012E0D3F1DD7
:1029B00000E1498160E08BE492E040DFFFEFAF1A75
:1029C000BF0A80E1E80EF11CE114E4E0FE0619F70D
:1029D000D4CF0E941A35809392028F3719F488E081
:1029E00080939202809192028F778093930281115B
:1029F0000E948E2E109292020F90DF91CF910F9134
:102A0000FF90EF90DF90CF90BF90AF90089587FF39
:102A10000BC08F779CE0899FB001112420E030E04B
:102A2000A9018CE00C94982E8CE00C94B93120E034
:102A300047E368E38BE492E0FFDD8AE492E00C94E4
:102A40003D35C4C0CF92DF92EF92FF92CF93DF93D8
:102A500000D01F92CDB7DEB7DCD0282F30E040E0A9
:102A600050E0211531054105510549F129833A838B
:102A70004B835C830E948332C0909402D090950275
:102A8000E0909602F090970229813A814B815C8117
:102A90006C157D058E059F0548F368EE73E080E0B8
:102AA00090E00E9460372C0D3D1D4E1D5F1D209350
:102AB00094023093950240939602509397020F90A0
:102AC0000F900F900F90DF91CF91FF90EF90DF90DC
:102AD000CF9008958091AC169091AD16811520E2AB
:102AE000920750F48A5E9C4FAA2797FDA095BA2FB3
:102AF000ABBFFC0187910BC0811520E3920730F436
:102B0000FC01FF71E856F94F808101C08FEF80937F
:102B1000B11608952091BB168091B11690E0820FF6
:102B2000911D2091B316820F911D8093AE16909344
:102B3000AF169093B3168093B11608958091BB168B
:102B400090E02091B116821B91092091B316821B4F
:102B500091098093AE169093AF1691709093B3162F
:102B60008093B11608959FEF882341F080FF04C041
:102B700021E0911120E0922F8695F6CF892F0895BC
:102B80008091AC169091AD169C01305221153041C8
:102B900040F4FC01FF71E856F94F2091B1162083F3
:102BA000089581152CE3920780F093702091B1165F
:102BB000FC01E856FD4F3081321739F0208324E0C4
:102BC000969587952A95E1F7BFCE08951092B21693
:102BD0001092B3161092B4161092B5161092B61643
:102BE0001092B7161092B8161092B9161092BA1623
:102BF0001092BB161092B01610929D1610929C1651
:102C000010929B1610929A1610929916109298167E
:102C100069CECF92DF92FF920F931F93CF93DF93F2
:102C20008091981690919916892B31F010929916EF
:102C3000109298161092B2168091B21681110C94CF
:102C4000672EF090B0160F2D10E0000F111FC80175
:102C50008456994E6C01FC01C081D181D093AD1690
:102C6000C093AC1637DF2196DF70F601D183C083A5
:102C70008091B11690E0FC01EE58FF4F0C949E3706
:102C800081E08093B21680919A1690919B160496DB
:102C900090939B1680939A160C94672E81E08093F4
:102CA000B21680919A1690919B16049690939B165B
:102CB00080939A160C94672E2091BB1630E0C901C0
:102CC000959587958093B316220F331F282B209359
:102CD000BB1680919A1690919B16059690939B1621
:102CE00080939A160C94672E8091B316811105C0BB
:102CF000EFEFEF0DE770E093B01680919A16909188
:102D00009B16049690939B1680939A160C94672EAC
:102D10001092B316D093AD16C093AC16DBDEF8015B
:102D2000E456F94E2196DF70D183C083F3DE8091A3
:102D3000B1168093B4168093BB1680919A16909129
:102D40009B16089690939B1680939A160C94672E68
:102D50001092AD161092AC16E1E0EF0DE770E09323
:102D6000B016F0E0EE0FFF1FE456F94E118210820C
:102D700080919A1690919B16059690939B1680933E
:102D80009A160C94672ED093AD16C093AC16A2DEA3
:102D9000F801E456F94E2196DF70D183C08380910B
:102DA000B1168093BB1680919A1690919B16089647
:102DB00090939B1680939A160C94672EEFEFEF0D6D
:102DC000E770E093B01680919A1690919B16059645
:102DD00090939B1680939A160C94672E8091BA1646
:102DE0008F5F8093BA168093B41680919A16909153
:102DF0009B16059690939B1680939A160C94672EBB
:102E00008091BA1681508093BA168093B41680913F
:102E10009A1690919B16059690939B1680939A16FE
:102E20000C94672E8091BB16982F91709093B316D7
:102E30009795992797958695892B8093BB168091B6
:102E40009A1690919B16059690939B1680939A16CE
:102E50000C94672E8091B416882329F0EFEFEF0DC4
:102E6000E770E093B01680919A1690919B160496A5
:102E700090939B1680939A160C94672ED093AD1660
:102E8000C093AC1627DEF801E456F94E2196DF70A8
:102E9000D183C0833FDE8091B1168093B4168093B6
:102EA000BB1680919A1690919B16089690939B164C
:102EB00080939A160C94672E88E090E09093AD165C
:102EC0008093AC16E1E0EF0DE770E093B016F0E010
:102ED000EE0FFF1FE456F94E9183808380919A167E
:102EE00090919B16059690939B1680939A160C943E
:102EF000672ED093AD16C093AC16ECDDF801E45606
:102F0000F94E2196DF70D183C0838091B1168093F2
:102F1000BA1680919A1690919B16089690939B16DC
:102F200080939A160C94672EEFEFEF0DE770E09305
:102F3000B01680919A1690919B16059690939B16C9
:102F400080939A160C94672E8091B9168F5F8093A8
:102F5000B9168093B41680919A1690919B16059697
:102F600090939B1680939A160C94672E8091B916B5
:102F700081508093B9168093B41680919A169091DF
:102F80009B16059690939B1680939A160C94672E29
:102F90002091BB1630E0C901880F991F4091B316EC
:102FA000842B9093AF168093AE16220F232F221FEF
:102FB000330B2093B3168093BB1680919A16909191
:102FC0009B16059690939B1680939A160C94672EE9
:102FD0008091B41687FD05C0EFEFEF0DE770E09329
:102FE000B01680919A1690919B16049690939B161A
:102FF00080939A160C94672E1092B316D093AD1648
:10300000C093AC1667DDF801E456F94E2196DF70E7
:10301000D183C08393DD8091B1168093B4168093E1
:10302000BB1680919A1690919B16089690939B16CA
:1030300080939A160C94672E80E190E09093AD16E1
:103040008093AC16E1E0EF0DE770E093B016F0E08E
:10305000EE0FFF1FE456F94E9183808380919A16FC
:1030600090919B16059690939B1680939A160C94BC
:10307000672ED093AD16C093AC162CDDF801E45644
:10308000F94E2196DF70D183C0838091B116809371
:10309000B91680919A1690919B16089690939B165C
:1030A00080939A160C94672EEFEFEF0DE770E09384
:1030B000B01680919A1690919B16059690939B1648
:1030C00080939A160C94672E8091B8168F5F809328
:1030D000B8168093B41680919A1690919B16059617
:1030E00090939B1680939A160C94672E8091B81635
:1030F00081508093B8168093B41680919A1690915F
:103100009B16059690939B1680939A160C94672EA7
:103110008091B31690E0982F88272091BB16822BC0
:103120009093AF168093AE16282F21702093B3167C
:10313000969587958093BB1680919A1690919B16D1
:10314000059690939B1680939A160C94672E809107
:10315000B41609DD811105C0EFEFEF0DE770E093C4
:10316000B01680919A1690919B16049690939B1698
:1031700080939A160C94672ED093AD16C093AC161C
:10318000A9DCF801E456F94E2196DF70D183C083A3
:10319000D5DC8091B1168093B4168093BB168091D4
:1031A0009A1690919B16089690939B1680939A1668
:1031B0000C94672E88E190E09093AD168093AC1646
:1031C000E1E0EF0DE770E093B016F0E0EE0FFF1FC7
:1031D000E456F94E9183808380919A1690919B16C4
:1031E000059690939B1680939A160C94672ED09315
:1031F000AD16C093AC166EDCF801E456F94E21967C
:10320000DF70D183C0838091B1168093B81680910E
:103210009A1690919B16089690939B1680939A16F7
:103220000C94672EEFEFEF0DE770E093B0168091EE
:103230009A1690919B16059690939B1680939A16DA
:103240000C94672E8091B7168F5F8093B71680938A
:10325000B41680919A1690919B16059690939B16A2
:1032600080939A160C94672E8091B71681508093A4
:10327000B7168093B41680919A1690919B16059676
:1032800090939B1680939A160C94672E8091B31698
:10329000882329F0EFEFEF0DE770E093B0168091EF
:1032A0009A1690919B16049690939B1680939A166B
:1032B0000C94672E1092B316D093AD16C093AC1633
:1032C00009DCF801E456F94E2196DF70D183C08302
:1032D0008091BB169091B11689238093B11680938B
:1032E000B4168093BB1680919A1690919B160896FF
:1032F00090939B1680939A160C94672E80E290E030
:103300009093AD168093AC16E1E0EF0DE770E0937B
:10331000B016F0E0EE0FFF1FE456F94E9183808364
:1033200080919A1690919B16059690939B16809388
:103330009A160C94672ED093AD16C093AC16CADBC8
:10334000F801E456F94E2196DF70D183C083809155
:10335000B1168093B71680919A1690919B16089695
:1033600090939B1680939A160C94672EEFEFEF0DB7
:10337000E770E093B01680919A1690919B1605968F
:1033800090939B1680939A160C94672E8091B61694
:103390008F5F8093B6168093B41680919A169091A1
:1033A0009B16059690939B1680939A160C94672E05
:1033B0008091B61681508093B6168093B416809192
:1033C0009A1690919B16059690939B1680939A1649
:1033D0000C94672E8091B416811105C0EFEFEF0DAC
:1033E000E770E093B01680919A1690919B16049620
:1033F00090939B1680939A160C94672E1092B31696
:10340000D093AD16C093AC1665DBF801E456F94EC7
:103410002196DF70D183C0838091BB169091B11645
:1034200089278093B1168093B4168093BB16809140
:103430009A1690919B16089690939B1680939A16D5
:103440000C94672E88E290E09093AD168093AC16B2
:10345000E1E0EF0DE770E093B016F0E0EE0FFF1F34
:10346000E456F94E9183808380919A1690919B1631
:10347000059690939B1680939A160C94672ED09382
:10348000AD16C093AC1626DBF801E456F94E219632
:10349000DF70D183C0838091B1168093B61680917E
:1034A0009A1690919B16089690939B1680939A1665
:1034B0000C94672EEFEFEF0DE770E093B01680915C
:1034C0009A1690919B16059690939B1680939A1648
:1034D0000C94672E8091B5168F5F8093B5168093FC
:1034E000B41680919A1690919B16059690939B1610
:1034F00080939A160C94672E8091B5168150809314
:10350000B5168093B41680919A1690919B160596E5
:1035100090939B1680939A160C94672E8091B41604
:1035200087FF05C0EFEFEF0DE770E093B0168091D5
:103530009A1690919B16049690939B1680939A16D8
:103540000C94672E1092B316D093AD16C093AC16A0
:10355000C1DAF801E456F94E2196DF70D183C083B9
:103560008091BB169091B116892B8093B1168093F0
:10357000B4168093BB1680919A1690919B1608966C
:1035800090939B1680939A160C94672E80E390E09C
:103590009093AD168093AC16E1E0EF0DE770E093E9
:1035A000B016F0E0EE0FFF1FE456F94E91838083D2
:1035B00080919A1690919B16059690939B168093F6
:1035C0009A160C94672ED093AD16C093AC1682DA7F
:1035D000F801E456F94E2196DF70D183C0838091C3
:1035E000B1168093B51680919A1690919B16089605
:1035F00090939B1680939A160C94672EEFEFEF0D25
:10360000E770E093B01680919A1690919B160596FC
:1036100090939B1680939A160C94672E8091B41603
:10362000A2DA882329F0EFEFEF0DE770E093B016F0
:1036300080919A1690919B16049690939B16809376
:103640009A160C94672E1092B316D093AD16C093B1
:10365000AC1640DAF801E456F94E2196DF70D183BA
:10366000C0836CDA8091B1168093B41680919A165B
:1036700090919B16089690939B1680939A160C94A3
:10368000672E88E390E09093AD168093AC16E1E04E
:10369000EF0DE770E093B016F0E0EE0FFF1FE45679
:1036A000F94E9183808380919A1690919B1605968E
:1036B00090939B1680939A160C94672ED093AD1618
:1036C000C093AC1607DAF801E456F94E2196DF7084
:1036D000D183C0838091B61690E0982F88272091DF
:1036E000B516822B9093AD168093AC1649DA809173
:1036F0009A1690919B16099690939B1680939A1612
:103700000C94672EEFEFEF0DE770E093B016809109
:103710009A1690919B16059690939B1680939A16F5
:103720000C94672ED093AD16C093AC16D3D9C0902D
:10373000B116D12CD092AF16C092AE16CE01019622
:103740009093AD168093AC16C5D98091B116D82A46
:10375000D092AD16C092AC16F801E456F94E2296FE
:10376000DF70D183C0838091B316811102C0D182F2
:10377000C08280919A1690919B160A9690939B1600
:1037800080939A160C94672E1092B116D9D8809314
:10379000B1168093BB1680919A1690919B1608964D
:1037A00090939B1680939A160C94672ED093AD1627
:1037B000C093AC168FD9C090B116D12CD092AF1651
:1037C000C092AE16CE0101969093AD168093AC16C2
:1037D00081D98091B116D82AD092AD16C092AC167C
:1037E000F801E456F94E2296DF70D183C0838091B0
:1037F000B31681110CC0E1E0EF0DE770E093B01655
:10380000F0E0EE0FFF1FE456F94ED182C0828091A6
:103810009A1690919B160A9690939B1680939A16EF
:103820000C94672E1092B1161092BB1680919A16C6
:1038300090919B16089690939B1680939A160C94E1
:10384000672ED093AD16C093AC1644D9C090B11674
:10385000D12CD092AF16C092AE162196D093AD1651
:10386000C093AC1637D98091B116D82AD092AD1634
:10387000C092AC16F801E456F94ED182C082809114
:103880009A1690919B160B9690939B1680939A167E
:103890000C94672E1092B1161092BB1680919A1656
:1038A00090919B16089690939B1680939A160C9471
:1038B000672ED093AD16C093AC160CD9C090B1163C
:1038C000D12CD092AF16C092AE16CE010196909335
:1038D000AD168093AC16FED88091B116D82AD0923E
:1038E000AD16C092AC16F801E456F94E2296DF7080
:1038F000D183C083E1E0EF0DE770E093B016F0E014
:10390000EE0FFF1FE456F94ED182C08280919A16C5
:1039100090919B160B9690939B1680939A160C94FD
:10392000672E1092B1161092BB1680919A16909144
:103930009B16089690939B1680939A160C94672E6C
:10394000D093AD16C093AC16C5D8C090B116D12C8B
:10395000D092AF16C092AE16CE0101969093AD16DE
:103960008093AC16B7D88091B116D82AD092AD16F4
:10397000C092AC16F801E456F94E2296DF70D1835E
:10398000C0838091B416882311F0D182C0828091C7
:103990009A1690919B160A9690939B1680939A166E
:1039A0000C94672E1092B1161092BB1680919A1645
:1039B00090919B16089690939B1680939A160C9460
:1039C000672ED093AD16C093AC1684D8C090B116B4
:1039D000D12CD092AF16C092AE16CE010196909324
:1039E000AD168093AC1676D88091B116D82AD092B5
:1039F000AD16C092AC16F801E456F94E2296DF706F
:103A0000D183C0838091B416882361F0E1E0EF0D8B
:103A1000E770E093B016F0E0EE0FFF1FE456F94EAA
:103A2000D182C08280919A1690919B160A969093AB
:103A30009B1680939A160C94672E1092B1161092D2
:103A4000BB1680919A1690919B16089690939B16A0
:103A500080939A160C94672ED093AD16C093AC1633
:103A600039D8C090B116D12CD092AF16C092AE16F4
:103A70002196D093AD16C093AC162CD88091B11678
:103A8000D82AD092AD16C092AC16F801E456F94E81
:103A9000D182C08280919A1690919B160B9690933A
:103AA0009B1680939A160C94672E1092B116109262
:103AB000BB1680919A1690919B16089690939B1630
:103AC00080939A160C94672ED093AD16C093AC16C3
:103AD00001D8C090B116D12CD092AF16C092AE16BC
:103AE000CE0101969093AD168093AC160E946A1594
:103AF0008091B116D82AD092AD16C092AC16F801BA
:103B0000E456F94E2296DF70D183C083E1E0EF0DD9
:103B1000E770E093B016F0E0EE0FFF1FE456F94EA9
:103B2000D182C08280919A1690919B160B969093A9
:103B30009B1680939A160C94672E1092B1161092D1
:103B4000BB1680919A1690919B16089690939B169F
:103B500080939A160C94672ED093AD16C093AC1632
:103B60000E946A15C090B116D12CD092AF16C092A7
:103B7000AE16CE0101969093AD168093AC160E94BE
:103B80006A158091B116D82AD092AD16C092AC16A3
:103B9000F801E456F94E2296DF70D183C0838091FC
:103BA000B41687FD02C0D182C08280919A1690918E
:103BB0009B160A9690939B1680939A160C94672EE8
:103BC0008091BB168093B1160E94071580919A16BA
:103BD00090919B16069690939B1680939A160C9440
:103BE000672ED093AD16C093AC160E946A15C09094
:103BF000B116D12CD092AF16C092AE16CE0101965E
:103C00009093AD168093AC160E946A158091B11600
:103C1000D82AD092AD16C092AC16F801E456F94EEF
:103C20002296DF70D183C0838091B41687FD0CC0CB
:103C3000E1E0EF0DE770E093B016F0E0EE0FFF1F4C
:103C4000E456F94ED182C08280919A1690919B16CB
:103C50000A9690939B1680939A160C94672E8091E7
:103C6000BB168093B11680919A1690919B1606967A
:103C700090939B1680939A160C94672ED093AD1652
:103C8000C093AC160E946A15C090B116D12CD09288
:103C9000AF16C092AE162196D093AD16C093AC1657
:103CA0000E946A158091B116D82AD092AD16C092A2
:103CB000AC16F801E456F94ED182C08280919A1672
:103CC00090919B160B9690939B1680939A160C944A
:103CD000672E8091BB168093B11680919A169091B1
:103CE0009B16069690939B1680939A160C94672EBB
:103CF000D093AD16C093AC160E946A15C090B11651
:103D0000D12CD092AF16C092AE16CE0101969093F0
:103D1000AD168093AC160E946A158091B116D82A10
:103D2000D092AD16C092AC16F801E456F94E229628
:103D3000DF70D183C083E1E0EF0DE770E093B01650
:103D4000F0E0EE0FFF1FE456F94ED182C082809161
:103D50009A1690919B160B9690939B1680939A16A9
:103D60000C94672E8091BB168093B11680919A16A1
:103D700090919B16069690939B1680939A160C949E
:103D8000672ED093AD16C093AC160E946A15C090F2
:103D9000B116D12CD092AF16C092AE16CE010196BC
:103DA0009093AD168093AC160E946A158091B1165F
:103DB000D82AD092AD16C092AC160456194E22964F
:103DC000DF70F801D183C0838091B4160E94B315CF
:103DD000811103C0F801D182C08280919A1690911E
:103DE0009B160A9690939B1680939A160C94672EB6
:103DF0008091BB168093B11680919A1690919B1674
:103E0000069690939B1680939A160C94672ED093E7
:103E1000AD16C093AC160E946A15C090B116D12C95
:103E2000D092AF16C092AE16CE0101969093AD1609
:103E30008093AC160E946A158091B116D82AD09250
:103E4000AD16C092AC16F801E456F94E2296DF701A
:103E5000D183C0838091B4160E94B31581110CC028
:103E6000E1E0EF0DE770E093B016F0E0EE0FFF1F1A
:103E7000E456F94ED182C08280919A1690919B1699
:103E80000A9690939B1680939A160C94672E8091B5
:103E9000BB168093B11680919A1690919B16069648
:103EA00090939B1680939A160C94672ED093AD1620
:103EB000C093AC160E946A15C090B116D12CD09256
:103EC000AF16C092AE162196D093AD16C093AC1625
:103ED0000E946A158091B116D82AD092AD16C09270
:103EE000AC16F801E456F94ED182C08280919A1640
:103EF00090919B160B9690939B1680939A160C9418
:103F0000672E8091BB168093B11680919A1690917E
:103F10009B16069690939B1680939A160C94672E88
:103F2000D093AD16C093AC160E946A15C090B1161E
:103F3000D12CD092AF16C092AE16CE0101969093BE
:103F4000AD168093AC160E946A158091B116D82ADE
:103F5000D092AD16C092AC16F801E456F94E2296F6
:103F6000DF70D183C083E1E0EF0DE770E093B0161E
:103F7000F0E0EE0FFF1FE456F94ED182C08280912F
:103F80009A1690919B160B9690939B1680939A1677
:103F90000C94672E8091BB168093B11680919A166F
:103FA00090919B16069690939B1680939A160C946C
:103FB000672ED093AD16C093AC160E946A15C090C0
:103FC000B116D12CD092AF16C092AE16CE0101968A
:103FD0009093AD168093AC160E946A158091B1162D
:103FE000D82AD092AD16C092AC16F801E456F94E1C
:103FF0002296DF70D183C0838091B316882311F09D
:10400000D182C08280919A1690919B160A969093C5
:104010009B1680939A160C94672E8091BB16809302
:10402000B11680919A1690919B16069690939B16C6
:1040300080939A160C94672ED093AD16C093AC164D
:104040000E946A15C090B116D12CD092AF16C092C2
:10405000AE16CE0101969093AD168093AC160E94D9
:104060006A158091B116D82AD092AD16C092AC16BE
:10407000F801E456F94E2296DF70D183C083809117
:10408000B316882361F0E1E0EF0DE770E093B0161E
:10409000F0E0EE0FFF1FE456F94ED182C08280910E
:1040A0009A1690919B160A9690939B1680939A1657
:1040B0000C94672E8091BB168093B11680919A164E
:1040C00090919B16069690939B1680939A160C944B
:1040D000672ED093AD16C093AC160E946A15C0909F
:1040E000B116D12CD092AF16C092AE162196D093B5
:1040F000AD16C093AC160E946A158091B116D82AED
:10410000D092AD16C092AC16F801E456F94ED182A9
:10411000C08280919A1690919B160B9690939B1655
:1041200080939A160C94672E8091BB168093B116DB
:1041300080919A1690919B16069690939B16809369
:104140009A160C94672ED093AD16C093AC160E94AD
:104150006A15C090B116D12CD092AF16C092AE168F
:10416000CE0101969093AD168093AC160E946A150D
:104170008091B116D82AD092AD16C092AC16F80133
:10418000E456F94E2296DF70D183C083E1E0EF0D53
:10419000E770E093B016F0E0EE0FFF1FE456F94E23
:1041A000D182C08280919A1690919B160B96909323
:1041B0009B1680939A160C94672E8091BB16809361
:1041C000B11680919A1690919B16069690939B1625
:1041D00080939A160C94672ED093AD16C093AC16AC
:1041E0000E946A15C090B116D12CD092AF16C09221
:1041F000AE16CE0101969093AD168093AC160E9438
:104200006A158091B116D82AD092AD16C092AC161C
:10421000F801E456F94E2296DF70D183C083809175
:10422000B416811102C0D182C08280919A169091F9
:104230009B160A9690939B1680939A160C94672E61
:104240008091BB168093B11680919A1690919B161F
:10425000069690939B1680939A160C94672ED09393
:10426000AD16C093AC160E946A15C090B116D12C41
:10427000D092AF16C092AE16CE0101969093AD16B5
:104280008093AC160E946A158091B116D82AD092FC
:10429000AD16C092AC16F801E456F94E2296DF70C6
:1042A000D183C0838091B41681110CC0E1E0EF0D81
:1042B000E770E093B016F0E0EE0FFF1FE456F94E02
:1042C000D182C08280919A1690919B160A96909303
:1042D0009B1680939A160C94672E8091BB16809340
:1042E000B11680919A1690919B16069690939B1604
:1042F00080939A160C94672ED093AD16C093AC168B
:104300000E946A15C090B116D12CD092AF16C092FF
:10431000AE162196D093AD16C093AC160E946A15C6
:104320008091B116D82AD092AD16C092AC16F80181
:10433000E456F94ED182C08280919A1690919B16D4
:104340000B9690939B1680939A160C94672E8091EF
:10435000BB168093B11680919A1690919B16069683
:1043600090939B1680939A160C94672ED093AD165B
:10437000C093AC160E946A15C090B116D12CD09291
:10438000AF16C092AE16CE0101969093AD168093F3
:10439000AC160E946A158091B116D82AD092AD163B
:1043A000C092AC16F801E456F94E2296DF70D18324
:1043B000C083E1E0EF0DE770E093B016F0E0EE0FA0
:1043C000FF1FE456F94ED182C08280919A169091D7
:1043D0009B160B9690939B1680939A160C94672EBF
:1043E0008091BB168093B11680919A1690919B167E
:1043F000069690939B1680939A160C94672ED093F2
:10440000AD16C093AC160E946A15C090B116D12C9F
:10441000D092AF16C092AE16CE0101969093AD1613
:104420008093AC160E946A158091B116D82AD0925A
:10443000AD16C092AC16F801E456F94E2296DF7024
:10444000D183C0838091B41687FF02C0D182C0821D
:1044500080919A1690919B160A9690939B16809342
:104460009A160C94672E8091BB168093B11680919A
:104470009A1690919B16069690939B1680939A1687
:104480000C94672ED093AD16C093AC160E946A159B
:10449000C090B116D12CD092AF16C092AE16CE01FC
:1044A00001969093AD168093AC160E946A15809188
:1044B000B116D82AD092AD16C092AC16F801E456C7
:1044C000F94E2296DF70D183C0838091B41687FFA6
:1044D0000CC0E1E0EF0DE770E093B016F0E0EE0FF6
:1044E000FF1FE456F94ED182C08280919A169091B6
:1044F0009B160A9690939B1680939A160C94672E9F
:104500008091BB168093B11680919A1690919B165C
:10451000069690939B1680939A160C94672ED093D0
:10452000AD16C093AC160E946A15C090B116D12C7E
:10453000D092AF16C092AE162196D093AD16C0930E
:10454000AC160E946A158091B116D82AD092AD1689
:10455000C092AC16F801E456F94ED182C082809127
:104560009A1690919B160B9690939B1680939A1691
:104570000C94672E8091BB168093B11680919A1689
:1045800090919B16069690939B1680939A160C9486
:10459000672ED093AD16C093AC160E946A15C090DA
:1045A000B116D12CD092AF16C092AE16CE010196A4
:1045B0009093AD168093AC160E946A158091B11647
:1045C000D82AD092AD16C092AC16F801E456F94E36
:1045D0002296DF70D183C083E1E0EF0DE770E093B6
:1045E000B016F0E0EE0FFF1FE456F94ED182C08204
:1045F00080919A1690919B160B9690939B168093A0
:104600009A160C94672E8091BB168093B1168091F8
:104610009A1690919B16069690939B1680939A16E5
:104620000C94672ED093AD16C093AC160E946A15F9
:10463000C090B116D12CD092AF16C092AE16CE015A
:1046400001969093AD168093AC160E946A158091E6
:10465000B116D82AD092AD16C092AC160456194E97
:104660002296DF70F801D183C0838091B4160E9436
:10467000B315882319F0F801D182C08280919A166F
:1046800090919B160A9690939B1680939A160C9481
:10469000672E8091BB168093B11680919A169091E7
:1046A0009B16069690939B1680939A160C94672EF1
:1046B000D093AD16C093AC160E946A15C090B11687
:1046C000D12CD092AF16C092AE16CE010196909327
:1046D000AD168093AC160E946A158091B116D82A47
:1046E000D092AD16C092AC16F801E456F94E22965F
:1046F000DF70D183C0838091B4160E94B3158823E4
:1047000061F0E1E0EF0DE770E093B016F0E0EE0F3E
:10471000FF1FE456F94ED182C08280919A16909183
:104720009B160A9690939B1680939A160C94672E6C
:104730008091BB168093B11680919A1690919B162A
:10474000069690939B1680939A160C94672ED0939E
:10475000AD16C093AC160E946A15C090B116D12C4C
:10476000D092AF16C092AE162196D093AD16C093DC
:10477000AC160E946A158091B116D82AD092AD1657
:10478000C092AC16F801E456F94ED182C0828091F5
:104790009A1690919B160B9690939B1680939A165F
:1047A0000C94672E8091BB168093B11680919A1657
:1047B00090919B16069690939B1680939A160C9454
:1047C000672ED093AD16C093AC160E946A15C090A8
:1047D000B116D12CD092AF16C092AE16CE01019672
:1047E0009093AD168093AC160E946A158091B11615
:1047F000D82AD092AD16C092AC16F801E456F94E04
:104800002296DF70D183C083E1E0EF0DE770E09383
:10481000B016F0E0EE0FFF1FE456F94ED182C082D1
:1048200080919A1690919B160B9690939B1680936D
:104830009A160C94672E8091BB168093B1168091C6
:104840009A1690919B16069690939B1680939A16B3
:104850000C94672E1092B3168091BB168093B116FC
:104860000E948A158091B1168093B4168093BB166E
:1048700080919A1690919B16059690939B16809323
:104880009A160C94672E1092B3168091BA168093E4
:10489000B1160E948A158091B1168093B416809348
:1048A000BB1680919A1690919B16059690939B1635
:1048B00080939A160C94672E1092B3168091B916B5
:1048C0008093B1160E948A158091B1168093B41618
:1048D0008093BB1680919A1690919B1605969093A3
:1048E0009B1680939A160C94672E1092B3168091A3
:1048F000B8168093B1160E948A158091B1168093E4
:10490000B4168093BB1680919A1690919B160596CB
:1049100090939B1680939A160C94672E1092B31660
:104920008091B7168093B1160E948A158091B116B6
:104930008093B4168093BB1680919A1690919B1623
:10494000059690939B1680939A160C94672E10925E
:10495000B3168091B6168093B1160E948A15809185
:10496000B1168093B4168093BB1680919A169091DD
:104970009B16059690939B1680939A160C94672E1F
:104980001092B3168091B5168093B1160E948A15C5
:104990008091B1168093B4168093BB1680919A16BD
:1049A00090919B16059690939B1680939A160C9463
:1049B000672E1092B3168091B61690E0982F882734
:1049C0002091B516822B9093AD168093AC160E9461
:1049D0006A150E948A158091B1168093B41680934F
:1049E000BB1680919A1690919B16089690939B16F1
:1049F00080939A160C94672E8091BB168093B11603
:104A00000E948A158091B1168093B4168093BB16CC
:104A100080919A1690919B16059690939B16809381
:104A20009A160C94672E8091BA168093B1160E9444
:104A30008A158091B1168093B4168093BB1680912D
:104A40009A1690919B16059690939B1680939A16B2
:104A50000C94672E8091B9168093B1160E948A1526
:104A60008091B1168093B4168093BB1680919A16EC
:104A700090919B16059690939B1680939A160C9492
:104A8000672E8091B8168093B1160E948A15809186
:104A9000B1168093B4168093BB1680919A169091AC
:104AA0009B16059690939B1680939A160C94672EEE
:104AB0008091B7168093B1160E948A158091B11625
:104AC0008093B4168093BB1680919A1690919B1692
:104AD000059690939B1680939A160C94672E80915E
:104AE000B6168093B1160E948A158091B1168093F4
:104AF000B4168093BB1680919A1690919B160596DA
:104B000090939B1680939A160C94672E8091B516FD
:104B10008093B1160E948A158091B1168093B416C5
:104B20008093BB1680919A1690919B160596909350
:104B30009B1680939A160C94672E8091B61690E07F
:104B4000982F88272091B516822B9093AD168093CD
:104B5000AC160E946A150E948A158091B116809346
:104B6000B4168093BB1680919A1690919B16089666
:104B700090939B1680939A160C94672E1092B316FE
:104B80008091BB168093B1160E949E158091B1163C
:104B90008093B4168093BB1680919A1690919B16C1
:104BA000059690939B1680939A160C94672E1092FC
:104BB000B3168091BA168093B1160E949E1580910B
:104BC000B1168093B4168093BB1680919A1690917B
:104BD0009B16059690939B1680939A160C94672EBD
:104BE0001092B3168091B9168093B1160E949E154B
:104BF0008091B1168093B4168093BB1680919A165B
:104C000090919B16059690939B1680939A160C9400
:104C1000672E1092B3168091B8168093B1160E9439
:104C20009E158091B1168093B4168093BB16809127
:104C30009A1690919B16059690939B1680939A16C0
:104C40000C94672E1092B3168091B7168093B1160C
:104C50000E949E158091B1168093B4168093BB1666
:104C600080919A1690919B16059690939B1680932F
:104C70009A160C94672E1092B3168091B6168093F4
:104C8000B1160E949E158091B1168093B416809340
:104C9000BB1680919A1690919B16059690939B1641
:104CA00080939A160C94672E1092B3168091B516C5
:104CB0008093B1160E949E158091B1168093B41610
:104CC0008093BB1680919A1690919B1605969093AF
:104CD0009B1680939A16FBC71092B3168091B61656
:104CE00090E0982F88272091B516822B9093AD16CF
:104CF0008093AC160E946A150E949E158091B11691
:104D00008093B4168093BB1680919A1690919B164F
:104D1000089690939B1680939A16D9C78091BB16DC
:104D20008093B1160E949E158091B1168093B4169F
:104D30008093BB1680919A1690919B16059690933E
:104D40009B1680939A16C3C78091BA168093B116AA
:104D50000E949E158091B1168093B4168093BB1665
:104D600080919A1690919B16059690939B1680932E
:104D70009A16ADC78091B9168093B1160E949E1500
:104D80008091B1168093B4168093BB1680919A16C9
:104D900090919B16059690939B1680939A1697C7B1
:104DA0008091B8168093B1160E949E158091B1161D
:104DB0008093B4168093BB1680919A1690919B169F
:104DC000059690939B1680939A1681C78091B7168B
:104DD0008093B1160E949E158091B1168093B416EF
:104DE0008093BB1680919A1690919B16059690938E
:104DF0009B1680939A166BC78091B6168093B11656
:104E00000E949E158091B1168093B4168093BB16B4
:104E100080919A1690919B16059690939B1680937D
:104E20009A1655C78091B5168093B1160E949E15AB
:104E30008091B1168093B4168093BB1680919A1618
:104E400090919B16059690939B1680939A163FC758
:104E50008091B61690E0982F88272091B516822B66
:104E60009093AD168093AC160E946A150E949E1511
:104E70008091B1168093B4168093BB1680919A16D8
:104E800090919B16089690939B1680939A161FC735
:104E90001092B3168091BB168093B1168093B4160E
:104EA00080919A1690919B16059690939B168093ED
:104EB0009A160DC71092B3168091BB169091BA1630
:104EC00089238093B1168093B4168093BB1680918A
:104ED0009A1690919B16059690939B1680939A161E
:104EE000F6C61092B3168091BB169091B91689231D
:104EF0008093B1168093B4168093BB1680919A1656
:104F000090919B16059690939B1680939A16DFC6F8
:104F10001092B3168091BB169091B8168923809396
:104F2000B1168093B4168093BB1680919A16909117
:104F30009B16059690939B1680939A16C8C610925E
:104F4000B3168091BB169091B71689238093B11642
:104F50008093B4168093BB1680919A1690919B16FD
:104F6000059690939B1680939A16B1C61092B3162D
:104F70008091BB169091B61689238093B1168093C9
:104F8000B4168093BB1680919A1690919B16059645
:104F900090939B1680939A169AC61092B31680919E
:104FA000BB169091B51689238093B1168093B416E1
:104FB0008093BB1680919A1690919B1605969093BC
:104FC0009B1680939A1683C61092B3168091B616DC
:104FD00090E0982F88272091B516822B9093AD16DC
:104FE0008093AC160E946A158091BB169091B11601
:104FF00089238093B1168093B4168093BB16809159
:105000009A1690919B16089690939B1680939A16E9
:105010005EC61092B3161092B1161092B41610928A
:10502000BB1680919A1690919B16059690939B16AD
:1050300080939A164CC61092B3168091BB1690912D
:10504000BA1689278093B1168093B4168093BB1645
:1050500080919A1690919B16059690939B1680933B
:105060009A1635C61092B3168091BB169091B91658
:1050700089278093B1168093B4168093BB168091D4
:105080009A1690919B16059690939B1680939A166C
:105090001EC61092B3168091BB169091B816892740
:1050A0008093B1168093B4168093BB1680919A16A4
:1050B00090919B16059690939B1680939A1607C61F
:1050C0001092B3168091BB169091B71689278093E2
:1050D000B1168093B4168093BB1680919A16909166
:1050E0009B16059690939B1680939A16F0C5109286
:1050F000B3168091BB169091B61689278093B1168E
:105100008093B4168093BB1680919A1690919B164B
:10511000059690939B1680939A16D9C51092B31654
:105120008091BB169091B51689278093B116809314
:10513000B4168093BB1680919A1690919B16059693
:1051400090939B1680939A16C2C51092B3168091C5
:10515000B61690E0982F88272091B516822B909351
:10516000AD168093AC160E946A158091BB16909183
:10517000B11689278093B1168093B4168093BB161D
:1051800080919A1690919B16089690939B16809307
:105190009A169DC51092B3168091BB168093B116D6
:1051A0008093B41680919A1690919B1605969093D1
:1051B0009B1680939A168BC51092B3168091BB16DE
:1051C0009091BA16892B8093B1168093B416809370
:1051D000BB1680919A1690919B16059690939B16FC
:1051E00080939A1674C51092B3168091BB16909155
:1051F000B916892B8093B1168093B4168093BB1691
:1052000080919A1690919B16059690939B16809389
:105210009A165DC51092B3168091BB169091B81680
:10522000892B8093B1168093B4168093BB1680911E
:105230009A1690919B16059690939B1680939A16BA
:1052400046C51092B3168091BB169091B716892B64
:105250008093B1168093B4168093BB1680919A16F2
:1052600090919B16059690939B1680939A162FC546
:105270001092B3168091BB169091B616892B80932D
:10528000B1168093B4168093BB1680919A169091B4
:105290009B16059690939B1680939A1618C51092AC
:1052A000B3168091BB169091B516892B8093B116D9
:1052B0008093B4168093BB1680919A1690919B169A
:1052C000059690939B1680939A1601C51092B3167B
:1052D0008091B61690E0982F88272091B516822BE2
:1052E0009093AD168093AC160E946A158091BB1600
:1052F0009091B116892B8093B1168093B416809348
:10530000BB1680919A1690919B16089690939B16C7
:1053100080939A16DCC41092B3168091BB168093CA
:10532000B1160E949E158091B1168093B41680919B
:105330009A1690919B16059690939B1680939A16B9
:10534000C6C41092B3168091BA168093B1160E940B
:105350009E158091B1168093B41680919A16909103
:105360009B16059690939B1680939A16B0C4109244
:10537000B3168091B9168093B1160E949E15809144
:10538000B1168093B41680919A1690919B1605964B
:1053900090939B1680939A169AC41092B31680919C
:1053A000B8168093B1160E949E158091B116809315
:1053B000B41680919A1690919B16059690939B1621
:1053C00080939A1684C41092B3168091B716809376
:1053D000B1160E949E158091B1168093B4168091EB
:1053E0009A1690919B16059690939B1680939A1609
:1053F0006EC41092B3168091B6168093B1160E94B7
:105400009E158091B1168093B41680919A16909152
:105410009B16059690939B1680939A1658C41092EB
:10542000B3168091B5168093B1160E949E15809197
:10543000B1168093B41680919A1690919B1605969A
:1054400090939B1680939A1642C41092B316809143
:10545000B61690E0982F88272091B516822B90934E
:10546000AD168093AC160E946A150E949E1580911D
:10547000B1168093B41680919A1690919B16089657
:1054800090939B1680939A1622C480919A169091BD
:105490009B16059690939B1680939A1618C480913C
:1054A000BA168093BB1680919A1690919B1605961A
:1054B00090939B1680939A160AC48091B916809394
:1054C000BB1680919A1690919B16059690939B1609
:1054D00080939A16FCC38091B8168093BB16809176
:1054E0009A1690919B16059690939B1680939A1608
:1054F000EEC38091B7168093BB1680919A16909157
:105500009B16059690939B1680939A16E0C3809104
:10551000B6168093BB1680919A1690919B160596AD
:1055200090939B1680939A16D2C38091B516809360
:10553000BB1680919A1690919B16059690939B1698
:1055400080939A16C4C38091B61690E0982F88274E
:105550002091B516822B9093AD168093AC160E94C5
:105560006A158091B1168093BB1680919A1690911E
:105570009B16089690939B1680939A16A8C38091C9
:10558000BB168093BA1680919A1690919B16059639
:1055900090939B1680939A169AC380919A16909135
:1055A0009B16059690939B1680939A1690C38091B4
:1055B000B9168093BA1680919A1690919B1605960B
:1055C00090939B1680939A1682C38091B81680930D
:1055D000BA1680919A1690919B16059690939B16F9
:1055E00080939A1674C38091B7168093BA168091EF
:1055F0009A1690919B16059690939B1680939A16F7
:1056000066C38091B6168093BA1680919A169091CF
:105610009B16059690939B1680939A1658C380917B
:10562000B5168093BA1680919A1690919B1605969E
:1056300090939B1680939A164AC38091B61690E079
:10564000982F88272091B516822B9093AD168093C2
:10565000AC160E946A158091B1168093BA1680919B
:105660009A1690919B16089690939B1680939A1683
:105670002EC38091BB168093B91680919A16909193
:105680009B16059690939B1680939A1620C3809143
:10569000BA168093B91680919A1690919B1605962A
:1056A00090939B1680939A1612C380919A169091AC
:1056B0009B16059690939B1680939A1608C380912B
:1056C000B8168093B91680919A1690919B160596FC
:1056D00090939B1680939A16FAC28091B716809386
:1056E000B91680919A1690919B16059690939B16E9
:1056F00080939A16ECC28091B6168093B916809169
:105700009A1690919B16059690939B1680939A16E5
:10571000DEC28091B5168093B91680919A16909149
:105720009B16059690939B1680939A16D0C28091F3
:10573000B61690E0982F88272091B516822B90936B
:10574000AD168093AC160E946A158091B1168093B5
:10575000B91680919A1690919B16089690939B1675
:1057600080939A16B4C28091BB168093B81680912C
:105770009A1690919B16059690939B1680939A1675
:10578000A6C28091BA168093B81680919A1690910D
:105790009B16059690939B1680939A1698C28091BB
:1057A000B9168093B81680919A1690919B1605961B
:1057B00090939B1680939A168AC280919A16909124
:1057C0009B16059690939B1680939A1680C28091A3
:1057D000B7168093B81680919A1690919B160596ED
:1057E00090939B1680939A1672C28091B6168093FE
:1057F000B81680919A1690919B16059690939B16D9
:1058000080939A1664C28091B5168093B8168091E1
:105810009A1690919B16059690939B1680939A16D4
:1058200056C28091B61690E0982F88272091B51621
:10583000822B9093AD168093AC160E946A158091CE
:10584000B1168093B81680919A1690919B1608967F
:1058500090939B1680939A163AC28091BB168093C0
:10586000B71680919A1690919B16059690939B1669
:1058700080939A162CC28091BA168093B7168091A5
:105880009A1690919B16059690939B1680939A1664
:105890001EC28091B9168093B71680919A16909186
:1058A0009B16059690939B1680939A1610C2809132
:1058B000B8168093B71680919A1690919B1605960C
:1058C00090939B1680939A1602C280919A1690919B
:1058D0009B16059690939B1680939A16F8C180911B
:1058E000B6168093B71680919A1690919B160596DE
:1058F00090939B1680939A16EAC18091B516809377
:10590000B71680919A1690919B16059690939B16C8
:1059100080939A16DCC18091B61690E0982F882764
:105920002091B516822B9093AD168093AC160E94F1
:105930006A158091B1168093B71680919A1690914E
:105940009B16089690939B1680939A16C0C18091DF
:10595000BB168093B61680919A1690919B16059669
:1059600090939B1680939A16B2C18091BA16809339
:10597000B61680919A1690919B16059690939B1659
:1059800080939A16A4C18091B9168093B61680911F
:105990009A1690919B16059690939B1680939A1653
:1059A00096C18091B8168093B61680919A16909100
:1059B0009B16059690939B1680939A1688C18091AA
:1059C000B7168093B61680919A1690919B160596FD
:1059D00090939B1680939A167AC180919A16909113
:1059E0009B16059690939B1680939A1670C1809192
:1059F000B5168093B61680919A1690919B160596CF
:105A000090939B1680939A1662C18091B61690E08F
:105A1000982F88272091B516822B9093AD168093EE
:105A2000AC160E946A158091B1168093B6168091CB
:105A30009A1690919B16089690939B1680939A16AF
:105A400046C18091BB168093B51680919A169091AD
:105A50009B16059690939B1680939A1638C1809159
:105A6000BA168093B51680919A1690919B1605965A
:105A700090939B1680939A162AC18091B9168093B1
:105A8000B51680919A1690919B16059690939B1649
:105A900080939A161CC18091B8168093B516809198
:105AA0009A1690919B16059690939B1680939A1642
:105AB0000EC18091B7168093B51680919A16909179
:105AC0009B16059690939B1680939A1600C1809121
:105AD000B6168093B51680919A1690919B160596EE
:105AE00090939B1680939A16F2C080919A1690918B
:105AF0009B16059690939B1680939A16E8C080910A
:105B0000B61690E0982F88272091B516822B909397
:105B1000AD168093AC160E946A158091B1168093E1
:105B2000B51680919A1690919B16089690939B16A5
:105B300080939A16CCC08091B61690E0982F882753
:105B40002091B516822B9093AD168093AC16809160
:105B5000BB168093B1160E94C01580919A16909141
:105B60009B16079690939B1680939A16B0C08091CF
:105B7000B61690E0982F88272091B516822B909327
:105B8000AD168093AC168091BA168093B1160E9420
:105B9000C01580919A1690919B16079690939B162C
:105BA00080939A1694C08091B61690E0982F88271B
:105BB0002091B516822B9093AD168093AC168091F0
:105BC000B9168093B1160E94C01580919A169091D3
:105BD0009B16079690939B1680939A1678C0809197
:105BE000B61690E0982F88272091B516822B9093B7
:105BF000AD168093AC168091B8168093B1160E94B2
:105C0000C01580919A1690919B16079690939B16BB
:105C100080939A165CC08091B61690E0982F8827E2
:105C20002091B516822B9093AD168093AC1680917F
:105C3000B7168093B1160E94C01580919A16909164
:105C40009B16079690939B1680939A1640C02091BE
:105C5000B616822F90E0982F88273091B516832BA7
:105C60009093AD168093AC162093B1160E94C01588
:105C700080919A1690919B16079690939B1680930D
:105C80009A1625C02091B5163091B616822F90E055
:105C9000932B9093AD168093AC162093B1160E946F
:105CA000C01580919A1690919B16079690939B161B
:105CB00080939A160CC081E08093B21680919A1658
:105CC00090919B16049690939B1680939A168091C0
:105CD000B216811108C080919A1690919B16863455
:105CE000904128F412C010929B1610929A1680913F
:105CF0009A1690919B168654904190939B16809390
:105D00009A160E94AD148CE301C080E0DF91CF9120
:105D10001F910F91FF90DF90CF90089581E090E068
:105D20009093991680939816089588E992E00895C3
:105D30003F924F925F926F927F928F929F92AF921B
:105D4000BF92CF92DF92EF92FF920F931F93CF9368
:105D5000DF9300D01F92CDB7DEB78B0129013A0146
:105D600090910002981721F09F3F09F0B2C204C041
:105D7000E6E1F3E2349004C180930002E6E1F3E24D
:105D8000E491EF3F09F4A5C2E23009F480C074F554
:105D9000EE2309F45BC0E13009F0F1C010928000FD
:105DA0001092810090918100986090938100909171
:105DB0008100916090938100282F30E0F901ED552A
:105DC000FC4DE491F0E0EE0FFF1FED5FFB4D4591C0
:105DD00054915093DA164093D916F901E35AFC4DC9
:105DE00024912093D81633243394CCC0E43009F4A2
:105DF0009EC00CF474C0E53009F0C1C010922001BF
:105E0000109221019091210198609093210190912D
:105E10002101916090932101282F30E0F901ED5587
:105E2000FC4DE491F0E0EE0FFF1FED5FFB4D45915F
:105E300054915093BE164093BD16F901E35AFC4DA0
:105E400024912093BC1655E0352E9CC014BC15BC83
:105E500094B5926094BD95B5916095BD282F30E0C2
:105E6000F901ED55FC4DE491F0E0EE0FFF1FED5F01
:105E7000FB4D459154915093E1164093E016F90182
:105E8000E35AFC4D24912093DF16312C7BC01092F5
:105E9000B0001092B1009091B00092609093B00069
:105EA0009091B10091609093B100282F30E0F901FA
:105EB000ED55FC4DE491F0E0EE0FFF1FED5FFB4D63
:105EC000459154915093D3164093D216F901E35A59
:105ED000FC4D24912093D11622E0322E53C0109213
:105EE0009000109291009091910098609093910091
:105EF00090919100916090939100282F30E0F901EA
:105F0000ED55FC4DE491F0E0EE0FFF1FED5FFB4D12
:105F1000459154915093CC164093CB16F901E35A16
:105F2000FC4D24912093CA16B3E03B2E2BC0109257
:105F3000A0001092A1009091A10098609093A10000
:105F40009091A10091609093A100282F30E0F90179
:105F5000ED55FC4DE491F0E0EE0FFF1FED5FFB4DC2
:105F6000459154915093C5164093C416F901E35AD4
:105F7000FC4D24912093C31674E0372E03C03E2EAF
:105F800037FCA7C161E0D3D34801A12CB12C832DEC
:105F90008D7F09F0C1C060E072E18AE790E0A50161
:105FA0009401B0D729833A834B835C8369017A01DA
:105FB00081E0C81AD108E108F1089FEFC916D104A1
:105FC000E104F10409F008F495C060E472E48FE0A4
:105FD00090E0A501940196D769017A01E1E0CE1A1B
:105FE000D108E108F108F2E03F1218C08FEFC8169F
:105FF000D104E104F10409F008F486C060E970ED11
:1060000083E090E0A50194017DD769017A0191E0D8
:10601000C91AD108E108F10883E001C082E0EFEF7E
:10602000CE16D104E104F10409F008F464C068E478
:1060300078EE81E090E0A501940164D769017A01CE
:10604000F1E0CF1AD108E108F1083320D9F082E05D
:1060500038121AC09FEFC916D104E104F10409F007
:1060600008F435C164E274EF80E090E0A50194018A
:1060700049D769017A01E1E0CE1AD108E108F108B7
:1060800085E003C083E001C084E0FFEFCF16D104B8
:10609000E104F10481F178F162E17AE780E090E0D7
:1060A000A50194012FD769017A0181E0C81AD108AE
:1060B000E108F108311002C084E001C086E09FEFE2
:1060C000C916D104E104F104B1F0A8F0C980DA8066
:1060D000EB80FC809AE0F594E794D794C7949A9566
:1060E000D1F7E1E0CE1AD108E108F108332031F010
:1060F00087E00BC081E0332011F007C085E095B543
:10610000987F982B95BD54C082E09091B100987F04
:10611000982B9093B1004CC060E072E18AE790E068
:10612000A5019401EFD669017A01F1E0CF1AD108F7
:10613000E108F108C114D10481E0E806F10480F01F
:1061400068E478EE81E090E0A5019401DBD6690176
:106150007A0191E0C91AD108E108F10893E001C081
:1061600091E0E1E03E1207C080918100887F892B99
:10617000809381001DC0F3E03F1207C08091910021
:10618000887F892B8093910013C084E0381207C068
:106190008091A100887F892B8093A10009C0E5E050
:1061A0003E1206C080912101887F892B80932101B6
:1061B000411451046104710461F0D801AA0FBB1F9E
:1061C000A3019201C1D628EE33E040E050E078D63A
:1061D00003C02FEF3FEFA901F2E03F1609F443C0DF
:1061E000F315BCF0332081F181E0381272C0D092F7
:1061F0008900C09288002093DB163093DC16409310
:10620000DD165093DE1680916F00826080936F00E0
:1062100060C094E0391609F448C03916A4F1E5E0ED
:106220003E1257C0D0922901C09228012093BF1678
:106230003093C0164093C1165093C21680917300DC
:1062400082608093730045C0C7BC2093E2163093F0
:10625000E3164093E4165093E51680916E00826039
:1062600080936E0036C0C092B3002093D416309352
:10627000D5164093D6165093D71680917000826041
:106280008093700026C0D0929900C092980020930D
:10629000CD163093CE164093CF165093D0168091E2
:1062A000710082608093710014C0D092A900C092E6
:1062B000A8002093C6163093C7164093C816509373
:1062C000C9168091720082608093720002C084E0DF
:1062D0001CCF0F900F900F900F90DF91CF911F91D7
:1062E0000F91FF90EF90DF90CF90BF90AF909F9075
:1062F0008F907F906F905F904F903F900895823085
:10630000A9F028F4882349F0813051F008958430B1
:1063100021F1E8F0853039F1089510926E0008956A
:1063200080916F008D7F80936F0008958091700041
:106330008D7F8093700081E08093B0008091B100E8
:10634000887F84608093B1001092B300089580919B
:1063500071008D7F809371000895809172008D7F10
:10636000809372000895809173008D7F80937300F5
:106370000895CF93C82F809100028C1307C0E6E1E7
:10638000F3E284919FEF9093000201C08FEFB7DF9B
:1063900060E08C2FCF9104C21F920F920FB60F9224
:1063A00011240BB60F922F933F934F935F936F93EC
:1063B0007F938F939F93AF93BF93EF93FF938091BE
:1063C000D4169091D516A091D616B091D716892BD8
:1063D0008A2B8B2B51F19091D116E091D216F0912E
:1063E000D3168081892780838091D4169091D51609
:1063F000A091D616B091D716181619061A061B06C4
:10640000BCF48091D4169091D516A091D616B09177
:10641000D7160197A109B1098093D4169093D51688
:10642000A093D616B093D71603C080910002A1DFC7
:10643000FF91EF91BF91AF919F918F917F916F915C
:106440005F914F913F912F910F900BBE0F900FBE18
:106450000F901F9018950895B5D0FDDF0E9421156B
:10646000C0E0D0E00E9422152097E1F30E940000D6
:10647000F9CF1F920F920FB60F9211242F933F93D3
:106480008F939F93AF93BF938091E7169091E816F7
:10649000A091E916B091EA163091E61623E0230F99
:1064A0002D3720F40196A11DB11D05C026E8230F4C
:1064B0000296A11DB11D2093E6168093E7169093D6
:1064C000E816A093E916B093EA168091EB16909126
:1064D000EC16A091ED16B091EE160196A11DB11D1E
:1064E0008093EB169093EC16A093ED16B093EE16F6
:1064F000BF91AF919F918F913F912F910F900FBEC0
:106500000F901F9018952FB7F8946091E71670912F
:10651000E8168091E9169091EA162FBF08953FB7CB
:10652000F8948091EB169091EC16A091ED16B09135
:10653000EE1626B5A89B05C02F3F19F00196A11DA8
:10654000B11D3FBF6627782F892F9A2F620F711DCB
:10655000811D911D42E0660F771F881F991F4A9584
:10656000D1F70895CF92DF92EF92FF92CF93DF930E
:106570006B017C01D4DFEB01C114D104E104F1040F
:1065800079F06BD1CCDF6C1B7D0B683E7340A0F3C0
:1065900081E0C81AD108E108F108C851DC4FECCFFE
:1065A000DF91CF91FF90EF90DF90CF90089501970A
:1065B000009739F0880F991F880F991F029701974C
:1065C000F1F70895789484B5826084BD84B58160C4
:1065D00084BD85B5826085BD85B5816085BDEEE6EB
:1065E000F0E0808181608083E1E8F0E010828081CA
:1065F00082608083808181608083E0E8F0E0808138
:1066000081608083E1EBF0E0808184608083E0EB57
:10661000F0E0808181608083E1E9F0E08081826048
:106620008083808181608083E0E9F0E08081816007
:106630008083E1EAF0E080818260808380818160F4
:106640008083E0EAF0E0808181608083E1E2F1E034
:10665000808182608083808181608083E0E2F1E0DC
:10666000808181608083EAE7F0E0808184608083BC
:106670008081826080838081816080838081806866
:1066800080831092C100089590E0FC013197E231BF
:10669000F10508F04BC0EE58FE4F50C480918000C9
:1066A0008F7703C0809180008F7D80938000089554
:1066B00080918000877FF9CF84B58F7702C084B541
:1066C0008F7D84BD08958091B0008F7703C0809145
:1066D000B0008F7D8093B0000895809190008F77F7
:1066E00007C0809190008F7D03C080919000877FCC
:1066F0008093900008958091A0008F7707C08091CB
:10670000A0008F7D03C08091A000877F8093A000B0
:106710000895809120018F7707C0809120018F7D9F
:1067200003C080912001877F809320010895CF933B
:10673000DF9390E0FC01E35AFC4D2491FC01ED5500
:10674000FC4D8491882349F190E0880F991FFC014A
:10675000E35EFB4DA591B4918D5F9B4DFC01C5910E
:10676000D4919FB7611108C0F8948C912095822331
:106770008C93888182230AC0623051F4F8948C9102
:10678000322F309583238C938881822B888304C099
:10679000F8948C91822B8C939FBFDF91CF910895B9
:1067A0000F931F93CF93DF931F92CDB7DEB7282FA0
:1067B00030E0F901E95EFC4D8491F901E35AFC4DAA
:1067C0001491F901ED55FC4D04910023C1F088238B
:1067D00019F0698359DF6981E02FF0E0EE0FFF1FA8
:1067E000ED5FFB4DA591B4919FB7F8948C91611129
:1067F00003C01095812301C0812B8C939FBF0F9004
:10680000DF91CF911F910F910895CF93DF93282FA0
:1068100030E0F901E95EFC4D8491F901E35AFC4D49
:10682000D491F901ED55FC4DC491CC2389F081112F
:106830002BDFEC2FF0E0EE0FFF1FE751FC4DA59191
:10684000B4912C912D2381E090E021F480E002C0EE
:1068500080E090E0DF91CF91089508952091F616A1
:106860003091F7169091EF16D901A05FBE4F80913D
:10687000FB164091FC16841304C09093EF1680E041
:1068800008958F5F8D3208F080E0E82FF0E0E3504C
:10689000F94EE0818093FB16EE2379F3E03F11F48B
:1068A0009160E5CFE03E11F49260E1CF90FF0EC021
:1068B000E23111F49B7F08C0E93511F4977F04C0E1
:1068C000E13111F491FD9F7E9C7FD1CFE23111F433
:1068D0009460CDCFE93511F49860C9CFE13111F45E
:1068E00091FD906191FF08C0EA54E43318F5F0E09F
:1068F000EB5EFD4FE0811FC094FF09C08C9188239F
:1069000031F0E838B8F4F0E0EF5EFE4F08C0892FB0
:106910008C7041F0E83870F4F0E0E857FF4FE20F78
:10692000F31F06C0E83830F4A9014E0F511DFA01DB
:10693000E49101C0E0E09C7FEE2309F498CF9093AE
:10694000EF168E2F0895CF92DF92EF92FF920F9362
:106950001F93CF93DF938091FA1657DFEC01D3DDBD
:106960000091F2161091F3162091F4163091F5165D
:106970006B017C01C01AD10AE20AF30A9701860171
:106980000B3F11052105310520F01092F1161092F0
:10699000F0166093F2167093F3168093F4169093AA
:1069A000F5169091F1168FEF890F883050F4DD279E
:1069B00001C0CC0F8A95EAF78091F0168C2B80935A
:1069C000F01681E0890F8093F1168B30B9F4809135
:1069D000FC168F5F8D3208F080E09091FB168917CE
:1069E00049F0E82FF0E09091F016E350F94E9083D3
:1069F0008093FC161092F1161092F016DF91CF9151
:106A00001F910F91FF90EF90DF90CF9008958091AC
:106A1000F91681110DC08091F816811109C01EDF91
:106A2000982F8093F91681E0911103C080E00895BA
:106A300081E008958091F816882319F01092F816D5
:106A400017C08091F916882319F01092F91601C029
:106A500005DF87FF0BC0982F9F7390689093F816FF
:106A60008295869586958370806C02C0882311F08C
:106A700090E008958FEF9FEF08950895CF93DF93EF
:106A8000D82FC62F8093FA165093F7164093F61618
:106A900062E08C2F4CDE62E08D2F49DEC250C431A3
:106AA00030F4EC2FF0E0EF5FFD4F808101C08FEFFD
:106AB0001092FC161092FB168F3F39F042E050E026
:106AC00063EA74E3DF91CF9103C0DF91CF91089522
:106AD000883008F06CC0E82FF0E0EE0FFF1FE65D95
:106AE000F84E7183608390E0FC013197E730F10547
:106AF00088F5EC57FE4F22C2809169008C7F842B71
:106B000080936900E89A089580916900440F551FA9
:106B1000440F551F837F842B80936900E99A089561
:106B20008091690074E0440F551F7A95E1F78F7CDE
:106B3000842B80936900EA9A08958091690066E049
:106B4000440F551F6A95E1F78F73842B809369007A
:106B5000EB9A089580916A008C7F842B80936A0061
:106B6000EC9A089580916A00440F551F440F551FF9
:106B7000837F842B80936A00ED9A089580916A0048
:106B800024E0440F551F2A95E1F78F7C842B8093D6
:106B90006A00EE9A089580916A0096E0440F551FAE
:106BA0009A95E1F78F73842B80936A00EF9A08958A
:106BB0001F920F920FB60F9211240BB60F922F93C4
:106BC0003F934F935F936F937F938F939F93AF9375
:106BD000BF93EF93FF9380912E1790912F17892BDE
:106BE00029F0E0912E17F0912F171995FF91EF9151
:106BF000BF91AF919F918F917F916F915F914F91D5
:106C00003F912F910F900BBE0F900FBE0F901F90D2
:106C100018951F920F920FB60F9211240BB60F9278
:106C20002F933F934F935F936F937F938F939F9394
:106C3000AF93BF93EF93FF938091301790913117EB
:106C4000892B29F0E0913017F09131171995FF91B8
:106C5000EF91BF91AF919F918F917F916F915F91D4
:106C60004F913F912F910F900BBE0F900FBE0F9041
:106C70001F9018951F920F920FB60F9211240BB60A
:106C80000F922F933F934F935F936F937F938F93C5
:106C90009F93AF93BF93EF93FF938091321790919F
:106CA0003317892B29F0E0913217F091331719959A
:106CB000FF91EF91BF91AF919F918F917F916F91D4
:106CC0005F914F913F912F910F900BBE0F900FBE90
:106CD0000F901F9018951F920F920FB60F921124CC
:106CE0000BB60F922F933F934F935F936F937F93C6
:106CF0008F939F93AF93BF93EF93FF93809134173C
:106D000090913517892B29F0E0913417F0913517C0
:106D10001995FF91EF91BF91AF919F918F917F91C5
:106D20006F915F914F913F912F910F900BBE0F90FC
:106D30000FBE0F901F9018951F920F920FB60F92D3
:106D400011240BB60F922F933F934F935F936F9342
:106D50007F938F939F93AF93BF93EF93FF93809114
:106D60002A1790912B17892B29F0E0912A17F0917F
:106D70002B171995FF91EF91BF91AF919F918F9133
:106D80007F916F915F914F913F912F910F900BBE2B
:106D90000F900FBE0F901F9018951F920F920FB675
:106DA0000F9211240BB60F922F933F934F935F9343
:106DB0006F937F938F939F93AF93BF93EF93FF93C3
:106DC00080912C1790912D17892B29F0E0912C1789
:106DD000F0912D171995FF91EF91BF91AF919F9170
:106DE0008F917F916F915F914F913F912F910F9074
:106DF0000BBE0F900FBE0F901F9018951F920F9211
:106E00000FB60F9211240BB60F922F933F934F930F
:106E10005F936F937F938F939F93AF93BF93EF9302
:106E2000FF938091361790913717892B29F0E091C5
:106E30003617F09137171995FF91EF91BF91AF91E8
:106E40009F918F917F916F915F914F913F912F9182
:106E50000F900BBE0F900FBE0F901F9018951F92B2
:106E60000F920FB60F9211240BB60F922F933F93F0
:106E70004F935F936F937F938F939F93AF93BF9342
:106E8000EF93FF938091381790913917892B29F050
:106E9000E0913817F09139171995FF91EF91BF9153
:106EA000AF919F918F917F916F915F914F913F91A2
:106EB0002F910F900BBE0F900FBE0F901F90189543
:106EC000A1E21A2EAA1BBB1BFD010DC0AA1FBB1FEE
:106ED000EE1FFF1FA217B307E407F50720F0A21B60
:106EE000B30BE40BF50B661F771F881F991F1A94CD
:106EF00069F760957095809590959B01AC01BD01F7
:106F0000CF010895052E97FB16F400940FD057FD7E
:106F100005D0D6DF07FC02D046F408C05095409556
:106F2000309521953F4F4F4F5F4F08959095809535
:106F3000709561957F4F8F4F9F4F0895EE0FFF1F04
:106F40000590F491E02D19940DD0A59F900DB49F5C
:106F5000900DA49F800D911D112408950790F69126
:106F6000E02D1994A29FB001B39FC001A39F700DA3
:106F7000811D1124911DB29F700D811D1124911D41
:066F80000895F894FFCF14
:106F8600FF0001FFFFFFFFFFFFFFFFFFFFFFFFFF08
:106F9600FF050403022F00000000000000000000AF
:106FA60000000000000D00000000000000000000CE
:106FB6000000000000000800000000007F0A001525
:0A6FC6000B000000001A0000190083
:00000001FF
