:1000000066C000008BC0000089C0000087C00000EF
:1000100085C0000083C0000081C000007FC00000D8
:100020007DC000007BC0000079C0000077C00000E8
:1000300075C0000073C0000071C000006FC00000F8
:1000400030C600006BC00000AFC40000DFC4000079
:1000500065C0000063C0000061C000005FC0000018
:100060000C9477085BC00000AED580A83FD3004059
:100070008D142000A1C8DA1281CFD9F1DB40A4A6EB
:10008000AF000000080002010000030407000000A8
:10009000000000000001020408102040800102045A
:1000A00008102001020408102004040404040404BD
:1000B000040202020202020303030303030000001E
:1000C00000250028002B000090033405DC071124D4
:1000D0001FBECFEFD8E0DEBFCDBF11E0A0E0B1E0A2
:1000E000E2E5F4E102C005900D92A033B107D9F723
:1000F00024E0A0E3B1E001C01D92AD3AB207E1F700
:1001000010E0CEECD0E004C02297FE010E94230A4A
:10011000C83CD107C9F7BBD50C94270A71CF8C5FB7
:100120009E4FFC018081811103C08DEE93E042C798
:100130000895CF93DF93EC018DEE93E03BD7CE5F34
:10014000DE4F1882DF91CF910895FF920F931F9396
:10015000CF93DF938C01F62EEC01CE5FDE4F8881CA
:10016000882311F08F3181F418828DEE93E022D72D
:100170006CE370E08DEE93E00AD7F801ED5FFE4F7F
:1001800060818DEE93E0B2D66F2D8DEE93E0AED60A
:1001900088818F5F8883DF91CF911F910F91FF90AE
:1001A00008950F931F93CF93DF93EC018DEE93E0AF
:1001B000DBD6FE01EC5FFE4F10828CE08093B8002E
:1001C000329710823196108208E610E0F8016491AF
:1001D000CE01BBDF0F5F1F4FF0E001381F07B1F703
:1001E000CE01DF91CF911F910F9199CFEF92FF92A6
:1001F0000F931F93CF93DF93EC017C012EEFE21A54
:10020000F20AF70110828C010D5F1E4FF801108277
:1002100060E09BDF60E1CE0198DF60EBCE0195DF0F
:10022000CE017DDFCE0185DFF701108280E4F80189
:10023000808300E014E060E0CE0187DF0150110907
:1002400001151105C1F7FE0180E090E011920196C1
:10025000811521E09207D1F7CE0161DF26E040E869
:1002600055E260E070E087E493E0DF91CF911F9169
:100270000F91FF90EF9038C38F929F92BF92CF92D1
:10028000DF92EF92FF920F931F93CF93DF9300D0F3
:10029000CDB7DEB74C01B62E122F6C018EEFC81A07
:1002A000D80AF60110827401FDEFEF1AFEEFFF0A83
:1002B000F70110826F70C4013A83498346DF6B2DCA
:1002C00062956F706061C40140DF4981642F606B8B
:1002D000C4013BDFC40123DFC4012BDFF601108220
:1002E00080E4F7018083E12E3A81F32E8E2D811B6D
:1002F000801750F4F7016081C40127DFF701619195
:100300007F01C40122DFF2CFC4010F900F90DF9173
:10031000CF911F910F91FF90EF90DF90CF90BF9002
:100320009F908F90FCCE2F923F924F925F926F9250
:100330007F928F929F92AF92BF92CF92DF92EF9275
:10034000FF920F931F93CF93DF93CDB7DEB72C9718
:100350000FB6F894DEBF0FBECDBF3C017B0110E0AD
:1003600070E0CE0109969A878987412F50E0D70126
:10037000A40FB51FF301E40FF51F9C91808198171E
:1003800009F462C07F5F85E0559547958A95E1F74E
:10039000912F9770C92E692F6295607FA0E24A9FC6
:1003A000C00C1124D12C17012C0C3D1CF101008133
:1003B0002601F8E04F0E511C4E0C5F1CD2012C910F
:1003C0004601B0E18B0E911C8E0C9F1CF401308114
:1003D0005601F8E1AF0EB11CAE0CBF1CD501BC91AB
:1003E000BC87FE01319690E8892F802311F083E0CD
:1003F00001C080E0B92FB22309F08C60B92FB3237C
:1004000009F08063BC85B92309F0806C81939695CF
:10041000A985BA85EA17FB0739F708E09E012F5F27
:100420003F4FC3017B8728DFF1018081F301EC0D91
:10043000FD1D8083D2018C918087D4018C91808BAB
:10044000D5018C91808F7B851F5F09F08ECF4AE0AC
:1004500050E0672F87E493E004D42C960FB6F8940D
:10046000DEBF0FBECDBFDF91CF911F910F91FF90E7
:10047000EF90DF90CF90BF90AF909F908F907F9044
:100480006F905F904F903F902F900895FF920F9341
:100490001F93CF93DF93EC01162FF42E81E02111EF
:1004A00001C080E081958093300101E020E331E0DC
:1004B0004F2D612FCE01E0DE41E04F0D20E331E012
:1004C000612FCE01D9DEDF91CF911F910F91FF9067
:1004D00008950F93E0E3F1E031E0211101C030E035
:1004E000319331E0EF33F307B9F76E5F0FE020E3AC
:1004F00031E0C2DE0F9108956F927F929F92AF928A
:10050000BF92CF92DF92EF92FF920F931F93CF9300
:10051000DF931F92CDB7DEB73C0110E0C62ED12C81
:1005200040E8A42EB12C99249A9450E0E12CF12CAF
:10053000C5010E2C02C0959587950A94E2F78C218F
:100540009D21E0E3F1E0009711F0908206C01123B5
:1005500011F020E801C021E02083319621E0E8334A
:10056000F20789F710923701111102C08EEF01C016
:100570008FE7809336018093300108E020E331E07B
:10058000412F652FC301598377DE8FEFE81AF80AF0
:100590005981505F503861F61F5F123031F604E028
:1005A00010E0B12CB11003C038E1F32E02C028E4F2
:1005B000F22EF601002E02C0F595E7950A94E2F7B7
:1005C000EF70FF27E050FF4FE0802E2D217043E0B9
:1005D0006F2DC3015BDF2E2D227043E06F2DC30111
:1005E00078DF90E2A92EAF0C2E2D247043E06A2D07
:1005F000C3014CDF2E2D287045E06A2DC30146DF74
:100600002E2D207147E06F2DC30163DF2E2D207248
:1006100045E06F2DC3013ADF2E2D207445E06F2D8C
:10062000C30157DFB39404501109E2E0BE12BACF00
:100630000F90DF91CF911F910F91FF90EF90DF907E
:10064000CF90BF90AF909F907F906F900895FC01E6
:1006500097FD379623E0F595E7952A95E1F733E086
:10066000660F771F3A95E1F7E60FF71FEF5BFE4F36
:100670008770992720E830E002C0359527958A9544
:10068000E2F7452B21F08081822B8083089520950D
:100690008081282320830895EF92FF920F931F9368
:1006A000CF93DF9381E492E07CDD81E492E09EDDF4
:1006B000C0E0D0E05FE3E52EF12C8E0115950795A3
:1006C00041E050E0B801CE01C2DF41E050E0B801A6
:1006D000C7018C1B9D0BBBDF2196C034D10569F788
:1006E00061E471E081E492E01EDE81E492E0DF915A
:1006F000CF911F910F91FF90EF9078CD60913F01C6
:10070000709140016F5F7F4F7093400160933F0194
:1007100081E492E0F1DE6CE271E080E090E02EC3D3
:1007200081E0809346030895FC01818D228D90E045
:10073000805C9F4F821B91098F7399270895FC015C
:10074000918D828D981731F0828DE80FF11D858D86
:1007500090E008958FEF9FEF0895FC01918D828DB9
:10076000981761F0828DDF01A80FB11D5D968C9105
:10077000928D9F5F9F73928F90E008958FEF9FEF10
:1007800008958BE295E0892B41F080E090E0892B81
:1007900021F061D181110C9400000895FC01848D39
:1007A000DF01A80FB11DA35ABF4F2C91848D90E09B
:1007B00001968F739927848FA689B7892C93A08976
:1007C000B1898C9180648C93938D848D981306C02D
:1007D0000288F389E02D80818F7D80830895CF93F7
:1007E000DF93EC01888D8823C1F0EA89FB89808141
:1007F00085FD05C0A889B9898C9186FD0EC00FB60C
:1008000007FCF5CF808185FFF2CFA889B9898C914B
:1008100085FFEDCFCE01C2DFE8CFDF91CF91089504
:10082000CF92DF92FF920F931F93CF93DF931F928C
:10083000CDB7DEB76C01DC015B969C915B975C9653
:100840008C915C97981307C05096ED91FC9151974D
:10085000808185FD31C0F601038D10E00F5F1F4FD1
:100860000F731127F02EF601848DF81210C00FB609
:1008700007FCF9CFD6015096ED91FC9151978081FC
:1008800085FFF1CFC601698389DF6981ECCF838D54
:10089000E80FF11DE35AFF4F6083D6015B960C937E
:1008A0005B975296ED91FC91539780818062808393
:1008B00081E058968C930DC0D6015696ED91FC912F
:1008C000579760835096ED91FC9151978081806499
:1008D000808381E090E00F90DF91CF911F910F9185
:1008E000FF90DF90CF900895BF92CF92DF92EF926A
:1008F000FF92CF93DF93EC016A017B01B22EE8896E
:10090000F98982E08083411581EE58076105710500
:1009100099F060E079E08DE390E0A70196016FD552
:100920002150310941095109569547953795279529
:10093000211580E1380790F0E889F989108260E894
:1009400074E88EE190E0A701960159D52150310954
:10095000410951095695479537952795EC85FD85B1
:100960003083EE85FF852083188EEC89FD89B08267
:10097000EA89FB89808180618083EA89FB898081A3
:1009800088608083EA89FB89808180688083EA8926
:10099000FB8980818F7D8083DF91CF91FF90EF90E5
:1009A000DF90CF90BF9008951F920F920FB60F92D5
:1009B00011242F938F939F93EF93FF93E09157030D
:1009C000F09158038081E0915D03F0915E0382FD18
:1009D00012C09081809160038F5F8F7320916103BB
:1009E000821751F0E0916003F0E0E95BFC4F958FD6
:1009F0008093600301C08081FF91EF919F918F915F
:100A00002F910F900FBE0F901F9018951F920F926D
:100A10000FB60F9211242F933F934F935F936F93D1
:100A20007F938F939F93AF93BF93EF93FF9387E44D
:100A300093E0B4DEFF91EF91BF91AF919F918F91C1
:100A40007F916F915F914F913F912F910F900FBECA
:100A50000F901F90189587E493E066DE21E0892BC4
:100A600009F420E0822F089510924A03109249035E
:100A700088EE93E0A0E0B0E080934B0390934C03AA
:100A8000A0934D03B0934E0384E191E0909348030B
:100A90008093470385EC90E0909354038093530335
:100AA00084EC90E0909356038093550380EC90E0A3
:100AB000909358038093570381EC90E090935A03EE
:100AC0008093590382EC90E090935C0380935B03E6
:100AD00086EC90E090935E0380935D031092600338
:100AE0001092610310926203109263030895CF92F3
:100AF000DF92EF92FF920F931F93CF93DF936C01DE
:100B00007A01EB01E60EF71E00E010E0CE15DF05DE
:100B100061F06991D601ED91FC910190F081E02D99
:100B2000C6010995080F191FF1CFC801DF91CF91B8
:100B30001F910F91FF90EF90DF90CF900895611576
:100B4000710581F0DB010D900020E9F7AD01415006
:100B50005109461B570BDC01ED91FC910280F3819A
:100B6000E02D099480E090E00895DC01ED91FC9186
:100B70000190F081E02D09940F931F93CF93DF93A1
:100B8000EC016DE0F2DF8C016AE0CE01EEDF800F58
:100B9000911FDF91CF911F910F9108958F929F9296
:100BA000AF92BF92CF92DF92EF92FF920F931F937B
:100BB000CF93DF93CDB7DEB7A1970FB6F894DEBF22
:100BC0000FBECDBF7C01C42EE52FCB01D22E19A2C2
:100BD00021E02D1510F02AE0D22E8E010F5D1F4F5F
:100BE0008D2C912CA12CB12C6C2D7E2FA501940164
:100BF00006D48C2DD29E80191124015011098A30FF
:100C000014F4805D01C0895CF801808321153105F1
:100C10004105510521F0C22EE32FCA01E5CFB801ED
:100C2000C7018DDFA1960FB6F894DEBF0FBECDBF12
:100C3000DF91CF911F910F91FF90EF90DF90CF90B8
:100C4000BF90AF909F908F9008952115310541F48A
:100C5000DC01ED91FC910190F081E02D642F09946D
:100C60009DCF0F931F93CF93DF93EC019A01462FF3
:100C700050E060E070E0E9DF8C01CE017DDF800FA5
:100C8000911FDF91CF911F910F91089508959BD0EF
:100C9000FDDF02DDC1ECD3E031DD2097E9F371DD4A
:100CA000FBCF1F920F920FB60F9211242F933F93F9
:100CB0008F939F93AF93BF938091E5039091E60349
:100CC000A091E703B091E8033091E40323E0230F00
:100CD0002D3720F40196A11DB11D05C026E8230F74
:100CE0000296A11DB11D2093E4038093E503909328
:100CF000E603A093E703B093E8038091E9039091A2
:100D0000EA03A091EB03B091EC030196A11DB11D84
:100D10008093E9039093EA03A093EB03B093EC0371
:100D2000BF91AF919F918F913F912F910F900FBEE7
:100D30000F901F9018953FB7F8948091E903909118
:100D4000EA03A091EB03B091EC0326B5A89B05C084
:100D50002F3F19F00196A11DB11D3FBF6627782FC7
:100D6000892F9A2F620F711D811D911D42E0660F20
:100D7000771F881F991F4A95D1F70895CF92DF9268
:100D8000EF92FF92CF93DF936B017C01D4DFEB01F5
:100D9000C114D104E104F10479F050D0CCDF6C1B14
:100DA0007D0B683E7340A0F381E0C81AD108E108CA
:100DB000F108C851DC4FECCFDF91CF91FF90EF905D
:100DC000DF90CF900895789484B5826084BD84B517
:100DD000816084BD85B5826085BD85B5816085BD36
:100DE000EEE6F0E0808181608083E1E8F0E010824F
:100DF000808182608083808181608083E0E8F0E090
:100E0000808181608083E1EBF0E080818460808379
:100E1000E0EBF0E0808181608083EAE7F0E08081B0
:100E20008460808380818260808380818160808310
:100E30008081806880831092C10008950895809118
:100E40001D0490E020911E04821B910908952091B9
:100E50001E0480911D04281750F4E22FF0E0E15E9B
:100E6000FB4F808190E02F5F20931E0408958FEF49
:100E70009FEF0895E0911E0480911D04E81730F45F
:100E8000F0E0E15EFB4F808190E008958FEF9FEFEF
:100E900008950895CF92DF92EF92FF920F931F93E0
:100EA000CF93DF937C01CB018A012091F9032223A8
:100EB00089F0EB016B01C40ED51ECC15DD0561F088
:100EC0006991D701ED91FC910190F081E02DC7016E
:100ED0000995F3CF642FE2D0C801DF91CF911F9124
:100EE0000F91FF90EF90DF90CF900895CF93DF9315
:100EF0001F92CDB7DEB769832091F9032223D1F089
:100F00002091FA03203240F021E030E0FC013383ED
:100F1000228380E090E014C08091FB03E82FF0E092
:100F2000E450FC4F998190838F5F8093FB03809303
:100F3000FA0304C061E0CE010196B0D081E090E0F8
:100F40000F90DF91CF910895FC011382128248EE39
:100F500053E060E070E0448355836683778384E2E6
:100F600091E091838083089510921E0410921D04D5
:100F70001092FB031092FA0322C081E08093F903E0
:100F800060931C041092FB031092FA030895F5CFAE
:100F90000F93062F21E04091FA036CEF73E08091EC
:100FA0001C0429D01092FB031092FA031092F9034B
:100FB0000F91089561E0ECCF8DEE93E0C5CF1092D4
:100FC000AC0481E08093AA041092A90461E082E15C
:100FD000E1D161E083E1DED1E9EBF0E080818E7F59
:100FE000808380818D7F808388E48093B80085E44E
:100FF0008093BC0008950F93413208F046C0909151
:10100000AC049111FCCF92E09093AC040093AA043D
:101010009FEF90933F041092840440938304FB015C
:1010200065E874E0DB019A2F961B941718F49191F0
:101030009D93F9CF1092AB049091AB04880F892B4C
:101040008093AB048091A904813041F41092A904EB
:101050008091AB048093BB0085EC01C085EE80934A
:10106000BC00222321F08091AC048230E1F3809116
:101070003F048F3F61F080913F04803251F08091B6
:101080003F04803341F483E007C081E005C080E085
:1010900003C082E001C084E00F910895613298F4AA
:1010A0002091AC04243089F460936104FC0183E650
:1010B00094E0DC012A2F281B261718F421912D9388
:1010C000F9CF80E0089581E0089582E0089585EDEC
:1010D0008093BC008091BC0084FDFCCF1092AC04D6
:1010E000089585EC8093BC001092AC0408951F9283
:1010F0000F920FB60F9211242F933F934F935F934C
:101100006F937F938F939F93AF93BF93EF93FF93CF
:101110008091B900887F803609F49CC068F58832D8
:1011200009F45BC090F4803109F454C038F488238A
:1011300009F4F3C0883009F44DC0F2C0883109F4D5
:101140004CC0803209F45DC0EBC0803409F468C043
:1011500048F4803309F455C0883309F0E1C0809326
:101160003F04A7C0803509F44FC0883509F45DC03D
:10117000883409F0D5C0D3C0883909F4C4C0A8F4B4
:10118000883709F467C038F4883609F463C08037BB
:1011900009F460C0C5C0883809F4B5C0803909F4C5
:1011A0005FC0803809F0BCC05BC0803B09F483C0DD
:1011B00038F4803A09F466C0883A09F47CC0B0C0BB
:1011C000803C09F4A4C0883C09F4A1C0883B09F420
:1011D00087C0A6C08091AB0410C090918404809118
:1011E0008304981770F5E091840481E08E0F80935A
:1011F0008404F0E0EB57FB4F80818093BB0085ECCB
:1012000083C080933F048BC0E091840481E08E0F03
:10121000809384048091BB00F0E0EB57FB4F808308
:1012200090918404809183046BC0E091840481E0F8
:101230008E0F809384048091BB00F0E0EB57FB4F4E
:1012400080838091AA0481116AC081E08093A904FF
:1012500084EA5EC083E08093AC0410924004CFCF58
:1012600080914004803208F04EC0E091400481E05B
:101270008E0F809340048091BB00F0E0EF5BFB4F4A
:101280008083BDCF80914004803230F4E0914004EF
:10129000F0E0EF5BFB4F10821ADF6091400470E0DA
:1012A000E091A504F091A60481E494E009951092E0
:1012B000400417DF35C084E08093AC0410926204D0
:1012C00010926104E091A704F091A804099580911F
:1012D0006104811105C081E0809361041092630470
:1012E000E091620481E08E0F80936204F0E0ED599A
:1012F000FB4F80818093BB009091620480916104D8
:10130000981708F47CCF85E88093BC0009C085EC71
:101310008093BC001092AC0403C010923F04D7DE4F
:10132000FF91EF91BF91AF919F918F917F916F91BD
:101330005F914F913F912F910F900FBE0F901F9093
:101340001895833081F028F4813099F08230A1F033
:1013500008958730A9F08830B9F08430D1F48091B5
:1013600080008F7D03C0809180008F778093800004
:10137000089584B58F7702C084B58F7D84BD0895AC
:101380008091B0008F7703C08091B0008F7D8093F3
:10139000B00008950F931F93CF93DF931F92CDB7A3
:1013A000DEB7282F30E0F901EF57FF4F8491F901A4
:1013B000EB56FF4F1491F901E755FF4F04910023BD
:1013C000C1F0882319F06983BCDF6981E02FF0E068
:1013D000EE0FFF1FE354FF4FA591B4919FB7F89410
:1013E0008C91611103C01095812301C0812B8C93D6
:1013F0009FBF0F90DF91CF911F910F910895A1E2B0
:101400001A2EAA1BBB1BFD010DC0AA1FBB1FEE1F7E
:10141000FF1FA217B307E407F50720F0A21BB30BC9
:10142000E40BF50B661F771F881F991F1A9469F745
:1014300060957095809590959B01AC01BD01CF01A1
:101440000895EE0FFF1F0590F491E02D0994F89494
:02145000FFCFCC
:101452003F0C765E4D5B7B0E7F5F6F79337C7363EF
:1014620000000000100477059403AD039F03EF030F
:101472000000000076074A071F0727073A074907B7
:00000001FF
