:1000000008C1000034C1000032C1000030C100004E
:100010002EC100002CC100002AC1000028C1000030
:1000200026C1000024C1000022C1000020C1000040
:100030001EC100001CC100001AC1000018C1000050
:1000400016C1000014C1000012C1000010C1000060
:100050000EC100000CC100000AC10000CEC10000AA
:1000600006C1000004C1000002C1000000C1000080
:10007000FEC00000FCC00000FAC00000F8C0000094
:10008000F6C00000F4C00000F2C00000F0C00000A4
:10009000EEC00000ECC00000EAC00000B2C30000E7
:1000A000E6C00000E4C00000E2C00000E0C00000C4
:1000B000DEC00000DCC00000DAC00000D8C00000D4
:1000C000D6C00000D4C00000D2C00000D0C00000E4
:1000D000CEC00000CCC00000CAC00000C8C00000F4
:1000E000C6C0000047054A0539053D0543058105A1
:1000F0004E05520558055C05600566056A056E05E6
:100100008105740578057C05AED580A83FD30040F5
:100110008D142000A1C8DA1281CFD9F1DB40A4A64A
:10012000AF00000A0B02090C0D0E080703040100C2
:1001300000000000000000000000000000000000BF
:10014000000000000000000000000000001211107C
:10015000000000000000000000000000000000009F
:1001600000000000000000010210202008081020FC
:100170004010204080020102010804020101020433
:1001800008102040808040201008040201800402F2
:100190000180402010080402010804020101020449
:1001A0000810204080010204081020408005050549
:1001B00005070508080808020202020A0A080804DE
:1001C000040404010101010101010103030303030C
:1001D000030303040707070C0C0C0C0C0C0C0C029B
:1001E00002020206060606060606060B0B0B0B0BA2
:1001F0000B0B0B00002200250028002B002E0031E5
:1002000000340002010000050108010B0100ED01AE
:10021000660311241FBECFEFD1E2DEBFCDBF00E0E9
:100220000CBF12E0A0E0B2E0E6E8FBE000E00BBFAC
:1002300002C007900D92A031B107D9F722E0A0E1EA
:10024000B2E001C01D92AF3DB207E1F712E0C2E19A
:10025000D2E000E005C022970109FE010BBF8DD45A
:10026000CE30D10780E00807B1F7BCD08AC4C8CE31
:10027000FC018481811103C08FE192E025C20895C1
:10028000CF93DF93EC018FE192E01ED21A82DF91CF
:10029000CF9108951F93CF93DF93EC01162F8A819E
:1002A000882311F08F3169F41A828FE192E00CD229
:1002B0006CE370E08FE192E0F4D16B818FE192E02A
:1002C0009FD1612F8FE192E09BD18A818F5F8A83DA
:1002D000DF91CF911F9108950F931F93CF93DF93D9
:1002E000EC018FE192E0CAD11C828CE08093B800CF
:1002F0001A821B8208E011E0F8016491CE01CADF86
:100300000F5F1F4FF1E001321F07B1F7CE01DF9100
:10031000CF911F910F91ACCFCF92DF92EF92FF92CE
:100320000F931F93CF93DF931F92CDB7DEB76C016E
:10033000162F7901FC01128213826F704983AADFA4
:10034000612F62956F706061C601A4DF4981642FDF
:10035000606BC6019FDF60E2C6019CDF61E0C60101
:1003600099DFC60185DFC6018BDFF601128280E4CA
:100370008383002331F0F7016081C6018BDF0150D8
:10038000F8CFC6010F90DF91CF911F910F91FF9091
:10039000EF90DF90CF906CCF0F931F93CF93DF93AD
:1003A0001F92CDB7DEB780E192E096DF10E0812F9B
:1003B0008068898307E09E012F5F3F4F40E0612FF7
:1003C00080E192E0A9DF1F5F103889F70F90DF917D
:1003D000CF911F910F910895089581E080931502A8
:1003E0000895089554D0FDDFD7DFC0E0D0E0F4DFFA
:1003F0002097E9F30E940000FACF1F920F920FB6E8
:100400000F9211242F933F938F939F93AF93BF939A
:100410008091170290911802A0911902B0911A02CE
:100420003091160223E0230F2D3720F40196A11DF1
:10043000B11D05C026E8230F0296A11DB11D209312
:1004400016028093170290931802A0931902B0939A
:100450001A0280911B0290911C02A0911D02B09182
:100460001E020196A11DB11D80931B0290931C02D8
:10047000A0931D02B0931E02BF91AF919F918F91E7
:100480003F912F910F900FBE0F901F901895789469
:1004900084B5826084BD84B5816084BD85B5826089
:1004A00085BD85B5816085BDEEE6F0E08081816027
:1004B0008083E1E8F0E01082808182608083808127
:1004C00081608083E0E8F0E0808181608083E1EBFF
:1004D000F0E0808184608083E0EBF0E080818160E7
:1004E0008083E1E9F0E080818260808380818160A7
:1004F0008083E0E9F0E0808181608083E1EAF0E0E0
:10050000808182608083808181608083E0EAF0E086
:10051000808181608083E1E2F1E08081826080837C
:10052000808181608083E0E2F1E08081816080836E
:10053000EAE7F0E08081846080838081826080834C
:100540008081816080838081806880831092C10077
:10055000089580914F0290E020915002821B9109F2
:1005600008952091500280914F02281750F4E22FF5
:10057000F0E0EF5AFD4F808190E02F5F2093500212
:1005800008958FEF9FEF0895E091500280914F0200
:10059000E81730F4F0E0EF5AFD4F808190E00895C5
:1005A0008FEF9FEF08950895CF92DF92EF92FF9221
:1005B0000F931F93CF93DF937C01CB018A0120918E
:1005C0002B02222389F0EB016B01C40ED51ECC1542
:1005D000DD0561F06991D701ED91FC910190F08109
:1005E000E02DC7011995F3CF642FE2D0C801DF9148
:1005F000CF911F910F91FF90EF90DF90CF900895D2
:10060000CF93DF931F92CDB7DEB7698320912B0282
:100610002223D1F020912C02203240F021E030E062
:10062000FC013383228380E090E014C080912D028E
:10063000E82FF0E0E25DFD4F998190838F5F80931A
:100640002D0280932C0204C061E0CE010196B0D04F
:1006500081E090E00F90DF91CF910895FC0113822B
:10066000128248EE53E060E070E044835583668375
:10067000778384E092E09183808308951092500202
:1006800010924F0210922D0210922C0222C081E093
:1006900080932B0260934E0210922D0210922C0236
:1006A0000895F5CF0F93062F21E040912C026EE2C2
:1006B00072E080914E0229D010922D0210922C02ED
:1006C00010922B020F91089561E0ECCF8FE192E040
:1006D000C5CF1092DE0281E08093DC021092DB0233
:1006E00061E084E10FD261E085E10CD2E9EBF0E05A
:1006F00080818E7F808380818D7F808388E480935A
:10070000B80085E48093BC0008950F93413208F04F
:1007100046C09091DE029111FCCF92E09093DE02F0
:100720000093DC029FEF909371021092B602409307
:10073000B502FB0167EB72E0DB019A2F961B941761
:1007400018F491919D93F9CF1092DD029091DD0202
:10075000880F892B8093DD028091DB02813041F488
:100760001092DB028091DD028093BB0085EC01C01A
:1007700085EE8093BC00222321F08091DE0282303E
:10078000E1F3809171028F3F61F0809171028032BC
:1007900051F080917102803341F483E007C081E021
:1007A00005C080E003C082E001C084E00F9108959D
:1007B000613298F42091DE02243089F46093930230
:1007C000FC0185E992E0DC012A2F281B261718F48A
:1007D00021912D93F9CF80E0089581E0089582E082
:1007E000089585ED8093BC008091BC0084FDFCCF12
:1007F0001092DE02089585EC8093BC001092DE0218
:1008000008951F920F920FB60F9211240BB60F92FC
:100810002F933F934F935F936F937F938F939F9308
:10082000AF93BF93EF93FF938091B900887F803699
:1008300009F49CC068F5883209F45BC090F48031FB
:1008400009F454C038F4882309F4F3C0883009F45B
:100850004DC0F2C0883109F44CC0803209F45DC04B
:10086000EBC0803409F468C048F4803309F455C003
:10087000883309F0E1C080937102A7C0803509F484
:100880004FC0883509F45DC0883409F0D5C0D3C0A5
:10089000883909F4C4C0A8F4883709F467C038F46B
:1008A000883609F463C0803709F460C0C5C0883851
:1008B00009F4B5C0803909F45FC0803809F0BCC0C4
:1008C0005BC0803B09F483C038F4803A09F466C009
:1008D000883A09F47CC0B0C0803C09F4A4C0883CCC
:1008E00009F4A1C0883B09F487C0A6C08091DD024D
:1008F00010C09091B6028091B502981770F5E09102
:10090000B60281E08E0F8093B602F0E0E954FD4F0D
:1009100080818093BB0085EC83C0809371028BC083
:10092000E091B60281E08E0F8093B6028091BB0009
:10093000F0E0E954FD4F80839091B6028091B502BA
:100940006BC0E091B60281E08E0F8093B602809179
:10095000BB00F0E0E954FD4F80838091DC028111FF
:100960006AC081E08093DB0284EA5EC083E080930A
:10097000DE0210927202CFCF80917202803208F0B4
:100980004EC0E091720281E08E0F809372028091DE
:10099000BB00F0E0ED58FD4F8083BDCF8091720227
:1009A000803230F4E0917202F0E0ED58FD4F108299
:1009B00018DF6091720270E0E091D702F091D802E6
:1009C00083E792E019951092720215DF35C084E03A
:1009D0008093DE021092940210929302E091D90269
:1009E000F091DA02199580919302811105C081E09E
:1009F0008093930210929502E091940281E08E0F11
:100A000080939402F0E0EB56FD4F80818093BB0011
:100A10009091940280919302981708F47CCF85E816
:100A20008093BC0009C085EC8093BC001092DE026C
:100A300003C010927102D5DEFF91EF91BF91AF918B
:100A40009F918F917F916F915F914F913F912F91E6
:100A50000F900BBE0F900FBE0F901F90189590E057
:100A6000FC013197E231F10508F04BC0EE58FF4F21
:100A70007EC0809180008F7703C0809180008F7D41
:100A800080938000089580918000877FF9CF84B59E
:100A90008F7702C084B58F7D84BD08958091B000AA
:100AA0008F7703C08091B0008F7D8093B000089550
:100AB000809190008F7707C0809190008F7D03C058
:100AC00080919000877F8093900008958091A0008E
:100AD0008F7707C08091A0008F7D03C08091A00018
:100AE000877F8093A0000895809120018F7707C0B1
:100AF000809120018F7D03C080912001877F8093AA
:100B0000200108950F931F93CF93DF931F92CDB7CA
:100B1000DEB7282F30E0F901EF5DFE4F8491F90137
:100B2000E959FE4F1491F901E355FE4F049100235A
:100B3000C1F0882319F0698392DF6981E02FF0E02A
:100B4000EE0FFF1FED50FE4FA591B4919FB7F894A3
:100B50008C91611103C01095812301C0812B8C936E
:100B60009FBF0F90DF91CF911F910F910895EE0FCE
:100B7000FF1F0590F491E02D19940790F691E02D58
:060B80001994F894FFCF68
:100B8600000000000003D402A902B102C402D3028D
:00000001FF
