:100000000C94E90E0C94AC280C94DD280C940E2969
:100010000C943F290C9470290C94A1290C94D2299A
:100020000C94032A0C941A0F0C941A0F0C941A0FA8
:100030000C941A0F0C941A0F0C941A0F0C941A0F9C
:100040000C941A0F0C941A0F0C941A0F0C941A0F8C
:100050000C941A0F0C941A0F0C941A0F0C940D2573
:100060000C941A0F0C941A0F0C941A0F0C941A0F6C
:100070000C941A0F0C941A0F0C941A0F0C941A0F5C
:100080000C941A0F0C941A0F0C941A0F0C941A0F4C
:100090000C941A0F0C941A0F0C941A0F0C941A0F3C
:1000A0000C941A0F0C941A0F0C941A0F0C941A0F2C
:1000B0000C941A0F0C941A0F0C941A0F0C941A0F1C
:1000C0000C941A0F0C941A0F0C941A0F0C941A0F0C
:1000D0000C941A0F0C941A0F0C941A0F0C941A0FFC
:1000E0000C941A0FF412FF12141321132F133F1341
:1000F0004F135D137713E724E724E724E724E7246D
:10010000E724E724E724E724E724E724E724E72497
:10011000E724E724E7248213E724E7249413A613B3
:10012000BD13CF13E724E724E724E724E724E724DB
:10013000E724E724E724E724E724E724E724E72467
:10014000E724E724ED130914251441145D147814F1
:100150009314AE14E724E724E724E724C914DC143D
:10016000FB141A153915E724E724E724E724E724CC
:10017000E724E724E724E724E724E724E724E72427
:10018000E724E7244815E724E724E724E724E724C5
:10019000E724E7245A15E724E724E724E724E724A3
:1001A000E724E7246C15E724E724E724E724E72481
:1001B000E724E7247E15E724E724E724E724E7245F
:1001C000E724E7248E15E724E724E724E724E7243F
:1001D000E724E7249E15E724E724E724E724E7241F
:1001E000E724E724E724E724E724E724E724E724B7
:1001F000E724E724E724E724E724E724E724E724A7
:10020000E724AF15EF150D162B164916671689163C
:10021000AB16CD16EF161117331755177717991719
:10022000BB17DD17E724E724E724E724E724E724C6
:10023000E724E724FF1726184D187418E724E7244D
:10024000E724E724E724E724E724E724E724E72456
:10025000E724E7249B18C218E9181019E724E724BB
:10026000E724E72437195E198519AC19D319E21967
:10027000231A651AA71ACF1AF71A1F1BE724471B60
:10028000891BCB1B0D1C381C631C8E1CB91CCB1C82
:100290000F1D531D971DC11DEB1D151E3F1E501E2A
:1002A000941ED81E1C1F461F701F9A1FC41FD51FE7
:1002B00019205D20A120C620EB20102135214521E9
:1002C0008421C321022227224C2271229622A622B7
:1002D000E522242363238D23B723E1230B241C244D
:1002E0006024A42430263326222626262C266A269D
:1002F00037263B264126452649264F265326572694
:100300006A265D2661266526862850285828642896
:10031000712892289F283800440054005C0058003F
:1003200040003C00000010002800440044007C0015
:100330004400440000007800440044007800440079
:1003400044007800000038004400400040004000B5
:100350004400380000007800440044004400440099
:100360004400780000007C0040004000780040001D
:1003700040007C0000007C0040004000780040000D
:100380004000400000003C004000400040004C00A5
:1003900044003C0000004400440044007C00440051
:1003A000440044000000380010001000100010004D
:1003B00010003800000004000400040004000400E1
:1003C0004400380000004400480050006000500025
:1003D0004800440000004000400040004000400051
:1003E00040007C00000044006C00540054004400B5
:1003F00044004400000044004400640054004C00E9
:10040000440044000000380044004400440044001C
:1004100044003800000078004400440078004000A8
:1004200040004000000038004400440044005400F4
:100430004800340000007800440044007800500078
:100440004800440000003800440040003800040028
:100450004400380000007C00100010001000100064
:100460001000100000004400440044004400440018
:1004700044003800000044004400440044004400AC
:1004800028001000000044004400440054005400C0
:100490006C004400000044004400280010002800C4
:1004A00044004400000044004400280010001000F4
:1004B0001000100000007C00040008001000200064
:1004C00040007C0000007C00600060006000600074
:1004D00060007C00000000004000200010000800C8
:1004E0000400000000007C000C000C000C000C005C
:1004F0000C007C00000000000000100028004400F8
:1005000000000000000000000000000000000000EB
:1005100000007C000000000000000000000000005F
:10052000000000000000100010001000100010007B
:100530000000100000002800280028000000000033
:10054000000000000000280028007C0028007C003B
:1005500028002800000010003C0050003800140063
:100560007800100000006000640008001000200007
:100570004C000C00000020005000500020005400EF
:1005800048003400000010001000100000000000BF
:10059000000000000000100020004000400040006B
:1005A00020001000000010000800040004000400F7
:1005B000080010000000100054003800100038003F
:1005C0005400100000000000100010007C0010001B
:1005D00010000000000000000000000000001000FB
:1005E0001000200000000000000000007C0000005F
:1005F00000000000000000000000000000000000FB
:10060000000010000000000004000800100020009E
:10061000400000000000380044004C00540064001A
:1006200044003800000010003000100010001000DE
:1006300010003800000038004400040018002000BA
:1006400040007C0000007C0004000800180004004A
:1006500044003800000008001800280048007C0012
:100660000800080000007C0040007800040004003E
:100670004400380000001C002000400078004400C6
:100680004400380000007C00040008001000200036
:1006900020002000000038004400440038004400DE
:1006A0004400380000003800440044003C000400CE
:1006B00008007000000000000000100000001000A2
:1006C000000000000000000000001000000010000A
:1006D0001000200000000800100020004000200052
:1006E000100008000000000000007C0000007C00FA
:1006F00000000000000020001000080004000800B6
:100700001000200000003800440008001000100015
:1007100000001000000000000000000000000000C9
:10072000000000000000F000F000F00000000000F9
:100730000000000000000F000F000F00000000008C
:10074000000000000000FF00FF00FF0000000000AC
:10075000000000000000000000000000F000F000B9
:10076000000000000000F000F000F000F000F000D9
:100770000000000000000F000F000F00F000F0006C
:10078000000000000000FF00FF00FF00F000F0008C
:100790000000000000000000000000000F000F003B
:1007A000000000000000F000F000F0000F000F005B
:1007B0000000000000000F000F000F000F000F00EE
:1007C000000000000000FF00FF00FF000F000F000E
:1007D000000000000000000000000000FF00FF001B
:1007E000000000000000F000F000F000FF00FF003B
:1007F0000000000000000F000F000F00FF00FF00CE
:10080000000000000000FF00FF00FF00FF00FF00ED
:1008100000000000000000000000000000000000D8
:10082000F000F000F000F000F000F0000000000028
:10083000F000F000F0000F000F000F0000000000BB
:10084000F000F000F000FF00FF00FF0000000000DB
:10085000F000F000F000000000000000F000F000E8
:10086000F000F000F000F000F000F000F000F00008
:10087000F000F000F0000F000F000F00F000F0009B
:10088000F000F000F000FF00FF00FF00F000F000BB
:10089000F000F000F0000000000000000F000F006A
:1008A000F000F000F000F000F000F0000F000F008A
:1008B000F000F000F0000F000F000F000F000F001D
:1008C000F000F000F000FF00FF00FF000F000F003D
:1008D000F000F000F000000000000000FF00FF004A
:1008E000F000F000F000F000F000F000FF00FF006A
:1008F000F000F000F0000F000F000F00FF00FF00FD
:10090000F000F000F000FF00FF00FF00FF00FF001C
:10091000F000F000F0000000000000000000000007
:100920000F000F000F00F000F000F00000000000CA
:100930000F000F000F000F000F000F00000000005D
:100940000F000F000F00FF00FF00FF00000000007D
:100950000F000F000F00000000000000F000F0008A
:100960000F000F000F00F000F000F000F000F000AA
:100970000F000F000F000F000F000F00F000F0003D
:100980000F000F000F00FF00FF00FF00F000F0005D
:100990000F000F000F000000000000000F000F000C
:1009A0000F000F000F00F000F000F0000F000F002C
:1009B0000F000F000F000F000F000F000F000F00BF
:1009C0000F000F000F00FF00FF00FF000F000F00DF
:1009D0000F000F000F00000000000000FF00FF00EC
:1009E0000F000F000F00F000F000F000FF00FF000C
:1009F0000F000F000F000F000F000F00FF00FF009F
:100A00000F000F000F00FF00FF00FF00FF00FF00BE
:100A10000F000F000F0000000000000000000000A9
:100A2000FF00FF00FF00F000F000F00000000000F9
:100A3000FF00FF00FF000F000F000F00000000008C
:100A4000FF00FF00FF00FF00FF00FF0000000000AC
:100A5000FF00FF00FF00000000000000F000F000B9
:100A6000FF00FF00FF00F000F000F000F000F000D9
:100A7000FF00FF00FF000F000F000F00F000F0006C
:100A8000FF00FF00FF00FF00FF00FF00F000F0008C
:100A9000FF00FF00FF000000000000000F000F003B
:100AA000FF00FF00FF00F000F000F0000F000F005B
:100AB000FF00FF00FF000F000F000F000F000F00EE
:100AC000FF00FF00FF00FF00FF00FF000F000F000E
:100AD000FF00FF00FF00000000000000FF00FF001B
:100AE000FF00FF00FF00F000F000F000FF00FF003B
:100AF000FF00FF00FF000F000F000F00FF00FF00CE
:100B0000FF00FF00FF00FF00FF00FF00FF00FF00ED
:100B1000FF00FF00FF0000000000000000000000D8
:100B200000000000FF0000000000000000000000C6
:100B30000000FF00000000000000000000000000B6
:100B4000FF00000000000000000000000000FF00A7
:100B5000000000000000000000000000FF00000096
:100B600000000000000000000000FF000000000086
:100B70000000000000000000FF0000000000000076
:100B8000000000000000FF00000000000000000066
:100B900000000000000080008000800080008000D5
:100BA0008000800080004000400040004000400085
:100BB00040004000400020002000200020002000D5
:100BC0002000200020001000100010001000100075
:100BD00010001000100008000800080008000800BD
:100BE00008000800080004000400040004000400D9
:100BF00004000400040002000200020002000200DF
:100C000002000200020001000100010001000100D9
:100C1000010001000100FF00FE00FC00F800F000F0
:100C2000E000C00080000100030007000F001F006B
:100C30003F007F00FF00FF007F003F001F000F000C
:100C40000700030001008000C000E000F000F80091
:100C5000FC00FE00FF008100420024001800180084
:100C6000240042008100010002000400080010007E
:100C7000200040008000800040002000100008009C
:100C8000040002000100AA005500AA00550000005F
:100C90000000000000000000000000000000AA00AA
:100CA0005500AA005500A0005000A0005000A00070
:100CB0005000A00050000A0005000A0005000A00CC
:100CC00005000A000500AA005500AA005500AA0068
:100CD0005500AA005500FF000100010001000100BD
:100CE00001000100010001000100010001000100FC
:100CF00001000100FF008000800080008000800073
:100D000080008000FF00FF008000800080008000E5
:100D10008000800080006600FF00FF00FF007E0072
:100D20003C00180018003C003C0018004200E7009E
:100D3000E70018003C0018003C007E00FF00FF00A8
:100D40005A0018003C0018003C007E00FF00FF0025
:100D50007E003C001800180018003C007E00FF00D8
:100D6000DB0018003C00300038009C00FF00FF0052
:100D70009C00380030003C001800DB00FF007E00C3
:100D80003C00180018000C001C003900FF00FF0098
:100D900039001C000C000000080008002A003E007A
:100DA0003E003E002200000001000A001C003E0040
:100DB0007C00180010000000F80070007E00700039
:100DC000F80000000000100018007C003E001C002D
:100DD0000A000100000022003E003E003E002A0002
:100DE00008000800000004000C001F003E001C006A
:100DF00028004000000000001F000E007E000E00D2
:100E00001F000000000000008000500038007C003F
:100E10003E001800080018003C005A001800180096
:100E2000180018003C000F0007000F001D00B8005C
:100E3000700020001000000004008200FF00FF008E
:100E4000820004000000100020007000B8001D00A7
:100E50000F0007000F003C001800180018001800D1
:100E60005A003C001800080004000E001D00B800E5
:100E7000F000E000F000000020004100FF00FF0053
:100E8000410020000000F000E000F000B8001D006C
:100E90000E000400080008000800080009000F0008
:100EA0000F001F001F0000004000200013000F0073
:100EB0000F001F001F000000000000000300FF00E3
:100EC0000F001F001F001000100010009000F00025
:100ED000F000F800F800000002000400C800F00074
:100EE000F000F800F800000000000000C000FF0063
:100EF000F000F800F8000000000000002400990055
:100F00005A00FF00000018003C007E007F007E00B9
:100F10003C00080008000000000018003C007E00B3
:100F20007E0056005E0018003D007F00FF00AD000F
:100F3000FF00AD00BF00E000470042007E0042001D
:100F40004700E000000022003E002A0008000800E0
:100F500049007F0041001C001C0008003E00080002
:100F600008001400220000001100D200FC00D20092
:100F7000110000000000000088004B003F004B0003
:100F800088000000000022001400080008003E0055
:100F900008001C001C003C007E00FF00DB00FF007E
:100FA00067007E003C003C0042008100A5008100FB
:100FB000990042003C00180024007E00FF005A0007
:100FC00024000000000000003C007E007E007E0047
:100FD0007E003C00000000003C0042004200420055
:100FE00042003C0000003C00420081008100810082
:100FF000810042003C0001000000000003000300EB
:101000003F007F003F00800080008000C000E300C0
:10101000FF00FF00FE000100010001000300C70007
:10102000FF00FF007F00800000000000C000C00043
:10103000FC00FE00FC00000000007F000400040033
:101040001F00070000000000000018007F00E00003
:10105000F800F8000000000000001800FE00070083
:101060001F001F00000000000000FE002000200004
:10107000F800E0000000000000000100430037001D
:10108000FF00FF00FF0040004000E000E200EC0035
:10109000FF00FE00FC0002000200070047003700CE
:1010A000FF007F003F00000000008000C200EC0055
:1010B000FF00FF00FF000000000000000000FF0034
:1010C000FF00FF00FF00FF00FF00FF00FF00000027
:1010D00000000000000000000000000000000F0001
:1010E0000F000F000F000F000F000F000F00000097
:1010F0000000000000000000000000000000F00000
:10110000F000F000F000F000F000F000F00000004F
:101110000000000000003C00660042004200660043
:101120007E0066003C003C00660042004200660013
:101130007E0066003C003C00660042004200660003
:101140007E0066003C003C006600420042006600F3
:101150007E0066003C003C006600420042006600E3
:101160007E0066003C003C006600420042006600D3
:101170007E0066003C003C006600420042006600C3
:101180007E0066003C003C006600420042006600B3
:101190007E0066003C003C006600420042006600A3
:1011A0007E0066003C003C00660042004200660093
:1011B0007E0066003C003C00660042004200660083
:1011C0007E0066003C003C00660042004200660073
:1011D0007E0066003C003C00660042004200660063
:1011E0007E0066003C003C00660042004200660053
:1011F0007E0066003C003C00660042004200660043
:101200007E0066003C003C00660042004200660032
:101210007E0066003C0000000000000000000000AE
:10122000000000000000080008000800080000009E
:1012300000000000000000000000000000000800A6
:10124000080008000800080008000800080008005E
:10125000080008000800000000000000F80000007E
:10126000000000000000080008000800F80000006E
:10127000000000000000000000000000F80008006E
:10128000080008000800080008000800F80008002E
:101290000800080008000000000000000F00000027
:1012A0000000000000000800080008000F00000017
:1012B0000000000000000000000000000F00080017
:1012C0000800080008000800080008000F000800D7
:1012D000080008000800000000000000FF000000F7
:1012E000000000000000080008000800FF000000E7
:1012F000000000000000000000000000FF000800E7
:10130000080008000800080008000800FF000800A6
:1013100008000800080008C40037C40033C40C36B5
:10132000C20094FC0140D44098054003FC200140D9
:10133000D43FCF0190EAFFFFFFFFFFFFFFFFFFFF5A
:10134000FFFFFFFFFFFFFFFFFFFFFFFFFFFFFFFFAD
:10135000FFFFFFFFFFFFFFFFFFFFFFFFFFFFFFFF9D
:10136000FFFFFFFFFFFFFFFFFFFFFFFFFFFFFFFF8D
:10137000FFFFFFFFFFFFFFFFFFFFFFFFFFFFFFFF7D
:101B1000FFFFFFFFFFFF00000A0B02090C0D0E087C
:101B200007030401000000000000000000000000A6
:101B300000000000000000000000000000000000A5
:101B40000000121110000000000000000000000062
:101B50000000000000000000000000000102102052
:101B600020080810204010204080020102010804D3
:101B70000201010204081020408080402010080467
:101B800002018004020180402010080402010804C0
:101B90000201010204081020408001020408102004
:101BA000408005050505070508080808020202022D
:101BB0000A0A0808040404040101010101010101E9
:101BC0000303030303030303040707070C0C0C0CB4
:101BD0000C0C0C0C0202020206060606060606069D
:101BE0000B0B0B0B0B0B0B0B000020002300260034
:101BF00029002C002F003200000100000301060123
:101C0000090100002200250028002B002E003100D1
:101C1000340002010000050108010B010000210051
:101C2000240027002A002D003000330001010000AD
:101C3000040107010A01000000000000000000008C
:101C40000000000960000000000000713100000089
:101C50007A73617732000063786465343300002062
:101C6000766674723500006E62686779360000002F
:101C70006D6A75373800002C6B696F303900002EA3
:101C80002F6C3B702D00000027005B3D0000000022
:101C90000D5D005C00000000000000007F000031CE
:101CA000003437000000302E323536381B00002B50
:101CB000332D2A3900000000000000000000000061
:101CC0000000000000000000000000097E0000008D
:101CD00000000051210000005A53415740000043CA
:101CE0005844452423000020564654522500004EF7
:101CF000424847595E0000004D4A55262A00003CE4
:101D00004B494F292800003E3F4C3A505F000000ED
:101D100022007B2B000000000D7D007C00000000F5
:101D2000000000007F000031003437000000302E3A
:101D3000323536381B00002B332D2A3900000000C5
:101D40000000000000000000000000000000000093
:101D50000000000000000000000000000000000083
:101D60000000000000000000000000000000000073
:101D70000000000000000000000000000000000063
:101D80000000000000000000000000000000000053
:101D90000000000000000000000000000000000043
:101DA0000000000000000000000000000000000033
:101DB0000000000000000000000000000000000023
:101DC0000000000000000000000000000000000013
:101DD0003E1111241FBECFEFD1E2DEBFCDBF00E028
:101DE0000CBF12E0A0E0B2E0ECEFF4E500E00BBFC6
:101DF00002C007900D92A834B107D9F727E1A8E4F3
:101E0000B2E001C01D92A33CB207E1F71DE1C2EDB3
:101E1000DDE100E006C022970109FE010BBF0E9430
:101E2000782AC03DD10780E00807A9F70E94002565
:101E30000C947C2A0C940000FC012283638344836D
:101E40000895CF93DF93FC01438150E0FA01EE55F2
:101E5000F44EE491F0E0EE0FFF1FEE5FF34EA5911C
:101E6000B491FC01248130E0F901EE55F44E8491E7
:101E700090E0880F991F8E5F934EFC01C591D4911D
:101E8000FA01E45AF44E4491F901E45AF44E2491D3
:101E90003FB7F89488E0722F7095542F5095988131
:101EA00067FF02C0922B01C0972398839C91942BCB
:101EB0009C939C9195239C93660F815081F73FBF23
:101EC000DF91CF9108951F93CF93DF93EC01142FEF
:101ED0008A81882389F06EBD0DB407FEFDCF812F66
:101EE000807F8EBD0DB407FEFDCF1295107F1EBD05
:101EF0000DB407FEFDCF0EC0CE01A3DF612F607FC2
:101F0000CE019FDF612F6295607FCE01DF91CF917F
:101F10001F9197CFDF91CF911F910895462F68EFC2
:101F2000D2CFCF93DF93EC0160E08B810E94A42697
:101F300060E08C810E94A42661E08B810E946B2668
:101F400061E08C810E946B268A81882311F081E5F3
:101F50008CBD188260E2CE01E1DF61E070E080E0DC
:101F600090E00E94862560E2CE01D8DF80E390E019
:101F70000E94AB2566E0CE01D1DF80E390E00E94B5
:101F8000AB25198281E088836CE0CE01C7DF80E356
:101F900090E0DF91CF910C94AB25462F6AEF93CF61
:101FA000CF93DF93EC01898181110EC08881882352
:101FB00011F066E201C064E2CE01B0DF80E390E0A0
:101FC0000E94AB2581E08983DF91CF910895EF9244
:101FD000FF920F931F93CF93DF931F92CDB7DEB77E
:101FE0007C018B01FC018081882301F1C7014983B9
:101FF000D7DF602F6F716068C70190DF4981642F60
:102000006068C801807299279695879596958795FF
:10201000682BC70183DF80E390E00F90DF91CF91C1
:102020001F910F91FF90EF900C94AB250F90DF91D3
:10203000CF911F910F91FF90EF9008950F931F93F1
:10204000CF93DF931F921F92CDB7DEB78C01842F01
:10205000462F50E0682F70E0C8012A833983B7DF2C
:102060003981632FC80199DF2A81622FC80195DF6A
:102070008AE090E00F900F90DF91CF911F910F9128
:102080000C94AB25FF920F931F93CF93DF938C019A
:10209000C0E0D0E040E050E0BE01C80198DFF8E0C9
:1020A000FF2E60E0C80179DF60E0C80176DF8AE0DA
:1020B00090E00E94AB25FA94A1F72196C034D10597
:1020C00049F7DF91CF911F910F91FF900895AF9243
:1020D000BF92CF92DF92EF92FF920F931F93CF9315
:1020E000DF936C01B62EA42E7901C0E0D0E0F70199
:1020F00080819E0148E0849F200D311D1124C9017B
:10210000880F991F8A5E9C4FAA2797FDA095BA2F2A
:10211000ABBFFC0187919691F70121818E01F8E018
:102120002F9F000D111D1124000F111F0A5E1C4F5F
:10213000222717FD2095322F2BBFF801079116910A
:10214000382F2227202B4C2F4A0D6B2DC60176DF0E
:102150002196C830D10509F0CACFDF91CF911F91E8
:102160000F91FF90EF90DF90CF90BF90AF900895C8
:1021700061E086E30E946B2661E086E30E94A4266C
:1021800061E089E492E0CDDE89E492E07BDFE0E982
:10219000F2E080E293E0E031F90711F08193FACFA9
:1021A00046E35CE163E082E00C941228EF92FF9238
:1021B0000F931F93CF93DF931F92CDB7DEB780911C
:1021C0004F02811105C00E94DB27882391F121C0B5
:1021D00010924F0280E5E82E82E0F82E00E912E02E
:1021E00050E0F7018081882359F010829801452F33
:1021F000487F652F677089E492E0598368DF5981D1
:102200005F5FFFEFEF1AFF0A0E5F1F4F503449F771
:10221000DACF0E94EE2787FD03C080934E0202C0F2
:1022200010924E0280914E028F3719F488E080930D
:102230004E020F90DF91CF911F910F91FF90EF9081
:1022400008958F77E82FF0E0DF01A057BD4F8C9104
:10225000861749F06C93F595E795E05BFD4F81E0BB
:10226000808380934F02089580914E02882321F04D
:10227000806810924E02089580E0089520E047E3C0
:1022800068E389E492E0D8DD88E492E00C941128B8
:1022900013C1CF92DF92EF92FF92CF93DF9300D0E2
:1022A0001F92CDB7DEB747D1282F30E040E050E095
:1022B000211531054105510549F129833A834B83A5
:1022C0005C830E945725C0901003D0901103E090CA
:1022D0001203F090130329813A814B815C816C15C4
:1022E0007D058E059F0548F368EE73E080E090E081
:1022F0000E94342A2C0D3D1D4E1D5F1D209310039E
:102300003093110340931203509313030F900F90D7
:102310000F900F90DF91CF91FF90EF90DF90CF90D3
:10232000089540916E1750915D17242F30E0C90138
:10233000850F911D60915F17860F911D9093571720
:1023400080935617692F617060935F17452747FF89
:1023500003C010925E1707C02827392727FFF9CF3F
:1023600021E020935E1780936E17089590916E1769
:1023700080915D17292F2F70382F3F70230F3091D8
:102380005F17230F20935A17392F307F807F90E0FB
:10239000830F911D909357178093561710925F17D4
:1023A0002A3040F02A5020935A174096909357179E
:1023B0008093561780915617909157178139910540
:1023C00048F0805A9109909357178093561781E0EF
:1023D00080935F178091561790915A17892B80939D
:1023E0006E1708958091581790915917FC01EF2F9F
:1023F000FF27E695E695EC5EFC4F2081223049F000
:10240000233071F0213081F4FC01F370EC5AFC4E62
:1024100003C0FC01EC5AFC4020915D172083089515
:1024200060915D178F770DCF089580915817909127
:102430005917FC01EF2FFF27E695E695EC5EFC4F60
:102440002081223071F038F42130D1F4FC01F37096
:10245000EC5AFC4E09C0233049F0253089F404DFE2
:1024600010C0FC01EC5AFC4080810BC08A5E9C4E7F
:10247000AA2797FDA095BA2FABBFFC01879101C099
:102480008FEF80935D17089580916C17807F809304
:102490006C1790915E17992319F0806480936C17E4
:1024A00080915F17882329F080916C178068809352
:1024B0006C1780916C17089510926C1710926D171D
:1024C00010926E171092651710926417109267178A
:1024D00010926617109269171092681710926B1776
:1024E00010926A1710925E1710925F17109263177E
:1024F00010926217109261171092601739DEE4E1B2
:10250000F3E0119283E0E435F807D9F783E0809394
:1025100015038093140381E08093160385E0809374
:10252000170382E0809318038093190380931A03A2
:1025300080931B0308950F931F93CF93DF93809194
:102540006017909161170097E1F0893823E19207B5
:1025500040F08858934190936117809360170C94D2
:10256000F524880F991F2091621730916317280F67
:10257000391F3093631720936217109261171092DE
:10258000601780916A1790916B17019690936B1763
:1025900080936A17909359178093581746DF80915C
:1025A0005D1780935C1787FF17C080915817909133
:1025B00059170196909359178093581780916A176D
:1025C00090916B17019690936B1780936A172DDF8C
:1025D00080915D1780935B1780915C1790E0FC0100
:1025E000EE58FF4F0C94722A8091621790916317F6
:1025F000089690936317809362170C94E724809158
:102600006E1780935A1790916D1790936E17809361
:102610006D178091621790916317079690936317D7
:10262000809362170C94E72410925F1780916217D1
:1026300090916317059690936317809362170C949B
:10264000E72481E080935F17809162179091631770
:10265000059690936317809362170C94E7248091FA
:102660006C17877F80936C17809162179091631726
:10267000069690936317809362170C94E7248091D9
:102680006C17886080936C17809162179091631724
:10269000069690936317809362170C94E724F4DEF8
:1026A00080936E17809162179091631705969093AF
:1026B0006317809362170C94E72480916E178093C0
:1026C0006C17982F991F9927991F90935F1786FB76
:1026D000882780F980935E17809162179091631725
:1026E000069690936317809362170C94E724809169
:1026F0006217909163170696909363178093621701
:102700000C94E72480916D1790E0959587958093C0
:102710006D178091621790916317059690936317D8
:10272000809362170C94E72480916E1790E0959542
:10273000879580936E178091621790916317059625
:1027400090936317809362170C94E72480915F172E
:1027500040E8849FC001112490916E179695982BA4
:1027600090936E17809162179091631705969093DE
:102770006317809362170C94E72480916E1780FB97
:10278000879587F980936E178091621790916317F0
:10279000059690936317809362170C94E724309109
:1027A0006E17232F217020935A1780915F1740E8EE
:1027B000849FC0011124932F9695982B90936E17A8
:1027C00020935F17809162179091631705969093FD
:1027D0006317809362170C94E72480916A17909195
:1027E0006B1780935A1740916E179C012227242B58
:1027F00030936B1720936A1780936E17809162173E
:1028000090916317089690936317809362170C94C6
:10281000E724809168179091691780935A17409127
:102820006E179C012227242B309369172093681779
:1028300080936E178091621790916317089690931A
:102840006317809362170C94E72480916617909128
:10285000671780935A1740916E179C012227242BEB
:10286000309367172093661780936E1780916217D5
:1028700090916317089690936317809362170C9456
:10288000E724809164179091651780935A174091BF
:102890006E179C012227242B309365172093641711
:1028A00080936E17809162179091631708969093AA
:1028B0006317809362170C94E72480916A17209124
:1028C0006B1720935A1730916E1790E0932B9093CB
:1028D0006B1780936A1720936E17809162179091FF
:1028E0006317089690936317809362170C94E724FC
:1028F000809168172091691720935A1730916E17AD
:1029000090E0932B909369178093681720936E172C
:102910008091621790916317089690936317809344
:1029200062170C94E7248091661720916717209313
:102930005A1730916E1790E0932B909367178093FE
:10294000661720936E17809162179091631708960F
:1029500090936317809362170C94E7248091641717
:102960002091651720935A1730916E1790E0932BA2
:10297000909365178093641720936E178091621768
:1029800090916317089690936317809362170C9445
:10299000E72480916A1790916B1790935717809353
:1029A000561780916217909163170796909363175B
:1029B000809362170C94E72480916A1790916B17AB
:1029C0009093571780935617209168173091691785
:1029D00030936B1720936A17909369178093681749
:1029E0008091621790916317079690936317809375
:1029F00062170C94E72480916A1790916B1790935B
:102A000057178093561720916617309167173093A8
:102A10006B1720936A1790936717809366178091BE
:102A200062179091631707969093631780936217CC
:102A30000C94E72480916A1790916B179093571725
:102A400080935617209164173091651730936B1758
:102A500020936A179093651780936417809162178B
:102A600090916317079690936317809362170C9465
:102A7000E72480916D1780936E1780916217909173
:102A80006317069690936317809362170C94E7245C
:102A900080916E1790916D17892780936E178091A2
:102AA000621790916317069690936317809362174D
:102AB0000C94E72480916E1790916D17892B809369
:102AC0006E17809162179091631706969093631723
:102AD000809362170C94E72480916E1790916D1784
:102AE000892780936E1780916217909163170696DD
:102AF00090936317809362170C94E72480916D176D
:102B000080935D1733DC80916217909163170B9669
:102B100090936317809362170C94E72480916D174C
:102B200080935D17FEDB8091621790916317079683
:102B300090936317809362170C94E72480916D172C
:102B4000809580935D17EDDB8091621790916317FC
:102B5000089690936317809362170C94E724C091B2
:102B60005B17D0E0DC2FCC27009162171091631720
:102B700060E177E280E090E0601B710B81099109D0
:102B800022E030E040E050E00E94562AC217D3070E
:102B900068F4CC0FDD1FC00FD11FD0936317C09313
:102BA000621710926117109260170CC0C21BD30BF2
:102BB000D0936117C093601780E197E290936317F9
:102BC0008093621710926E1780916217909163172D
:102BD0000D9690936317809362170C94E7242091CD
:102BE0005B17332727FD30953093551720935417E3
:102BF00080916A1790916B17820F931F90936B17B8
:102C000080936A1780916217909163170B96909347
:102C10006317809362170C94E72420915B17332786
:102C200027FD3095309355172093541780916817DE
:102C300090916917820F931F90936B1780936A1777
:102C400080916217909163170B969093631780930E
:102C500062170C94E72420915B17332727FD3095EA
:102C600030935517209354178091661790916717EA
:102C7000820F931F90936B1780936A17809162174E
:102C8000909163170B9690936317809362170C943F
:102C9000E72420915B17332727FD30953093551794
:102CA000209354178091641790916517820F931F9A
:102CB00090936B1780936A178091621790916317B6
:102CC0000B9690936317809362170C94E7242091DE
:102CD0005B17332727FD30953093551720935417F2
:102CE00080916E1787FD0AC080916A1790916B17CB
:102CF000820F931F90936B1780936A1780916217CE
:102D0000909163170A9690936317809362170C94BF
:102D1000E72420915B17332727FD30953093551713
:102D20002093541780916E1787FD0AC08091681711
:102D300090916917820F931F90936B1780936A1776
:102D400080916217909163170A969093631780930E
:102D500062170C94E72420915B17332727FD3095E9
:102D6000309355172093541780916E1787FD0AC032
:102D70008091661790916717820F931F90936B173E
:102D800080936A1780916217909163170A969093C7
:102D90006317809362170C94E72420915B17332705
:102DA00027FD3095309355172093541780916E1757
:102DB00087FD0AC08091641790916517820F931F59
:102DC00090936B1780936A178091621790916317A5
:102DD0000A9690936317809362170C94E7242091CE
:102DE0005B17332727FD30953093551720935417E1
:102DF00080916E1781110AC080916A1790916B17AC
:102E0000820F931F90936B1780936A1780916217BC
:102E1000909163170A9690936317809362170C94AE
:102E2000E72420915B17332727FD30953093551702
:102E30002093541780916E1781110AC080916817F2
:102E400090916917820F931F90936B1780936A1765
:102E500080916217909163170A96909363178093FD
:102E600062170C94E72420915B17332727FD3095D8
:102E7000309355172093541780916E1781110AC013
:102E80008091661790916717820F931F90936B172D
:102E900080936A1780916217909163170A969093B6
:102EA0006317809362170C94E72420915B173327F4
:102EB00027FD3095309355172093541780916E1746
:102EC00081110AC08091641790916517820F931F3A
:102ED00090936B1780936A17809162179091631794
:102EE0000A9690936317809362170C94E7242091BD
:102EF0005B17332727FD30953093551720935417D0
:102F000080916E17882351F080916A1790916B170A
:102F1000820F931F90936B1780936A1780916217AB
:102F2000909163170A9690936317809362170C949D
:102F3000E72420915B17332727FD309530935517F1
:102F40002093541780916E17882351F08091681751
:102F500090916917820F931F90936B1780936A1754
:102F600080916217909163170A96909363178093EC
:102F700062170C94E72420915B17332727FD3095C7
:102F8000309355172093541780916E17882351F072
:102F90008091661790916717820F931F90936B171C
:102FA00080936A1780916217909163170A969093A5
:102FB0006317809362170C94E72420915B173327E3
:102FC00027FD3095309355172093541780916E1735
:102FD000882351F08091641790916517820F931F99
:102FE00090936B1780936A17809162179091631783
:102FF0000A9690936317809362170C94E7242091AC
:103000005B17332727FD30953093551720935417BE
:1030100080916A1790916B17820F931F90935917A5
:103020008093581702DA80915D178F5F80936E1737
:1030300080935D17D7D98091621790916317469658
:1030400090936317809362170C94E72420915B1789
:10305000332727FD309530935517209354178091CF
:10306000681790916917820F931F90935917809357
:103070005817DBD980915D178F5F80936E1780930F
:103080005D17B0D98091621790916317469690931F
:103090006317809362170C94E72420915B17332702
:1030A00027FD30953093551720935417809166175C
:1030B00090916717820F931F909359178093581719
:1030C000B4D980915D178F5F80936E1780935D17E1
:1030D00089D98091621790916317469690936317F0
:1030E000809362170C94E72420915B17332727FD08
:1030F0003095309355172093541780916417909111
:103100006517820F931F90935917809358178DD985
:1031100080915D178F5F80936E1780935D1762D9E2
:1031200080916217909163174696909363178093EE
:1031300062170C94E72420915B17332727FD309505
:10314000309355172093541780916A1790916B17FD
:10315000820F931F909359178093581766D98091C7
:103160005D17815080936E1780935D173BD98091D6
:103170006217909163174696909363178093621736
:103180000C94E72420915B17332727FD309530936B
:103190005517209354178091681790916917820FE3
:1031A000931F90935917809358173FD980915D17BB
:1031B000815080936E1780935D1714D980916217A8
:1031C00090916317469690936317809362170C94BF
:1031D000E72420915B17332727FD3095309355174F
:1031E000209354178091661790916717820F931F51
:1031F000909359178093581718D980915D17815073
:1032000080936E1780935D17EDD88091621790912F
:103210006317469690936317809362170C94E72484
:1032200020915B17332727FD309530935517209356
:1032300054178091641790916517820F931F909394
:10324000591780935817F1D880915D17815080935A
:103250006E1780935D17C6D880916217909163179F
:10326000469690936317809362170C94E7242091FD
:103270005B17203811F420916D17332727FD309507
:10328000309355172093541780916A1790916B17BC
:10329000820F931F9093591780935817C6D8809127
:1032A0005D1780936E178091621790916317429615
:1032B00090936317809362170C94E72420915B1717
:1032C000203811F420916D17332727FD3095309366
:1032D0005517209354178091681790916917820FA2
:1032E000931F90935917809358179FD880915D171B
:1032F00080936E1780916217909163174296909316
:103300006317809362170C94E72420915B17203891
:1033100011F420916D17332727FD30953093551701
:10332000209354178091661790916717820F931F0F
:10333000909359178093581778D880915D17809390
:103340006E1780916217909163174296909363175E
:10335000809362170C94E72420915B17203811F4B6
:1033600020916D17332727FD309530935517209303
:1033700054178091641790916517820F931F909353
:1033800059178093581751D880915D1780936E1705
:103390008091621790916317429690936317809380
:1033A00062170C94E72480915B1780936E178091CD
:1033B0006217909163170A96909363178093621730
:1033C0000C94E72420915B17203811F420916D179D
:1033D000332727FD3095309355172093541727FF37
:1033E0000AC08091681790916917820F931F90937C
:1033F0006917809368178091681790916917909367
:1034000059178093581711D880915D1780936E17C4
:10341000209154173091551727FD0AC080916817E5
:1034200090916917820F931F909369178093681783
:1034300080916217909163174296909363178093DF
:1034400062170C94E72420915B17203811F4209127
:103450006D17332727FD3095309355172093541758
:1034600027FF0AC08091661790916717820F931FFC
:1034700090936717809366178091661790916717EE
:1034800090935917809358170E94151280915D17D9
:1034900080936E17209154173091551727FD0AC05D
:1034A0008091661790916717820F931F909367170B
:1034B000809366178091621790916317429690935C
:1034C0006317809362170C94E72420915B172038D0
:1034D00011F420916D17332727FD30953093551740
:1034E0002093541727FF0AC08091641790916517A5
:1034F000820F931F909365178093641780916417D0
:103500009091651790935917809358170E94151240
:1035100080915D1780936E17209154173091551745
:1035200027FD0AC08091641790916517820F931F41
:103530009093651780936417809162179091631739
:10354000429690936317809362170C94E72420911E
:103550005B17203811F420916D17332727FD309524
:10356000309355172093541780916A1790916B17D9
:10357000820F931F909359178093581780916E175D
:1035800080935D170E94F2118091621790916317EA
:10359000429690936317809362170C94E7242091CE
:1035A0005B17203811F420916D17332727FD3095D4
:1035B000309355172093541780916817909169178D
:1035C000820F931F909359178093581780916E170D
:1035D00080935D170E94F21180916217909163179A
:1035E000429690936317809362170C94E72420917E
:1035F0005B17203811F420916D17332727FD309584
:103600003093551720935417809166179091671740
:10361000820F931F909359178093581780916E17BC
:1036200080935D170E94F211809162179091631749
:10363000429690936317809362170C94E72420912D
:103640005B17203811F420916D17332727FD309533
:1036500030935517209354178091641790916517F4
:10366000820F931F909359178093581780916E176C
:1036700080935D170E94F2118091621790916317F9
:10368000429690936317809362170C94E7242091DD
:103690005B17203811F420916D17332727FD3095E3
:1036A000309355172093541727FF0AC0809168174D
:1036B00090916917820F931F9093691780936817F1
:1036C00080916817909169179093591780935817B4
:1036D00080916E1780935D170E94F211209154170C
:1036E0003091551727FD0AC080916817909169178E
:1036F000820F931F909369178093681780916217C8
:1037000090916317429690936317809362170C947D
:10371000E72420915B17203811F420916D1733278F
:1037200027FD3095309355172093541727FF0AC073
:103730008091661790916717820F931F9093671778
:103740008093661780916617909167179093591729
:103750008093581780916E1780935D170E94F21125
:10376000209154173091551727FD0AC08091661794
:1037700090916717820F931F909367178093661736
:10378000809162179091631742969093631780938C
:1037900062170C94E72420915B17203811F42091D4
:1037A0006D17332727FD3095309355172093541705
:1037B00027FF0AC08091641790916517820F931FAD
:1037C00090936517809364178091641790916517A3
:1037D000909359178093581780916E1780935D17B7
:1037E0000E94F211209154173091551727FD0AC0FD
:1037F0008091641790916517820F931F90936517BE
:10380000809364178091621790916317429690930A
:103810006317809362170C94E72420915B1720387C
:1038200011F420916D17332727FD309530935517EC
:103830002093541780916A1790916B17820F931FF2
:1038400090935917809358170E94151280916E1704
:1038500090915D17892380936E17809162179091E4
:103860006317429690936317809362170C94E72432
:1038700020915B17203811F420916D17332727FD15
:103880003095309355172093541780916817909175
:103890006917820F931F90935917809358170E94AE
:1038A000151280916E1790915D17892380936E1782
:1038B000809162179091631742969093631780935B
:1038C00062170C94E72420915B17203811F42091A3
:1038D0006D17332727FD30953093551720935417D4
:1038E0008091661790916717820F931F90935917D5
:1038F000809358170E94151280916E1790915D1752
:10390000892380936E178091621790916317429676
:1039100090936317809362170C94E72420915B17B0
:10392000203811F420916D17332727FD30953093FF
:103930005517209354178091641790916517820F43
:10394000931F90935917809358170E9415128091D6
:103950006E1790915D17892380936E17809162177F
:1039600090916317429690936317809362170C941B
:10397000E72480916E1790915B17892380936E17CF
:1039800080916217909163170A96909363178093C2
:1039900062170C94E72420915B17203811F42091D2
:1039A0006D17332727FD3095309355172093541703
:1039B00027FF0AC08091681790916917820F931FA3
:1039C0009093691780936817809168179091691791
:1039D00090935917809358170E94151280916E1773
:1039E00090915D17892380936E1720915417309121
:1039F000551727FD0AC08091681790916917820FAB
:103A0000931F909369178093681780916217909124
:103A1000631742969093631780936217D8C72091DB
:103A20005B17203811F420916D17332727FD30954F
:103A3000309355172093541727FF0AC080916617BB
:103A400090916717820F931F909367178093661763
:103A50008091661790916717909359178093581724
:103A60000E94151280916E1790915D1789238093A3
:103A70006E17209154173091551727FD0AC0809179
:103A8000661790916717820F931F90936717809323
:103A9000661780916217909163174296909363170F
:103AA0008093621794C720915B17203811F42091FE
:103AB0006D17332727FD30953093551720935417F2
:103AC00027FF0AC08091641790916517820F931F9A
:103AD0009093651780936417809164179091651790
:103AE00090935917809358170E94151280916E1762
:103AF00090915D17892380936E1720915417309110
:103B0000551727FD0AC08091641790916517820FA1
:103B1000931F90936517809364178091621790911B
:103B200063174296909363178093621750C7209152
:103B30005B17203811F420916D17332727FD30953E
:103B4000309355172093541780916A1790916B17F3
:103B5000820F931F90935917809358170E94151244
:103B600080916E1790915D17892B80936E178091CD
:103B70006217909163174296909363178093621730
:103B800026C720915B17203811F420916D17332739
:103B900027FD30953093551720935417809168175F
:103BA00090916917820F931F90935917809358171C
:103BB0000E94151280916E1790915D17892B80934A
:103BC0006E178091621790916317429690936317D6
:103BD00080936217FCC620915B17203811F4209166
:103BE0006D17332727FD30953093551720935417C1
:103BF0008091661790916717820F931F90935917C2
:103C0000809358170E94151280916E1790915D173E
:103C1000892B80936E17809162179091631742965B
:103C20009093631780936217D2C620915B17203858
:103C300011F420916D17332727FD309530935517D8
:103C4000209354178091641790916517820F931FEA
:103C500090935917809358170E94151280916E17F0
:103C600090915D17892B80936E17809162179091C8
:103C7000631742969093631780936217A8C680914A
:103C80006E1790915B17892B80936E178091621746
:103C9000909163170A96909363178093621797C663
:103CA00020915B17203811F420916D17332727FDE1
:103CB0003095309355172093541727FF0AC08091F1
:103CC000681790916917820F931F909369178093DB
:103CD000681780916817909169179093591780938E
:103CE00058170E94151280916E1790915D17892BBD
:103CF00080936E17209154173091551727FD0AC0F5
:103D00008091681790916917820F931F909369179C
:103D100080936817809162179091631742969093F1
:103D200063178093621753C620915B17203811F4F4
:103D300020916D17332727FD309530935517209329
:103D4000541727FF0AC08091661790916717820F5A
:103D5000931F9093671780936617809166179091D1
:103D6000671790935917809358170E9415128091E6
:103D70006E1790915D17892B80936E1720915417C1
:103D80003091551727FD0AC08091661790916717EB
:103D9000820F931F90936717809366178091621725
:103DA00090916317429690936317809362170FC6A2
:103DB00020915B17203811F420916D17332727FDD0
:103DC0003095309355172093541727FF0AC08091E0
:103DD000641790916517820F931F909365178093D6
:103DE0006417809164179091651790935917809389
:103DF00058170E94151280916E1790915D17892BAC
:103E000080936E17209154173091551727FD0AC0E3
:103E10008091641790916517820F931F9093651797
:103E200080936417809162179091631742969093E4
:103E3000631780936217CBC520915B17203811F46C
:103E400020916D17332727FD309530935517209318
:103E5000541780916A1790916B17820F931F90935C
:103E60005917809358170E94151280916E179091E0
:103E70005D17892780936E17809162179091631761
:103E800042969093631780936217A1C520915B17A8
:103E9000203811F420916D17332727FD309530938A
:103EA0005517209354178091681790916917820FC6
:103EB000931F90935917809358170E941512809161
:103EC0006E1790915D17892780936E178091621706
:103ED000909163174296909363178093621777C50A
:103EE00020915B17203811F420916D17332727FD9F
:103EF0003095309355172093541780916617909101
:103F00006717820F931F90935917809358170E9439
:103F1000151280916E1790915D17892780936E1707
:103F200080916217909163174296909363178093E4
:103F300062174DC520915B17203811F420916D1741
:103F4000332727FD309530935517209354178091D0
:103F5000641790916517820F931F90935917809360
:103F600058170E94151280916E1790915D1789273E
:103F700080936E1780916217909163174296909389
:103F800063178093621723C580916E1790915B171A
:103F9000892780936E1780916217909163170A9614
:103FA000909363178093621712C520915B17203896
:103FB00011F420916D17332727FD30953093551755
:103FC0002093541727FF0AC08091681790916917B2
:103FD000820F931F909369178093681780916817D9
:103FE0009091691790935917809358170E94151252
:103FF00080916E1790915D17892780936E1720919D
:1040000054173091551727FD0AC080916817909179
:104010006917820F931F9093691780936817809197
:10402000621790916317429690936317809362177B
:10403000CEC420915B17203811F420916D173327DF
:1040400027FD3095309355172093541727FF0AC04A
:104050008091661790916717820F931F909367174F
:104060008093661780916617909167179093591700
:10407000809358170E94151280916E1790915D17CA
:10408000892780936E17209154173091551727FD7B
:104090000AC08091661790916717820F931F9093C3
:1040A0006717809366178091621790916317429605
:1040B00090936317809362178AC420915B1720380E
:1040C00011F420916D17332727FD30953093551744
:1040D0002093541727FF0AC08091641790916517A9
:1040E000820F931F909365178093641780916417D4
:1040F0009091651790935917809358170E94151245
:1041000080916E1790915D17892780936E1720918B
:1041100054173091551727FD0AC08091641790916C
:104120006517820F931F9093651780936417809192
:10413000621790916317429690936317809362176A
:1041400046C420915B17203811F420916D17332756
:1041500027FD3095309355172093541780916A1797
:1041600090916B17820F931F909359178093581754
:104170000E9415120E94B6118091621790916317E8
:104180004796909363178093621721C420915B1721
:10419000203811F420916D17332727FD3095309387
:1041A0005517209354178091681790916917820FC3
:1041B000931F90935917809358170E9415120E94CD
:1041C000B611809162179091631747969093631789
:1041D00080936217FCC320915B17203811F4209163
:1041E0006D17332727FD30953093551720935417BB
:1041F0008091661790916717820F931F90935917BC
:10420000809358170E9415120E94B6118091621770
:104210009091631747969093631780936217D7C363
:1042200020915B17203811F420916D17332727FD5B
:1042300030953093551720935417809164179091BF
:104240006517820F931F90935917809358170E94F8
:1042500015120E94B61180916217909163174796CC
:104260009093631780936217B2C380915B1780931A
:104270005D170E94B61180916217909163170F9697
:104280009093631780936217A2C320915B17203825
:1042900011F420916D17332727FD30953093551772
:1042A0002093541727FF0AC08091681790916917CF
:1042B000820F931F909369178093681780916817F6
:1042C0009091691790935917809358170E9415126F
:1042D0000E94B611209154173091551727FD0AC03E
:1042E0008091681790916917820F931F90936917B7
:1042F0008093681780916217909163174796909307
:1043000063178093621763C320915B17203811F401
:1043100020916D17332727FD309530935517209343
:10432000541727FF0AC08091661790916717820F74
:10433000931F9093671780936617809166179091EB
:10434000671790935917809358170E9415120E946F
:10435000B611209154173091551727FD0AC080914E
:10436000661790916717820F931F9093671780933A
:104370006617809162179091631747969093631721
:104380008093621724C320915B17203811F4209189
:104390006D17332727FD3095309355172093541709
:1043A00027FF0AC08091641790916517820F931FB1
:1043B00090936517809364178091641790916517A7
:1043C00090935917809358170E9415120E94B611A6
:1043D000209154173091551727FD0AC0809164171A
:1043E00090916517820F931F9093651780936417C0
:1043F000809162179091631747969093631780930B
:104400006217E5C220915B17203811F420916D17D7
:10441000332727FD309530935517209354178091FB
:104420006A1790916B17820F931F9093591780937F
:1044300058170E9415120E94911180916217909155
:10444000631743969093631780936217C0C22091BD
:104450005B17203811F420916D17332727FD309515
:1044600030935517209354178091681790916917CE
:10447000820F931F90935917809358170E9415121B
:104480000E949111809162179091631743969093C7
:104490006317809362179BC220915B17203811F439
:1044A00020916D17332727FD3095309355172093B2
:1044B00054178091661790916717820F931F9093FE
:1044C0005917809358170E9415120E9491118091DC
:1044D00062179091631743969093631780936217C6
:1044E00076C220915B17203811F420916D17332785
:1044F00027FD3095309355172093541780916417FA
:1045000090916517820F931F9093591780935817B6
:104510000E9415120E949111809162179091631769
:104520004396909363178093621751C280915B17F3
:1045300080935D170E94911180916217909163178B
:104540000B96909363178093621741C220915B177B
:10455000203811F420916D17332727FD30953093C3
:1045600055172093541727FF0AC080916817909120
:104570006917820F931F9093691780936817809132
:1045800068179091691790935917809358170E9454
:1045900015120E949111209154173091551727FD43
:1045A0000AC08091681790916917820F931F9093AA
:1045B00069178093681780916217909163174396EB
:1045C000909363178093621702C220915B17203883
:1045D00011F420916D17332727FD3095309355172F
:1045E0002093541727FF0AC0809166179091671790
:1045F000820F931F909367178093661780916617B9
:104600009091671790935917809358170E9415122D
:104610000E949111209154173091551727FD0AC01F
:104620008091661790916717820F931F9093671779
:1046300080936617809162179091631743969093C9
:10464000631780936217C3C120915B17203811F460
:1046500020916D17332727FD309530935517209300
:10466000541727FF0AC08091641790916517820F35
:10467000931F9093651780936417809164179091AE
:10468000651790935917809358170E9415120E942E
:104690009111209154173091551727FD0AC0809130
:1046A000641790916517820F931F909365178093FD
:1046B00064178091621790916317439690936317E4
:1046C0008093621784C120915B17203811F42091E8
:1046D0006D17332727FD30953093551720935417C6
:1046E00080916A1790916B17820F931F90935917BF
:1046F000809358170E94151280915D1780958093C2
:104700005D170E94911180916217909163174496F2
:1047100090936317809362175AC120915B172038DA
:1047200011F420916D17332727FD309530935517DD
:10473000209354178091681790916917820F931FE7
:1047400090935917809358170E94151280915D1706
:10475000809580935D170E949111809162179091CE
:1047600063174496909363178093621730C120912A
:104770005B17203811F420916D17332727FD3095F2
:1047800030935517209354178091661790916717AF
:10479000820F931F90935917809358170E941512F8
:1047A00080915D17809580935D170E949111809193
:1047B00062179091631744969093631780936217E2
:1047C00006C120915B17203811F420916D17332713
:1047D00027FD309530935517209354178091641717
:1047E00090916517820F931F9093591780935817D4
:1047F0000E94151280915D17809580935D170E942D
:10480000911180916217909163174496909363176A
:1048100080936217DCC080915B17809580935D1751
:104820000E94911180916217909163170C9690935A
:10483000631780936217CBC020915B17203811F467
:1048400020916D17332727FD30953093551720930E
:10485000541727FF0AC08091681790916917820F3B
:10486000931F9093691780936817809168179091B0
:10487000691790935917809358170E9415128091C9
:104880005D17809580935D170E94911120915417B8
:104890003091551727FD0AC08091681790916917CC
:1048A000820F931F90936917809368178091621706
:1048B000909163174496909363178093621787C013
:1048C00020915B17203811F420916D17332727FDB5
:1048D0003095309355172093541727FF0AC08091C5
:1048E000661790916717820F931F909367178093B5
:1048F0006617809166179091671790935917809368
:1049000058170E94151280915D17809580935D174E
:104910000E949111209154173091551727FD0AC01C
:104920008091661790916717820F931F9093671776
:1049300080936617809162179091631744969093C5
:1049400063178093621743C020915B17203811F4DE
:1049500020916D17332727FD3095309355172093FD
:10496000541727FF0AC08091641790916517820F32
:10497000931F9093651780936417809164179091AB
:10498000651790935917809358170E9415128091BC
:104990005D17809580935D170E94911120915417A7
:1049A0003091551727FD0AC08091641790916517C3
:1049B000820F931F909365178093641780916217FD
:1049C0009091631744969093631780936217809138
:1049D000621790916317803127E2920750F080515F
:1049E000974290936317809362170E94D61082E3D8
:1049F00001C080E0DF91CF911F910F91089508953C
:104A0000B5D0FDDF0E944811C0E0D0E00E944911FE
:104A10002097E1F30E940000F9CF1F920F920FB68A
:104A20000F9211242F933F938F939F93AF93BF9334
:104A30008091701790917117A0917217B0917317B0
:104A400030916F1723E0230F2D3720F40196A11D1D
:104A5000B11D05C026E8230F0296A11DB11D2093AC
:104A60006F178093701790937117A0937217B0937C
:104A700073178091741790917517A0917617B09164
:104A800077170196A11DB11D809374179093751728
:104A9000A0937617B0937717BF91AF919F918F91A5
:104AA0003F912F910F900FBE0F901F9018952FB729
:104AB000F8946091701770917117809172179091AE
:104AC00073172FBF08953FB7F89480917417909192
:104AD0007517A0917617B091771726B5A89B05C0DA
:104AE0002F3F19F00196A11DB11D3FBF6627782FFA
:104AF000892F9A2F620F711D811D911D42E0660F53
:104B0000771F881F991F4A95D1F70895CF92DF929A
:104B1000EF92FF92CF93DF936B017C01D4DFEB0127
:104B2000C114D104E104F10479F06BD1CCDF6C1B2A
:104B30007D0B683E7340A0F381E0C81AD108E108FC
:104B4000F108C851DC4FECCFDF91CF91FF90EF908F
:104B5000DF90CF9008950197009739F0880F991F43
:104B6000880F991F02970197F1F70895789484B5FB
:104B7000826084BD84B5816084BD85B5826085BD59
:104B800085B5816085BDEEE6F0E08081816080833F
:104B9000E1E8F0E010828081826080838081816022
:104BA0008083E0E8F0E0808181608083E1EBF0E0E9
:104BB000808184608083E0EBF0E08081816080838D
:104BC000E1E9F0E080818260808380818160808380
:104BD000E0E9F0E0808181608083E1EAF0E08081BB
:104BE00082608083808181608083E0EAF0E0808160
:104BF00081608083E1E2F1E0808182608083808156
:104C000081608083E0E2F1E0808181608083EAE777
:104C1000F0E08081846080838081826080838081F5
:104C2000816080838081806880831092C1000895B4
:104C300090E0FC013197E231F10508F04BC0EE58ED
:104C4000FE4F50C4809180008F7703C08091800018
:104C50008F7D80938000089580918000877FF9CFB9
:104C600084B58F7702C084B58F7D84BD089580910F
:104C7000B0008F7703C08091B0008F7D8093B0002B
:104C80000895809190008F7707C0809190008F7D6C
:104C900003C080919000877F809390000895809159
:104CA000A0008F7707C08091A0008F7D03C0809106
:104CB000A000877F8093A0000895809120018F77C6
:104CC00007C0809120018F7D03C080912001877FE4
:104CD000809320010895CF93DF9390E0FC01E45A84
:104CE000F44E2491FC01EE55F44E8491882349F151
:104CF00090E0880F991FFC01E45EF34EA591B491FA
:104D00008E5F934EFC01C591D4919FB7611108C08D
:104D1000F8948C91209582238C93888182230AC0F9
:104D2000623051F4F8948C91322F309583238C9318
:104D30008881822B888304C0F8948C91822B8C9379
:104D40009FBFDF91CF9108950F931F93CF93DF9370
:104D50001F92CDB7DEB7282F30E0F901EA5EF44E9E
:104D60008491F901E45AF44E1491F901EE55F44E90
:104D700004910023C1F0882319F0698359DF698108
:104D8000E02FF0E0EE0FFF1FEE5FF34EA591B49120
:104D90009FB7F8948C91611103C01095812301C0D5
:104DA000812B8C939FBF0F90DF91CF911F910F911B
:104DB0000895CF93DF93282F30E0F901EA5EF44E97
:104DC0008491F901E45AF44ED491F901EE55F44E70
:104DD000C491CC2389F081112BDFEC2FF0E0EE0F92
:104DE000FF1FE851F44EA591B4912C912D2381E041
:104DF00090E021F480E002C080E090E0DF91CF916C
:104E00000895089520917F17309180179091781719
:104E1000D901A05FBE4F80918417409185178413FC
:104E200004C09093781780E008958F5F8D3208F06A
:104E300080E0E82FF0E0EA57F84EE0818093841795
:104E4000EE2379F3E03F11F49160E5CFE03E11F4F9
:104E50009260E1CF90FF0EC0E23111F49B7F08C059
:104E6000E93511F4977F04C0E13111F491FD9F7E83
:104E70009C7FD1CFE23111F49460CDCFE93511F4AC
:104E80009860C9CFE13111F491FD906191FF08C0A4
:104E9000EA54E43318F5F0E0EC5EFD4FE0811FC00A
:104EA00094FF09C08C91882331F0E838B8F4F0E021
:104EB000EF5EFE4F08C0892F8C7041F0E83870F427
:104EC000F0E0E857FF4FE20FF31F06C0E83830F478
:104ED000A9014E0F511DFA01E49101C0E0E09C7F51
:104EE000EE2309F498CF909378178E2F0895CF92E0
:104EF000DF92EF92FF920F931F93CF93DF938091F6
:104F0000831757DFEC01D3DD00917B1710917C17DD
:104F100020917D1730917E176B017C01C01AD10A58
:104F2000E20AF30A970186010B3F110521053105BD
:104F300020F010927A171092791760937B17709374
:104F40007C1780937D1790937E1790917A178FEF3F
:104F5000890F883050F4DD2701C0CC0F8A95EAF71D
:104F6000809179178C2B8093791781E0890F80933A
:104F70007A178B30B9F4809185178F5F8D3208F0E6
:104F800080E090918417891749F0E82FF0E0909124
:104F90007917EA57F84E90838093851710927A1705
:104FA00010927917DF91CF911F910F91FF90EF90A1
:104FB000DF90CF9008958091821781110DC080916C
:104FC0008117811109C01EDF982F8093821781E01D
:104FD000911103C080E0089581E0089580918117C8
:104FE000882319F01092811717C0809182178823A7
:104FF00019F01092821701C005DF87FF0BC0982FB0
:105000009F7390689093811782958695869583709B
:10501000806C02C0882311F090E008958FEF9FEF1D
:1050200008950895CF93DF93D82FC62F80938317C9
:105030005093801740937F1762E08C2F4CDE62E024
:105040008D2F49DEC250C43130F4EC2FF0E0E05037
:10505000FE4F808101C08FEF109285171092841748
:105060008F3F39F042E050E067E777E2DF91CF9180
:1050700003C0DF91CF910895883008F06CC0E82F0D
:10508000F0E0EE0FFF1FED54F84E7183608390E067
:10509000FC013197E730F10588F5EC57FE4F22C24D
:1050A000809169008C7F842B80936900E89A089531
:1050B00080916900440F551F440F551F837F842B37
:1050C00080936900E99A08958091690074E0440F23
:1050D000551F7A95E1F78F7C842B80936900EA9ABB
:1050E00008958091690066E0440F551F6A95E1F7C5
:1050F0008F73842B80936900EB9A089580916A00E6
:105100008C7F842B80936A00EC9A089580916A00CA
:10511000440F551F440F551F837F842B80936A00D3
:10512000ED9A089580916A0024E0440F551F2A9556
:10513000E1F78F7C842B80936A00EE9A089580912A
:105140006A0096E0440F551F9A95E1F78F73842B00
:1051500080936A00EF9A08951F920F920FB60F92F4
:1051600011240BB60F922F933F934F935F936F933E
:105170007F938F939F93AF93BF93EF93FF93809110
:10518000B7179091B817892B29F0E091B717F091D4
:10519000B8171995FF91EF91BF91AF919F918F91A2
:1051A0007F916F915F914F913F912F910F900BBE27
:1051B0000F900FBE0F901F9018951F920F920FB671
:1051C0000F9211240BB60F922F933F934F935F933F
:1051D0006F937F938F939F93AF93BF93EF93FF93BF
:1051E0008091B9179091BA17892B29F0E091B917DE
:1051F000F091BA171995FF91EF91BF91AF919F91DF
:105200008F917F916F915F914F913F912F910F906F
:105210000BBE0F900FBE0F901F9018951F920F920C
:105220000FB60F9211240BB60F922F933F934F930B
:105230005F936F937F938F939F93AF93BF93EF93FE
:10524000FF938091BB179091BC17892B29F0E091B7
:10525000BB17F091BC171995FF91EF91BF91AF91DA
:105260009F918F917F916F915F914F913F912F917E
:105270000F900BBE0F900FBE0F901F9018951F92AE
:105280000F920FB60F9211240BB60F922F933F93EC
:105290004F935F936F937F938F939F93AF93BF933E
:1052A000EF93FF938091BD179091BE17892B29F042
:1052B000E091BD17F091BE171995FF91EF91BF9145
:1052C000AF919F918F917F916F915F914F913F919E
:1052D0002F910F900BBE0F900FBE0F901F9018953F
:1052E0001F920F920FB60F9211240BB60F922F93AD
:1052F0003F934F935F936F937F938F939F93AF935E
:10530000BF93EF93FF938091B3179091B417892BBC
:1053100029F0E091B317F091B4171995FF91EF912F
:10532000BF91AF919F918F917F916F915F914F91BD
:105330003F912F910F900BBE0F900FBE0F901F90BB
:1053400018951F920F920FB60F9211240BB60F9261
:105350002F933F934F935F936F937F938F939F937D
:10536000AF93BF93EF93FF938091B5179091B617CA
:10537000892B29F0E091B517F091B6171995FF9197
:10538000EF91BF91AF919F918F917F916F915F91BD
:105390004F913F912F910F900BBE0F900FBE0F902A
:1053A0001F9018951F920F920FB60F9211240BB6F3
:1053B0000F922F933F934F935F936F937F938F93AE
:1053C0009F93AF93BF93EF93FF938091BF179091FB
:1053D000C017892B29F0E091BF17F091C0171995DC
:1053E000FF91EF91BF91AF919F918F917F916F91BD
:1053F0005F914F913F912F910F900BBE0F900FBE79
:105400000F901F9018951F920F920FB60F921124B4
:105410000BB60F922F933F934F935F936F937F93AE
:105420008F939F93AF93BF93EF93FF938091C11797
:105430009091C217892B29F0E091C117F091C21702
:105440001995FF91EF91BF91AF919F918F917F91AE
:105450006F915F914F913F912F910F900BBE0F90E5
:105460000FBE0F901F901895A1E21A2EAA1BBB1B0E
:10547000FD010DC0AA1FBB1FEE1FFF1FA217B30720
:10548000E407F50720F0A21BB30BE40BF50B661F36
:10549000771F881F991F1A9469F7609570958095FA
:1054A00090959B01AC01BD01CF010895052E97FB9E
:1054B00016F400940FD057FD05D0D6DF07FC02D0BC
:1054C00046F408C050954095309521953F4F4F4F79
:1054D0005F4F089590958095709561957F4F8F4FA0
:1054E0009F4F0895EE0FFF1F0590F491E02D199442
:0C54F0000790F691E02D1994F894FFCF7E
:1054FC000001FFFFFFFFFFFFFFFFFFFFFFFFFFFFAD
:10550C00050403022F000000000000000000000052
:10551C00000000000D000000000000000000000072
:10552C0000000000000800000000007F0A00150BBE
:08553C00000000001A00001934
:00000001FF
