:1000000047C1000073C1000071C100006FC1000052
:100010006DC100006BC1000069C1000067C1000034
:1000200065C1000063C1000061C100005FC1000044
:100030005DC100005BC1000059C1000057C1000054
:1000400055C1000053C1000051C100004FC1000064
:100050004DC100004BC1000049C100006FC300004A
:1000600045C1000043C1000041C100003FC1000084
:100070003DC100003BC1000039C1000037C1000094
:1000800035C1000033C1000031C100002FC10000A4
:100090002DC100002BC1000029C1000027C10000B4
:1000A00025C1000023C1000021C100001FC10000C4
:1000B0001DC100001BC1000019C1000017C10000D4
:1000C00015C1000013C1000011C100000FC10000E4
:1000D0000DC100000BC1000009C1000007C10000F4
:1000E00005C10000B504B804A704AB04B104EF04D3
:1000F000BC04C004C604CA04CE04D404D804DC047E
:10010000EF04E204E604EA04000092202D007D5F83
:100110003A2F8D58AA3B120091149444D555D225FC
:100120008044C001800489486F7BB274CF79CF735B
:10013000ED13E773E77B4F12EF7BEF73100410446E
:100140001115380E5444CF206A79EF5BAF7B2779C5
:100150006E6BE779E749677BED5B97744F7AAD5B30
:100160002479FD5B6F5B6F7BEF49EF13EF5DE77306
:1001700097246D7B6D2BED5FAD5AAD248F78277979
:10018000A4124F722A00C00F00000A0B02090C0DC6
:100190000E0807030401000000000000000000003A
:1001A000000000000000000000000000000000004F
:1001B000000000001211100000000000000000000C
:1001C000000000000000000000000000000001022C
:1001D0001020200808102040102040800201020159
:1001E0000804020101020408102040808040201011
:1001F000080402018004020180402010080402016A
:1002000008040201010204081020408001020408D1
:1002100010204080050505050705080808080202AA
:1002200002020A0A08080404040401010101010190
:1002300001010303030303030303040707070C0C73
:100240000C0C0C0C0C0C020202020606060606063A
:1002500006060B0B0B0B0B0B0B0B000022002500F3
:1002600028002B002E00310034000201000005019F
:1002700008010B0100002100240027002A002D00A6
:100280003000330001010000040107010A018C0362
:1002900011241FBECFEFD1E2DEBFCDBF00E00CBF07
:1002A00022E0A4E0B2E001C01D92A231B207E1F762
:1002B00012E0A0E0B2E0EEE3FCE000E00BBF02C021
:1002C00007900D92A430B107D9F712E0C0E9D2E04F
:1002D00000E005C022970109FE010BBFF6D3CE381E
:1002E000D10780E00807B1F71ED2A7C489CEFC0170
:1002F0002283638344830895CF93DF93FC0143817A
:1003000050E0FA01EC5EFD4FE491F0E0EE0FFF1FCC
:10031000E65AFD4FA591B491FC01248130E0F9012A
:10032000EC5EFD4F849190E0880F991F865A9D4F97
:10033000FC01C591D491FA01E253FE4F4491F901B9
:10034000E253FE4F24913FB7F89488E0722F7095E6
:10035000542F5095988167FF02C0922B01C09723BC
:1003600098839C91942B9C939C9195239C93660FCE
:10037000815081F73FBFDF91CF9108951F93CF93B5
:10038000DF93EC01142F8A81882389F06EBD0DB4B0
:1003900007FEFDCF812F807F8EBD0DB407FEFDCF00
:1003A0001295107F1EBD0DB407FEFDCF0EC0CE010D
:1003B000A3DF612F607FCE019FDF612F6295607F99
:1003C000CE01DF91CF911F9197CFDF91CF911F91F8
:1003D0000895462F68EFD2CFCF93DF93EC0160E012
:1003E0008B8137D360E08C8134D361E08B81F8D28C
:1003F00061E08C81F5D28A81882311F081E58CBD82
:10040000188260E2CE01E5DF61E070E080E090E01C
:1004100002D260E2CE01DDDF80E390E021D266E02F
:10042000CE01D7DF80E390E01BD2198281E0888380
:100430006CE0CE01CEDF80E390E0DF91CF9110C27F
:10044000462F6AEF9BCFCF93DF93EC018981811117
:100450000DC08881882311F066E201C064E2CE01FC
:10046000B8DF80E390E0FCD181E08983DF91CF9118
:100470000895EF92FF920F931F93CF93DF931F92F4
:10048000CDB7DEB77C018B01FC0180818823F9F0B8
:10049000C7014983D8DF602F6F716068C70199DF9A
:1004A0004981642F6068C801807299279695879565
:1004B00096958795682BC7018CDF80E390E00F90BD
:1004C000DF91CF911F910F91FF90EF90C9C10F90D5
:1004D000DF91CF911F910F91FF90EF9008950F93AF
:1004E0001F93CF93DF931F921F92CDB7DEB78C017E
:1004F000842F462F50E0682F70E0C8012A8339838B
:10050000B8DF3981632FC8019BDF2A81622FC801C0
:1005100097DF8AE090E00F900F90DF91CF911F91CD
:100520000F919EC1FF920F931F93CF93DF938C0186
:10053000C0E0D0E040E050E0BE01C8019ADFF8E042
:10054000FF2E60E0C8017CDF60E0C80179DF8AE04F
:1005500090E086D1FA94A9F72196C034D10551F7DD
:10056000DF91CF911F910F91FF9008957F928F920D
:100570009F92AF92BF92CF92DF92EF92FF920F9332
:100580001F93CF93DF936C01962EF901808190E049
:10059000880F991F88539F4FAA2797FDA095BA2FC0
:1005A000ABBFFC01C791D691F901818190E0880F22
:1005B000991F88539F4FAA2797FDA095BA2FABBFCD
:1005C000FC01E790F690F901828190E0880F991F75
:1005D00088539F4FAA2797FDA095BA2FABBFFC0168
:1005E000A790B690F901038110E0000F111F085386
:1005F0001F4F222717FD2095322F2BBFF80107919F
:10060000169195E0892E840E9E0127703327322F94
:1006100022273295307FC70187709927982F882726
:10062000282B392BC80187709927282B392B772441
:100630007394740EC5018770992754E0880F991F31
:100640005A95E1F7282B392B692DC60148DF63E065
:10065000D695C7956A95E1F773E0F694E7947A9595
:10066000E1F7E3E0B694A794EA95E1F7F3E0169595
:100670000795FA95E1F7781411F0472DC5CFDF9172
:10068000CF911F910F91FF90EF90DF90CF90BF908F
:10069000AF909F908F907F9008950F931F93CF936B
:1006A000DF9300D01F92CDB7DEB761E086E398D12B
:1006B00061E086E3CED161E084E092E08DDE84E00B
:1006C00092E030DF00E012E04DD28F73805E8983CC
:1006D00049D28F73805E8A8345D28F73805E8B830D
:1006E00041D28F73805E8C839E012F5F3F4F412FDD
:1006F000602F84E092E03ADF1A5F1E3329F70F5F24
:10070000083009F70F900F900F900F90DF91CF9165
:100710001F910F910895089520E047E368E384E076
:1007200092E0E5CD0895A7D0FDDFB7DFC0E0D0E0CF
:10073000F2DF2097E9F30E940000FACF1F920F9298
:100740000FB60F9211242F933F938F939F93AF93E4
:10075000BF9380910A0290910B02A0910C02B0917C
:100760000D023091090223E0230F2D3720F401966A
:10077000A11DB11D05C026E8230F0296A11DB11DC4
:100780002093090280930A0290930B02A0930C021B
:10079000B0930D0280910E0290910F02A091100271
:1007A000B09111020196A11DB11D80930E0290938C
:1007B0000F02A0931002B0931102BF91AF919F91CD
:1007C0008F913F912F910F900FBE0F901F90189512
:1007D0003FB7F89480910E0290910F02A091100201
:1007E000B091110226B5A89B05C02F3F19F00196C4
:1007F000A11DB11D3FBF6627782F892F9A2F620F49
:10080000711D811D911D42E0660F771F881F991F82
:100810004A95D1F70895CF92DF92EF92FF92CF934E
:10082000DF936B017C01D4DFEB01C114D104E1043F
:10083000F10479F043D1CCDF6C1B7D0B683E734033
:10084000A0F381E0C81AD108E108F108C851DC4FD3
:10085000ECCFDF91CF91FF90EF90DF90CF90089594
:100860000197009739F0880F991F880F991F0297F9
:100870000197F1F70895789484B5826084BD84B5BA
:10088000816084BD85B5826085BD85B5816085BD8B
:10089000EEE6F0E0808181608083E1E8F0E01082A4
:1008A000808182608083808181608083E0E8F0E0E5
:1008B000808181608083E1EBF0E0808184608083CF
:1008C000E0EBF0E0808181608083E1E9F0E080810D
:1008D00082608083808181608083E0E9F0E08081B4
:1008E00081608083E1EAF0E08081826080838081A2
:1008F00081608083E0EAF0E0808181608083E1E2D2
:10090000F1E0808182608083808181608083E0E289
:10091000F1E0808181608083EAE7F0E0808184609B
:1009200080838081826080838081816080838081F8
:10093000806880831092C100089590E0FC01319797
:10094000E231F10508F04BC0EE58FF4FB8C080917E
:1009500080008F7703C0809180008F7D809380001E
:10096000089580918000877FF9CF84B58F7702C08A
:1009700084B58F7D84BD08958091B0008F7703C0CA
:100980008091B0008F7D8093B00008958091900099
:100990008F7707C0809190008F7D03C08091900079
:1009A000877F8093900008958091A0008F7707C083
:1009B0008091A0008F7D03C08091A000877F8093ED
:1009C000A0000895809120018F7707C080912001B9
:1009D0008F7D03C080912001877F8093200108953F
:1009E000CF93DF9390E0FC01E253FE4F2491FC0192
:1009F000EC5EFD4F8491882349F190E0880F991FA8
:100A0000FC01EC58FD4FA591B491865A9D4FFC0115
:100A1000C591D4919FB7611108C0F8948C9120952D
:100A200082238C93888182230AC0623051F4F89427
:100A30008C91322F309583238C938881822B8883ED
:100A400004C0F8948C91822B8C939FBFDF91CF913F
:100A500008950F931F93CF93DF931F92CDB7DEB707
:100A6000282F30E0F901E857FE4F8491F901E25355
:100A7000FE4F1491F901EC5EFD4F04910023C1F08B
:100A8000882319F0698359DF6981E02FF0E0EE0FC8
:100A9000FF1FE65AFD4FA591B4919FB7F8948C9132
:100AA000611103C01095812301C0812B8C939FBFDE
:100AB0000F90DF91CF911F910F9108950895EE0F40
:100AC000FF1F0590F491E02D19940790F691E02D09
:100AD00019948F929F92AF92BF92CF92DF92EF9232
:100AE000FF92CF93DF93EC01688179818A819B81AA
:100AF000611571058105910521F464E279ED8BE5BD
:100B000097E02DE133EF41E050E03AD049015A013E
:100B10009B01AC01A7EAB1E44FD06B017C01ACEEC4
:100B2000B4EFA501940154D0C60ED71EE81EF91EDD
:100B3000F7FE06C081E0C81AD108E10880E8F80A8B
:100B4000C882D982EA82FB82C6019F77DF91CF916A
:100B5000FF90EF90DF90CF90BF90AF909F908F90DD
:100B60000895B7CF80E092E0B4CFA0E0B0E08093EA
:100B7000000290930102A0930202B0930302089531
:100B8000052E97FB16F400940FD057FD05D024D006
:100B900007FC02D046F408C0509540953095219549
:100BA0003F4F4F4F5F4F0895909580957095619599
:100BB0007F4F8F4F9F4F089531D0A59F900DB49FC9
:100BC000900DA49F800D911D11240895B7FFF4CFBF
:100BD000F3DF821B930B0895A1E21A2EAA1BBB1B05
:100BE000FD010DC0AA1FBB1FEE1FFF1FA217B307F9
:100BF000E407F50720F0A21BB30BE40BF50B661F0F
:100C0000771F881F991F1A9469F7609570958095D2
:100C100090959B01AC01BD01CF010895A29FB00149
:100C2000B39FC001A39F700D811D1124911DB29F20
:0E0C3000700D811D1124911D0895F894FFCFC1
:040C3E0001000000B1
:00000001FF
