:100000006FC2000095C2000093C2000091C20000C0
:100010008FC200008DC200008BC2000089C20000A8
:1000200087C2000085C2000083C2000081C20000B8
:100030007FC200007DC200007BC2000079C20000C8
:100040000C94DB0C75C200000C945D0B0C948F0BB0
:100050006FC200006DC200006BC2000069C20000E8
:100060000C94A71265C20000790679067906790614
:100070007906790679067906790679067906790688
:100080007906790679067B067B067B067B067B066E
:100090007B067B067B067B067B067B067B067B0658
:1000A0007B067B067B067D067D067D067D067D063E
:1000B0007D067D067D067D067D067D067D067D0628
:1000C0007D067D067D06FF0684069206A006FF06D5
:1000D000F306F306AE06BD06C406D206E306F30633
:1000E000FF06FF060C071B071B071B071B071B0749
:1000F0001B071B071B071B071B071B071B071B07F0
:100100001B071B071B07280728072807280728079E
:100110002807280728072807280728072807280767
:10012000280728072807540732075F075F07430798
:100130005F075F075F07F30A73077C077C07760793
:100140007C077C077C078E07AF07CF07E307F6071E
:100150000408120825083308460867086F0877085E
:100160008C089C08AD08C508C508C508C508C508A1
:10017000C508C508C508C508C508C508C508C50817
:10018000C508C508C508CA08CA08CA08CA08CA08EE
:10019000CA08CA08CA08CA08CA08CA08CA08CA08CF
:1001A000CA08CA08CA08CF08CF08CF08CF08CF08A6
:1001B000CF08CF08CF08CF08CF08CF08CF08CF0887
:1001C000CF08CF08CF08D808D808D808D808D8084A
:1001D000D808D808D808D808D808D808D808D8081F
:1001E000D808D808D808E108000921094209EB0914
:1001F000630966096909E5096C098D09B009D60921
:10020000D909DC09E109F109F109F109F109F1095B
:10021000F109F109F109F109F109F109F109F1090E
:10022000F109F109F109F409F409F409F409F409EF
:10023000F409F409F409F409F409F409F409F409D6
:10024000F409F409F409F709050A130A210A2F0A27
:100250003D0A4B0A530A610A6F0A800A910AA20AF0
:10026000BB0ACB0AD70AAED580A83FD300408D1475
:100270002000A1C8DA1281CFD9F1DB40A4A6AF716A
:10028000F880A3E36C64300100000000000000006F
:10029000000000000000000000000000000000005E
:1002A000000000000000000000000000000000004E
:1002B000000000000000000000000000000000003E
:1002C000000000000000000000000000000000002E
:1002D000000000000000000000000000000000001E
:1002E000000000000000000000000000000000000E
:1002F00000000000000000000000000000000000FE
:1003000000000000000000000000000000000000ED
:1003100000000000000000000000000000000000DD
:1003200000000000000000000000000000000000CD
:1003300000000000000000000000000000000000BD
:1003400000000000000000000000000000000000AD
:10035000000000000000000000000000000000009D
:10036000000000000000000000000000000000008D
:10037000000000000000000000000000000000007D
:10038000000000000000000000000000000000006D
:10039000000000000000000000000000000000005D
:1003A000000000000000000000000000000000004D
:1003B000000000000000000000000000000000003D
:1003C000000000000000000000000000000000002D
:1003D000000000000000000000000000000000001D
:1003E000000000000000000000000000000000000D
:1003F00000000000000000000000000000000000FD
:1004000000000000000000000000000000000000EC
:1004100000000000000000000000000000000000DC
:1004200000000000000000000000000000000000CC
:1004300000000000000000000000000000000000BC
:1004400000000000000000000000000000000000AC
:10045000000000000000000000000000000000009C
:10046000000000000000000000000000000000008C
:10047000000000000000000000000000000000007C
:100480000000080002010000030407000000000053
:10049000000000010204081020408001020408103E
:1004A00020010204081020040404040404040402CB
:1004B00002020202020303030303030000000023FD
:1004C000002600290000000000250028002B000065
:1004D000000000240027002A00009E05BD0B0C121E
:1004E00011241FBECFEFD8E0DEBFCDBF11E0A0E0EA
:1004F000B1E0E4E7F9E202C005900D92A435B1073E
:10050000D9F728E0A4E5B1E001C01D92A937B207F0
:10051000E1F714E0C0EED4E004C02297FE010E948F
:10052000B414CA3DD107C9F70E94D10C0C94B81479
:1005300067CD8C5F9E4FFC018081811104C089EBE7
:1005400097E00C940A120895CF93DF93EC0189EBA6
:1005500097E00E940A12CE5FDE4F1882DF91CF91A2
:100560000895FF920F931F93CF93DF938C01F62E84
:10057000EC01CE5FDE4F8881882311F08F3199F432
:10058000188289EB97E00E940A126CE370E089EB15
:1005900097E00E94F711F801ED5FFE4F608189EB53
:1005A00097E00E94A6116F2D89EB97E00E94A6119B
:1005B00088818F5F8883DF91CF911F910F91FF908A
:1005C00008950F931F93CF93DF93EC0189EB97E08E
:1005D0000E94E411FE01EC5FFE4F10828CE08093DC
:1005E000B800329710823196108206E612E0F801C8
:1005F0006491CE01B6DF0F5F1F4FF2E00F371F0788
:10060000B1F7CE01DF91CF911F910F9192CFEF9271
:10061000FF920F931F93CF93DF93EC017C012EEF9A
:10062000E21AF20AF70110828C010D5F1E4FF801E9
:10063000108260E096DF60E1CE0193DF60EBCE01D7
:1006400090DFCE0176DFCE017FDFF701108280E4FC
:10065000F801808300E014E060E0CE0182DF015009
:10066000110901151105C1F7FE0180E090E011921A
:100670000196811521E09207D1F7CE01DF91CF914C
:100680001F910F91FF90EF9054CF8F929F92BF9246
:10069000CF92DF92EF92FF920F931F93CF93DF934E
:1006A00000D0CDB7DEB74C01B62E122F6C018EEF05
:1006B000C81AD80AF60110827401FDEFEF1AFEEF96
:1006C000FF0AF70110826F70C4013A83498349DF42
:1006D0006B2D62956F706061C40143DF4981642FA7
:1006E000606BC4013EDFC40124DFC4012DDFF601CD
:1006F000108280E4F7018083E12E3A81F32E8E2D63
:10070000811B801750F4F7016081C4012ADFF701D3
:1007100061917F01C40125DFF2CFC4010F900F90DA
:10072000DF91CF911F910F91FF90EF90DF90CF90CD
:10073000BF909F908F90FDCE2F923F924F925F92ED
:100740006F927F928F929F92AF92BF92CF92DF92E1
:10075000EF92FF920F931F93CF93DF93CDB7DEB746
:100760002C970FB6F894DEBF0FBECDBF3C017B01C6
:1007700010E070E0CE0109969A878987412F50E0FA
:10078000D701A40FB51FF301E40FF51F9C918081E1
:10079000981709F462C07F5F85E0559547958A9563
:1007A000E1F7912F9770C92E692F6295607FA0E2C3
:1007B0004A9FC00C1124D12C17012C0C3D1CF101B7
:1007C00000812601F8E04F0E511C4E0C5F1CD20137
:1007D0002C914601B0E18B0E911C8E0C9F1CF401F4
:1007E00030815601F8E1AF0EB11CAE0CBF1CD50133
:1007F000BC91BC87FE01319690E8892F802311F0CF
:1008000083E001C080E0B92FB22309F08C60B92FDA
:10081000B32309F08063BC85B92309F0806C819310
:100820009695A985BA85EA17FB0739F708E09E0176
:100830002F5F3F4FC3017B8728DFF1018081F301E8
:10084000EC0DFD1D8083D2018C918087D4018C91A9
:10085000808BD5018C91808F7B851F5F09F08ECFB7
:100860004AE050E0672F83E197E00E94BB0C2C9692
:100870000FB6F894DEBF0FBECDBFDF91CF911F91B1
:100880000F91FF90EF90DF90CF90BF90AF909F902F
:100890008F907F906F905F904F903F902F90089532
:1008A000FF920F931F93CF93DF93EC01162FF42E3B
:1008B00081E0211101C080E081958093540101E025
:1008C00024E531E04F2D612FCE01DFDE41E04F0DF9
:1008D00024E531E0612FCE01D8DEDF91CF911F9169
:1008E0000F91FF9008950F93E4E5F1E031E02111BD
:1008F00001C030E0319331E0E336F307B9F76E5FC2
:100900000FE024E531E0C1DE0F9108956F927F92F0
:100910009F92AF92BF92CF92DF92EF92FF920F938E
:100920001F93CF93DF931F92CDB7DEB73C0110E04A
:10093000C62ED12C40E8A42EB12C99249A9450E0D4
:10094000E12CF12CC5010E2C02C0959587950A94D7
:10095000E2F78C219D21E4E5F1E0009711F090820F
:1009600006C0112311F020E801C021E02083319658
:1009700021E0EC35F20789F710925B01111102C0FA
:100980008EEF01C08FE780935A018093540108E0F5
:1009900024E531E0412F652FC301598376DE8FEFC7
:1009A000E81AF80A5981505F503861F61F5F12301B
:1009B00031F604E010E0B12CB11003C038E1F32EA1
:1009C00002C028E4F22EF601002E02C0F595E7954C
:1009D0000A94E2F7EF70FF27E65FFE4FE0802E2DCE
:1009E000217043E06F2DC3015BDF2E2D227043E0A9
:1009F0006F2DC30178DF90E2A92EAF0C2E2D24704D
:100A000043E06A2DC3014CDF2E2D287045E06A2D8E
:100A1000C30146DF2E2D207147E06F2DC30163DF38
:100A20002E2D207245E06F2DC3013ADF2E2D20744C
:100A300045E06F2DC30157DFB39404501109E2E084
:100A4000BE12BACF0F90DF91CF911F910F91FF90FF
:100A5000EF90DF90CF90BF90AF909F907F906F907E
:100A600008958093DB028091D201811103C083ED50
:100A700091E0CDDD81E08093D201089583ED91E096
:100A8000A0DD83ED91E0C3DD80E0EBCF9093090121
:100A9000809308017093DA026093D902089591E07F
:100AA000811101C090E09093DD02089580E00895E7
:100AB0008091DC020895CF938091DD028823B1F00C
:100AC0008091D9029091DA02892B81F08091D20134
:100AD000882319F083ED91E09ADD1092D2016091A4
:100AE000D9027091DA0283ED91E026DE83E691E08F
:100AF0000E942911C82F8823F9F0682F83ED91E017
:100B000005DF80ED8C0F8A3048F42091DC0290E103
:100B1000299F90011124282B2093DC028FEB8C0F4E
:100B2000863050F4C7532091DC0280E1289F900169
:100B30001124C22BC093DC02CF910895EF920F9342
:100B400081E08093D80284E0E82E04E020E031E0E8
:100B500044E051E06AE171E083E691E00E94540EC6
:100B60000F91EF90089567C0CF92DF92EF92FF92BE
:100B7000CF93DF9300D000D0CDB7DEB77CD0282F45
:100B800030E040E050E0211531054105510541F1CB
:100B900029833A834B835C8358D7C090DE02D09080
:100BA000DF02E090E002F090E10229813A814B817E
:100BB0005C816C157D058E059F0550F368EE73E032
:100BC00080E090E00E9490142C0D3D1D4E1D5F1D95
:100BD0002093DE023093DF024093E0025093E10263
:100BE0000F900F900F900F90DF91CF91FF90EF90AB
:100BF000DF90CF9008958091E8069091E9068115E5
:100C000024E0920728F4FC01EC51FD4F808101C0E3
:100C100080E080930A0708958091E8069091E906A4
:100C2000811524E0920730F4FC01EC51FD4F209136
:100C30000A072083089522DF10920E0781E0809337
:100C40000C071092EB061092EA0610920F07109212
:100C500010071092E5061092E4068FE792E0A4EEEA
:100C6000B2E0FC01259134912D93019624E08F3759
:100C70009207B9F70895DF92EF92FF920F931F93B7
:100C8000CF93DF93D0900F070D2D10E0000F111FB1
:100C900098012651394F7901F90180819181909312
:100CA000E9068093E806A7DFF701C081D1819E01A4
:100CB0002F5F3F4F3183208380910A0780930B077A
:100CC000F82FFF70FF2E4F2F50E0440F551FBA0131
:100CD0006651794F7093E3026093E20290E00197CE
:100CE0008F3F910508F07FC48C5C9F4FFC010C94F2
:100CF000B214FA0181C3FA01DCC0FA01E651F94FDE
:100D0000808191810197CEC43093E9062093E80653
:100D10000651194F2296F801D183C0836CDF809170
:100D20000E074DC03093E9062093E8060651194F8F
:100D30002296F801D183C0835EDF8091120750C0F4
:100D40003093E9062093E8060651194F2296F801E0
:100D5000D183C08350DF8091110731C03093E90601
:100D60002093E806F801E651F94F2296D183C0831B
:100D700042DF9CDE811189C436C4F801E651F94F87
:100D80002296D183C0832FC43093E9062093E806CE
:100D90000651194F2296F801D183C0832CDF809130
:100DA0000E071EC03093E9062093E8060651194F3E
:100DB0002296F801D183C0831EDF80911207882319
:100DC00009F411C427C03093E9062093E8060651C0
:100DD000194F2296F801D183C0830DDF809111074E
:100DE000811101C417C03093E9062093E806F80189
:100DF000E651F94F2296D183C083FDDEF4C33093D0
:100E0000E9062093E8060651194F2296F801D1838E
:100E1000C083F1DEF80140C43093E9062093E80670
:100E2000F801E651F94F2296D183C083E4DE3EDE1D
:100E30008111D9C32AC4FA01E651F94F8081918109
:100E40009093E9068093E80601969183808343C3DB
:100E5000FA01E651F94F808191819093E9068093E0
:100E6000E806C1C0E0911007F0E0EE0FFF1FE65169
:100E7000F94F808191819093E9068093E806BBDE6B
:100E800080E00DDE11C0E0911007F0E0EE0FFF1FD3
:100E9000E651F94F808191819093E9068093E806AD
:100EA000AADE80910A07DDDDE0911007F0E0EE0F89
:100EB000FF1FE651F94F808191810196F3C3C091E4
:100EC0001007D0E0CC0FDD1FC651D94F8881998122
:100ED0009093E9068093E8068EDE888199810196D9
:100EE0009983888380C381E0DADD06C0E1DD8093E9
:100EF0000A078093120704C010920A071092120783
:100F0000E0911007F0E0EE0FFF1FE651F94F8081EE
:100F100091819093E9068093E806B6C0C0911007CE
:100F2000D0E0CC0FDD1FC651D94F888199819093B5
:100F3000E9068093E8065FDE8881998101969983AE
:100F4000888380910A07982F92959F70909310073D
:100F50008F7080930F0781E080930C0744C3C0918A
:100F60001007D0E0CC0FDD1FC651D94F8881998181
:100F70009093E9068093E8063EDE88819981019688
:100F80009983888380910A07982F92959F709093F8
:100F900010078F7080930F0710920C0724C3C09125
:100FA0001007D0E0CC0FDD1FC651D94F8881998141
:100FB0009093E9068093E8061EDE88819981019668
:100FC0009983888389C2E0911007F0E0EE0FFF1F3C
:100FD000E651F94F808191819093E9068093E8066C
:100FE000019791838083809112074CC0E091100794
:100FF000F0E0EE0FFF1FE651F94F80819181909351
:10100000E9068093E8067DC0E0911007F0E0EE0F5E
:10101000FF1FE651F94F808191819093E9068093FB
:10102000E80684C02091120720930A0780911107D7
:10103000F0E88F9FC0011124922F9695982B9093E2
:101040001207217020931107CEC2E0911007F0E043
:10105000EE0FFF1FE651F94F808191819093E906D1
:101060008093E80684C0E0911007F0E0EE0FFF1FC8
:10107000E651F94F808191819093E9068093E806CB
:1010800080910D0780930A07C7DDADC280911007DC
:1010900020E1829FC00111242D2D282B20930D07C4
:1010A0008091EE069091EF069093E9068093E80612
:1010B00020930A07B1DDD09210078091EE0690913F
:1010C000EF0601979093EF068093EE068CC2809115
:1010D0000E07882309F487C210920E0784C28091FC
:1010E0000E07811180C281E080930E077CC230938D
:1010F000E9062093E806F801E651F94F2296D183DC
:10110000C08379DD2091120780910A0790E0820F59
:10111000911D2091110726C23093E9062093E8061D
:10112000F801E651F94F2296D183C08364DD209106
:101130000A078091120720C080911207982F991FEB
:101140009927991F90930A07880F20911107822BE6
:10115000809312079093110746C23093E9062093BB
:10116000E806F801E651F94F2296D183C08343DDAA
:101170002091120780910A07809590E0820F911DBF
:1011800020911107820F911D26C2FA01E651F94FF5
:10119000808127C2FA01E651F94F818122C2FA010A
:1011A000E651F94F8081918188272091120779C2F9
:1011B000FA01E651F94F80812091120790E0922BBD
:1011C00071C23093E9062093E8060651194FCE010B
:1011D0000396F801918380830EDDE0900A07F12CDD
:1011E0002296D093E906C093E80605DD9E2D882758
:1011F00020910A07822B9093E7068093E606D2C0DF
:101200003093E9062093E8060651194FCE01039664
:10121000F80191838083EFDCE0900A07F12C22969D
:10122000D093E906C093E806E6DC9E2D882720913E
:101230000A07822B9093E7068093E60620910E071B
:101240008CC03093E9062093E8060651194FCE0171
:101250000396F80191838083CEDCE0900A07F12C9D
:101260002296D093E906C093E806C5DC9E2D882718
:1012700020910A07822B9093E7068093E60620913F
:1012800012078EC03093E9062093E8060651194FE5
:10129000CE010396F80191838083ADDCE0900A07CC
:1012A000F12C2296D093E906C093E806A4DC9E2D8B
:1012B000882720910A07822B9093E7068093E60601
:1012C000209111074AC080910E0778C080911207C3
:1012D0007AC08091110772C03093E9062093E80626
:1012E0000651194FCE010396F8019183808383DC68
:1012F000E0900A07F12C2296D093E906C093E80605
:101300007ADC9E2D882720910A07822B9093E7068E
:101310008093E60620910E0743C03093E9062093A0
:10132000E8060651194FCE010396F8019183808398
:1013300062DCE0900A07F12C2296D093E906C09374
:10134000E80659DC9E2D882720910A07822B90936E
:10135000E7068093E606209112072223E1F122C0DE
:101360003093E9062093E8060651194FCE01039603
:10137000F801918380833FDCE0900A07F12C2296EC
:10138000D093E906C093E80636DC9E2D882720918D
:101390000A07822B9093E7068093E60620911107B7
:1013A000211119C0F8019183808315C080910C0729
:1013B0000AC080910E0707C08091120781110BC0EF
:1013C00004C080911107882331F0F801E651F94FEC
:1013D0002396D183C0838091E4069091E50603961D
:1013E00007C1F0920F07FFC0F0921007FCC0E09118
:1013F0001007F0E0EE0FFF1FE651F94F8081918159
:101400009093E9068093E80666C0E0911007F0E04B
:10141000EE0FFF1FE651F94F808191819093E9060D
:101420008093E80666C0E0911007F0E0EE0FFF1F22
:10143000E651F94F808191819093E9068093E80607
:1014400069C0E0911007F0E0EE0FFF1FE651F94F81
:10145000808191819093E9068093E8066CC0E091C9
:101460001007F0E0EE0FFF1FE651F94F80819181E8
:101470009093E9068093E8066FC0E0911007F0E0D2
:10148000EE0FFF1FE651F94F808191819093E9069D
:101490008093E8067AC080911207982F91709093FC
:1014A000110786959EC0E0911007F0E0EE0FFF1F38
:1014B000E651F94F808191819093E9068093E80687
:1014C00080C03093E9062093E806F801E651F94F11
:1014D0002296D183C0838FDB80910A0782C030932C
:1014E000E9062093E806F801E651F94F2296D183E8
:1014F000C08381DB8091120790910A07892B71C00C
:101500003093E9062093E806F801E651F94F229658
:10151000D183C08370DB8091120790910A078923E1
:1015200060C03093E9062093E806F801E651F94FD0
:101530002296D183C0835FDB8091120790910A07C6
:1015400089274FC03093E9062093E806F801E65159
:10155000F94F2296D183C0834EDB209112078091F0
:101560000A0790E0820F911D9093E9068093E806A8
:101570001092110736C03093E9062093E806F8016F
:10158000E651F94F2296D183C08335DB20910A07BB
:10159000809112071BC080911207982F991F9927DD
:1015A000991F9093110790E0880F991F1AC03093EC
:1015B000E9062093E806F801E651F94F2296D18317
:1015C000C08319DB2091120780910A07809590E073
:1015D000820F911D01968093E8069093E9069093FF
:1015E0001107809312078091E4069091E506029618
:1015F0009093E5068093E4068091E4069091E506D9
:1016000083379E40E8F080910C078823C9F08091D1
:10161000100720E1829FC001112490910F07982BA1
:1016200090930D0781E080930F0782E0809310076D
:1016300010920C0783E79EE09093E5068093E40602
:101640008091E4069091E50680399E40E0F080911B
:10165000EA069091EB068130E3E09E0720F4BC019E
:101660006C517D4F02C060E070E010DA24DA8091A6
:10167000E4069091E50680599E409093E50680939C
:10168000E4068CE312C080E010C0E0910F07F0E0A8
:10169000EE0FFF1FE651F94F80819181882720913D
:1016A0000A07822B918380839ECFDF91CF911F9178
:1016B0000F91FF90EF90DF9008951F920F920FB659
:1016C0000F9211242F938F939F93EF93FF93E091A9
:1016D0002307F09124078081E0912907F0912A07E0
:1016E00082FD12C0908180912C078F5F8F732091B3
:1016F0002D07821751F0E0912C07F0E0ED5EF84FD6
:10170000958F80932C0701C08081FF91EF919F916D
:101710008F912F910F900FBE0F901F9018951F92D1
:101720000F920FB60F9211242F933F934F935F9315
:101730006F937F938F939F93AF93BF93EF93FF9399
:1017400083E197E003D2FF91EF91BF91AF919F9119
:101750008F917F916F915F914F913F912F910F905A
:101760000FBE0F901F90189583E197E0B5D121E04F
:10177000892B09F420E0822F089510921607109209
:10178000150788EE93E0A0E0B0E0809317079093F0
:101790001807A0931907B0931A078EE291E090936F
:1017A00014078093130785EC90E0909320078093B3
:1017B0001F0784EC90E0909322078093210780EC30
:1017C00090E0909324078093230781EC90E090931E
:1017D00026078093250782EC90E09093280780935A
:1017E000270786EC90E090932A07809329071092B0
:1017F0002C0710922D0710922E0710922F07089594
:10180000CF92DF92EF92FF920F931F93CF93DF93CC
:101810006C017A01EB01E60EF71E00E010E0CE1538
:10182000DF0561F06991D601ED91FC910190F081A5
:10183000E02DC6010995080F191FF1CFC801DF91EE
:10184000CF911F910F91FF90EF90DF90CF9008956F
:101850006115710581F0DB010D900020E9F7AD0104
:1018600041505109461B570BDC01ED91FC91028060
:10187000F381E02D099480E090E00895DC01ED9182
:10188000FC910190F081E02D09940F931F93CF9369
:10189000DF93EC016DE0F2DF8C016AE0CE01EEDF58
:1018A000800F911FDF91CF911F910F9108958F921B
:1018B0009F92AF92BF92CF92DF92EF92FF920F93DF
:1018C0001F93CF93DF93CDB7DEB7A1970FB6F894F0
:1018D000DEBF0FBECDBF7C01C42EE52FCB01D22EC3
:1018E00019A221E02D1510F02AE0D22E8E010F5DF5
:1018F0001F4F8D2C912CA12CB12C6C2D7E2FA5016E
:1019000094010E9490148C2DD29E801911240150B4
:1019100011098A3014F4805D01C0895CF80180836C
:10192000211531054105510521F0C22EE32FCA01D1
:10193000E4CFB801C7018CDFA1960FB6F894DEBFE3
:101940000FBECDBFDF91CF911F910F91FF90EF9010
:10195000DF90CF90BF90AF909F908F90089521150A
:10196000310541F4DC01ED91FC910190F081E02D15
:10197000642F09949CCF0F931F93CF93DF93EC01B7
:101980009A01462F50E060E070E0E9DF8C01CE0163
:101990007CDF800F911FDF91CF911F910F910895F0
:1019A00008955FD0FDDFDFD8C9E9DDE0DDD82097FD
:1019B000E9F3BFD0FBCF1F920F920FB60F92112405
:1019C0002F933F938F939F93AF93BF938091B107D2
:1019D0009091B207A091B307B091B4073091B007CE
:1019E00023E0230F2D3720F40196A11DB11D05C062
:1019F00026E8230F0296A11DB11D2093B007809306
:101A0000B1079093B207A093B307B093B407809146
:101A1000B5079091B607A091B707B091B8070196A6
:101A2000A11DB11D8093B5079093B607A093B7078A
:101A3000B093B807BF91AF919F918F913F912F9134
:101A40000F900FBE0F901F9018952FB7F8946091CC
:101A5000B1077091B2078091B3079091B4072FBF7F
:101A60000895789484B5826084BD84B5816084BD16
:101A700085B5826085BD85B5816085BDEEE6F0E007
:101A8000808181608083E1E8F0E010828081826063
:101A90008083808181608083E0E8F0E080818160E4
:101AA0008083E1EBF0E0808184608083E0EBF0E014
:101AB000808181608083EAE7F0E0808184608083B8
:101AC0008081826080838081816080838081806862
:101AD00080831092C1000895FC01818D228D90E0D9
:101AE000805C9F4F821B91098F7399270895FC0199
:101AF000918D828D981731F0828DE80FF11D858DC3
:101B000090E008958FEF9FEF0895FC01918D828DF5
:101B1000981761F0828DDF01A80FB11D5D968C9141
:101B2000928D9F5F9F73928F90E008958FEF9FEF4C
:101B3000089584EB9BE0892B41F080E090E0892BB5
:101B400021F012DE81110C9400000895FC01848DB7
:101B5000DF01A80FB11DA35ABF4F2C91848D90E0D7
:101B600001968F739927848FA689B7892C93A089B2
:101B7000B1898C9180648C93938D848D981306C069
:101B80000288F389E02D80818F7D80830895CF9333
:101B9000DF93EC01888D8823C1F0EA89FB8980817D
:101BA00085FD05C0A889B9898C9186FD0EC00FB648
:101BB00007FCF5CF808185FFF2CFA889B9898C9188
:101BC00085FFEDCFCE01C2DFE8CFDF91CF91089541
:101BD000CF92DF92FF920F931F93CF93DF931F92C9
:101BE000CDB7DEB76C01DC015B969C915B975C9690
:101BF0008C915C97981307C05096ED91FC9151978A
:101C0000808185FD31C0F601038D10E00F5F1F4F0D
:101C10000F731127F02EF601848DF81210C00FB645
:101C200007FCF9CFD6015096ED91FC915197808138
:101C300085FFF1CFC601698389DF6981ECCF838D90
:101C4000E80FF11DE35AFF4F6083D6015B960C93BA
:101C50005B975296ED91FC915397808180628083CF
:101C600081E058968C930DC0D6015696ED91FC916B
:101C7000579760835096ED91FC91519780818064D5
:101C8000808381E090E00F90DF91CF911F910F91C1
:101C9000FF90DF90CF900895862F642FABC5862FDD
:101CA000642FE1C5862F14C64F925F926F927F9288
:101CB0008F929F92AF92BF92CF92DF92EF920F934B
:101CC000CF93DF93EC014B013A0159010296E1D227
:101CD0008EE391E0998388836E018CE1C80ED11C5C
:101CE00026018CE3480E511CC601D3D286E0C80EF3
:101CF000D11CC414D504C1F7FE01EE59FF4F718207
:101D000060823296B182A082329600833196E08260
:101D100037979182808238968AE090E09183808321
:101D2000329684EF91E09183808333961182108202
:101D300071971082118212821382C459DF4F188268
:101D4000DF91CF910F91EF90DF90CF90BF90AF9048
:101D50009F908F907F906F905F904F9008952F92FB
:101D60003F924F925F926F927F928F929F92AF922B
:101D7000BF92CF92DF92EF92FF920F931F93CF9378
:101D8000DF93CDB7DEB728970FB6F894DEBF0FBE4E
:101D9000CDBF98878F83F12C4C0186E6880E911C6D
:101DA0000F8118850E591F4FD4018C91F816A0F49D
:101DB000AF81B8858D919C91F801A081B181AF0D63
:101DC000B11DFC012081318142E06C918F819885A9
:101DD000F9010995F394E8CF512CEF81F885E95981
:101DE000FF4FFA83E9830F8118850C591F4FC12CCF
:101DF000D12C7601C3948F8198858E599F4F9C83F7
:101E00008B83A981BA818C91581608F088C0A52CC3
:101E1000B12CAF81B8858D919C91F801A081B181E1
:101E2000AA0DBB1DFC012081318141E06C918F81A5
:101E30009885F9010995AF81B8858D919C91F8013C
:101E4000A081B181AA0DBB1DFC012281338140E03C
:101E50006C918F819885F9010995D701C601052CF0
:101E600004C0880F991FAA1FBB1F0A94D2F79C01B8
:101E70001C0120943094412CD4018C91EF81F88581
:101E800040815181481648F5642C712CEB81FC810E
:101E9000A081B181A60DB71DFA01448155816C91D5
:101EA0008F8198852D833E83FA010995660C771CF6
:101EB0002D813E81EF81F885E60DF71D892B29F4F0
:101EC00080859185822B932B04C08085918582210A
:101ED0009321918780874394CFCFF801A081B1816E
:101EE000AA0DBB1DFA012281338141E06C918F81E3
:101EF0009885F9010995AF81B8858D919C91F8017C
:101F0000A081B181AA0DBB1DFC012081318140E07F
:101F10006C918F819885F9010995539472CF289619
:101F20000FB6F894DEBF0FBECDBFDF91CF911F91EA
:101F30000F91FF90EF90DF90CF90BF90AF909F9068
:101F40008F907F906F905F904F903F902F9008956B
:101F5000FC0180E090E0258D368D2617370739F09B
:101F6000019636968A309105B1F78FEF9FEF08956D
:101F7000DC0126E0629FA00DB11D112490965C93B8
:101F80004E935F9721E091962C939197FC01E45931
:101F9000FF4F208131960190F081E02D222331F016
:101FA000309749F0611107C0DC0102C0309719F089
:101FB0005C968C9109940895CF92DF92FF920F93D3
:101FC0001F93CF93DF931F92CDB7DEB76C01F62E30
:101FD000FC0186E0689FE00DF11D112411A2878DA0
:101FE00090A181309105E1F01CF4892B51F042C0A1
:101FF0008230910581F1039709F03CC040E050E048
:102000002EC04423B9F141E050E0C601B1DF1DDD2F
:10201000F601E85AFF4F60837183828393832AC05D
:10202000498313DDF601E85AFF4F008111812281B7
:102030003381601B710B820B930B729600811181AF
:1020400020E030E04981061717072807390718F400
:1020500042E050E004C041110DC043E050E06F2D5C
:10206000C6010F90DF91CF911F910F91FF90DF90EC
:10207000CF907ECF0F90DF91CF911F910F91FF9066
:10208000DF90CF9008952F923F924F925F926F9280
:102090007F928F929F92AF92BF92CF92DF92EF92F8
:1020A000FF920F931F93CF93DF931F92CDB7DEB7AD
:1020B0001C01FC014AE08FEF9FEF278D30A1232BFD
:1020C00021F4148E968F858F11A2415036964111BE
:1020D000F4CF712C610126E6C20ED11C510187E6B6
:1020E000A80EB11C4101A0E68A0E911C46E0442EC8
:1020F000D6018C91781608F053C0612C8101070D30
:10210000111D070D111D085F1F4FF501E0806E14B2
:1021100008F044C0F80140815181062C02C0569558
:1021200047950A94E2F741707E9C70011124E60CF9
:10213000F11CD401ED91FC91EE0DFF1D5080B70113
:10214000C101498305DF498197FD02C0682F1BC08B
:10215000019611F5442301F180E090E060E070E029
:10216000F101E80FF91F248D211110C0469EF001E6
:10217000479EF00D1124E20DF31D548EF68EE58E70
:1021800010A2178E41E0C10117DF06C06F5F7F4FBD
:1021900006966A30710521F76394B7CF7394A8CF80
:1021A00020E030E080E0F101E20FF31F91A19111F6
:1021B00081E02A5F3F4F2C333105A9F70F90DF9163
:1021C000CF911F910F91FF90EF90DF90CF90BF9034
:1021D000AF909F908F907F906F905F904F903F90C7
:1021E0002F900895CF92DF92EF92FF920F931F935B
:1021F000CF93DF938C0129DCE801C45ADF4FC880FC
:10220000D980EA80FB806C197D098E099F09F8014D
:10221000E859FF4FC080D180E12CF12CC616D706BB
:10222000E806F90658F4C8019ADDC8012CDF182F1A
:102230000CDC688379838A839B8301C010E0812F43
:10224000DF91CF911F910F91FF90EF90DF90CF9092
:1022500008950F931F93CF93DF93EC018C010459E2
:102260001F4F81E0F8018083CE01BCDF882349F055
:1022700089A1882331F08F8D98A1019711F48C8D5D
:1022800003C0F801108280E0DF91CF911F910F9180
:102290000895FC01108214821382158208958091A2
:1022A000E90790E02091EA07821B910908952091A7
:1022B000EA078091E907281750F4E22FF0E0E55192
:1022C000F84F808190E02F5F2093EA0708958FEF09
:1022D0009FEF0895E091EA078091E907E81730F44D
:1022E000F0E0E551F84F808190E008958FEF9FEF87
:1022F00008950895CF92DF92EF92FF920F931F936C
:10230000CF93DF937C01CB018A012091C507222363
:1023100089F0EB016B01C40ED51ECC15DD0561F013
:102320006991D701ED91FC910190F081E02DC701F9
:102330000995F3CF642FE2D0C801DF91CF911F91AF
:102340000F91FF90EF90DF90CF900895CF93DF93A0
:102350001F92CDB7DEB769832091C5072223D1F044
:102360002091C607203240F021E030E0FC013383A9
:10237000228380E090E014C08091C707E82FF0E04E
:10238000E853F84F998190838F5F8093C7078093BC
:10239000C60704C061E0CE010196B0D081E090E0B4
:1023A0000F90DF91CF910895FC011382128248EEC5
:1023B00053E060E070E0448355836683778388E46C
:1023C00091E09183808308951092EA071092E907C3
:1023D0001092C7071092C60722C081E08093C507FC
:1023E0006093E8071092C7071092C6070895F5CFCB
:1023F0000F93062F21E04091C60768EC77E08091AB
:10240000E80729D01092C7071092C6071092C50797
:102410000F91089561E0ECCF89EB97E0C5CF109262
:10242000780881E0809376081092750861E082E177
:102430001AD261E083E117D2E9EBF0E080818E7F70
:10244000808380818D7F808388E48093B80085E4D9
:102450008093BC0008950F93413208F046C09091DC
:1024600078089111FCCF92E0909378080093760859
:102470009FEF90930B081092500840934F08FB0178
:1024800061E578E0DB019A2F961B941718F491917F
:102490009D93F9CF1092770890917708880F892B38
:1024A0008093770880917508813041F41092750807
:1024B000809177088093BB0085EC01C085EE809306
:1024C000BC00222321F0809178088230E1F38091D2
:1024D0000B088F3F61F080910B08803251F08091A2
:1024E0000B08803341F483E007C081E005C080E041
:1024F00003C082E001C084E00F910895613298F436
:1025000020917808243089F460932D08FC018FE233
:1025100098E0DC012A2F281B261718F421912D930F
:10252000F9CF80E0089581E0089582E0089585ED77
:102530008093BC008091BC0084FDFCCF1092780891
:10254000089585EC8093BC001092780808951F923E
:102550000F920FB60F9211242F933F934F935F93D7
:102560006F937F938F939F93AF93BF93EF93FF935B
:102570008091B900887F803609F49CC068F5883264
:1025800009F45BC090F4803109F454C038F4882316
:1025900009F4F3C0883009F44DC0F2C0883109F461
:1025A0004CC0803209F45DC0EBC0803409F468C0CF
:1025B00048F4803309F455C0883309F0E1C08093B2
:1025C0000B08A7C0803509F44FC0883509F45DC0F9
:1025D000883409F0D5C0D3C0883909F4C4C0A8F440
:1025E000883709F467C038F4883609F463C0803747
:1025F00009F460C0C5C0883809F4B5C0803909F451
:102600005FC0803809F0BCC05BC0803B09F483C068
:1026100038F4803A09F466C0883A09F47CC0B0C046
:10262000803C09F4A4C0883C09F4A1C0883B09F4AB
:1026300087C0A6C08091770810C090915008809103
:102640004F08981770F5E091500881E08E0F809345
:102650005008F0E0EF5AF74F80818093BB0085EC83
:1026600083C080930B088BC0E091500881E08E0FEF
:10267000809350088091BB00F0E0EF5AF74F8083C1
:102680009091500880914F086BC0E091500881E014
:102690008E0F809350088091BB00F0E0EF5AF74F07
:1026A00080838091760881116AC081E080937508EB
:1026B00084EA5EC083E08093780810920C08CFCF44
:1026C00080910C08803208F04EC0E0910C0881E047
:1026D0008E0F80930C088091BB00F0E0E35FF74F12
:1026E0008083BDCF80910C08803230F4E0910C08DB
:1026F000F0E0E35FF74F10821ADF60910C0870E0A2
:10270000E0917108F09172088DE098E009951092BF
:102710000C0817DF35C084E08093780810922E08EB
:1027200010922D08E0917308F0917408099580913A
:102730002D08811105C081E080932D0810922F088B
:10274000E0912E0881E08E0F80932E08F0E0E15D8D
:10275000F74F80818093BB0090912E0880912D08C7
:10276000981708F47CCF85E88093BC0009C085ECFD
:102770008093BC001092780803C010920B08D7DE3B
:10278000FF91EF91BF91AF919F918F917F916F9149
:102790005F914F913F912F910F900FBE0F901F901F
:1027A0001895833081F028F4813099F08230A1F0BF
:1027B00008958730A9F08830B9F08430D1F4809141
:1027C00080008F7D03C0809180008F778093800090
:1027D000089584B58F7702C084B58F7D84BD089538
:1027E0008091B0008F7703C08091B0008F7D80937F
:1027F000B0000895CF93DF9390E0FC01ED56FB4FBE
:102800002491FC01E955FB4F8491882349F190E024
:10281000880F991FFC01E153FB4FA591B4918B5395
:102820009B4FFC01C591D4919FB7611108C0F894EA
:102830008C91209582238C93888182230AC06230F8
:1028400051F4F8948C91322F309583238C938881A6
:10285000822B888304C0F8948C91822B8C939FBF29
:10286000DF91CF9108950F931F93CF93DF931F9222
:10287000CDB7DEB7282F30E0F901E158FB4F849146
:10288000F901ED56FB4F1491F901E955FB4F049105
:102890000023C1F0882319F0698383DF6981E02F69
:1028A000F0E0EE0FFF1FEB53FB4FA591B4919FB7E4
:1028B000F8948C91611103C01095812301C0812B84
:1028C0008C939FBF0F90DF91CF911F910F9108952F
:1028D000CF93DF93282F30E0F901E158FB4F84912B
:1028E000F901ED56FB4FD491F901E955FB4FC49125
:1028F000CC2389F0811155DFEC2FF0E0EE0FFF1FA4
:10290000E554FB4FA591B4912C912D2381E090E0EB
:1029100021F480E002C080E090E0DF91CF91089543
:10292000A1E21A2EAA1BBB1BFD010DC0AA1FBB1FD3
:10293000EE1FFF1FA217B307E407F50720F0A21B45
:10294000B30BE40BF50B661F771F881F991F1A94B2
:1029500069F760957095809590959B01AC01BD01DC
:10296000CF010895EE0FFF1F0590F491E02D09941B
:04297000F894FFCF09
:102974000809020304050607FFFF3F0C765E4D5B62
:102984007B0E7F5F6F79337C73633132334134352F
:102994003642373839434530464400000000E80DDC
:1029A400000C6C0D850D770DC70D000000004C0E5A
:1029B4004F0E520E00000000A6117A114F1157114C
:0429C4006A1179110A
:00000001FF
