:1000000062C0000085C0000083C0000081C0000005
:100010007FC000007DC000007BC0000079C00000F0
:1000200077C0000075C0000073C0000071C0000000
:100030006FC000006DC000006BC0000069C0000010
:10004000CAC2000065C00000C7C10000F7C10000BF
:100050005FC000005DC000005BC0000059C0000030
:1000600057C0000055C00000000000080002010059
:100070000003040700000000000000000102040863
:100080001020408001020408102001020408102002
:10009000040404040404040402020202020203032E
:1000A00003030303000000002300260029000000D2
:1000B0000000250028002B0000000000240027007D
:1000C0002A009B004C0211241FBECFEFD8E0DEBFF8
:1000D000CDBF11E0A0E0B1E0E0EDFEE002C0059090
:1000E0000D92A233B107D9F722E0A2E3B1E001C03B
:1000F0001D92A734B207E1F710E0C6ECD0E003C0D0
:100100002297FE01DFD6C23CD107D1F75AD2DEC614
:1001100077CF26E040E855E260E070E081EA91E0C8
:10012000FBC082E391E0C5D5882321F0682F81EAE6
:1001300091E036C20895EF920F9384E0E82E04E038
:1001400020E031E044E051E068E071E082E391E0DA
:10015000DBD20F91EF900895FC01818D228D90E00C
:10016000805C9F4F821B91098F7399270895FC0132
:10017000918D828D981731F0828DE80FF11D858D5C
:1001800090E008958FEF9FEF0895FC01918D828D8F
:10019000981761F0828DDF01A80FB11D5D968C91DB
:1001A000928D9F5F9F73928F90E008958FEF9FEFE6
:1001B000089583E492E0892B41F080E090E0892B60
:1001C00021F061D181110C9400000895FC01848D0F
:1001D000DF01A80FB11DA35ABF4F2C91848D90E071
:1001E00001968F739927848FA689B7892C93A0894C
:1001F000B1898C9180648C93938D848D981306C003
:100200000288F389E02D80818F7D80830895CF93CC
:10021000DF93EC01888D8823C1F0EA89FB89808116
:1002200085FD05C0A889B9898C9186FD0EC00FB6E1
:1002300007FCF5CF808185FFF2CFA889B9898C9121
:1002400085FFEDCFCE01C2DFE8CFDF91CF910895DA
:10025000CF92DF92FF920F931F93CF93DF931F9262
:10026000CDB7DEB76C01DC015B969C915B975C9629
:100270008C915C97981307C05096ED91FC91519723
:10028000808185FD31C0F601038D10E00F5F1F4FA7
:100290000F731127F02EF601848DF81210C00FB6DF
:1002A00007FCF9CFD6015096ED91FC9151978081D2
:1002B00085FFF1CFC601698389DF6981ECCF838D2A
:1002C000E80FF11DE35AFF4F6083D6015B960C9354
:1002D0005B975296ED91FC91539780818062808369
:1002E00081E058968C930DC0D6015696ED91FC9105
:1002F000579760835096ED91FC915197808180646F
:10030000808381E090E00F90DF91CF911F910F915A
:10031000FF90DF90CF900895BF92CF92DF92EF923F
:10032000FF92CF93DF93EC016A017B01B22EE88943
:10033000F98982E08083411581EE580761057105D6
:1003400099F060E079E08DE390E0A701960196D501
:1003500021503109410951095695479537952795FF
:10036000211580E1380790F0E889F989108260E86A
:1003700074E88EE190E0A701960180D52150310903
:10038000410951095695479537952795EC85FD8587
:100390003083EE85FF852083188EEC89FD89B0823D
:1003A000EA89FB89808180618083EA89FB89808179
:1003B00088608083EA89FB89808180688083EA89FC
:1003C000FB8980818F7D8083DF91CF91FF90EF90BB
:1003D000DF90CF90BF9008951F920F920FB60F92AB
:1003E00011242F938F939F93EF93FF93E091B1018B
:1003F000F091B2018081E091B701F091B80182FDE6
:1004000012C090818091BA018F5F8F732091BB01E0
:10041000821751F0E091BA01F0E0EF55FE4F958F51
:100420008093BA0101C08081FF91EF919F918F91DC
:100430002F910F900FBE0F901F9018951F920F9243
:100440000FB60F9211242F933F934F935F936F93A7
:100450007F938F939F93AF93BF93EF93FF9381EA23
:1004600091E0B4DEFF91EF91BF91AF919F918F9199
:100470007F916F915F914F913F912F910F900FBEA0
:100480000F901F90189581EA91E066DE21E0892B9C
:1004900009F420E0822F08951092A4011092A30184
:1004A00088EE93E0A0E0B0E08093A5019093A601D0
:1004B000A093A701B093A8018CE191E09093A201D1
:1004C0008093A10185EC90E09093AE018093AD0103
:1004D00084EC90E09093B0018093AF0180EC90E0C9
:1004E0009093B2018093B10181EC90E09093B401BC
:1004F0008093B30182EC90E09093B6018093B501B4
:1005000086EC90E09093B8018093B7011092BA0105
:100510001092BB011092BC011092BD010895CF92C0
:10052000DF92EF92FF920F931F93CF93DF936C01B3
:100530007A01EB01E60EF71E00E010E0CE15DF05B4
:1005400061F06991D601ED91FC910190F081E02D6F
:10055000C6010995080F191FF1CFC801DF91CF918E
:100560001F910F91FF90EF90DF90CF900895DC01E5
:10057000ED91FC910190F081E02D09940F931F9370
:10058000CF93DF93EC016DE0F2DF8C016AE0CE01E6
:10059000EEDF800F911FDF91CF911F910F91089592
:1005A0000F931F93CF93DF93EC01E1DF8C01CE011A
:1005B000E5DF800F911FDF91CF911F910F9108957B
:1005C00008955FD0FDDFA5DDC9EDD0E0AADD20975D
:1005D000E9F3EFDDFBCF1F920F920FB60F921124BC
:1005E0002F933F938F939F93AF93BF9380913F023D
:1005F00090914002A0914102B091420230913E029E
:1006000023E0230F2D3720F40196A11DB11D05C055
:1006100026E8230F0296A11DB11D20933E02809370
:100620003F0290934002A0934102B0934202809116
:10063000430290914402A0914502B0914602019676
:10064000A11DB11D8093430290934402A0934502E3
:10065000B0934602BF91AF919F918F913F912F919F
:100660000F900FBE0F901F9018952FB7F8946091C0
:100670003F027091400280914102909142022FBF4F
:100680000895789484B5826084BD84B5816084BD0A
:1006900085B5826085BD85B5816085BDEEE6F0E0FB
:1006A000808181608083E1E8F0E010828081826057
:1006B0008083808181608083E0E8F0E080818160D8
:1006C0008083E1EBF0E0808184608083E0EBF0E008
:1006D000808181608083EAE7F0E0808184608083AC
:1006E0008081826080838081816080838081806856
:1006F00080831092C1000895862F642F29C3862F0E
:10070000642F5FC3862F92C34F925F926F927F9246
:100710008F929F92AF92BF92CF92DF92EF920F9300
:10072000CF93DF93EC014B013A0159010296E1D2DC
:100730008CE291E0998388836E018CE1C80ED11C14
:1007400026018CE3480E511CC601D3D286E0C80EA8
:10075000D11CC414D504C1F7FE01EE59FF4F7182BC
:1007600060823296B182A082329600833196E08216
:1007700037979182808238968AE090E091838083D7
:10078000329684EF91E091838083339611821082B8
:1007900071971082118212821382C459DF4F18821E
:1007A000DF91CF910F91EF90DF90CF90BF90AF90FE
:1007B0009F908F907F906F905F904F9008952F92B1
:1007C0003F924F925F926F927F928F929F92AF92E1
:1007D000BF92CF92DF92EF92FF920F931F93CF932E
:1007E000DF93CDB7DEB728970FB6F894DEBF0FBE04
:1007F000CDBF98878F83F12C4C0186E6880E911C23
:100800000F8118850E591F4FD4018C91F816A0F452
:10081000AF81B8858D919C91F801A081B181AF0D18
:10082000B11DFC012081318142E06C918F8198855E
:10083000F9010995F394E8CF512CEF81F885E95936
:10084000FF4FFA83E9830F8118850C591F4FC12C84
:10085000D12C7601C3948F8198858E599F4F9C83AC
:100860008B83A981BA818C91581608F088C0A52C79
:10087000B12CAF81B8858D919C91F801A081B18197
:10088000AA0DBB1DFC012081318141E06C918F815B
:100890009885F9010995AF81B8858D919C91F801F2
:1008A000A081B181AA0DBB1DFC012281338140E0F2
:1008B0006C918F819885F9010995D701C601052CA6
:1008C00004C0880F991FAA1FBB1F0A94D2F79C016E
:1008D0001C0120943094412CD4018C91EF81F88537
:1008E00040815181481648F5642C712CEB81FC81C4
:1008F000A081B181A60DB71DFA01448155816C918B
:100900008F8198852D833E83FA010995660C771CAB
:100910002D813E81EF81F885E60DF71D892B29F4A5
:1009200080859185822B932B04C0808591858221BF
:100930009321918780874394CFCFF801A081B18123
:10094000AA0DBB1DFA012281338141E06C918F8198
:100950009885F9010995AF81B8858D919C91F80131
:10096000A081B181AA0DBB1DFC012081318140E035
:100970006C918F819885F9010995539472CF2896CF
:100980000FB6F894DEBF0FBECDBFDF91CF911F91A0
:100990000F91FF90EF90DF90CF90BF90AF909F901E
:1009A0008F907F906F905F904F903F902F90089521
:1009B000FC0180E090E0258D368D2617370739F051
:1009C000019636968A309105B1F78FEF9FEF089523
:1009D000DC0126E0629FA00DB11D112490965C936E
:1009E0004E935F9721E091962C939197FC01E459E7
:1009F000FF4F208131960190F081E02D222331F0CC
:100A0000309749F0611107C0DC0102C0309719F03E
:100A10005C968C9109940895CF92DF92FF920F9388
:100A20001F93CF93DF931F92CDB7DEB76C01F62EE5
:100A3000FC0186E0689FE00DF11D112411A2878D55
:100A400090A181309105E1F01CF4892B51F042C056
:100A50008230910581F1039709F03CC040E050E0FD
:100A60002EC04423B9F141E050E0C601B1DFFDDD05
:100A7000F601E85AFF4F60837183828393832AC013
:100A80004983F3DDF601E85AFF4F0081118122818D
:100A90003381601B710B820B930B72960081118165
:100AA00020E030E04981061717072807390718F4B6
:100AB00042E050E004C041110DC043E050E06F2D12
:100AC000C6010F90DF91CF911F910F91FF90DF90A2
:100AD000CF907ECF0F90DF91CF911F910F91FF901C
:100AE000DF90CF9008952F923F924F925F926F9236
:100AF0007F928F929F92AF92BF92CF92DF92EF92AE
:100B0000FF920F931F93CF93DF931F92CDB7DEB762
:100B10001C01FC014AE08FEF9FEF278D30A1232BB2
:100B200021F4148E968F858F11A241503696411173
:100B3000F4CF712C610126E6C20ED11C510187E66B
:100B4000A80EB11C4101A0E68A0E911C46E0442E7D
:100B5000D6018C91781608F053C0612C8101070DE5
:100B6000111D070D111D085F1F4FF501E0806E1468
:100B700008F044C0F80140815181062C02C056950E
:100B800047950A94E2F741707E9C70011124E60CAF
:100B9000F11CD401ED91FC91EE0DFF1D5080B701C9
:100BA000C101498305DF498197FD02C0682F1BC041
:100BB000019611F5442301F180E090E060E070E0DF
:100BC000F101E80FF91F248D211110C0469EF0019C
:100BD000479EF00D1124E20DF31D548EF68EE58E26
:100BE00010A2178E41E0C10117DF06C06F5F7F4F73
:100BF00006966A30710521F76394B7CF7394A8CF36
:100C000020E030E080E0F101E20FF31F91A19111AB
:100C100081E02A5F3F4F2C333105A9F70F90DF9118
:100C2000CF911F910F91FF90EF90DF90CF90BF90E9
:100C3000AF909F908F907F906F905F904F903F907C
:100C40002F900895CF92DF92EF92FF920F931F9310
:100C5000CF93DF938C0109DDE801C45ADF4FC880D0
:100C6000D980EA80FB806C197D098E099F09F80103
:100C7000E859FF4FC080D180E12CF12CC616D70671
:100C8000E806F90658F4C8019ADDC8012CDF182FD0
:100C9000ECDC688379838A839B8301C010E0812F19
:100CA000DF91CF911F910F91FF90EF90DF90CF9048
:100CB00008950F931F93CF93DF93EC018C01045998
:100CC0001F4F81E0F8018083CE01BCDF882349F00B
:100CD00089A1882331F08F8D98A1019711F48C8D13
:100CE00003C0F801108280E0DF91CF911F910F9136
:100CF0000895FC01108214821382158208958330B6
:100D000081F028F4813099F08230A1F00895873085
:100D1000A9F08830B9F08430D1F4809180008F7DC3
:100D200003C0809180008F7780938000089584B500
:100D30008F7702C084B58F7D84BD08958091B00007
:100D40008F7703C08091B0008F7D8093B0000895AD
:100D5000CF93DF9390E0FC01E458FF4F2491FC0116
:100D6000E057FF4F8491882349F190E0880F991F45
:100D7000FC01E854FF4FA591B49182559F4FFC01AF
:100D8000C591D4919FB7611108C0F8948C912095BA
:100D900082238C93888182230AC0623051F4F894B4
:100DA0008C91322F309583238C938881822B88837A
:100DB00004C0F8948C91822B8C939FBFDF91CF91CC
:100DC00008950F931F93CF93DF931F92CDB7DEB794
:100DD000282F30E0F901E859FF4F8491F901E458D8
:100DE000FF4F1491F901E057FF4F04910023C1F028
:100DF000882319F0698383DF6981E02FF0E0EE0F2B
:100E0000FF1FE255FF4FA591B4919FB7F8948C91C5
:100E1000611103C01095812301C0812B8C939FBF6A
:100E20000F90DF91CF911F910F910895CF93DF9392
:100E3000282F30E0F901E859FF4F8491F901E45877
:100E4000FF4FD491F901E057FF4FC491CC2389F0B3
:100E5000811155DFEC2FF0E0EE0FFF1FEC55FF4F37
:100E6000A591B4912C912D2381E090E021F480E0B4
:100E700002C080E090E0DF91CF910895A1E21A2EA8
:100E8000AA1BBB1BFD010DC0AA1FBB1FEE1FFF1F2E
:100E9000A217B307E407F50720F0A21BB30BE40B7E
:100EA000F50B661F771F881F991F1A9469F76095C5
:100EB0007095809590959B01AC01BD01CF0108957F
:100EC000EE0FFF1F0590F491E02D0994F894FFCFE9
:100ED000000102030405060731323341343536423E
:100EE000373839432A3023440000000028018F029C
:100EF000AC00C500B7000701000000007C037F03C1
:020F000082036A
:00000001FF
