:1000000007C1000033C1000031C100002FC1000052
:100010002DC100002BC1000029C1000027C1000034
:1000200025C1000023C1000021C100001FC1000044
:100030001DC100001BC1000019C1000017C1000054
:1000400015C1000013C1000011C100000FC1000064
:100050000DC100000BC1000009C100008DC20000ED
:1000600005C1000003C1000001C10000FFC0000085
:10007000FDC00000FBC00000F9C00000F7C0000098
:10008000F5C00000F3C00000F1C00000EFC00000A8
:10009000EDC00000EBC00000E9C00000E7C00000B8
:1000A000E5C00000E3C00000E1C00000DFC00000C8
:1000B000DDC00000DBC00000D9C00000D7C00000D8
:1000C000D5C00000D3C00000D1C00000CFC00000E8
:1000D000CDC00000CBC00000C9C00000C7C00000F8
:1000E000C5C00000D303D603C503C903CF030D0465
:1000F000DA03DE03E403E803EC03F203F603FA0396
:100100000D0400040404080400000A0B02090C0D8D
:100110000E080703040100000000000000000000BA
:1001200000000000000000000000000000000000CF
:10013000000000001211100000000000000000008C
:1001400000000000000000000000000000000102AC
:1001500010202008081020401020408002010201D9
:100160000804020101020408102040808040201091
:1001700008040201800402018040201008040201EA
:100180000804020101020408102040800102040852
:10019000102040800505050507050808080802022B
:1001A00002020A0A08080404040401010101010111
:1001B00001010303030303030303040707070C0CF4
:1001C0000C0C0C0C0C0C02020202060606060606BB
:1001D00006060B0B0B0B0B0B0B0B00002200250074
:1001E00028002B002E003100340002010000050120
:1001F00008010B0100002100240027002A002D0027
:100200003000330001010000040107010A01AA02C5
:1002100011241FBECFEFD1E2DEBFCDBF00E00CBF87
:1002200012E0A0E0B2E0E2E1F9E000E00BBF02C0C2
:1002300007900D92AE30B107D9F722E0AEE0B2E000
:1002400001C01D92AC31B207E1F712E0C0E1D2E08B
:1002500000E005C022970109FE010BBF54D3CE3048
:10026000D10780E00807B1F77CD151C3C9CEFC01AA
:100270002283638344830895CF93DF93FC014381FA
:1002800050E0FA01EC56FE4FE491F0E0EE0FFF1F54
:10029000E652FE4FA591B491FC01248130E0F901B2
:1002A000EC56FE4F849190E0880F991F86529E4F26
:1002B000FC01C591D491FA01E25BFE4F4491F90132
:1002C000E25BFE4F24913FB7F89488E0722F70955F
:1002D000542F5095988167FF02C0922B01C097233D
:1002E00098839C91942B9C939C9195239C93660F4F
:1002F000815081F73FBFDF91CF9108951F93CF9336
:10030000DF93EC01142F8A81882389F06EBD0DB430
:1003100007FEFDCF812F807F8EBD0DB407FEFDCF80
:100320001295107F1EBD0DB407FEFDCF0EC0CE018D
:10033000A3DF612F607FCE019FDF612F6295607F19
:10034000CE01DF91CF911F9197CFDF91CF911F9178
:100350000895462F68EFD2CFCF93DF93EC0160E092
:100360008B8195D260E08C8192D261E08B8156D2F4
:1003700061E08C8153D28A81882311F081E58CBDA4
:10038000188260E2CE01E5DF61E070E080E090E09D
:1003900060D160E2CE01DDDF80E390E07FD166E0F6
:1003A000CE01D7DF80E390E079D1198281E08883A4
:1003B0006CE0CE01CEDF80E390E0DF91CF916EC1A3
:1003C000462F6AEF9BCFCF93DF93EC018981811198
:1003D0000DC08881882311F066E201C064E2CE017D
:1003E000B8DF80E390E05AD181E08983DF91CF913B
:1003F0000895EF92FF920F931F93CF93DF931F9275
:10040000CDB7DEB77C018B01FC0180818823F9F038
:10041000C7014983D8DF602F6F716068C70199DF1A
:100420004981642F6068C8018072992796958795E5
:1004300096958795682BC7018CDF80E390E00F903D
:10044000DF91CF911F910F91FF90EF9027C10F90F7
:10045000DF91CF911F910F91FF90EF900895CF9270
:10046000DF92EF92FF920F93CF93DF931F921F9231
:10047000CDB7DEB77C01842F462F50E0682F70E0A7
:10048000C70129833A83B5DF2981C22E3A81D32E51
:10049000020F0C1531F0F60161916F01C70190DF79
:1004A000F8CF8AE090E00F900F90DF91CF910F91FD
:1004B000FF90EF90DF90CF90F1C0FF920F931F93CA
:1004C000CF93DF938C01C0E0D0E040E050E0BE016C
:1004D000C8018FDFF8E0FF2E60E0C80171DF60E047
:1004E000C8016EDF8AE090E0D9D0FA94A9F721968E
:1004F000C034D10551F7DF91CF911F910F91FF903B
:1005000008950F93CF93DF9361E086E387D161E095
:1005100086E3BDD161E08EE092E01EDF8EE092E0E6
:10052000CCDFC0E0D0E0BE0183E0759567958A9589
:10053000E1F761700EE020E032E04C2F8EE092E0B7
:100540008EDF2196C034D10571F7DF91CF910F91E5
:100550000895089520E047E368E38EE092E087CEB7
:100560000895A7D0FDDFCDDFC0E0D0E0F2DF209717
:10057000E9F30E940000FACF1F920F920FB60F927C
:1005800011242F933F938F939F93AF93BF938091A9
:10059000140290911502A0911602B09117023091A9
:1005A000130223E0230F2D3720F40196A11DB11D66
:1005B00005C026E8230F0296A11DB11D209313024A
:1005C0008093140290931502A0931602B093170221
:1005D0008091180290911902A0911A02B0911B0209
:1005E0000196A11DB11D8093180290931902A0934A
:1005F0001A02B0931B02BF91AF919F918F913F91CF
:100600002F910F900FBE0F901F9018953FB7F89441
:100610008091180290911902A0911A02B0911B02C8
:1006200026B5A89B05C02F3F19F00196A11DB11D4D
:100630003FBF6627782F892F9A2F620F711D811D6A
:10064000911D42E0660F771F881F991F4A95D1F7C9
:100650000895CF92DF92EF92FF92CF93DF936B01D9
:100660007C01D4DFEB01C114D104E104F10479F081
:1006700043D1CCDF6C1B7D0B683E7340A0F381E05F
:10068000C81AD108E108F108C851DC4FECCFDF915E
:10069000CF91FF90EF90DF90CF9008950197009752
:1006A00039F0880F991F880F991F02970197F1F76A
:1006B0000895789484B5826084BD84B5816084BDDA
:1006C00085B5826085BD85B5816085BDEEE6F0E0CB
:1006D000808181608083E1E8F0E010828081826027
:1006E0008083808181608083E0E8F0E080818160A8
:1006F0008083E1EBF0E0808184608083E0EBF0E0D8
:10070000808181608083E1E9F0E080818260808384
:10071000808181608083E0E9F0E080818160808376
:10072000E1EAF0E080818260808380818160808363
:10073000E0EAF0E0808181608083E1E2F1E08081A5
:1007400082608083808181608083E0E2F1E080814B
:1007500081608083EAE7F0E080818460808380812B
:1007600082608083808181608083808180688083D3
:100770001092C100089590E0FC013197E231F1053B
:1007800008F04BC0EE58FF4FB8C0809180008F77C3
:1007900003C0809180008F7D8093800008958091B8
:1007A0008000877FF9CF84B58F7702C084B58F7DB5
:1007B00084BD08958091B0008F7703C08091B00010
:1007C0008F7D8093B0000895809190008F7707C04F
:1007D000809190008F7D03C080919000877F8093EF
:1007E000900008958091A0008F7707C08091A000AD
:1007F0008F7D03C08091A000877F8093A000089523
:10080000809120018F7707C0809120018F7D03C0E8
:1008100080912001877F809320010895CF93DF93FB
:1008200090E0FC01E25BFE4F2491FC01EC56FE4F90
:100830008491882349F190E0880F991FFC01EC50C6
:10084000FE4FA591B49186529E4FFC01C591D49163
:100850009FB7611108C0F8948C91209582238C93E6
:10086000888182230AC0623051F4F8948C91322F2F
:10087000309583238C938881822B888304C0F894DD
:100880008C91822B8C939FBFDF91CF9108950F9312
:100890001F93CF93DF931F92CDB7DEB7282F30E0A1
:1008A000F901E85FFE4F8491F901E25BFE4F14917C
:1008B000F901EC56FE4F04910023C1F0882319F092
:1008C000698359DF6981E02FF0E0EE0FFF1FE652E8
:1008D000FE4FA591B4919FB7F8948C91611103C01C
:1008E0001095812301C0812B8C939FBF0F90DF91C6
:1008F000CF911F910F9108950895EE0FFF1F05905E
:10090000F491E02D19940790F691E02D1994F89444
:02091000FFCF17
:0E091200FFFFAAAAFFFFF0F0CCCCFFFF4002CF
:00000001FF
