:100000005CC000007FC000007DC000007BC000001D
:1000100079C0000077C0000075C0000073C0000008
:1000200071C000006FC000006DC000006BC0000018
:1000300069C0000067C0000065C0000063C0000028
:1000400001C400005FC000005DC000005BC0000094
:1000500059C0000057C0000055C0000053C0000048
:1000600051C000004FC00000000000080002010065
:100070000003040700000000000000000102040863
:100080001020408001020408102001020408102002
:10009000040404040404040402020202020203032E
:1000A0000303030300000000250028002B000000CC
:1000B0000000240027002A00E80311241FBECFEF10
:1000C000D8E0DEBFCDBF11E0A0E0B1E0ECE9FCE09C
:1000D00002C005900D92AC31B107D9F721E0ACE137
:1000E000B1E001C01D92A13DB207E1F710E0CAEBFB
:1000F000D0E003C02297FE0139D5C83BD107D1F724
:1001000096D3CAC57DCF81E090E00895FC011382AB
:10011000128288E191E09183808326836783408700
:10012000ECE1F1E080E023E080FD02C0108201C03C
:10013000208381FF03C090819C60908382FF03C075
:1001400090819063908383FF03C09081906C908333
:100150008F5F3196803141F70895CF93DF93FC0193
:10016000478150E0FA01E057FF4FE491F0E0EE0FD5
:10017000FF1FEC55FF4FA591B491FC01208530E0A5
:10018000F901E057FF4F849190E0880F991F8C553B
:100190009F4FFC01C591D491FA01E458FF4F44915F
:1001A000F901E458FF4F24913FB7F89488E0722F8B
:1001B0007095542F5095988167FF02C0922B01C013
:1001C000972398839C91942B9C939C9195239C932B
:1001D000660F815081F73FBFDF91CF9108951F9344
:1001E000CF93DF93EC01142F8E81882389F06EBDAD
:1001F0000DB407FEFDCF812F807F8EBD0DB407FEAD
:10020000FDCF1295107F1EBD0DB407FEFDCF0EC0B1
:10021000CE01A3DF612F607FCE019FDF612F62954A
:10022000607FCE01DF91CF911F9197CFDF91CF916A
:100230001F910895462F68EFD2CF462F6AEFCFCF98
:10024000CF93DF93EC018D81882361F08C8188232B
:1002500011F062E201C060E2CE01ECDF80E390E0E9
:1002600083D31D82DF91CF910895CF93DF93EC016B
:100270008D8181110DC08C81882311F066E201C04F
:1002800064E2CE01D7DF80E390E06ED381E08D831E
:10029000DF91CF910895AF92BF92CF92DF92EF920C
:1002A000FF920F931F93CF93DF931F92CDB7DEB7CB
:1002B0005C01E62EF42E2983D8DF2981E22FF0E0BD
:1002C000A4E0F595E795AA95E1F7E45EFE4FD080AE
:1002D0002F70E22FF0E0E45EFE4FC0800F2D10E0A3
:1002E0000F5F1F4F8E2D8068E82E8F2D90E008172E
:1002F0001907F4F06F2D6F716068C5019BDF8F2DBA
:10030000807290E095958795959587956E2D682BD1
:10031000C50190DF80E390E027D36D2DC5018DDF0F
:100320006C2DC5018ADF8AE090E01ED3F394DDCF07
:100330000F90DF91CF911F910F91FF90EF90DF9081
:10034000CF90BF90AF9008950F931F93CF93DF93FB
:10035000EC018C81882359F100E010E020E0412F6E
:10036000602FCE0198DF1F5F1034C1F70F5F083098
:10037000A1F780E090E0FE01E80FF91F11860196D9
:1003800080389105C1F780E090E0FE01E80FF91F89
:10039000E757FF4F1082019680319105B1F7C7569C
:1003A000DF4F1882DF91CF911F910F910895CE01F9
:1003B00047DF61E0CE013EDF63E070E080E090E087
:1003C000DF91CF911F910F91AAC2CF93DF93EC01E0
:1003D00060E08F8171D360E088856ED361E08F81AA
:1003E00032D361E088852FD38E81882311F081E597
:1003F0008CBD1C8260E2CE011DDF61E070E080E018
:1004000090E08DD260E2CE0115DF80E390E0ACD2C7
:1004100066E0CE010FDF80E390E0A6D21D82CE0120
:1004200093DF81E08C83CE018FDF6CE0CE0102DFB1
:1004300080E390E0DF91CF9197C2362F342B307E4E
:10044000D1F5362F36953695369550E2359F400DCD
:1004500011246770E0E8F0E002C0F595E7956A9531
:10046000E2F73E2FDC01A40FB11DE09519965C91D7
:100470001997E523E317F9F0211101C030E0E32BD0
:100480001996EC93242F269526952695FC01E20FCC
:10049000F11DE757FF4F477020E830E002C0359567
:1004A00027954A95E2F73081322B3083FC01E756DD
:1004B000FF4F2FEF20830895669566956695242F4C
:1004C00030E2639F200D1124FC01E20FF11D440F67
:1004D0002185E1CE6F927F928F929F92AF92BF92D1
:1004E000CF92DF92EF92FF920F931F93CF93DF9300
:1004F0001F92CDB7DEB76C015C0129E9A20EB11CD9
:10050000F50180818823C1F1760150E0B0E88B2E9F
:10051000912C870107571F4FF8018081882321F113
:10052000612C712CC401062C02C0959587950A9404
:10053000E2F7F801208130E082239323892B59F0E0
:10054000662D650F462F4F71669566956873C601D7
:100550005983B2DF5981FFEF6F1A7F0A28E06216D4
:10056000710401F7F8011082FFEFEF1AFF0A585FDC
:10057000503879F6F50110820F90DF91CF911F91DD
:100580000F91FF90EF90DF90CF90BF90AF909F9032
:100590008F907F906F900895CF92DF92EF92FF92AD
:1005A0000F931F93CF93DF93EC01062FF42E2F7040
:1005B000E22FF0E0EC5FFE4F108110FF02C02FE74A
:1005C00001C020E04F2D602FCE0165DE22E0E22E3B
:1005D000EF0C11FBCC24C0F815FF02C080E401C071
:1005E00080E0C82A98E0D92EDF0C2C2D4E2D602FEC
:1005F000CE0151DEE394E394ED10F7CF16FF02C075
:100600002FE701C020E04D2D602FCE0144DE8AE0AF
:10061000E82EEF0C12FBDD24D0F814FF02C080E4BA
:1006200001C080E0D82A80E1F80E2D2D4E2D602FDC
:10063000CE0131DEE394E394EF10F7CF13FF02C055
:100640002FE701C020E04F2D602FCE01DF91CF9129
:100650001F910F91FF90EF90DF90CF901CCE8F9263
:100660009F92AF92BF92CF92DF92EF92FF920F9341
:100670001F93CF93DF931F92CDB7DEB74C01162F98
:10068000342FF22E44E0A42EA60E52E0B52EB30E67
:1006900064E0C62EC30E76E0D72ED30EE8E0EE2E31
:1006A000E30EF7FC02C000E001C000E7F6FC0760C3
:1006B000202F432F612FC4013983EDDD202F4B2DD7
:1006C000612FC401E8DD202F4C2D612FC401E3DD33
:1006D000202F4D2D612FC401DEDD27E74E2D612F28
:1006E000C401D9DDFF0CFF0C1F5F39811A11D9CF6E
:1006F0000F90DF91CF911F910F91FF90EF90DF90BE
:10070000CF90BF90AF909F908F900895CF93DF933D
:1007100061E08EE098D161E08EE0CED18EE291E092
:1007200054DEC0E0DFE121E04C2F6C2F8EE291E03F
:1007300084DE4D2F4C1B21E06C2F8EE291E07DDE9C
:10074000CF5FC03281F7DF91CF9108950F931F9350
:10075000CF93DF93C0E1D0E056D2082F54D2182FA8
:1007600052D2202F2170412F4F71682F6F718EE26E
:1007700091E063DE2197209779F78EE291E0AADE7F
:1007800020912C0130912D0184E0359527958A9593
:10079000E1F748E165E08EE291E0FEDE20912C0178
:1007A00048E166E08EE291E0F7DE20912C01309185
:1007B0002D01C901019690932D0180932C0140E3F6
:1007C00064E08EE291E0DF91CF911F910F9147CFCE
:1007D00020E04FE060E18EE291E098CCCF92DF9292
:1007E000EF92FF920F931F93CF93DF936C017A01E7
:1007F000EB01E60EF71E00E010E0CE15DF0561F01C
:100800006991D601ED91FC910190F081E02DC60136
:100810000995080F191FF1CFC801DF91CF911F91E2
:100820000F91FF90EF90DF90CF9008950895A7D09B
:10083000FDDF6CDFC0E0D0E089DF2097E9F30E94A4
:100840000000FACF1F920F920FB60F9211242F9330
:100850003F938F939F93AF93BF938091C9019091E2
:10086000CA01A091CB01B091CC013091C80123E025
:10087000230F2D3720F40196A11DB11D05C026E8D8
:10088000230F0296A11DB11D2093C8018093C901B9
:100890009093CA01A093CB01B093CC018091CD017C
:1008A0009091CE01A091CF01B091D0010196A11DF0
:1008B000B11D8093CD019093CE01A093CF01B09351
:1008C000D001BF91AF919F918F913F912F910F9048
:1008D0000FBE0F901F9018953FB7F8948091CD01EF
:1008E0009091CE01A091CF01B091D00126B5A89BE7
:1008F00005C02F3F19F00196A11DB11D3FBF66270E
:10090000782F892F9A2F620F711D811D911D42E052
:10091000660F771F881F991F4A95D1F70895CF92C8
:10092000DF92EF92FF92CF93DF936B017C01D4DFD4
:10093000EB01C114D104E104F10479F0F2D0CCDF71
:100940006C1B7D0B683E7340A0F381E0C81AD10890
:10095000E108F108C851DC4FECCFDF91CF91FF9057
:10096000EF90DF90CF9008950197009739F0880FAE
:10097000991F880F991F02970197F1F708957894AE
:1009800084B5826084BD84B5816084BD85B5826094
:1009900085BD85B5816085BDEEE6F0E08081816032
:1009A0008083E1E8F0E01082808182608083808132
:1009B00081608083E0E8F0E0808181608083E1EB0A
:1009C000F0E0808184608083E0EBF0E080818160F2
:1009D0008083EAE7F0E080818460808380818260A8
:1009E0008083808181608083808180688083109291
:1009F000C1000895833081F028F4813099F082306D
:100A0000A1F008958730A9F08830B9F08430D1F48E
:100A1000809180008F7D03C0809180008F778093CC
:100A20008000089584B58F7702C084B58F7D84BD22
:100A300008958091B0008F7703C08091B0008F7DC2
:100A40008093B0000895CF93DF9390E0FC01E458C9
:100A5000FF4F2491FC01E057FF4F8491882349F117
:100A600090E0880F991FFC01E255FF4FA591B491CA
:100A70008C559F4FFC01C591D4919FB7611108C05F
:100A8000F8948C91209582238C93888182230AC0CC
:100A9000623051F4F8948C91322F309583238C93EB
:100AA0008881822B888304C0F8948C91822B8C934C
:100AB0009FBFDF91CF9108950F931F93CF93DF9343
:100AC0001F92CDB7DEB7282F30E0F901E859FF4F6C
:100AD0008491F901E458FF4F1491F901E057FF4F59
:100AE00004910023C1F0882319F0698383DF6981B1
:100AF000E02FF0E0EE0FFF1FEC55FF4FA591B491F2
:100B00009FB7F8948C91611103C01095812301C0A7
:100B1000812B8C939FBF0F90DF91CF911F910F91ED
:100B200008950895A1E21A2EAA1BBB1BFD010DC05A
:100B3000AA1FBB1FEE1FFF1FA217B307E407F5078D
:100B400020F0A21BB30BE40BF50B661F771F881F69
:100B5000991F1A9469F760957095809590959B01FF
:100B6000AC01BD01CF010895EE0FFF1F0590F49178
:100B7000E02D09948F929F92AF92BF92CF92DF9215
:100B8000EF92FF92CF93DF93EC01688179818A81A4
:100B90009B81611571058105910521F464E279ED70
:100BA0008BE597E02DE133EF41E050E03AD0490189
:100BB0005A019B01AC01A7EAB1E44FD06B017C0163
:100BC000ACEEB4EFA501940154D0C60ED71EE81EBA
:100BD000F91EF7FE06C081E0C81AD108E10880E8D6
:100BE000F80AC882D982EA82FB82C6019F77DF9128
:100BF000CF91FF90EF90DF90CF90BF90AF909F90FC
:100C00008F900895B7CF80E091E0B4CFA0E0B0E03E
:100C10008093000190930101A0930201B09303011E
:100C20000895052E97FB16F400940FD057FD05D0BC
:100C300079DF07FC02D046F408C050954095309506
:100C400021953F4F4F4F5F4F089590958095709538
:100C500061957F4F8F4F9F4F08950FD0A59F900DA7
:100C6000B49F900DA49F800D911D11240895B7FF8E
:100C7000F4CFF3DF821B930B0895A29FB001B39FC3
:100C8000C001A39F700D811D1124911DB29F700D95
:0C0C9000811D1124911D0895F894FFCFE0
:100C9C00010000003F065B4F666D7D077F67777C28
:0C0CAC00395E7971000000008300EE0347
:00000001FF
