:1000000061C000007AC0000078C0000076C0000027
:1000100074C0000072C0000070C00000C3C20000C5
:100020006CC000006AC0000068C0000066C000002C
:1000300064C0000062C0000060C000005EC000003C
:1000400018C300005AC0000058C0000056C000008D
:1000500054C0000052C0000050C000004EC000005C
:100060004CC000004AC0000002000000080002016D
:10007000000003040700000000000000000102046B
:10008000081020408001020408102001020408101A
:100090002004040404040404040202020202020311
:1000A00003030303030000000023002600290000CF
:1000B000000000250028002B00000000002400277D
:1000C000002A000011241FBECFEFD8E0DEBFCDBF55
:1000D00011E0A0E0B1E0ECEAF9E002C005900D9279
:1000E000A230B107D9F721E0A2E0B1E001C01D9232
:1000F000A232B207E1F7B2D257C482CF61E080E109
:1001000066D362E08EE063C38EE0CFD390930301A9
:1001100080930201892B51F461E080E191D320E0CA
:1001200030E0A90168EB71E08FE005C060E080E19C
:1001300087D38FE024C23F924F925F926F927F925B
:100140008F929F92AF92BF92CF92DF92EF92FF92E7
:100150000F931F93CF93DF9300D000D0CDB7DEB7BE
:100160008B0129013A0190910001981721F09F3FDE
:1001700009F0CFC104C0E8E6F0E0349081C080937C
:100180000001E8E6F0E0E491EF3F09F4C2C1E1309C
:1001900031F1E23009F44BC0E11171C014BC15BC5F
:1001A00094B5926094BD95B5916095BD282F30E0CF
:1001B000F901EF56FF4FE491F0E0EE0FFF1FE1551C
:1001C000FF4F459154915093140140931301F9014D
:1001D000E358FF4F249120931201312C53C0109209
:1001E000800010928100909181009860909381002E
:1001F00090918100916090938100282F30E0F90167
:10020000EF56FF4FE491F0E0EE0FFF1FE155FF4F77
:100210004591549150930D0140930C01F901E3581D
:10022000FF4F249120930B01332433942BC0109261
:10023000B0001092B1009091B00092609093B00025
:100240009091B10091609093B100282F30E0F901B6
:10025000EF56FF4FE491F0E0EE0FFF1FE155FF4F27
:10026000459154915093060140930501F901E358DB
:10027000FF4F24912093040152E0352E03C03E2EFF
:1002800037FC47C161E0A3D24801A12CB12C832DDA
:100290008D7F09F0C1C060E072E18AE790E0A501BE
:1002A00094014DD329833A834B835C8369017A019E
:1002B00081E0C81AD108E108F1089FEFC916D104FE
:1002C000E104F10409F008F495C060E472E48FE001
:1002D00090E0A501940133D369017A01E1E0CE1ADF
:1002E000D108E108F108F2E03F1218C08FEFC816FC
:1002F000D104E104F10409F008F486C060E970ED6E
:1003000083E090E0A50194011AD369017A0191E09C
:10031000C91AD108E108F10883E001C082E0EFEFDB
:10032000CE16D104E104F10409F008F464C068E4D5
:1003300078EE81E090E0A501940101D369017A0192
:10034000F1E0CF1AD108E108F1083320D9F082E0BA
:1003500038121AC09FEFC916D104E104F10409F064
:1003600008F4D5C064E274EF80E090E0A501940148
:10037000E6D269017A01E1E0CE1AD108E108F1087C
:1003800085E003C083E001C084E0FFEFCF16D10415
:10039000E104F10481F178F162E17AE780E090E034
:1003A000A5019401CCD269017A0181E0C81AD10873
:1003B000E108F108311002C084E001C086E09FEF3F
:1003C000C916D104E104F104B1F0A8F0C980DA80C3
:1003D000EB80FC809AE0F594E794D794C7949A95C3
:1003E000D1F7E1E0CE1AD108E108F108332031F06D
:1003F00087E00BC081E0332011F007C085E095B5A0
:10040000987F982B95BD36C082E09091B100987F7F
:10041000982B9093B1002EC060E072E18AE790E0E3
:10042000A50194018CD269017A01F1E0CF1AD108BB
:10043000E108F108C114D10481E0E806F10480F07C
:1004400068E478EE81E090E0A501940178D269013A
:100450007A0191E0C91AD108E108F10893E001C0DE
:1004600091E0E1E03E1206C080918100887F892BF7
:1004700080938100411451046104710461F0D8013A
:10048000AA0FBB1FA301920176D228EE33E040E011
:1004900050E033D203C02FEF3FEFA901F1E03F1648
:1004A000A1F082E0381619F1311033C0C7BC209397
:1004B0001501309316014093170150931801809154
:1004C0006E00826080936E0024C0D0928900C0923A
:1004D000880020930E0130930F0140931001509338
:1004E000110180916F00826080936F0012C0C092F2
:1004F000B300209307013093080140930901509302
:100500000A018091700082608093700002C084E0D4
:100510007CCF0F900F900F900F90DF91CF911F9194
:100520000F91FF90EF90DF90CF90BF90AF909F9092
:100530008F907F906F905F904F903F9008958130A3
:1005400039F018F0823051F0089510926E0008953D
:1005500080916F008D7F80936F000895809170006F
:100560008D7F8093700081E08093B0008091B10016
:10057000887F84608093B1001092B3000895CF9378
:10058000C82F809100018C1307C0E8E6F0E0849149
:100590009FEF9093000101C08FEFD1DF60E08C2FBF
:1005A000CF914EC11F920F920FB60F9211242F932D
:1005B0003F934F935F936F937F938F939F93AF93EB
:1005C000BF93EF93FF938091070190910801A09151
:1005D0000901B0910A01892B8A2B8B2B51F1909143
:1005E0000401E0910501F091060180818927808353
:1005F0008091070190910801A0910901B0910A0131
:10060000181619061A061B06BCF480910701909172
:100610000801A0910901B0910A010197A109B1094E
:100620008093070190930801A0930901B0930A01F8
:1006300003C080910001A3DFFF91EF91BF91AF91C3
:100640009F918F917F916F915F914F913F912F91EA
:100650000F900FBE0F901F901895089554D0FDDF96
:100660004DDDC0E0D0E050DD2097E9F30E940000AE
:10067000FACF1F920F920FB60F9211242F933F9330
:100680008F939F93AF93BF9380911A0190911B0119
:10069000A0911C01B0911D013091190123E0230F9D
:1006A0002D3720F40196A11DB11D05C026E8230FAA
:1006B0000296A11DB11D2093190180931A019093F8
:1006C0001B01A0931C01B0931D0180911E0190910C
:1006D0001F01A0912001B09121010196A11DB11D22
:1006E00080931E0190931F01A0932001B0932101DC
:1006F000BF91AF919F918F913F912F910F900FBE1E
:100700000F901F901895789484B5826084BD84B54D
:10071000816084BD85B5826085BD85B5816085BDFC
:10072000EEE6F0E0808181608083E1E8F0E0108215
:10073000808182608083808181608083E0E8F0E056
:10074000808181608083E1EBF0E080818460808340
:10075000E0EBF0E0808181608083EAE7F0E0808177
:1007600084608083808182608083808181608083D7
:100770008081806880831092C1000895833081F069
:1007800028F4813099F08230A1F008958730A9F0E3
:100790008830B9F08430D1F4809180008F7D03C01F
:1007A000809180008F7780938000089584B58F7743
:1007B00002C084B58F7D84BD08958091B0008F778D
:1007C00003C08091B0008F7D8093B0000895CF93D7
:1007D000DF9390E0FC01E358FF4F2491FC01EF56BA
:1007E000FF4F8491882349F190E0880F991FFC0105
:1007F000E754FF4FA591B49181559F4FFC01C591DE
:10080000D4919FB7611108C0F8948C9120958223F0
:100810008C93888182230AC0623051F4F8948C91C1
:10082000322F309583238C938881822B888304C058
:10083000F8948C91822B8C939FBFDF91CF91089578
:100840000F931F93CF93DF931F92CDB7DEB7282F5F
:1008500030E0F901E759FF4F8491F901E358FF4F68
:100860001491F901EF56FF4F04910023C1F0882342
:1008700019F0698383DF6981E02FF0E0EE0FFF1F3D
:10088000E155FF4FA591B4919FB7F8948C916111F8
:1008900003C01095812301C0812B8C939FBF0F90C3
:1008A000DF91CF911F910F910895CF93DF93282F60
:1008B00030E0F901E759FF4F8491F901E358FF4F08
:1008C000D491F901EF56FF4FC491CC2389F08111E7
:1008D00055DFEC2FF0E0EE0FFF1FEB55FF4FA5911A
:1008E000B4912C912D2381E090E021F480E002C0AE
:1008F00080E090E0DF91CF910895A1E21A2EAA1B2B
:10090000BB1BFD010DC0AA1FBB1FEE1FFF1FA217BF
:10091000B307E407F50720F0A21BB30BE40BF50BBC
:10092000661F771F881F991F1A9469F76095709545
:10093000809590959B01AC01BD01CF010895052ED6
:1009400097FB16F400940FD057FD05D0D6DF07FCB7
:1009500002D046F408C050954095309521953F4F00
:100960004F4F5F4F089590958095709561957F4F9B
:100970008F4F9F4F089509D0A59F900DB49F900D64
:10098000A49F800D911D11240895A29FB001B39FD3
:10099000C001A39F700D811D1124911DB29F700D88
:0C09A000811D1124911D0895F894FFCFD3
:0209AC00FF004A
:00000001FF
