:100000000C94510C0C94B0300C94E1300C941231DF
:100010000C9443310C9474310C94A5310C94D6316A
:100020000C9407320C94820C0C94820C0C94820C6D
:100030000C94820C0C94820C0C94820C0C94820C08
:100040000C94820C0C94820C0C94820C0C94820CF8
:100050000C94820C0C94820C0C94820C0C94112D38
:100060000C94820C0C94820C0C94820C0C94820CD8
:100070000C94820C0C94820C0C94820C0C94820CC8
:100080000C94820C0C94820C0C94820C0C94820CB8
:100090000C94820C0C94820C0C94820C0C94820CA8
:1000A0000C94820C0C94820C0C94820C0C94820C98
:1000B0000C94820C0C94820C0C94820C0C94820C88
:1000C0000C94820C0C94820C0C94820C0C94820C78
:1000D0000C94820C0C94820C0C94820C0C94820C68
:1000E0000C94820C9E12D812D42CD42CD42C09132C
:1000F0002F13D42C501364138113D42CD42C8E13AF
:10010000CB13D42C06143A14D42CD42CD42C6D1428
:100110009714D42CBC14C614D42CD42CD42C08156D
:100120004A15D42C8A15D515D42CD42C0616241691
:100130004A16D42C6B167D169A16D42CA716DC16EC
:100140001917D42C54178817D42CD42CD42CBB17A3
:10015000E517D42C0A181518D42CD42CD42C5718E5
:100160009918D42CD918FF18D42CD42CD42C30198D
:100170005619D42C78198C19A919D42CB719EF1940
:100180002F1AD42C6F1AA31AD42CD42CD42CD81AEE
:10019000031BD42C2A1B341BD42CD42CD42C791B19
:1001A000BE1BD42C031C211CD42CD42CD42C5A1CA4
:1001B000841CD42CA71CBE1CE21CD42CF01C361DA5
:1001C0007C1DD42CBC1DF11DD42CD42CD42C2C1E65
:1001D0005A1ED42C811E8C1ED42CD42CD42CD71E69
:1001E000221FD42C671F961FD42CD42CC21FE21FB1
:1001F0000220D42C2220D42C3320D42C43207C2049
:10020000B520D42CEE202221D42CD42C50217421C2
:100210009821D42CBC21CC210A22D42CD42C1622F7
:10022000D42CD42C54226F229F22D42CBA22DE222A
:100230000223D42C262336235123D42C61239E233E
:10024000DB23D42C18244D24D42CD42C7F24A72495
:10025000CF24D42CF624FF244025D42C4F259025E0
:10026000D125D42C12263326D42CD42C69269226C0
:10027000BB26D42CDE26EE260F27D42C1F27622780
:10028000A527D42CE7271928D42CD42CD42C5128DA
:100290007E28D42CA328AC28D42CD42CD42CF428FD
:1002A0003C29D42C61298229D42CD42CBA29E329C5
:1002B0000C2AD42C2F2A3F2A622AD42C692AAC2A51
:1002C000F12AD42C332B642BD42CD42CD42C9E2B5D
:1002D000CB2BD42CF02BFA2BD42CD42CD42C442C78
:1002E0008E2C342E372E262E2A2E302E6E2E3B2E7E
:1002F0003F2E452E492E4D2E532E572E5B2E6E2E01
:10030000612E652E692E8A3054305C30683075302D
:100310009630A330000092202D007D5F3A2F8D583B
:10032000AA3B120091149444D555D2258044C001B3
:10033000800489486F7BB274CF79CF73ED13E77374
:10034000E77B4F12EF7BEF73100410441115380E4A
:100350005444CF206A79EF5BAF7B27796E6BE779E6
:10036000E749677BED5B97744F7AAD5B2479FD5B62
:100370006F5B6F7BEF49EF13EF5DE77397246D7B46
:100380006D2BED5FAD5AAD248F782779A4124F7293
:100390002A00C00F0A2A2A2A204150504C452031F9
:1003A000205245504C494341202A2A2A0A284329F1
:1003B000205041554C20524F42534F4E2032303145
:1003C000350A285041554C40524F42534F4E532E00
:1003D0004F52472E554B290A084B204D454D4F5241
:1003E000590A0A004CB0E2AD11D010FBAD10D0603C
:1003F0008A2920F023A9A085E44CC9E3A920C524BB
:10040000B00CA98DA00720C9E3A9A088D0F8A0004E
:10041000B1E2E6E2D002E6E3602015E72076E5A54A
:10042000E2C5E6A5E3E5E7B0EF206DE04C3BE0A5D3
:10043000CA85E2A5CB85E3A54C85E6A54D85E7D029
:10044000DE2015E7206DE5A5E485E2A5E585E3B0AE
:10045000C786D8A9A085FA202AE09885E4202AE05A
:10046000AA202AE0201BE52018E084FAAA10180A26
:1004700010E9A5E4D0032011E08A20C9E3A92520D2
:100480001AE0AA30F585E4C901D005A6D84CCDE321
:100490004884CEA2ED86CFC9519004C6CFE950481A
:1004A000B1CEAA88B1CE10FAE0C0B004E00030F2BC
:1004B000AA68E901D0E924E4300320F8EFB1CE10B6
:1004C00010AA293F85E41869A020C9E388E0C090FC
:1004D000EC200CE068C95DF0A4C928D08AF09E2009
:1004E00018E19550D5789011A02B4CE0E32034EE24
:1004F000D55090F420E4EF95784C23E82034EEF0CA
:10050000E738E901602018E1955018F5784C02E1D0
:10051000A014D0D62018E1E8B55085DA65CE48A8F9
:10052000B57885DB65CF48C4CAE5CBB0E3A5DA6909
:10053000FE85DAA9FFA865DB85DBC8B1DAD9CC0076
:10054000D00F98F0F56891DA99CC008810F7E86040
:10055000EAA080D095A900200AE7A0029478200A9A
:10056000E7A9BF20C9E3A000209EE29478EAEAEA66
:10057000B55185CEB57985CFE8E820BCE1B54ED53B
:1005800076B015F64EA8B1CEB450C4E49004A08362
:10059000D0C191DAF65090E5B4508A91DAE8E8607B
:1005A000B55185DA38E90285E4B57985DBE900855E
:1005B000E5A000B1E418E5DA85E460B55385CEB571
:1005C0007B85CFB55185DAB57985DBE8E8E8A00011
:1005D000947894A0C89450B54DD5750848B54FD5BA
:1005E0007790076828B002565060A8B1CE85E468BD
:1005F000A828B0F3B1DAC5E4D0EDF64FF64DB0D788
:1006000020D7E14C36E72054E206CE26CF900D18D5
:10061000A5E665DA85E6A5E765DB85E788F00906E6
:10062000E626E710E44C7EE7A5E62008E7A5E79577
:10063000A006E590284C6FE7A95585E5205BE2A56B
:10064000CE85DAA5CF85DB2015E784E684E7A5CF44
:100650001009CA06E5206FE72015E7A01060206C9E
:10066000EEF0C5FFC984D00246F8C9DFF011C99B7E
:10067000F006990002C8100AA08B20C4E3A00188EC
:1006800030F62003E0EAEA20C9E3C98DD0D6A9DF1D
:100690009900026020D3EF20CDE346D9A9BE20C93E
:1006A000E3A00084FA24F8100CA6F6A5F7201BE5B9
:1006B000A9A020C9E3A2FF9A209EE284F18A85C8FE
:1006C000A2202091E4A5C8690085E0A900AA6902DA
:1006D00085E1A1E029F0C9B0F0034C83E8A002B1A4
:1006E000E099CD0088D0F8208AE3A5F1E5C8C904D7
:1006F000F0A891E0A5CAF1E085E4A5CBE90085E585
:10070000A5E4C5CCA5E5E5CD9045A5CAF1E085E613
:10071000A5CBE90085E7B1CA91E6E6CAD002E6CBEF
:10072000A5E2C5CAA5E3E5CBB0E0B5E495CACA1019
:10073000F9B1E0A888B1E091E698D0F824F8100962
:10074000B5F775F595F7E8F0F7107E00000000A00A
:1007500014D0712015E7A5E285E6A5E385E72075AD
:10076000E5A5E285E4A5E385E5D00E2015E7206D3B
:10077000E5A5E685E2A5E785E3A000A5CAC5E4A551
:10078000CBE5E5B016A5E4D002C6E5C6E4A5E6D003
:1007900002C6E7C6E6B1E491E690E0A5E685CAA503
:1007A000E785CB6020C9E3C8B900EB30F7C98DD02D
:1007B00006A9008524A98DE6242C12D030FB8D12C9
:1007C000D060A00620D3EE24D930034CB6E24C9A78
:1007D000EB2A69A0DD0002D053B1FE0A300688B1D1
:1007E000FE3029C886C89848A200A1FEAA4A4948F6
:1007F00011FEC9C09001E8C8D0F368A88A4CC0E4D3
:10080000E6F1A6F1F0BC9D000260A6C8A9A0E8DD53
:100810000002B0FAB1FE293F4AD0B6BD0002B006D0
:10082000693FC91A906F694FC90A9069A6FDC8B19E
:10083000FE29E0C920F07AB5A885C8B5D185F18830
:10084000B1FE0A10FA88B0380A3035B45884FFB4C3
:1008500080E810DAF0B3C97EB022CA1004A00610F6
:10086000299480A4FF9458A4C894A8A4F194D129F1
:100870001FA8B920EC0AA8A9762A85FFD001C8C80C
:1008800086FDB1FE3084D005A00E4CE0E3C903B074
:10089000C34AA6C8E8BD00029004C9A2F00AC9DF95
:1008A000F00686C8201CE4C888A6FDB1FE880A10A0
:1008B000CFB45884FFB480E8B1FE299FD0ED85F213
:1008C00085F3984886FDB4D084C918A90A85F9A291
:1008D00000C8B90002290F65F2488A65F3301CAAE6
:1008E00068C6F9D0F285F286F3C4F1D0DEA4C9C897
:1008F00084F1201CE468A8A5F3B0A9A000108B85A2
:10090000F386F2A20486C9A9B085F9A5F2DD63E5F4
:10091000A5F3FD68E5900D85F3A5F2FD63E585F28D
:10092000E6F9D0E7A5F9E8CAF00EC9B0F00285C92A
:1009300024C93004A5FAF00B20C9E324F810049967
:100940000002C8CA10C160010A64E8100000000378
:1009500027A5CA85E6A5CB85E7E8A5E785E5A5E651
:1009600085E4C54CA5E5E54DB026A001B1E4E5CE92
:10097000C8B1E4E5CFB019A000A5E671E485E69022
:1009800003E6E718C8A5CEF1E4C8A5CFF1E4B0CAE4
:100990006046F8A54C85CAA54D85CBA54A85CCA552
:1009A0004B85CDA90085FB85FC85FEA900851D60D2
:1009B000A5D0690585D2A5D1690085D3A5D2C5CAC0
:1009C000A5D3E5CB90034C6BE3A5CE91D0A5CFC8C2
:1009D00091D0A5D2C891D0A5D3C891D0A900C89173
:1009E000D0C891D0A5D285CCA5D385CDA5D0904334
:1009F00085CE84CF20FFE6300EC940F00A4C28E6B1
:100A000006C949D007A94985CF20FFE6A54B85D166
:100A1000A54A85D0C5CCA5D1E5CDB094B1D0C8C587
:100A2000CED006B1D0C5CFF00EC8B1D048C8B1D035
:100A300085D168A000F0DBA5D06903200AE7A5D125
:100A400069009578A5CFC940D01C8898200AE7880E
:100A50009478A003F678C8B1D030F91009A90085C0
:100A6000D485D5A22048A000B1E010180A3081201A
:100A7000FFE62008E720FFE695A024D41001CA2055
:100A8000FFE6B0E6C928D01FA5E0200AE7A5E1955A
:100A90007824D4300BA901200AE7A9009578F678CC
:100AA00020FFE630F9B0D324D41006C904B0D046F4
:100AB000D4A885D6B998E929550A85D768A8B998E0
:100AC000E929AAC5D7B009984820FFE6A5D6909590
:100AD000B910EA85CEB988EA85CF20FCE64CD8E685
:100AE0006CCE00E6E0D002E6E1B1E0609477CA3077
:100AF00003955060A0664CE0E3A000B55085CEB5EC
:100B0000A085CFB578F00E85CFB1CE48C8B1CE85DF
:100B1000CF6885CE88E860204AE72015E79820084E
:100B2000E795A0C5CED006C5CFD002F65060208292
:100B3000E72059E72015E724CF301BCA602015E7CE
:100B4000A5CFD004A5CEF0F3A9FF2008E795A024F7
:100B5000CF30E92015E79838E5CE2008E798E5CFB3
:100B60005023A0001090206FE72015E7A5CE85DA6E
:100B7000A5CF85DB2015E718A5CE65DA2008E7A507
:100B8000CF65DB70DD95A0602015E7A4CEF0058869
:100B9000A5CFF00C60A5240907A8C8A9A020C9E327
:100BA000C424B0F76020B1E72015E7A5CF100AA94B
:100BB000AD20C9E32072E750EF8884D586CFA6CE5A
:100BC000201BE5A6CF602015E7A5CE85F6A5CF852D
:100BD000F78884F8C8A90A85F484F5602015E7A58C
:100BE000CEA4CF10F22015E7B55085DAB57885DBB5
:100BF000A5CE91DAC8A5CF91DAE860686824D5104F
:100C00000520CDE346D560A0FF84D76020CDEFF06E
:100C100007A92585D68884D4E860A5CAA4CBD05A74
:100C2000A041A5FCC908B05EA8E6FCA5E0990001BA
:100C3000A5E1990801A5DC991001A5DD991801200D
:100C400015E7206DE59004A037D03BA5E4A4E58529
:100C5000DC84DD2C11D0304F1869039001C8A2FF4D
:100C600086D99A85E084E12079E624D9104918A034
:100C700000A5DC71DCA4DD9001C8C54CD0D1C44D09
:100C8000D0CDA03446D94CE0E3A04AA5FCF0F7C68D
:100C9000FCA8B90F0185DCB9170185DDBEFF00B9DD
:100CA0000701A88A4C7AE8A06320C4E3A001B1DC64
:100CB000AAC8B1DC201BE54CB3E2C6FBA05BA5FBD8
:100CC000F0C4A8B550D91F01D0F0B578D92701D00C
:100CD000E9B92F0185DAB9370185DB2015E7CA208C
:100CE00093E72001E8CAA4FBB96701959FB95F01AA
:100CF000A0002008E72082E72059E72015E7A4FBA1
:100D0000A5CEF0055937011012B93F0185DCB9476E
:100D10000185DDBE4F01B95701D087C6FB60A054E5
:100D2000A5FBC908F09AE6FBA8B550992001B57853
:100D3000992801602015E7A4FBA5CE995F01A5CFF6
:100D4000996701A901992F01A900993701A5DC999B
:100D50003F01A5DD994701A5E0994F01A5E199570C
:100D600001602015E7A4FBA5CE992F01A5CF4C6605
:100D7000E90000000000000000000000000000ABDF
:100D800003030303030303030303030303033F3FBB
:100D9000C0C03C3C3C3C3C3C3C300FC0CCFF550010
:100DA000ABAB0303FFFF55FFFF55CFCFCFCFCFFF37
:100DB00055C3C3C355F0F0CF56565655FFFF5503E4
:100DC000030303030303FFFFFF03030303030303FF
:100DD00003030303030303030300AB0357030303EA
:100DE0000307030303030303030303030303AAFF2C
:100DF000FFFFFFFF17FFFF195D354BF2EC876FAD6B
:100E0000B7E2F854809685822210334A13060B4AC3
:100E10000140477A00FF23095B16B6CBFFFFFBFFBB
:100E2000FF24F64E595000FF23A36F3623D71C2210
:100E3000C2AEBA23FFFF21301E03C42000C1FFFF52
:100E4000FFA0301EA4D3B6BCAA3A01507ED8D8A5C4
:100E50003CFF165B2803C41D000C4E003E00A6B0EC
:100E600000BCC6578C0127FFFFFFFFFFE8FFFFE82C
:100E7000E0E0E0EFEFE3E3E5E5E7E7EEEFEFE7E7FC
:100E8000E2EFE7E7ECECECE7ECECECE200FFE8E1AA
:100E9000E8E8EFEBFFFFE0FFFFEFEEEFE7E700FF33
:100EA000E8E7E7E7E8E1E2EEEEEEEEE8FFFFE1E19A
:100EB000EFEEE7E8EEE7FFFFFFEEE1EFE7E8EFEF49
:100EC000EBE9E8E9E9E8E8E8E8FFE8E8E8EEE7E880
:100ED000EFEFEEEFEEEFEEEEEFEEEEEEE1E8E8FF35
:100EE000FFFFFFFFBEB3B2B7B637D4CFCFA0CCCF92
:100EF000CE47D3D9CED4C158CDC5CDA0C6D5CC4CC4
:100F0000D4CFCFA0CDC1CED9A0D0C1D2C5CE53D3DE
:100F1000D4D2C9CE47CECFA0C5CE44C2C1C4A0C290
:100F2000D2C1CEC348BEB8A0C7CFD3D5C253C2C169
:100F3000C4A0D2C5D4D5D24EBEB8A0C6CFD253C25B
:100F4000C1C4A0CEC5D854D3D4CFD0D0C5C4A0C1BD
:100F5000D420AAAAAA20A0C5D2D20DBEB2B535D23D
:100F6000C1CEC745C4C94DD3D4D2A0CFD6C64CDC60
:100F70000DD2C5D4D9D0C5A0CCC9CEC58D3F46D9D8
:100F800090034CC3E8A6CF9AA6CEA08DD002A0991C
:100F900020C4E386CEBA86CFA0FE84D9C884C820F8
:100FA00099E284F1A220A9302091E4E6D9A6CEA44A
:100FB000C80A85CEC8B90002C974F0D249B0C90ABE
:100FC000B0F0C8C884C8B9000248B9FF01A0002029
:100FD00008E76895A0A5CEC9C7D003206FE74C01EC
:100FE000E8FFFFFF502013ECD015200BECD01020B1
:100FF00082E7206FE750032082E72059E756504CE4
:1010000036E7FFFFC1FF7FD1CCC7CFCEC59A988B03
:10101000969593BFB2322D2BBCB0ACBE358E61FF1E
:10102000FFFFDDFB20C9EF154F100520C9EF354F3D
:10103000955010CB4CC9EF40608D608B007E8C3397
:1010400000006003BF12004089C9479D17689D0AD0
:101050000040608D608B007E8C3C00006003BF1BF5
:101060004B67B4A1078C07AEA9ACA8678C07B4AFD7
:10107000ACB0679DB2AFACAFA3678C07A5ABAFB008
:10108000F4AEA9B2B07F0E27B4AEA9B2B07F0E28DD
:10109000B4AEA9B2B06407A6A967AFB4AFA778B4DD
:1010A000A5AC787F02ADA5B267A2B5B3AFA7EEB28B
:1010B000B5B4A5B27E8C39B4B8A5AE67B0A5B4B34B
:1010C00027AFB4079D19B2AFA67F0537B4B5B0AE50
:1010D000A97F0528B4B5B0AEA97F052AB4B5B0AED6
:1010E000A9E4AEA500FFFF47A2A1B47F0D30ADA9D2
:1010F000A47F0D23ADA9A467ACACA1A3004080C020
:10110000C18000478C688CDB679B689B508C638C2C
:101110007F01510788298480C4805771078814EDA6
:10112000A5ADAFACEDA5ADA9A8F2AFACAFA371086A
:1011300088AEA5AC688308689D087107886076B49E
:10114000AFAE768D768B51078819B8A4AEB2F2B3E4
:10115000B5F3A2A1EEA7B3E4AEB2EBA5A5B05107DB
:10116000883981C14F7F0F2F0051068829C20C8218
:10117000578C6A8C42AEA5A8B460AEA5A8B44F7EC9
:101180001E358C27510788098BFEE4AFADF2AFE422
:10119000AEA1DCDE9CDD9CDEDD9EC3DDCFCACDCB07
:1011A00000479DADA5ADAFAC769DADA5ADA9A8E6B8
:1011B000A6AF608C20AFB4B5A1F2ACA3F2A3B3602C
:1011C0008C20ACA5A4EEB5B260AEB5B2F4B3A9ACB8
:1011D000608C20B4B3A9AC7A7E9A2220006003BF51
:1011E0006003BF1F20B1E7E8E8B54F85DAB5778522
:1011F000DBB44E98D576B009B1DA20C9E3C84C0FFC
:10120000EEA9FF85D560E8A900957895A0B5773857
:10121000F54F95504C23E8FF2015E7A5CFD028A522
:10122000CE602034EEA4C8C930B021C028B01D6003
:10123000EAEA2034EE60EA8AA201B4CE944CB448C3
:1012400094CACAF0F5AA60A0774CE0E3A07BD0F97D
:101250002054E2A5DAD007A5DBD0034C7EE706CE0A
:1012600026CF26E626E7A5E6C5DAA5E7E5DB900A60
:1012700085E7A5E6E5DA85E6E6CE88D0E160FFFF02
:10128000FFFFFFFF2015E76CCE00A54CD002C64D36
:10129000C64CA548D002C649C648A000B14C9148EA
:1012A000A5CAC54CA5CBE54D90E04C53EEC928B07E
:1012B0009BA8A5C860EAEA98AAA06E20C4E38AA801
:1012C00020C4E3A0724CC4E32015E706CE26CF303D
:1012D000FAB0DCD004C5CEB0D6602015E7B1CE940C
:1012E0009F4C08E72034EEA5CE482015E76891CE44
:1012F00060FFFFFF206CEEA5CE85E6A5CF85E74C0D
:1013000044E220E4EE4C34E120E4EEB478B55069D8
:10131000FEB0018885DA84DB1865CE95509865CFDC
:101320009578A000B550D1DAC8B578F1DAB0804C24
:1013300023E82015E7A54E2008E7A54FD004C54EA9
:101340006900297F854F95A0A011A54F0A18694013
:101350000A264E264F88D0F2A5CE2008E7A5CF95C5
:10136000A04C7AE22015E7A4CEC44CA5CFE54D9061
:101370001F8448A5CF85494CB6EE2015E7A4CEC4FE
:10138000CAA5CFE5CBB009844AA5CF854B4CB7E5BC
:101390004CCBEEEAEAEAEA20C9EF2071E14CBFEF5C
:1013A0002003EEA9FF85C8A9748D0002602036E7EE
:1013B000E82036E7B55060A900854A854CA9088524
:1013C0004BA910854D4CADE5D578D001184C02E104
:1013D00020B7E54C36E820B7E54C5BE8E080D0016B
:1013E000884C0CE0A9AA20EFFFA98D20EFFFA0FFF9
:1013F000C8AD11D010FBAD10D099000220EFFFC98D
:101400009BF0E1C98DD0E9A2FFA90085248525853F
:10141000268527E8BD0002C9D2F056C9D7F035C9E4
:10142000AEF027C98DF020C9A0F0E849B0C90A90F4
:10143000066988C9FA90AD0A0A0A0AA0040A262495
:10144000262588D0F8F0CC4C1AFFA5248526A525A2
:101450008527B0BFA94020CCC188A200A126A21038
:101460000A20DBC1D0FA20F1C1A01E90ECA628B062
:101470009820BCC1A91620CCC120BCC1A01F20BF90
:10148000C1B0F920BFC1A03AA2084820BCC1682A57
:10149000A039CAD0F5812620F1C1A03590EAB0CD9F
:1014A00020BFC188AD81C0C529F0F88529C0806002
:1014B0008628A04220E0C1D0F969FEB0F5A01E2028
:1014C000E0C1A02C88D0FD9005A02F88D0FDBC00E5
:1014D000C0A029CA60A526C524A527E525E626D0F3
:1014E00002E62760D858A07F8C12D0A9A78D11D012
:1014F0008D13D0C9DFF013C99BF003C8100FA9DC0E
:1015000020EFFFA98D20EFFFA0018830F6AD11D0AC
:1015100010FBAD10D099000220EFFFC98DD0D4A0F0
:10152000FFA900AA0A852BC8B90002C98DF0D4C949
:10153000AE90F4F0F0C9BAF0EBC9D2F03B86288641
:1015400029842AB9000249B0C90A90066988C9FAF3
:1015500090110A0A0A0AA2040A26282629CAD0F8E3
:10156000C8D0E0C42AF097242B5010A5288126E685
:1015700026D0B5E6274C44FF6C2400302BA202B5E0
:101580002795259523CAD0F7D014A98D20EFFFA564
:101590002520DCFFA52420DCFFA9BA20EFFFA9A0AD
:1015A00020EFFFA12420DCFF862BA524C528A5253C
:1015B000E529B0C1E624D002E625A524290710C8F4
:1015C000484A4A4A4A20E5FF68290F09B0C9BA903B
:1015D0000269062C12D030FB8D12D0600000000F83
:1015E00000FF000000000A0B02090C0D0E080703A3
:1015F00004010000000000000000000000000000E6
:1016000000000000000000000000000000000000DA
:101610001211100000000000000000000000000097
:10162000000000000000000000000102102020085F
:10163000081020401020408002010201080402012D
:10164000010204081020408080402010080402019C
:1016500080040201804020100804020108040201F5
:10166000010204081020408001020408102040807C
:1016700005050505070508080808020202020A0A0E
:10168000080804040404010101010101010103032C
:10169000030303030303040707070C0C0C0C0C0CD7
:1016A0000C0C0202020206060606060606060B0BD4
:1016B0000B0B0B0B0B0B0000200023002600290056
:1016C0002C002F0032000001000003010601090177
:1016D00000002200250028002B002E0031003400DD
:1016E00002010000050108010B0100002100240097
:1016F00027002A002D003000330001010000040102
:1017000007010A01000000000000000000000000C6
:1017100000096000000000000071310000007A73D1
:1017200061773200006378646534330000207666A8
:1017300074723500006E62686779360000006D6A69
:1017400075373800002C6B696F303900002E2F6C14
:101750003B702D00000027005B3D000000000D5D88
:10176000005C00000000000000007F000031003439
:1017700037000000302E323536381B00002B332D59
:101780002A390000000000000000000000000000F6
:10179000000000000000000000097E0000000000C2
:1017A0000051210000005A53415740000043584463
:1017B000452423000020564654522500004E42483E
:1017C00047595E0000004D4A55262A00003C4B490F
:1017D0004F292800003E3F4C3A505F000000220095
:1017E0007B2B000000000D7D007C0000000000004D
:1017F00000007F000031003437000000302E323509
:1018000036381B00002B332D2A3900000000000061
:1018100000000000000000000000000000000000C8
:1018200000000000000000000000000000000000B8
:1018300000000000000000000000000000000000A8
:101840000000000000000000000000000000000098
:101850000000000000000000000000000000000088
:101860000000000000000000000000000000000078
:101870000000000000000000000000000000000068
:101880000000000000000000000000000000000058
:101890000000000000000000000000000000A00E9A
:1018A000241011241FBECFEFD1E2DEBFCDBF00E078
:1018B0000CBF12E0A0E0B2E0E8E6F7E600E00BBF04
:1018C00002C007900D92AE34B107D9F72AE1AEE419
:1018D000B2E001C01D92AB3DB207E1F718E1C2EAE8
:1018E000D8E100E006C022970109FE010BBF0E946B
:1018F0007332CE39D10780E00807A9F70E94042D82
:101900000C94B2330C940000FC0122836383448363
:101910000895CF93DF93FC01438150E0FA01E05931
:10192000F94EE491F0E0EE0FFF1FE053F94EA59160
:10193000B491FC01248130E0F901E059F94E849121
:1019400090E0880F991F8053994EFC01C591D49166
:10195000FA01E65DF94E4491F901E65DF94E2491F4
:101960003FB7F89488E0722F7095542F5095988166
:1019700067FF02C0922B01C0972398839C91942B00
:101980009C939C9195239C93660F815081F73FBF58
:10199000DF91CF9108951F93CF93DF93EC01142F24
:1019A0008A81882389F06EBD0DB407FEFDCF812F9B
:1019B000807F8EBD0DB407FEFDCF1295107F1EBD3A
:1019C0000DB407FEFDCF0EC0CE01A3DF612F607FF7
:1019D000CE019FDF612F6295607FCE01DF91CF91B5
:1019E0001F9197CFDF91CF911F910895462F68EFF8
:1019F000D2CFCF93DF93EC0160E08B810E94A82EC1
:101A000060E08C810E94A82E61E08B810E946F2E85
:101A100061E08C810E946F2E8A81882311F081E51C
:101A20008CBD188260E2CE01E1DF61E070E080E011
:101A300090E00E948A2D60E2CE01D8DF80E390E042
:101A40000E94AF2D66E0CE01D1DF80E390E00E94DE
:101A5000AF2D198281E088836CE0CE01C7DF80E37F
:101A600090E0DF91CF910C94AF2D462F6AEF93CF8A
:101A7000CF93DF93EC01898181110EC08881882387
:101A800011F066E201C064E2CE01B0DF80E390E0D5
:101A90000E94AF2D81E08983DF91CF910895EF926D
:101AA000FF920F931F93CF93DF931F92CDB7DEB7B3
:101AB0007C018B01FC018081882301F1C7014983EE
:101AC000D7DF602F6F716068C70190DF4981642F95
:101AD0006068C80180729927969587959695879535
:101AE000682BC70183DF80E390E00F90DF91CF91F7
:101AF0001F910F91FF90EF900C94AF2D0F90DF91FD
:101B0000CF911F910F91FF90EF9008950F931F9326
:101B1000CF93DF931F921F92CDB7DEB78C01842F36
:101B2000462F50E0682F70E0C8012A833983B7DF61
:101B30003981632FC80199DF2A81622FC80195DF9F
:101B40008AE090E00F900F90DF91CF911F910F915D
:101B50000C94AF2DFF920F931F93CF93DF938C01C3
:101B6000C0E0D0E040E050E0BE01C80198DFF8E0FE
:101B7000FF2E60E0C80179DF60E0C80176DF8AE00F
:101B800090E00E94AF2DFA94A1F72196C034D105C0
:101B900049F7DF91CF911F910F91FF9008957F92A8
:101BA0008F929F92AF92BF92CF92DF92EF92FF926D
:101BB0000F931F93CF93DF936C01962EF9018081D1
:101BC00090E0880F991F8C529D4FAA2797FDA095F2
:101BD000BA2FABBFFC01C791D691F901818190E08A
:101BE000880F991F8C529D4FAA2797FDA095BA2F59
:101BF000ABBFFC01E790F690F901828190E0880F7D
:101C0000991F8C529D4FAA2797FDA095BA2FABBF65
:101C1000FC01A790B690F901038110E0000F111F9D
:101C20000C521D4F222717FD2095322F2BBFF80194
:101C30000791169195E0892E840E9E012770332717
:101C4000322F22273295307FC70187709927982F2E
:101C50008827282B392BC80187709927282B392BE7
:101C600077247394740EC5018770992754E0880F08
:101C7000991F5A95E1F7282B392B692DC60146DFAC
:101C800063E0D695C7956A95E1F773E0F694E7941B
:101C90007A95E1F7E3E0B694A794EA95E1F7F3E0EB
:101CA00016950795FA95E1F7781411F0472DC5CFF1
:101CB000DF91CF911F910F91FF90EF90DF90CF9028
:101CC000BF90AF909F908F907F9008950E94F22FC9
:101CD0008F3709F488E080934F0280914F028A3059
:101CE00029F481E08093500210924F020895CF931F
:101CF000C82F80915102811109C044E057E163E08F
:101D000082E00E94163081E080935102CC2319F0CA
:101D1000C13051F012C00E94DF2F8111D7DF8091B6
:101D20004F0210924F020AC00E94DF2F8111CEDFB6
:101D3000809150021092500201C080E0CF9108952E
:101D40008EE492E00C941530242F90915A02E09189
:101D50005702F0915802E80FF11D699FE00DF11D47
:101D600011244083462F682F82E01CC1E091570266
:101D7000F0915802309781F090915A02891760F4DF
:101D800020915902621740F4E80FF11D699FE00DA0
:101D9000F11D1124808108958FE30895FF920F9320
:101DA0001F93CF93DF93182F062F80915B02811131
:101DB00031C081E080935B0220E040E060E080E0A1
:101DC000F1D080935A0220E040E060E081E0EAD068
:101DD00080935902C0915A028C9FE0011124CE01D8
:101DE0000E948B328093570290935802FC0120E0AE
:101DF00030E080E22C173D0721F081932F5F3F4FA9
:101E0000F9CF109255021092560220E040E060E0B7
:101E100083E0C8D0113009F481C038F0123009F4E1
:101E20008EC01E3F09F493C0B7C0402F6091550289
:101E30008091560289DF8091560290E00196609170
:101E40005A0270E00E94383280935602892B09F0C2
:101E5000A3C0809155028F5F8093550290915902E3
:101E600089139AC010E090915A02191730F56091C9
:101E70005902462F50E041505109209157023091AC
:101E8000580280E0A92FB0E0210F311DE82FF0E0CB
:101E9000E417F50764F4F901899FE00DF11D1124A1
:101EA000EF01CA0FDB1F788170838F5FEFCF615026
:101EB00040E2812F49DF1F5FD6CF20E040E060E0A5
:101EC00084E070D0F82E811102C0FF24F39410E05A
:101ED00080915A021817E0F400E0C12FD0E0809101
:101EE0005902081798F480915A02E0915702F09134
:101EF0005802EC0FFD1F089FE00DF11D11242081F9
:101F0000402F612F82E04ED00F5FE9CF1F0DE0CF51
:101F1000809159028150809355023EC040E2609109
:101F200055028091560210DF809156028823A1F15C
:101F300081508093560240E26091550227C0809103
:101F40005602882349F160E280E028DFF8CFCBD049
:101F5000209152023091530228173907E8F4C3D078
:101F60008C509E4F909353028093520281E0909147
:101F70005402911180E080935402882311F040E4D0
:101F800001C040E26091550280915602DF91CF91ED
:101F90001F910F91FF90D8CEDF91CF911F910F919C
:101FA000FF900895FF920F931F93CF93DF93C82F55
:101FB000D62F042F2091620230916302232B91F4DB
:101FC00061E086E30E946F2E61E086E30E94A82E06
:101FD00061E084E692E00DDD21E030E030936302C1
:101FE00020936202C13049F040F1C23041F0C33069
:101FF00011F584E692E0AEDD1EC08AE01FC0DC7FF2
:10200000FD2ECCE5D2E010E0602F812F8F0DAEDEEB
:1020100089931F5F1430C1F7402F440F400F440FC6
:102020006F2D70E075956795759567952CE532E095
:1020300084E692E0B4DD80E001C080E2DF91CF91E0
:102040001F910F91FF90089520E047E368E384E635
:1020500092E05ACC04C2CF92DF92EF92FF92CF93DC
:10206000DF9300D01F92CDB7DEB746D2282F30E0E5
:1020700040E050E0211531054105510549F1298322
:102080003A834B835C830E945B2DC0906902D090A1
:102090006A02E0906B02F0906C0229813A814B81D8
:1020A0005C816C157D058E059F0548F368EE73E035
:1020B00080E090E00E944B322C0D3D1D4E1D5F1DB7
:1020C0002093690230936A0240936B0250936C0232
:1020D0000F900F900F900F90DF91CF91FF90EF90A6
:1020E000DF90CF9008950E945B2DCB010895982F2B
:1020F000917090937E1A982F92709093781A82FB29
:10210000992790F990937D1A83FB992790F99093E2
:102110007B1A84FB992790F990937C1A86FB2227DF
:1021200020F920937A1A80788093791A0895209163
:102130007D1A44E0249F9001112480917B1A48E08D
:10214000849FC0011124822B90917E1A892B2091AB
:102150007C1A90E1299F90011124822B20917A1AF8
:1021600040E4249F90011124822B9091781A9923A6
:1021700011F0806201C082629091791A97FD8068A7
:102180000895282F30E0220F232F221F330B209396
:102190007E1A880F8093781A8093791A0895982F61
:1021A000917090937E1A86958093781A8093791A0D
:1021B0000895282F30E0A901440F551F80917E1A01
:1021C000842B8093781A8093791A220F232F221F51
:1021D000330B20937E1A0895982F969520917E1A9E
:1021E00040E8249F90011124922B9093781A9093A9
:1021F000791A817080937E1A892F08959091821A9E
:10220000982321E009F020E02093781A982F907805
:102210009093791A86FB882780F980937A1A08951B
:1022200090917E1AE82FF0E0262F30E0442329F128
:102230006F70690F8F70680F6A3008F06A5FA4E0F2
:10224000F595E795AA95E1F7B4E035952795BA9508
:10225000E1F7E20F91E0603108F490E0E90FEA3035
:1022600008F0EA5F80E1E89F900111246F70262B4F
:1022700081E0E031C0F480E016C02E0F3F1F290F2F
:10228000311D682767FD0AC0C9018E279F27880F67
:10229000892F881F990B9195817001C080E08093F0
:1022A0007A1A832F817080937E1A822F089550911D
:1022B0007E1AE82FF0E0442321F18F70962F9F7053
:1022C000891B91E09527891B84FD865044E0F59594
:1022D000E7954A95E1F762956F70E61B84FB9927B5
:1022E00090F9E91BE4FDE65090E1E99F900111248B
:1022F0008F70282B81E0E03108F080E080937E1A17
:102300001BC0962F90959F01290F311D250F311D60
:10231000932F917090937E1A862787FF0AC0C90178
:102320008E279F27880F892F881F990B9195817081
:1023300001C080E080937A1A822F0895811528E1E8
:10234000920728F4FC01EA58FD4F6083089582311A
:10235000904DB1F46F778FE9860F8A3108F460529F
:1023600080EE860F8F3310F480E009C06F3519F4CA
:1023700060E081E004C06D3019F460E082E00ECDD1
:102380000895CF93DF93EC01C11588E1D80728F4B5
:10239000FE01EA58FD4F80815FC0CE01892F992749
:1023A00082958F700E9761F4AE015F704C515C4F57
:1023B000662757FD6095762F6BBFFA0187914CC059
:1023C000C1159FEFD90728F0CE0199278C519B4E5C
:1023D00009C08D2F9927813C910561F4CE01992781
:1023E0008C519C4EAA2797FDA095BA2FABBFFC013C
:1023F000879132C0CE018051904D029728F560E060
:1024000080E075DC882399F09FE9980F9A3110F4E9
:1024100080520BC0883041F0803238F48D3029F082
:102420008B3119F080E001C08FE580936E028091BE
:102430006E02C031D04D21F410926E0280680CC043
:10244000882349F080E808C081E0C231D04D09F40A
:1024500080E0819501C080E0DF91CF910895CF9316
:10246000DF9360E08FEF9ADC60E08FEF40DC81E08B
:1024700080937D1A80917E1A817080937E1A80915C
:102480007A1A817080937A1A80917C1A8170809375
:102490007C1A80917B1A817080937B1A8CEF9FEF5E
:1024A00070DFC82F8DEF9FEF6CDF2C2F30E0382BC3
:1024B0003093771A2093761AD0E08D2F90E08C56C7
:1024C0009C4FAA2797FDA095BA2FABBFFC01C791DF
:1024D000CA3019F460E082E008C0C83011F466E345
:1024E00003C0C03218F06C2F80E058DCDF5FC111F0
:1024F000E4CFDF91CF9108950F931F93CF93DF9394
:102500001F92CDB7DEB78091761A9091771A9C0111
:102510002F5F3F4F3093771A2093761A32DF90E087
:102520008F3F910510F00C94D42CFC01EE58FF4F16
:1025300020917402309175020C946D32295F3F4FE7
:1025400030937502209374028091761A9091771AD5
:1025500001969093771A8093761A10917F1AA12F83
:10256000B0E0AA58BC4F9C93AFEFA10FB0E0AA58BF
:10257000BC4F8C938DEF810F80937F1AD8DD125062
:10258000E12FF0E0EA58FC4F80838EEF9FEFF9DEF9
:10259000182F8FEF9FEFF5DE212F30E0382B30938F
:1025A000771A2093761A81E080937D1A0C94D42CAC
:1025B000295F3F4F30937502209374028091761A01
:1025C0009091771A9C012F5F3F4F3093771A209399
:1025D000761AD7DEE091811AE80FE0937302F0E0FB
:1025E000EA58FD4F2081818190E0982F8827820F43
:1025F000911D90937202809371021091821AC1DE34
:10260000812B8093821A8093781A8093791A0C9484
:10261000D42C2D5F3F4F309375022093740280912C
:10262000761A9091771A9C012F5F3F4F3093771A5B
:102630002093761AA6DE90E0909372028093710246
:10264000FC01EA58FD4F80819091821A892B80937A
:10265000821A8093781A8093791A0C94D42C2B5F69
:102660003F4F30937502209374028091761A9091B7
:10267000771A9C012F5F3F4F3093771A2093761A79
:1026800080DE90E090937202809371028C010A5870
:102690001D4FF801808175DDF80180830C94D42CE6
:1026A0002D5F3F4F309375022093740210917F1A73
:1026B0008FEF810F80937F1A3ADDE12FF0E0EA5827
:1026C000FC4F80830C94D42C2E5F3F4F30937502C7
:1026D000209374021091821A8091761A9091771A41
:1026E0009C012F5F3F4F3093771A2093761A49DE73
:1026F000812B8093821A8093781A8093791A0C9494
:10270000D42C2E5F3F4F309375022093740280913A
:10271000821A37DD8093821A0C94D42C2C5F3F4FA1
:1027200030937502209374028091761A9091771AF3
:102730009C012F5F3F4F3093771A2093761A21DE4A
:1027400090E09093700280936F028091761A90913E
:10275000771A9C012F5F3F4F3093771A2093761A98
:1027600010DE20916F0230917002382B309370028E
:1027700020936F0230937202209371021091821A9B
:10278000C901FFDD812B8093821A8093781A809390
:10279000791A0C94D42C2A5F3F4F30937502209302
:1027A00074028091761A9091771A9C012F5F3F4FA7
:1027B0003093771A2093761AE4DD90E090937002BC
:1027C00080936F028091761A9091771A9C012F5F07
:1027D0003F4F3093771A2093761AD3DD20916F0202
:1027E00030917002382B3093700220936F02309337
:1027F000720220937102C901C4DDC3DC682F80918D
:102800007102909172029ADD0C94D42C2E5F3F4F8E
:1028100030937502209374028091761A9091771A02
:102820009C012F5F3F4F3093771A2093761AA9DDD2
:10283000809373029091791A97FF02C00C94D42C64
:102840004091761A5091771A282F30E087FF0AC0FE
:10285000CA019A95820F931F9093771A8093761AE4
:102860000C94D42C240F351F3093771A2093761AAA
:102870000C94D42C2A5F3F4F30937502209374023E
:102880008091761A9091771A9C012F5F3F4F309379
:10289000771A2093761A75DD80937302E82FF0E0A3
:1028A000EA58FD4F2081818190E0982F8827820F80
:1028B000911D2091801A820F911D90937202809336
:1028C00071021091821A5DDD812B8093821A8093B0
:1028D000781A8093791A0C94D42C2C5F3F4F309344
:1028E0007502209374028091761A9091771A9C0158
:1028F0002F5F3F4F3093771A2093761A42DD9091E5
:10290000811A980F892F90E0909372028093710240
:10291000FC01EA58FD4F80819091821A892B8093A7
:10292000821A8093781A8093791A0C94D42C2A5F97
:102930003F4F30937502209374028091761A9091E4
:10294000771A9C012F5F3F4F3093771A2093761AA6
:1029500018DD9091811A980F892F90E09093720260
:10296000809371028C010A581D4FF801808109DCA7
:10297000F80180830C94D42C2E5F3F4F3093750266
:102980002093740210927E1A0C94D42C2C5F3F4F2B
:1029900030937502209374028091761A9091771A81
:1029A0009C012F5F3F4F3093771A2093761AE9DC12
:1029B00090E09093700280936F028091761A9091CC
:1029C000771A9C012F5F3F4F3093771A2093761A26
:1029D000D8DC20916F0230917002382B3093700256
:1029E00020936F028091801AA901480F511DCA01DE
:1029F00050937202409371021091821AC2DC812BB3
:102A00008093821A8093781A8093791A0C94D42C2C
:102A10002C5F3F4F30937502209374028091761A99
:102A20009091771A9C012F5F3F4F3093771A209334
:102A3000761AA7DC90E09093700280936F028091E9
:102A4000761A9091771A9C012F5F3F4F3093771A37
:102A50002093761A96DC20916F0230917002382B09
:102A60003093700220936F028091811AF901E80F70
:102A7000F11DCF01F0937202E09371021091821A5E
:102A800080DC812B8093821A8093781A8093791A44
:102A90000C94D42C2A5F3F4F30937502209374021C
:102AA0008091761A9091771A9C012F5F3F4F309357
:102AB000771A2093761A65DC90E0909370028093E9
:102AC0006F028091761A9091771A9C012F5F3F4F89
:102AD0003093771A2093761A54DC20916F0230914C
:102AE0007002382B3093700220936F028091811A0C
:102AF000A901480F511DCA015093720240937102FF
:102B000040DC3FDB682F809171029091720216DCED
:102B10000C94D42C2A5F3F4F30937502209374029B
:102B20008091761A9091771A9C012F5F3F4F3093D6
:102B3000771A2093761A25DC90E0909370028093A8
:102B40006F028091761A9091771A9C012F5F3F4F08
:102B50003093771A2093761A14DC20916F0230910B
:102B60007002382B3093700220936F023093720200
:102B7000209371028091761A9091771A0197E091D3
:102B80007F1AAE2FB0E0AA58BC4F9C939EEF9E0FC9
:102B900090937F1AE150F0E0EA58FC4F8083309325
:102BA000771A2093761A0C94D42C295F3F4F3093D8
:102BB0007502209374028091761A9091771A9C0185
:102BC0002F5F3F4F3093771A2093761ADADBE0912C
:102BD000811AE80FE0937302F0E0EA58FD4F20817C
:102BE000818190E0982F8827820F911D9093720227
:102BF000809371021091821AC4DB81238093821A20
:102C00008093781A8093791A0C94D42C2E5F3F4FBE
:102C100030937502209374028091761A9091771AFE
:102C20009C012F5F3F4F3093771A2093761AA9DBD0
:102C300090E09093720280937102FC01EA58FD4F7C
:102C40008081DCDA0C94D42C2D5F3F4F30937502D9
:102C5000209374028091761A9091771A9C012F5FCD
:102C60003F4F3093771A2093761A8BDB90E0909346
:102C7000720280937102FC01EA58FD4F80819091AD
:102C8000821A89238093821A8093781A8093791A02
:102C90000C94D42C2D5F3F4F309375022093740217
:102CA0008091761A9091771A9C012F5F3F4F309355
:102CB000771A2093761A65DB90E0909372028093E6
:102CC00071028C010A581D4FF801808172DAF801F7
:102CD00080830C94D42C2C5F3F4F3093750220934B
:102CE0007402E0917F1AEF5FE0937F1AF0E0EA58F8
:102CF000FC4F8081FCD90C94D42C2E5F3F4F309335
:102D00007502209374021091821A8091761A909124
:102D1000771A9C012F5F3F4F3093771A2093761AD2
:102D200030DB81238093821A8093781A8093791AFA
:102D30000C94D42C2E5F3F4F309375022093740275
:102D40008091821A36DA8093821A0C94D42C2D5FEB
:102D50003F4F30937502209374028091761A9091C0
:102D6000771A9C012F5F3F4F3093771A2093761A82
:102D700008DB90E09093700280936F028091761A46
:102D80009091771A9C012F5F3F4F3093771A2093D1
:102D9000761AF7DA20916F0230917002382B309357
:102DA000700220936F023093720220937102C90166
:102DB000E8DA24DA0C94D42C2C5F3F4F3093750260
:102DC000209374028091761A9091771A9C012F5F5C
:102DD0003F4F3093771A2093761AD3DA90E090938E
:102DE000700280936F028091761A9091771A9C01FD
:102DF0002F5F3F4F3093771A2093761AC2DA2091D3
:102E00006F0230917002382B3093700220936F0262
:102E100030937202209371021091821AC901B1DAC3
:102E200081238093821A8093781A8093791A0C9464
:102E3000D42C2C5F3F4F3093750220937402809105
:102E4000761A9091771A9C012F5F3F4F3093771A33
:102E50002093761A96DA90E09093700280936F0236
:102E60008091761A9091771A9C012F5F3F4F309393
:102E7000771A2093761A85DA20916F0230917002CA
:102E8000382B3093700220936F023093720220939C
:102E90007102C90176DA8DD9682F80917102909103
:102EA00072024CDA0C94D42C2E5F3F4F3093750293
:102EB000209374028091761A9091771A9C012F5F6B
:102EC0003F4F3093771A2093761A5BDA8093730220
:102ED0009091791A97FD02C00C94D42C4091761AE7
:102EE0005091771A282F30E087FF0AC0CA019A95BF
:102EF000820F931F9093771A8093761A0C94D42C98
:102F0000240F351F3093771A2093761A0C94D42C03
:102F10002A5F3F4F30937502209374028091761A96
:102F20009091771A9C012F5F3F4F3093771A20932F
:102F3000761A27DA80937302E82FF0E0EA58FD4F03
:102F40002081818190E0982F8827820F911D209108
:102F5000801A820F911D90937202809371021091DA
:102F6000821A0FDA81238093821A8093781A8093D1
:102F7000791A0C94D42C2C5F3F4F30937502209318
:102F800074028091761A9091771A9C012F5F3F4FBF
:102F90003093771A2093761AF4D99091811A980F6A
:102FA000892F90E09093720280937102FC01EA589D
:102FB000FD4F80819091821A89238093821A809399
:102FC000781A8093791A0C94D42C2C5F3F4F30934D
:102FD0007502209374028091761A9091771A9C0161
:102FE0002F5F3F4F3093771A2093761ACAD990916A
:102FF000811A980F892F90E090937202809371024A
:103000008C010A581D4FF8018081D3D8F8018083C4
:103010000C94D42C2E5F3F4F309375022093740292
:1030200081E080937E1A0C94D42C2C5F3F4F309318
:103030007502209374028091761A9091771A9C0100
:103040002F5F3F4F3093771A2093761A9AD990E0EA
:103050009093700280936F028091761A9091771A04
:103060009C012F5F3F4F3093771A2093761A89D9AE
:1030700020916F0230917002382B309370022093B0
:103080006F028091801AA901480F511DCA01509307
:103090007202409371021091821A73D98123809336
:1030A000821A8093781A8093791A0C94D42C2C5F0E
:1030B0003F4F30937502209374028091761A90915D
:1030C000771A9C012F5F3F4F3093771A2093761A1F
:1030D00058D990E09093700280936F028091761A95
:1030E0009091771A9C012F5F3F4F3093771A20936E
:1030F000761A47D920916F0230917002382B3093A5
:10310000700220936F028091811AF901E80FF11D7E
:10311000CF01F0937202E09371021091821A31D9BB
:1031200081238093821A8093781A8093791A0C9461
:10313000D42C2C5F3F4F3093750220937402809102
:10314000761A9091771A9C012F5F3F4F3093771A30
:103150002093761A16D990E09093700280936F02B4
:103160008091761A9091771A9C012F5F3F4F309390
:10317000771A2093761A05D920916F023091700248
:10318000382B3093700220936F028091811AA9012D
:10319000480F511DCA015093720240937102F1D839
:1031A00008D8682F8091710290917202C7D80C9450
:1031B000D42C2A5F3F4F30937502209374021091F4
:1031C0007F1AA1E0A10FB0E0AA58BC4F8C910E94D9
:1031D0007710A2E0A10FB0E0AA58BC4F8C911D5F00
:1031E00010937F1AE12FF0E0EA58FC4F208190E025
:1031F000922B9093771A8093761A0C94D42C295F93
:103200003F4F30937502209374028091761A90910B
:10321000771A9C012F5F3F4F3093771A2093761ACD
:10322000B0D8E091811AE80FE0937302F0E0EA5819
:10323000FD4F2081818190E0982F8827820F911D7A
:1032400090937202809371021091821A9AD881270A
:103250008093821A8093781A8093791A0C94D42CD4
:103260002D5F3F4F30937502209374028091761A40
:103270009091771A9C012F5F3F4F3093771A2093DC
:10328000761A7FD890E09093720280937102FC01CD
:10329000EA58FD4F80819091821A89278093821A83
:1032A0008093781A8093791A0C94D42C2D5F3F4F19
:1032B00030937502209374028091761A9091771A58
:1032C0009C012F5F3F4F3093771A2093761A59D87D
:1032D00090E090937202809371028C010A581D4F06
:1032E000F80180810E94CF10F80180830C94D42CC7
:1032F0002D5F3F4F3093750220937402E0917F1A47
:103300008FEF8E0F80937F1AF0E0EA58FC4F809188
:10331000821A80830C94D42C2E5F3F4F3093750219
:10332000209374021091821A8091761A9091771AE4
:103330009C012F5F3F4F3093771A2093761A21D844
:1033400081278093821A8093781A8093791A0C943B
:10335000D42C2E5F3F4F30937502209374028091DE
:10336000821A0E94CF108093821A0C94D42C2D5F65
:103370003F4F30937502209374028091761A90919A
:10338000771A9C012F5F3F4F3093771A2093761A5C
:103390000E94C11190E09093700280936F0280911F
:1033A000761A9091771A9C012F5F3F4F3093771ACE
:1033B0002093761A0E94C11120916F023091700201
:1033C000382B3093700220936F0230937202209357
:1033D00071023093771A2093761A0C94D42C2C5FB8
:1033E0003F4F30937502209374028091761A90912A
:1033F000771A9C012F5F3F4F3093771A2093761AEC
:103400000E94C11190E09093700280936F028091AE
:10341000761A9091771A9C012F5F3F4F3093771A5D
:103420002093761A0E94C11120916F023091700290
:10343000382B3093700220936F02309372022093E6
:1034400071021091821AC9010E94C11181278093D3
:10345000821A8093781A8093791A0C94D42C2C5F5A
:103460003F4F30937502209374028091761A9091A9
:10347000771A9C012F5F3F4F3093771A2093761A6B
:103480000E94C11190E09093700280936F0280912E
:10349000761A9091771A9C012F5F3F4F3093771ADD
:1034A0002093761A0E94C11120916F023091700210
:1034B000382B3093700220936F0230937202209366
:1034C0007102C9010E94C1110E94CF10682F809122
:1034D0007102909172020E949E110C94D42C2E5F66
:1034E0003F4F30937502209374028091761A909129
:1034F000771A9C012F5F3F4F3093771A2093761AEB
:103500000E94C1118093730290917A1A91110C94C8
:10351000D42C4091761A5091771A282F30E087FFEB
:103520000AC0CA019A95820F931F9093771A8093CD
:10353000761A0C94D42C240F351F3093771A2093CD
:10354000761A0C94D42C2A5F3F4F30937502209347
:1035500074028091761A9091771A9C012F5F3F4FE9
:103560003093771A2093761A0E94C11180937302C8
:10357000E82FF0E0EA58FD4F2081818190E0982FFC
:103580008827820F911D2091801A820F911D9093A0
:103590007202809371021091821A0E94C1118127D8
:1035A0008093821A8093781A8093791A0C94D42C81
:1035B0002C5F3F4F30937502209374028091761AEE
:1035C0009091771A9C012F5F3F4F3093771A209389
:1035D000761A0E94C1119091811A980F892F90E05C
:1035E0009093720280937102FC01EA58FD4F808132
:1035F0009091821A89278093821A8093781A8093F7
:10360000791A0C94D42C2C5F3F4F30937502209381
:1036100074028091761A9091771A9C012F5F3F4F28
:103620003093771A2093761A0E94C1119091811AD3
:10363000980F892F90E090937202809371028C0111
:103640000A581D4FF80180810E94CF10F801808335
:103650000C94D42C2E5F3F4F30937502209374024C
:1036600010927D1A0C94D42C2C5F3F4F309375022E
:10367000209374028091761A9091771A9C012F5FA3
:103680003F4F3093771A2093761A0E94C11190E031
:103690009093700280936F028091761A9091771ABE
:1036A0009C012F5F3F4F3093771A2093761A0E9428
:1036B000C11120916F0230917002382B309370024B
:1036C00020936F028091811AA901480F511DCA01F0
:1036D00050937202409371021091821A0E94C1119C
:1036E00081278093821A8093781A8093791A0C9498
:1036F000D42C2C5F3F4F309375022093740280913D
:10370000761A9091771A9C012F5F3F4F3093771A6A
:103710002093761A0E94C11190E0909370028093DA
:103720006F028091761A9091771A9C012F5F3F4F1C
:103730003093771A2093761A0E94C11120916F025C
:1037400030917002382B3093700220936F02809179
:10375000811AF901E80FF11DCF01F0937202E09395
:1037600071021091821A0E94C11181278093821ADE
:103770008093781A8093791A0C94D42C2C5F3F4F45
:1037800030937502209374028091761A9091771A83
:103790009C012F5F3F4F3093771A2093761A0E9437
:1037A000C11190E09093700280936F028091761A1D
:1037B0009091771A9C012F5F3F4F3093771A209397
:1037C000761A0E94C11120916F0230917002382B3D
:1037D0003093700220936F028091811AA901480FE3
:1037E000511DCA0150937202409371020E94C1118F
:1037F0000E94CF10682F80917102909172020E94F6
:103800009E110C94D42C2A5F3F4F30937502209365
:103810007402E0917F1AA1E0AE0FB0E0AA58BC4F4D
:103820008C91EE5FE0937F1AF0E0EA58FC4F208124
:1038300090E0922B01969093771A8093761A0C94CD
:10384000D42C295F3F4F30937502209374028091EE
:10385000761A9091771A9C012F5F3F4F3093771A19
:103860002093761A0E94C111E091811AE80FE0932B
:103870007302F0E0EA58FD4F2081818190E0982F9B
:103880008827820F911D909372028093710240915C
:103890007B1A49830E94C1114981682F8091821A45
:1038A0000E9410118093821A8093781A8093791A5B
:1038B0000C94D42C2D5F3F4F3093750220937402EB
:1038C0008091761A9091771A9C012F5F3F4F309329
:1038D000771A2093761A0E94C11190E09093720299
:1038E00080937102FC01EA58FD4F40917B1A608180
:1038F0008091821A0E9410118093821A8093781A04
:103900008093791A0C94D42C2D5F3F4F309375021D
:10391000209374028091761A9091771A9C012F5F00
:103920003F4F3093771A2093761A0E94C11190E08E
:1039300090937202809371028C010A581D4FF80116
:1039400080810E94EC10F80180830C94D42C2C5FB1
:103950003F4F3093750220937402E0917F1AEF5F1E
:10396000E0937F1AF0E0EA58FC4F80818093781A48
:103970008093791A8093821A0C94D42C2E5F3F4F37
:10398000309375022093740240917B1A8091761ACD
:103990009091771A9C012F5F3F4F3093771A2093B5
:1039A000761A49830E94C1114981682F8091821A39
:1039B0000E9410118093821A8093781A8093791A4A
:1039C0000C94D42C2E5F3F4F3093750220937402D9
:1039D0008091821A0E94EC108093821A0C94D42C4D
:1039E0002B5F3F4F30937502209374028091761ABB
:1039F0009091771A9C012F5F3F4F3093771A209355
:103A0000761A0E94C11190E09093700280936F0229
:103A10008091761A9091771A9C012F5F3F4F3093D7
:103A2000771A2093761A0E94C11120916F0230916B
:103A30007002382B3093700220936F02C9010E94EC
:103A4000C111182F80916F029091700201960E940F
:103A5000C111212F30E0382B309372022093710274
:103A60003093771A2093761A0C94D42C2C5F3F4F06
:103A700030937502209374028091761A9091771A90
:103A80009C012F5F3F4F3093771A2093761A0E9444
:103A9000C11190E09093700280936F028091761A2A
:103AA0009091771A9C012F5F3F4F3093771A2093A4
:103AB000761A0E94C11120916F0230917002382B4A
:103AC0003093700220936F02309372022093710240
:103AD00040917B1AC90149830E94C1114981682F15
:103AE0008091821A0E9410118093821A8093781A12
:103AF0008093791A0C94D42C2C5F3F4F309375022D
:103B0000209374028091761A9091771A9C012F5F0E
:103B10003F4F3093771A2093761A0E94C11190E09C
:103B20009093700280936F028091761A9091771A29
:103B30009C012F5F3F4F3093771A2093761A0E9493
:103B4000C11120916F0230917002382B30937002B6
:103B500020936F023093720220937102C9010E9478
:103B6000C1110E94EC10682F809171029091720235
:103B70000E949E110C94D42C2E5F3F4F30937502FF
:103B8000209374028091761A9091771A9C012F5F8E
:103B90003F4F3093771A2093761A0E94C111809379
:103BA000730290917A1A992311F40C94D42C4091B9
:103BB000761A5091771A282F30E087FF0AC0CA0181
:103BC0009A95820F931F9093771A8093761A0C948C
:103BD000D42C240F351F3093771A2093761A0C9427
:103BE000D42C2A5F3F4F309375022093740280914A
:103BF000761A9091771A9C012F5F3F4F3093771A76
:103C00002093761A0E94C11180937302E82FF0E08E
:103C1000EA58FD4F2081818190E0982F8827820FFC
:103C2000911D2091801A820F911D909372028093B2
:103C3000710240917B1A49830E94C1114981682F0A
:103C40008091821A0E9410118093821A8093781AB0
:103C50008093791A0C94D42C2C5F3F4F30937502CB
:103C6000209374028091761A9091771A9C012F5FAD
:103C70003F4F3093771A2093761A0E94C11190918A
:103C8000811A980F892F90E09093720280937102AD
:103C9000FC01EA58FD4F40917B1A60818091821AA5
:103CA0000E9410118093821A8093781A8093791A57
:103CB0000C94D42C2C5F3F4F3093750220937402E8
:103CC0008091761A9091771A9C012F5F3F4F309325
:103CD000771A2093761A0E94C1119091811A980F39
:103CE000892F90E090937202809371028C010A58A0
:103CF0001D4FF80180810E94EC10F80180830C9424
:103D0000D42C2E5F3F4F309375022093740281E0D4
:103D100080937D1A0C94D42C2C5F3F4F3093750206
:103D2000209374028091761A9091771A9C012F5FEC
:103D30003F4F3093771A2093761A0E94C11190E07A
:103D40009093700280936F028091761A9091771A07
:103D50009C012F5F3F4F3093771A2093761A0E9471
:103D6000C11120916F0230917002382B3093700294
:103D700020936F028091801AA901480F511DCA013A
:103D8000509372024093710240917B1A49830E94C2
:103D9000C1114981682F8091821A0E94101180936D
:103DA000821A8093781A8093791A0C94D42C2C5F01
:103DB0003F4F30937502209374028091761A909150
:103DC000771A9C012F5F3F4F3093771A2093761A12
:103DD0000E94C11190E09093700280936F028091D5
:103DE000761A9091771A9C012F5F3F4F3093771A84
:103DF0002093761A0E94C11120916F0230917002B7
:103E0000382B3093700220936F028091811AF90150
:103E1000E80FF11DCF01F0937202E093710240911F
:103E20007B1A49830E94C1114981682F8091821AAF
:103E30000E9410118093821A8093781A8093791AC5
:103E40000C94D42C2C5F3F4F309375022093740256
:103E50008091761A9091771A9C012F5F3F4F309393
:103E6000771A2093761A0E94C11190E09093700205
:103E700080936F028091761A9091771A9C012F5F40
:103E80003F4F3093771A2093761A0E94C1112091E8
:103E90006F0230917002382B3093700220936F02C2
:103EA0008091811AA901480F511DCA0150937202D5
:103EB000409371020E94C1110E94EC10682F809102
:103EC0007102909172020E949E110C94D42C2E5F6C
:103ED0003F4F30937502209374028091761A90912F
:103EE000771A9C012F5F3F4F3093771A2093761AF1
:103EF0000E94C111809373024091761A5091771AF3
:103F0000282F30E087FF0AC0CA019A95820F931FBD
:103F10009093771A8093761A0C94D42C240F351F23
:103F20003093771A2093761A0C94D42C295F3F4F44
:103F300030937502209374028091761A9091771ACB
:103F40009C012F5F3F4F3093771A2093761A0E947F
:103F5000C111E091811AE80FE0937302F0E0EA5892
:103F6000FD4F2081818190E0982F8827820F911D3D
:103F700090937202809371026091821A0E949E1146
:103F80000C94D42C2D5F3F4F309375022093740214
:103F90008091761A9091771A9C012F5F3F4F309352
:103FA000771A2093761A0E94C11190E090937202C2
:103FB00080937102FC01EA58FD4F2091801A208302
:103FC0000C94D42C2D5F3F4F3093750220937402D4
:103FD0008091761A9091771A9C012F5F3F4F309312
:103FE000771A2093761A0E94C11190E09093720282
:103FF00080937102FC01EA58FD4F2091821A2083C0
:104000000C94D42C2D5F3F4F309375022093740293
:104010008091761A9091771A9C012F5F3F4F3093D1
:10402000771A2093761A0E94C11190E09093720241
:1040300080937102FC01EA58FD4F2091811A208380
:104040000C94D42C2E5F3F4F309375022093740252
:104050008091801A81508093801A8093781A80937F
:10406000791A0C94D42C2E5F3F4F30937502209315
:1040700074028091811A8093821A8093781A8093B7
:10408000791A0C94D42C2C5F3F4F309375022093F7
:1040900074028091761A9091771A9C012F5F3F4F9E
:1040A0003093771A2093761A0E94C11190E0909372
:1040B000700280936F028091761A9091771A9C011A
:1040C0002F5F3F4F3093771A2093761A0E94C111C9
:1040D00020916F0230917002382B30937002209340
:1040E0006F0230937202209371026091801AC901AD
:1040F0000E949E110C94D42C2C5F3F4F309375027C
:10410000209374028091761A9091771A9C012F5F08
:104110003F4F3093771A2093761A0E94C11190E096
:104120009093700280936F028091761A9091771A23
:104130009C012F5F3F4F3093771A2093761A0E948D
:10414000C11120916F0230917002382B30937002B0
:1041500020936F0230937202209371026091821A51
:10416000C9010E949E110C94D42C2C5F3F4F3093B8
:104170007502209374028091761A9091771A9C01AF
:104180002F5F3F4F3093771A2093761A0E94C11108
:1041900090E09093700280936F028091761A9091D4
:1041A000771A9C012F5F3F4F3093771A2093761A2E
:1041B0000E94C11120916F0230917002382B309310
:1041C000700220936F02309372022093710260910B
:1041D000811AC9010E949E110C94D42C2E5F3F4F6E
:1041E00030937502209374028091761A9091771A19
:1041F0009C012F5F3F4F3093771A2093761A0E94CD
:10420000C1118093730290917E1A91110C94D42C59
:104210004091761A5091771A282F30E087FF0AC014
:10422000CA019A95820F931F9093771A8093761AFA
:104230000C94D42C240F351F3093771A2093761AC0
:104240000C94D42C2A5F3F4F309375022093740254
:104250008091761A9091771A9C012F5F3F4F30938F
:10426000771A2093761A0E94C11180937302E82F67
:10427000F0E0EA58FD4F2081818190E0982F882757
:10428000820F911D2091801A820F911D90937202CE
:10429000809371026091821A0E949E110C94D42C1A
:1042A0002C5F3F4F30937502209374028091761AF1
:1042B0009091771A9C012F5F3F4F3093771A20938C
:1042C000761A0E94C1119091811A980F892F90E05F
:1042D0009093720280937102FC01EA58FD4F209185
:1042E000801A20830C94D42C2C5F3F4F309375029E
:1042F000209374028091761A9091771A9C012F5F17
:104300003F4F3093771A2093761A0E94C1119091F3
:10431000811A980F892F90E0909372028093710216
:10432000FC01EA58FD4F2091821A20830C94D42C72
:104330002C5F3F4F30937502209374028091761A60
:104340009091771A9C012F5F3F4F3093771A2093FB
:10435000761A0E94C1119091801A980F892F90E0CF
:104360009093720280937102FC01EA58FD4F2091F4
:10437000811A20830C94D42C2E5F3F4F309375020A
:10438000209374028091801A8093821A8093781A05
:104390008093791A0C94D42C2C5F3F4F3093750284
:1043A000209374028091761A9091771A9C012F5F66
:1043B0003F4F3093771A2093761A0E94C11190E0F4
:1043C0009093700280936F028091761A9091771A81
:1043D0009C012F5F3F4F3093771A2093761A0E94EB
:1043E000C11120916F0230917002382B309370020E
:1043F00020936F028091801AF901E80FF11DCF011F
:10440000F0937202E09371026091821A0E949E11F1
:104410000C94D42C2E5F3F4F30937502209374027E
:104420008091811A80937F1A0C94D42C2C5F3F4F7B
:1044300030937502209374028091761A9091771AC6
:104440009C012F5F3F4F3093771A2093761A0E947A
:10445000C11190E09093700280936F028091761A60
:104460009091771A9C012F5F3F4F3093771A2093DA
:10447000761A0E94C11120916F0230917002382B80
:104480003093700220936F028091811AA901480F26
:10449000511DCA0150937202409371026091821AB9
:1044A0000E949E110C94D42C2E5F3F4F30937502C6
:1044B000209374028091761A9091771A9C012F5F55
:1044C0003F4F3093771A2093761A0E94C111809340
:1044D000781A8093791A8093801A0C94D42C295FCF
:1044E0003F4F30937502209374028091761A909119
:1044F000771A9C012F5F3F4F3093771A2093761ADB
:104500000E94C111E091811AE80FE0937302F0E07C
:10451000EA58FD4F2081818190E0982F8827820FF3
:10452000911D90937202809371020E94C111809339
:10453000781A8093791A8093821A0C94D42C2E5F67
:104540003F4F30937502209374028091761A9091B8
:10455000771A9C012F5F3F4F3093771A2093761A7A
:104560000E94C1118093781A8093791A8093811ADE
:104570000C94D42C2D5F3F4F30937502209374021E
:104580008091761A9091771A9C012F5F3F4F30935C
:10459000771A2093761A0E94C11190E090937202CC
:1045A00080937102FC01EA58FD4F80818093781A54
:1045B0008093791A8093801A0C94D42C2D5F3F4FEE
:1045C00030937502209374028091761A9091771A35
:1045D0009C012F5F3F4F3093771A2093761A0E94E9
:1045E000C11190E09093720280937102FC01EA582D
:1045F000FD4F80818093781A8093791A8093821A74
:104600000C94D42C2D5F3F4F30937502209374028D
:104610008091761A9091771A9C012F5F3F4F3093CB
:10462000771A2093761A0E94C11190E0909372023B
:1046300080937102FC01EA58FD4F80818093781AC3
:104640008093791A8093811A0C94D42C2E5F3F4F5B
:1046500030937502209374028091821A8093801A9D
:104660008093781A8093791A0C94D42C2E5F3F4F44
:1046700030937502209374028091761A9091771A84
:104680009C012F5F3F4F3093771A2093761A0E9438
:10469000C1118093781A8093791A8093821A0C94AE
:1046A000D42C2E5F3F4F309375022093740280917B
:1046B000821A8093811A8093781A8093791A0C94C5
:1046C000D42C2C5F3F4F309375022093740280915D
:1046D000761A9091771A9C012F5F3F4F3093771A8B
:1046E0002093761A0E94C11190E0909370028093FB
:1046F0006F028091761A9091771A9C012F5F3F4F3D
:104700003093771A2093761A0E94C11120916F027C
:1047100030917002382B3093700220936F023093E7
:10472000720220937102C9010E94C1118093781A0C
:104730008093791A8093801A0C94D42C2C5F3F4F6D
:1047400030937502209374028091761A9091771AB3
:104750009C012F5F3F4F3093771A2093761A0E9467
:10476000C11190E09093700280936F028091761A4D
:104770009091771A9C012F5F3F4F3093771A2093C7
:10478000761A0E94C11120916F0230917002382B6D
:104790003093700220936F02309372022093710263
:1047A000C9010E94C1118093781A8093791A80936D
:1047B000821A0C94D42C2C5F3F4F309375022093B7
:1047C00074028091761A9091771A9C012F5F3F4F67
:1047D0003093771A2093761A0E94C11190E090933B
:1047E000700280936F028091761A9091771A9C01E3
:1047F0002F5F3F4F3093771A2093761A0E94C11192
:1048000020916F0230917002382B30937002209308
:104810006F023093720220937102C9010E94C1118C
:104820008093781A8093791A8093811A0C94D42CEF
:104830002E5F3F4F30937502209374028091761A59
:104840009091771A9C012F5F3F4F3093771A2093F6
:10485000761A0E94C1118093730290917E1A992357
:1048600011F40C94D42C4091761A5091771A282F79
:1048700030E087FF0AC0CA019A95820F931F909378
:10488000771A8093761A0C94D42C240F351F30930A
:10489000771A2093761A0C94D42C2A5F3F4F3093CA
:1048A0007502209374028091761A9091771A9C0178
:1048B0002F5F3F4F3093771A2093761A0E94C111D1
:1048C00080937302E82FF0E0EA58FD4F2081818148
:1048D00090E0982F8827820F911D2091801A820FD7
:1048E000911D90937202809371020E94C111809376
:1048F000781A8093791A8093821A0C94D42C2C5FA6
:104900003F4F30937502209374028091761A9091F4
:10491000771A9C012F5F3F4F3093771A2093761AB6
:104920000E94C1119091811A980F892F90E0909365
:10493000720280937102FC01EA58FD4F80818093DE
:10494000781A8093791A8093801A0C94D42C2C5F57
:104950003F4F30937502209374028091761A9091A4
:10496000771A9C012F5F3F4F3093771A2093761A66
:104970000E94C1119091811A980F892F90E0909315
:10498000720280937102FC01EA58FD4F808180938E
:10499000781A8093791A8093821A0C94D42C2C5F05
:1049A0003F4F30937502209374028091761A909154
:1049B000771A9C012F5F3F4F3093771A2093761A16
:1049C0000E94C1119091801A980F892F90E09093C6
:1049D000720280937102FC01EA58FD4F808180933E
:1049E000781A8093791A8093811ADEC72E5F3F4F21
:1049F000309375022093740210927A1AD5C72C5FF7
:104A00003F4F30937502209374028091761A9091F3
:104A1000771A9C012F5F3F4F3093771A2093761AB5
:104A20000E94C11190E09093700280936F02809178
:104A3000761A9091771A9C012F5F3F4F3093771A27
:104A40002093761A0E94C11120916F02309170025A
:104A5000382B3093700220936F028091801AF901F5
:104A6000E80FF11DCF01F0937202E09371020E94F2
:104A7000C1118093781A8093791A8093821A94C70F
:104A80002E5F3F4F309375022093740280917F1AFE
:104A90008093811A8093781A8093791A85C72C5F46
:104AA0003F4F30937502209374028091761A909153
:104AB000771A9C012F5F3F4F3093771A2093761A15
:104AC0000E94C11190E09093700280936F028091D8
:104AD000761A9091771A9C012F5F3F4F3093771A87
:104AE0002093761A0E94C11120916F0230917002BA
:104AF000382B3093700220936F028091811AA901A4
:104B0000480F511DCA0150937202409371020E94D6
:104B1000C1118093781A8093791A8093801A44C7C0
:104B20002C5F3F4F30937502209374028091761A68
:104B30009091771A9C012F5F3F4F3093771A209303
:104B4000761A0E94C11190E09093700280936F02D8
:104B50008091761A9091771A9C012F5F3F4F309386
:104B6000771A2093761A0E94C11120916F0230911A
:104B70007002382B3093700220936F028091811A5B
:104B8000F901E80FF11DCF01F0937202E093710279
:104B90000E94C1118093781A8093791A8093821AA7
:104BA00003C72C5F3F4F30937502209374028091AE
:104BB000761A9091771A9C012F5F3F4F3093771AA6
:104BC0002093761A0E94C11190E090937002809316
:104BD0006F028091761A9091771A9C012F5F3F4F58
:104BE0003093771A2093761A0E94C11120916F0298
:104BF00030917002382B3093700220936F028091B5
:104C0000801AA901480F511DCA01509372024093A6
:104C100071020E94C1118093781A8093791A80934F
:104C2000811AC2C62E5F3F4F3093750220937402E3
:104C300081E080937E1A8091761A9091771A9C0178
:104C40002F5F3F4F3093771A2093761A0E94C1113D
:104C500040E0682F8091801A0E9457118093781A43
:104C60008093791AA1C6295F3F4F30937502209334
:104C700074028091761A9091771A9C012F5F3F4FB2
:104C80003093771A2093761A0E94C111E091811A0D
:104C9000E80FE0937302F0E0EA58FD4F2081818134
:104CA00090E0982F8827820F911D90937202809335
:104CB000710221E020937E1A0E94C11140E0682F0A
:104CC0008091821A0E9457118093781A8093791AE2
:104CD0006BC62D5F3F4F3093750220937402809115
:104CE000761A9091771A9C012F5F3F4F3093771A75
:104CF0002093761A0E94C11190E0909372028093E3
:104D0000710221E020937E1AFC01EA58FD4F40E039
:104D100060818091801A0E9457118093781A809345
:104D2000791A42C62D5F3F4F30937502209374026B
:104D30008091761A9091771A9C012F5F3F4F3093A4
:104D4000771A2093761A0E94C11190E09093720214
:104D50008093710221E020937E1AFC01EA58FD4FF6
:104D600040E060818091821A0E9457118093781AE6
:104D70008093791A19C62B5F3F4F309375022093A9
:104D800074028091761A9091771A9C012F5F3F4FA1
:104D90003093771A2093761A0E94C111E82FF0E021
:104DA000F0937202E0937102EA58FD4F80818150C6
:104DB0008093781A8093791A8083F6C52E5F3F4FCF
:104DC00030937502209374028091801A8F5F8093D4
:104DD000801A8093781A8093791AE6C52E5F3F4F28
:104DE000309375022093740281E080937E1A809143
:104DF000761A9091771A9C012F5F3F4F3093771A64
:104E00002093761A0E94C11140E0682F8091821A87
:104E10000E9457118093781A8093791AC5C52E5F26
:104E20003F4F30937502209374028091811A815014
:104E30008093811A8093781A8093791AB5C52C5F74
:104E40003F4F30937502209374028091761A9091AF
:104E5000771A9C012F5F3F4F3093771A2093761A71
:104E60000E94C11190E09093700280936F02809134
:104E7000761A9091771A9C012F5F3F4F3093771AE3
:104E80002093761A0E94C11120916F023091700216
:104E9000382B3093700220936F023093720220936C
:104EA000710281E080937E1AC9010E94C11140E025
:104EB000682F8091801A0E9457118093781A8093EE
:104EC000791A72C52C5F3F4F30937502209374029C
:104ED0008091761A9091771A9C012F5F3F4F309303
:104EE000771A2093761A0E94C11190E09093700275
:104EF00080936F028091761A9091771A9C012F5FB0
:104F00003F4F3093771A2093761A0E94C111209157
:104F10006F0230917002382B3093700220936F0231
:104F2000309372022093710281E080937E1AC9014E
:104F30000E94C11140E0682F8091821A0E9457118F
:104F40008093781A8093791A2FC52A5F3F4F309348
:104F50007502209374028091761A9091771A9C01C1
:104F60002F5F3F4F3093771A2093761A0E94C1111A
:104F700090E09093700280936F028091761A9091E6
:104F8000771A9C012F5F3F4F3093771A2093761A40
:104F90000E94C11120916F0230917002382B309322
:104FA000700220936F023093720220937102C90144
:104FB0000E94C1116FEF680F6093781A6093791A9D
:104FC00080917102909172020E949E11EDC42E5F39
:104FD0003F4F30937502209374028091761A90911E
:104FE000771A9C012F5F3F4F3093771A2093761AE0
:104FF0000E94C111809373029091781A992309F449
:10500000D3C44091761A5091771A282F30E087FF49
:1050100009C0CA019A95820F931F9093771A8093C3
:10502000761AC2C4240F351F3093771A2093761A4C
:10503000BBC42A5F3F4F3093750220937402809166
:10504000761A9091771A9C012F5F3F4F3093771A11
:105050002093761A0E94C11180937302E82FF0E02A
:10506000EA58FD4F2081818190E0982F8827820F98
:10507000911D2091801A820F911D9093720280934E
:10508000710221E020937E1A0E94C11140E0682F36
:105090008091821A0E9457118093781A8093791A0E
:1050A00083C42C5F3F4F309375022093740280912C
:1050B000761A9091771A9C012F5F3F4F3093771AA1
:1050C0002093761A0E94C1119091811A980F892F0E
:1050D00090E0909372028093710221E020937E1AF7
:1050E000FC01EA58FD4F40E060818091821A0E94E5
:1050F00057118093781A8093791A56C42A5F3F4FCC
:1051000030937502209374028091761A9091771AE9
:105110009C012F5F3F4F3093771A2093761A0E949D
:10512000C111E091811AE80FF0E0F0937202E09370
:105130007102EA58FD4F808181508093781A8093E4
:10514000791A808331C42E5F3F4F309375022093CC
:10515000740210927B1A28C42C5F3F4F3093750263
:10516000209374028091761A9091771A9C012F5F98
:105170003F4F3093771A2093761A0E94C11190E026
:105180009093700280936F028091761A9091771AB3
:105190009C012F5F3F4F3093771A2093761A0E941D
:1051A000C11120916F0230917002382B3093700240
:1051B00020936F028091801AF901E80FF11DCF0151
:1051C000F0937202E093710221E020937E1A0E9414
:1051D000C11140E0682F8091821A0E94571180937C
:1051E000781A8093791AE0C32C5F3F4F3093750291
:1051F000209374028091761A9091771A9C012F5F08
:105200003F4F3093771A2093761A0E94C11190E095
:105210009093700280936F028091761A9091771A22
:105220009C012F5F3F4F3093771A2093761A0E948C
:10523000C11120916F0230917002382B30937002AF
:1052400020936F028091811AA901480F511DCA0154
:10525000509372024093710221E020937E1A0E94C3
:10526000C11140E0682F8091821A0E9457118093EB
:10527000781A8093791A98C32A5F3F4F309375024A
:10528000209374028091761A9091771A9C012F5F77
:105290003F4F3093771A2093761A0E94C111E09104
:1052A000811AE80FF0E0F0937202E0937102EA587D
:1052B000FD4F808181508093781A8093791A808382
:1052C00073C32E5F3F4F309375022093740281E0C9
:1052D00080937E1A8091761A9091771A9C012F5FA5
:1052E0003F4F3093771A2093761A0E94C11140E005
:1052F000682F8091811A0E9457118093781A8093A9
:10530000791A52C3295F3F4F30937502209374027C
:105310008091761A9091771A9C012F5F3F4F3093BE
:10532000771A2093761A0E94C111E091811AE80F32
:10533000E0937302F0E0EA58FD4F2081818190E014
:10534000982F8827820F911D90937202809371028B
:1053500040917B1A49830E94C1114981682F809135
:10536000821A0E9457118093821A8093781A809330
:10537000791A1AC32D5F3F4F309375022093740240
:105380008091761A9091771A9C012F5F3F4F30934E
:10539000771A2093761A0E94C11190E090937202BE
:1053A0008093710221E020937E1AFC01EA58FD4FA0
:1053B00040E060818091811A0E9457118093781A91
:1053C0008093791AF1C22D5F3F4F3093750220937D
:1053D00074028091761A9091771A9C012F5F3F4F4B
:1053E0003093771A2093761A0E94C11190E090931F
:1053F000720280937102FC01EA58FD4F40917B1AC2
:1054000060818091821A0E9457118093821A809342
:10541000781A8093791AC8C22B5F3F4F3093750278
:10542000209374028091761A9091771A9C012F5FD5
:105430003F4F3093771A2093761A0E94C111E82FBC
:10544000F0E0F0937202E0937102EA58FD4F808120
:105450008F5F8093781A8093791A8083A5C22E5F1C
:105460003F4F30937502209374028091811A8F5FB1
:105470008093811A8093781A8093791A95C22E5F4F
:105480003F4F309375022093740240917B1A8091B4
:10549000761A9091771A9C012F5F3F4F3093771ABD
:1054A0002093761A49830E94C1114981682F809107
:1054B000821A0E9457118093821A8093781A8093DF
:1054C000791A72C22E5F3F4F309375022093740297
:1054D0006BC22C5F3F4F3093750220937402809112
:1054E000761A9091771A9C012F5F3F4F3093771A6D
:1054F0002093761A0E94C11190E0909370028093DD
:105500006F028091761A9091771A9C012F5F3F4F1E
:105510003093771A2093761A0E94C11120916F025E
:1055200030917002382B3093700220936F023093C9
:1055300072022093710281E080937E1AC9010E9459
:10554000C11140E0682F8091811A0E945711809309
:10555000781A8093791A28C22C5F3F4F30937502D6
:10556000209374028091761A9091771A9C012F5F94
:105570003F4F3093771A2093761A0E94C11190E022
:105580009093700280936F028091761A9091771AAF
:105590009C012F5F3F4F3093771A2093761A0E9419
:1055A000C11120916F0230917002382B309370023C
:1055B00020936F02309372022093710240917B1A04
:1055C000C90149830E94C1114981682F8091821AC3
:1055D0000E9457118093821A8093781A8093791AC7
:1055E000E3C12A5F3F4F309375022093740280918C
:1055F000761A9091771A9C012F5F3F4F3093771A5C
:105600002093761A0E94C11190E0909370028093CB
:105610006F028091761A9091771A9C012F5F3F4F0D
:105620003093771A2093761A0E94C11120916F024D
:1056300030917002382B3093700220936F023093B8
:10564000720220937102C9010E94C11161E0680FCA
:105650006093781A6093791A809171029091720226
:105660000E949E11A1C12E5F3F4F3093750220937F
:1056700074028091761A9091771A9C012F5F3F4FA8
:105680003093771A2093761A0E94C1118093730287
:105690009091781A911188C14091761A5091771A99
:1056A000282F30E087FF09C0CA019A95820F931F07
:1056B0009093771A8093761A77C1240F351F309311
:1056C000771A2093761A70C12A5F3F4F3093750284
:1056D000209374028091761A9091771A9C012F5F23
:1056E0003F4F3093771A2093761A0E94C11180930E
:1056F0007302E82FF0E0EA58FD4F2081818190E0AD
:10570000982F8827820F911D2091801A820F911D5A
:10571000909372028093710240917B1A49830E9498
:10572000C1114981682F8091821A0E94571180937C
:10573000821A8093781A8093791A36C12C5F3F4F72
:1057400030937502209374028091761A9091771AA3
:105750009C012F5F3F4F3093771A2093761A0E9457
:10576000C1119091811A980F892F90E09093720245
:1057700080937102FC01EA58FD4F40917B1A6081D1
:105780008091821A0E9457118093821A8093781A0E
:105790008093791A09C12A5F3F4F30937502209395
:1057A00074028091761A9091771A9C012F5F3F4F77
:1057B0003093771A2093761A0E94C111E091811AD2
:1057C000E80FF0E0F0937202E0937102EA58FD4FA7
:1057D00080818F5F8093781A8093791A8083E4C0E8
:1057E0002E5F3F4F309375022093740281E08093C7
:1057F0007B1ADAC02C5F3F4F3093750220937402FE
:105800008091761A9091771A9C012F5F3F4F3093C9
:10581000771A2093761A0E94C11190E0909370023B
:1058200080936F028091761A9091771A9C012F5F76
:105830003F4F3093771A2093761A0E94C11120911E
:105840006F0230917002382B3093700220936F02F8
:105850008091801AF901E80FF11DCF01F0937202D7
:10586000E093710240917B1A49830E94C1114981E2
:10587000682F8091821A0E9457118093821A809318
:10588000781A8093791A90C02C5F3F4F309375023D
:10589000209374028091761A9091771A9C012F5F61
:1058A0003F4F3093771A2093761A0E94C11190E0EF
:1058B0009093700280936F028091761A9091771A7C
:1058C0009C012F5F3F4F3093771A2093761A0E94E6
:1058D000C11120916F0230917002382B3093700209
:1058E00020936F028091811AA901480F511DCA01AE
:1058F000509372024093710240917B1A49830E9437
:10590000C1114981682F8091821A0E94571180939A
:10591000821A8093781A8093791A46C02A5F3F4F83
:1059200030937502209374028091761A9091771AC1
:105930009C012F5F3F4F3093771A2093761A0E9475
:10594000C11190E09093700280936F028091761A5B
:105950009091771A9C012F5F3F4F3093771A2093D5
:10596000761A0E94C11120916F0230917002382B7B
:105970003093700220936F028091811AF901E80F31
:10598000F11DCF01F0937202E09371020E94C111E8
:1059900061E0680F6093781A6093791A80917102C0
:1059A000909172020E949E118091740290917502F2
:1059B0008038FEE39F0700F180589E439093750264
:1059C0008093740260E081E00E94770E90916D02F6
:1059D000992331F0811104C089830E942F1289819B
:1059E00080936D026CE38EEF0E94CE0E6CE38EEF1F
:1059F0000E94770E8CE301C080E00F90DF91CF9181
:105A00001F910F9108950895B5D0FDDF0E942A10CF
:105A1000C0E0D0E00E942B102097E1F30E9400002C
:105A2000F9CF1F920F920FB60F9211242F933F932D
:105A30008F939F93AF93BF938091841A9091851A0F
:105A4000A091861AB091871A3091831A23E0230F10
:105A50002D3720F40196A11DB11D05C026E8230FA6
:105A60000296A11DB11D2093831A8093841A9093EE
:105A7000851AA093861AB093871A8091881A9091FC
:105A8000891AA0918A1AB0918B1A0196A11DB11D95
:105A90008093881A9093891AA0938A1AB0938B1ACC
:105AA000BF91AF919F918F913F912F910F900FBE1A
:105AB0000F901F9018952FB7F8946091841A7091E9
:105AC000851A8091861A9091871A2FBF08953FB743
:105AD000F8948091881A9091891AA0918A1AB091AD
