:10000000F8C1000024C2000022C2000020C200008B
:100010001EC200001CC200001AC2000018C200006C
:1000200016C2000014C2000012C2000010C200007C
:100030000EC200000CC200000AC2000008C200008C
:1000400006C2000004C2000002C2000000C200009C
:10005000FEC10000FCC10000FAC1000007C300009F
:10006000F6C10000F4C10000F2C10000F0C10000C0
:10007000EEC10000ECC10000EAC10000E8C10000D0
:10008000E6C10000E4C10000E2C10000E0C10000E0
:10009000DEC10000DCC10000DAC10000EBC40000DA
:1000A000D6C10000D4C10000D2C10000D0C1000000
:1000B000CEC10000CCC10000CAC10000C8C1000010
:1000C000C6C10000C4C10000C2C10000C0C1000020
:1000D000BEC10000BCC10000BAC10000B8C1000030
:1000E000B6C1000080068306720676067C06BA0654
:1000F00087068B069106950699069F06A306A70616
:10010000BA06AD06B106B506000000000000005FAB
:1001100000000007000700147F147F14242A7F2AA0
:10012000122313086462364955225000050300006B
:10013000001C2241000041221C00082A1C2A080839
:10014000083E080800503000000808080808006051
:1001500060000020100804023E5149453E00427FE5
:10016000400042615149462141454B311814127FEC
:100170001027454545393C4A494930017109050375
:100180003649494936064949291E003636000000DD
:10019000563600000008142241141414141441228D
:1001A0001408000201510906324979413E7E1111BD
:1001B000117E7F494949363E414141227F414122DA
:1001C0001C7F494949417F090901013E41415132A2
:1001D0007F0808087F00417F41002040413F017FA8
:1001E000081422417F404040407F0204027F7F0488
:1001F00008107F3E4141413E7F090909063E4151B9
:10020000215E7F09192946464949493101017F018B
:10021000013F4040403F1F2040201F7F2018207F8B
:1002200063140814630304780403615149454300CF
:10023000007F4141020408102041417F0000040278
:100240000102044040404040000102040020545498
:1002500054787F484444383844444420384444481F
:100260007F3854545418087E090102081454543C31
:100270007F0804047800447D40002040443D000095
:100280007F10284400417F40007C041804787C08DB
:1002900004047838444444387C14141408081414B2
:1002A000187C7C080404084854545420043F4440FB
:1002B000203C4040207C1C2040201C3C4030403CE6
:1002C00044281028440C5050503C4464544C440082
:1002D0000836410000007F00000041360800080891
:1002E0002A1C08081C2A0808AED580A83FD3004065
:1002F0008D142000A1C8DA1281CFD9F1DB40A4A669
:10030000AF00000A0B02090C0D0E080703040100E0
:1003100000000000000000000000000000000000DD
:10032000000000000000000000000000001211109A
:1003300000000000000000000000000000000000BD
:10034000000000000000000102102020080810201A
:100350004010204080020102010804020101020451
:100360000810204080804020100804020180040210
:100370000180402010080402010804020101020467
:100380000810204080010204081020408005050567
:1003900005070508080808020202020A0A080804FC
:1003A000040404010101010101010103030303032A
:1003B000030303040707070C0C0C0C0C0C0C0C02B9
:1003C00002020206060606060606060B0B0B0B0BC0
:1003D0000B0B0B00002200250028002B002E003103
:1003E00000340002010000050108010B0100260392
:1003F0009F0411241FBECFEFD1E2DEBFCDBF00E0CE
:100400000CBF12E0A0E0B2E0E8EFFDE000E00BBFBF
:1004100002C007900D92A031B107D9F722E0A0E108
:10042000B2E001C01D92AF3DB207E1F713E0C2EFA9
:10043000D3E000E005C022970109FE010BBFD6D42E
:10044000CE3ED10780E00807B1F705D1D3C4D8CD9F
:10045000FC018481811103C08FE192E06EC2089596
:10046000CF93DF93EC018FE192E067D21A82DF91A4
:10047000CF9108951F93CF93DF93EC01162F8A81BC
:10048000882311F08F3169F41A828FE192E055D2FE
:100490006CE370E08FE192E03DD26B818FE192E0FE
:1004A000E8D1612F8FE192E0E4D18A818F5F8A8366
:1004B000DF91CF911F9108950F931F93CF93DF93F7
:1004C000EC018FE192E013D21C828CE08093B800A3
:1004D0001A821B8208EE12E0F8016491CE01CADF95
:1004E0000F5F1F4FF3E001301F07B1F7CE01DF911F
:1004F000CF911F910F91ACCF0F931F93CF93DF93A9
:10050000EC011A821B8260E0B5DF60E1CE01B2DF50
:1005100060EBCE01AFDFCE019BDFCE01A1DF1A82FF
:1005200080E48B8300E014E060E0CE01A3DF0150A3
:10053000110901151105C1F7CE01DF91CF911F916E
:100540000F9186CFCF92DF92EF92FF920F931F937E
:10055000CF93DF931F921F92CDB7DEB76C01162F9A
:10056000FC01128213826F702A83498383DF612F1B
:1005700062956F706061C6017DDF4981642F606B99
:10058000C60178DFC60164DFC6016ADFF6011282A8
:1005900080E483832A8130E02052310985E0829F04
:1005A0007001839FF00C112400E010E0C701885F08
:1005B0009E4F7C01F701E00FF11F6491C6015ADFE5
:1005C0000F5F1F4F05301105A9F7C6010F900F905F
:1005D000DF91CF911F910F91FF90EF90DF90CF901F
:1005E00037CF6C3738F4493028F430EE320F3036DC
:1005F00008F4A8CF0895FF920F931F93CF93DF9332
:1006000080E192E059DF80E192E076DF00E010E0E7
:10061000C0E0D0E080E2F82EF10E2F2D80E1C89FDF
:10062000200D11244C2F602F80E192E0DADF21961B
:10063000C830D10591F71F5F0A5F143149F7DF9188
:10064000CF911F910F91FF900895089581E08093BD
:1006500015020895089554D0FDDFCDDFC0E0D0E04D
:10066000F4DF2097E9F30E940000FACF1F920F9267
:100670000FB60F9211242F933F938F939F93AF93B5
:10068000BF938091170290911802A0911902B09126
:100690001A023091160223E0230F2D3720F4019621
:1006A000A11DB11D05C026E8230F0296A11DB11D95
:1006B000209316028093170290931802A0931902B8
:1006C000B0931A0280911B0290911C02A0911D020E
:1006D000B0911E020196A11DB11D80931B02909343
:1006E0001C02A0931D02B0931E02BF91AF919F9177
:1006F0008F913F912F910F900FBE0F901F901895E3
:10070000789484B5826084BD84B5816084BD85B5EC
:10071000826085BD85B5816085BDEEE6F0E08081B3
:1007200081608083E1E8F0E01082808182608083D4
:10073000808181608083E0E8F0E080818160808357
:10074000E1EBF0E0808184608083E0EBF0E0808189
:1007500081608083E1E9F0E0808182608083808134
:1007600081608083E0E9F0E0808181608083E1EA5C
:10077000F0E0808182608083808181608083E0EA14
:10078000F0E0808181608083E1E2F1E0808182603D
:100790008083808181608083E0E2F1E080818160FC
:1007A0008083EAE7F0E080818460808380818260DA
:1007B00080838081816080838081806880831092C3
:1007C000C100089580914F0290E020915002821B59
:1007D000910908952091500280914F02281750F4FA
:1007E000E22FF0E0EF5AFD4F808190E02F5F2093E1
:1007F000500208958FEF9FEF0895E091500280918D
:100800004F02E81730F4F0E0EF5AFD4F808190E09E
:1008100008958FEF9FEF08950895CF92DF92EF92A2
:10082000FF920F931F93CF93DF937C01CB018A013B
:1008300020912B02222389F0EB016B01C40ED51EFF
:10084000CC15DD0561F06991D701ED91FC91019026
:10085000F081E02DC7011995F3CF642FE2D0C801D4
:10086000DF91CF911F910F91FF90EF90DF90CF908C
:100870000895CF93DF931F92CDB7DEB769832091A0
:100880002B022223D1F020912C02203240F021E0D3
:1008900030E0FC013383228380E090E014C080913B
:1008A0002D02E82FF0E0E25DFD4F998190838F5F8C
:1008B00080932D0280932C0204C061E0CE0101964A
:1008C000B0D081E090E00F90DF91CF910895FC01CE
:1008D0001382128248EE53E060E070E04483558357
:1008E0006683778384E092E09183808308951092F9
:1008F000500210924F0210922D0210922C0222C030
:1009000081E080932B0260934E0210922D02109290
:100910002C020895F5CF0F93062F21E040912C0271
:100920006EE272E080914E0229D010922D02109258
:100930002C0210922B020F91089561E0ECCF8FE111
:1009400092E0C5CF1092DE0281E08093DC0210922B
:10095000DB0261E084E10FD261E085E10CD2E9EBDA
:10096000F0E080818E7F808380818D7F808388E42A
:100970008093B80085E48093BC0008950F934132C2
:1009800008F046C09091DE029111FCCF92E0909366
:10099000DE020093DC029FEF909371021092B60288
:1009A0004093B502FB0167EB72E0DB019A2F961BC7
:1009B000941718F491919D93F9CF1092DD029091C4
:1009C000DD02880F892B8093DD028091DB0281306C
:1009D00041F41092DB028091DD028093BB0085EC34
:1009E00001C085EE8093BC00222321F08091DE02BD
:1009F0008230E1F3809171028F3F61F0809171024A
:100A0000803251F080917102803341F483E007C05D
:100A100081E005C080E003C082E001C084E00F9166
:100A20000895613298F42091DE02243089F46093B5
:100A30009302FC0185E992E0DC012A2F281B26178E
:100A400018F421912D93F9CF80E0089581E0089565
:100A500082E0089585ED8093BC008091BC0084FD08
:100A6000FCCF1092DE02089585EC8093BC001092BA
:100A7000DE0208951F920F920FB60F9211240BB64B
:100A80000F922F933F934F935F936F937F938F9327
:100A90009F93AF93BF93EF93FF938091B900887FAB
:100AA000803609F49CC068F5883209F45BC090F484
:100AB000803109F454C038F4882309F4F3C0883035
:100AC00009F44DC0F2C0883109F44CC0803209F4F9
:100AD0005DC0EBC0803409F468C048F4803309F489
:100AE00055C0883309F0E1C080937102A7C08035FA
:100AF00009F44FC0883509F45DC0883409F0D5C0C9
:100B0000D3C0883909F4C4C0A8F4883709F467C091
:100B100038F4883609F463C0803709F460C0C5C072
:100B2000883809F4B5C0803909F45FC0803809F00D
:100B3000BCC05BC0803B09F483C038F4803A09F440
:100B400066C0883A09F47CC0B0C0803C09F4A4C0F7
:100B5000883C09F4A1C0883B09F487C0A6C08091F5
:100B6000DD0210C09091B6028091B502981770F521
:100B7000E091B60281E08E0F8093B602F0E0E95476
:100B8000FD4F80818093BB0085EC83C08093710210
:100B90008BC0E091B60281E08E0F8093B602809107
:100BA000BB00F0E0E954FD4F80839091B602809144
:100BB000B5026BC0E091B60281E08E0F8093B60261
:100BC0008091BB00F0E0E954FD4F80838091DC020E
:100BD00081116AC081E08093DB0284EA5EC083E019
:100BE0008093DE0210927202CFCF80917202803227
:100BF00008F04EC0E091720281E08E0F8093720285
:100C00008091BB00F0E0ED58FD4F8083BDCF809117
:100C10007202803230F4E0917202F0E0ED58FD4F44
:100C2000108218DF6091720270E0E091D702F091BB
:100C3000D80283E792E019951092720215DF35C051
:100C400084E08093DE021092940210929302E0916D
:100C5000D902F091DA02199580919302811105C0B1
:100C600081E08093930210929502E091940281E0DA
:100C70008E0F80939402F0E0EB56FD4F80818093BD
:100C8000BB009091940280919302981708F47CCF56
:100C900085E88093BC0009C085EC8093BC0010926D
:100CA000DE0203C010927102D5DEFF91EF91BF9179
:100CB000AF919F918F917F916F915F914F913F91F4
:100CC0002F910F900BBE0F900FBE0F901F90189595
:100CD00090E0FC013197E231F10508F04BC0EE588D
:100CE000FF4F7EC0809180008F7703C0809180008D
:100CF0008F7D80938000089580918000877FF9CF59
:100D000084B58F7702C084B58F7D84BD08958091AE
:100D1000B0008F7703C08091B0008F7D8093B000CA
:100D20000895809190008F7707C0809190008F7D0B
:100D300003C080919000877F8093900008958091F8
:100D4000A0008F7707C08091A0008F7D03C08091A5
:100D5000A000877F8093A0000895809120018F7765
:100D600007C0809120018F7D03C080912001877F83
:100D70008093200108950F931F93CF93DF931F92C9
:100D8000CDB7DEB7282F30E0F901EF5FFC4F84913B
:100D9000F901E95BFC4F1491F901E357FC4F049111
:100DA0000023C1F0882319F0698392DF6981E02F65
:100DB000F0E0EE0FFF1FED52FC4FA591B4919FB7ED
:100DC000F8948C91611103C01095812301C0812B8F
:100DD0008C939FBF0F90DF91CF911F910F9108953A
:100DE000EE0FFF1F0590F491E02D19940790F691F6
:080DF000E02D1994F894FFCFE7
:100DF8000000000039040D04E203EA03FD030C04BB
:00000001FF
