:100000000C946A0B0C94F82A0C94292B0C945A2B00
:100010000C948B2B0C94BC2B0C94ED2B0C941E2C61
:100020000C944F2C0C949B0B0C949B0B0C949B0BE3
:100030000C949B0B0C949B0B0C949B0B0C949B0BA8
:100040000C949B0B0C949B0B0C949B0B0C949B0B98
:100050000C949B0B0C949B0B0C949B0B0C945927AE
:100060000C949B0B0C949B0B0C949B0B0C949B0B78
:100070000C949B0B0C949B0B0C949B0B0C949B0B68
:100080000C949B0B0C949B0B0C949B0B0C949B0B58
:100090000C949B0B0C949B0B0C949B0B0C949B0B48
:1000A0000C949B0B0C949B0B0C949B0B0C949B0B38
:1000B0000C949B0B0C949B0B0C949B0B0C949B0B28
:1000C0000C949B0B0C949B0B0C949B0B0C949B0B18
:1000D0000C949B0B0C949B0B0C949B0B0C949B0B08
:1000E0000C949B0BBA0EC80ED60EEE0E020F280F04
:1000F000430F620F720F840F960FAE0FC20FE60F01
:100100000310221032104410561076108A10B010CE
:10011000CD10EC10FC100E1120113F11541178116C
:100120009511B411C411D611A926E811FC1122129F
:100130003F125E126E128012A9269212A612CC12E3
:10014000E912081318132A13A9263C135013761327
:100150009313B213A926A926A926C213D713FB13FA
:100160001814451455147F149114C514D714F81499
:1001700007153715461570157F15B315C215E3150C
:10018000F215221631165B166D16A116B016D11691
:10019000E01610171F174B175A1790179F17C01705
:1001A000D117011810183A1849187D188C18AD1875
:1001B000BC18EC18FB182519341968197719981907
:1001C000A719D719E619101A1F1A531A621A831A97
:1001D000921AC21AD11AFD1A0C1B421B511B721B18
:1001E000811BB11BC01BD91BF21B0B1C241C3D1C0B
:1001F000561C6F1C9C1CB31CCA1CE11CF81C0F1D58
:10020000261D3D1D681D811D9A1DB31DCC1DE51DBC
:10021000FE1D171E441E5B1E721E891EA01EB61EEA
:10022000CC1EE21E0C1F1E1F351F4C1F631F7A1FA2
:10023000911FA81FD31FE51FFC1F13202A20412058
:1002400058206F209A20AC20C320DA20F12008210A
:100250001F213621612177218D21A321B921CF21B1
:10026000E521FB2125222F223D224B225922672204
:1002700075228322A722B522BF22CD22DB22E922CA
:10028000F72205232923372345234F235D236B239F
:1002900079238723AB23B923C723D523DF23ED237A
:1002A000FB2309242D243B244924572465246F244F
:1002B0007D248B24AF24BD24CB24D924E724F5242A
:1002C000FF240D2531253F254D255B256925772503
:1002D00085258F25B325D525F72519263B265D26AF
:1002E0007E269D267C287F286E2872287828B628AE
:1002F000832887288D28912895289B289F28A32824
:10030000B628A928AD28B128D22A9C2AA42AB02A26
:10031000BD2ADE2AEB2AC03CDB449E6CA32AE339CB
:100320001B396A02EA2B202B605D945AAD49684D57
:10033000A379802AC06DAA49C02AC025402B522526
:100340004055FD25402FC02B932CC803E009BA244B
:10035000C221E7782A54000092202D007D5F3A2FB9
:100360008D58AA3B120091149444D555D22580444F
:10037000C001800489486F7BB274CF79CF73ED13CD
:10038000E773E77B4F12EF7BEF73100410441115F6
:10039000380E5444CF206A79EF5BAF7B27796E6BC0
:1003A000E779E749677BED5B97744F7AAD5B24791A
:1003B000FD5B6F5B6F7BEF49EF13EF5DE773972496
:1003C0006D7B6D2BED5FAD5AAD248F782779A4122C
:1003D0004F722A00C00F1400CF7BA47BC079C97B69
:1003E000EF79184FEF73E45B82244172645D491228
:1003F000F85FC05BC07B784F781FC049A372E47977
:10040000407B402BE87F4055ED72B878D44492246D
:1004100091151500FF7F36001D002E000000C7005B
:10042000B00068001000000030004600000001002D
:100430004400040000004100B00050001000000023
:1004400024007F004600000001004400100000006E
:100450000C000800480065006C006C006F00200074
:1004600077006F0072006C0064000D0047006F00A1
:100470006F0064006200790065000D005A000D00F5
:100480004E006500770020004C0069006E0065009A
:100490000D0041000D0042000D0043000D0044001E
:1004A000000000000000000000000000000000004C
:1004B000000000000000000000000000000000003C
:1004C000000000000000000000000000000000002C
:1004D000000000000000000000000000000000001C
:1004E000000000000000000000000000000000000C
:1004F00000000000000000000000000000000000FC
:1005000000000000000000000000000000000000EB
:1005100000000000000000000000000000000000DB
:1005200000000000000000000000000000000000CB
:1005300000000000000000000000000000000000BB
:1005400000000000000000000000000000000000AB
:10055000000000000000000000000000000000009B
:10056000000000000000000000000000000000008B
:10057000000000000000000000000000000000007B
:10058000000000000000000000000000000000006B
:10059000000000000000000000000000000000005B
:1005A000000000000000000000000000000000004B
:1005B000000000000000000000000000000000003B
:1005C000000000000000000000000000000000002B
:1005D000000000000000000000000000000000001B
:1005E000000000000000000000000000000000000B
:1005F00000000000000000000000000000000000FB
:1006000000000000000000000000000000000000EA
:10061000000000000000E600DD00360000002E00B3
:100620000300F8003000FC003000FB00360003003F
:100630003C000800680075000100260000003C0036
:100640000C00480021000100FC002100C4005D00F6
:10065000A8005D00060020003C000D0048002A00B4
:1006600001000600200026001F00360003002E00B7
:10067000030034008000D8005D00A8005D00C300C6
:10068000DF001800FB001900F3002E000200F80044
:100690003000C600A4000600200048002A00010027
:1006A000200068006A000100C600B00048006A002F
:1006B0000100E0001E002000F300C700F400F80075
:1006C000C4003C00E00060005D0001003E00A000AE
:1006D0001800200048005100010046008C00010075
:1006E0002600E00046008C000100360000002E00CD
:1006F0000300C7003000E7003000EF00F4000700FF
:10070000C700B00068006A000100E000DC001900CA
:10071000F3002E0002003E00A00046008C00010005
:10072000E30046008C00010044006A00010036002E
:1007300003002E000300FC000600FF005D00A8007F
:100740005D00F0002E000200C7005D00A8005D0003
:10075000300021004800990001000700000000005F
:100760000000000000000000000000000000000089
:100770000000000000000000000000000000000079
:100780000000000000000000000000000000000069
:100790000000000000000000000000000000000059
:1014100000000000000000000A0B02090C0D0E087D
:1014200007030401000000000000000000000000AD
:1014300000000000000000000000000000000000AC
:101440000000121110000000000000000000000069
:101450000000000000000000000000000102102059
:1014600020080810204010204080020102010804DA
:10147000020101020408102040808040201008046E
:1014800002018004020180402010080402010804C7
:10149000020101020408102040800102040810200B
:1014A0004080050505050705080808080202020234
:1014B0000A0A0808040404040101010101010101F0
:1014C0000303030303030303040707070C0C0C0CBB
:1014D0000C0C0C0C020202020606060606060606A4
:1014E0000B0B0B0B0B0B0B0B00002000230026003B
:1014F00029002C002F00320000010000030106012A
:10150000090100002200250028002B002E003100D8
:10151000340002010000050108010B010000210058
:10152000240027002A002D003000330001010000B4
:10153000040107010A010000000000000000000093
:101540000000000960000000000000713100000090
:101550007A73617732000063786465343300002069
:10156000766674723500006E626867793600000036
:101570006D6A75373800002C6B696F303900002EAA
:101580002F6C3B702D00000027005B3D0000000029
:101590000D5D005C00000000000000007F000031D5
:1015A000003437000000302E323536381B00002B57
:1015B000332D2A3900000000000000000000000068
:1015C0000000000000000000000000097E00000094
:1015D00000000051210000005A53415740000043D1
:1015E0005844452423000020564654522500004EFE
:1015F000424847595E0000004D4A55262A00003CEB
:101600004B494F292800003E3F4C3A505F000000F4
:1016100022007B2B000000000D7D007C00000000FC
:10162000000000007F000031003437000000302E41
:10163000323536381B00002B332D2A3900000000CC
:10164000000000000000000000000000000000009A
:10165000000000000000000000000000000000008A
:10166000000000000000000000000000000000007A
:10167000000000000000000000000000000000006A
:10168000000000000000000000000000000000005A
:10169000000000000000000000000000000000004A
:1016A000000000000000000000000000000000003A
:1016B000000000000000000000000000000000002A
:1016C000000000000000000000000000000000001A
:1016D0002B27442711241FBECFEFD1E2DEBFCDBFA1
:1016E00000E00CBF12E0A0E0B2E0ECE5F9E500E0BC
:1016F0000BBF02C007900D92A834B107D9F72CE1B7
:10170000A8E4B2E001C01D92AD30B207E1F716E1E6
:10171000C4EDD6E100E006C022970109FE010BBF2F
:101720000E94A82CC03DD10780E00807A9F70E94BD
:101730004C270C94AC2C0C940000FC012283638396
:1017400044830895CF93DF93FC01438150E0FA0175
:10175000EE55FB4EE491F0E0EE0FFF1FEE5FFA4E08
:10176000A591B491FC01248130E0F901EE55FB4EC6
:10177000849190E0880F991F8E5F9A4EFC01C5916D
:10178000D491FA01E45AFB4E4491F901E45AFB4E1C
:1017900024913FB7F89488E0722F7095542F50959C
:1017A000988167FF02C0922B01C0972398839C9178
:1017B000942B9C939C9195239C93660F815081F769
:1017C0003FBFDF91CF9108951F93CF93DF93EC013B
:1017D000142F8A81882389F06EBD0DB407FEFDCFDA
:1017E000812F807F8EBD0DB407FEFDCF1295107F37
:1017F0001EBD0DB407FEFDCF0EC0CE01A3DF612FCD
:10180000607FCE019FDF612F6295607FCE01DF9107
:10181000CF911F9197CFDF91CF911F910895462FC0
:1018200068EFD2CFCF93DF93EC0160E08B810E9411
:10183000F02860E08C810E94F02861E08B810E949A
:10184000B72861E08C810E94B7288A81882311F033
:1018500081E58CBD188260E2CE01E1DF61E070E0DD
:1018600080E090E00E94D22760E2CE01D8DF80E3E2
:1018700090E00E94F72766E0CE01D1DF80E390E0A0
:101880000E94F727198281E088836CE0CE01C7DFD0
:1018900080E390E0DF91CF910C94F727462F6AEF19
:1018A00093CFCF93DF93EC01898181110EC08881A2
:1018B000882311F066E201C064E2CE01B0DF80E36C
:1018C00090E00E94F72781E08983DF91CF9108950E
:1018D000EF92FF920F931F93CF93DF931F92CDB799
:1018E000DEB77C018B01FC018081882301F1C701F7
:1018F0004983D7DF602F6F716068C70190DF49812E
:10190000642F6068C801807299279695879596958F
:101910008795682BC70183DF80E390E00F90DF910C
:10192000CF911F910F91FF90EF900C94F7270F909C
:10193000DF91CF911F910F91FF90EF9008950F933A
:101940001F93CF93DF931F921F92CDB7DEB78C0109
:10195000842F462F50E0682F70E0C8012A83398316
:10196000B7DF3981632FC80199DF2A81622FC8014F
:1019700095DF8AE090E00F900F90DF91CF911F915B
:101980000F910C94F727FF920F931F93CF93DF9340
:101990008C01C0E0D0E040E050E0BE01C80198DF1B
:1019A000F8E0FF2E60E0C80179DF60E0C80176DF73
:1019B0008AE090E00E94F727FA94A1F72196C034BC
:1019C000D10549F7DF91CF911F910F91FF900895B5
:1019D0007F928F929F92AF92BF92CF92DF92EF92BF
:1019E000FF920F931F93CF93DF936C01962EF90113
:1019F00080818F7790E0880F991F8A5E9C4FAA277D
:101A000097FDA095BA2FABBFFC01C791D691F90104
:101A100081818F7790E0880F991F8A5E9C4FAA275B
:101A200097FDA095BA2FABBFFC01E790F690F901A6
:101A300082818F7790E0880F991F8A5E9C4FAA273A
:101A400097FDA095BA2FABBFFC01A790B690F90106
:101A500003810F7710E0000F111F0A5E1C4F222731
:101A600017FD2095322F2BBFF8010791169195E0B5
:101A7000892E840E9E0127703327322F222732951C
:101A8000307FC70187709927982F8827282B392BFB
:101A9000C80187709927282B392B77247394740EEB
:101AA000C5018770992754E0880F991F5A95E1F76F
:101AB000282B392B692DC60142DF63E0D695C795E7
:101AC0006A95E1F773E0F694E7947A95E1F7E3E03D
:101AD000B694A794EA95E1F7F3E016950795FA9581
:101AE000E1F7781411F0472DC5CFDF91CF911F9109
:101AF0000F91FF90EF90DF90CF90BF90AF909F90AD
:101B00008F907F90089580914B02811112C081E0E7
:101B100080934B02ECE4F2E0119283E0EC34F8079E
:101B2000D9F7109248020E9432270E9447270C944E
:101B3000CD2608950E94EC260E94372781118093BC
:101B4000480208958CE492E0089580914802882329
:101B500021F0806810924802089580E00895CF93A4
:101B6000C82F87FF18C08091490287FD14C0CF3F5E
:101B700019F410924A020FC080914A02E82FF0E057
:101B8000E45BFD4FC0836C2F0E94DF2680914A02E8
:101B90008F5F80934A02C0934902CF9108950C94BD
:101BA0004A270C9448277EC0CF92DF92EF92FF9293
:101BB000CF93DF9300D01F92CDB7DEB7A9D0282FE7
:101BC00030E040E050E0211531054105510549F173
:101BD00029833A834B835C830E94A327C0904C03E4
:101BE000D0904D03E0904E03F0904F0329813A814D
:101BF0004B815C816C157D058E059F0548F368EE71
:101C000073E080E090E00E94802C2C0D3D1D4E1D65
:101C10005F1D20934C0330934D0340934E0350932C
:101C20004F030F900F900F900F90DF91CF91FF9087
:101C3000EF90DF90CF9008952091711B8091671BEA
:101C400090E0820F911D2091691B820F911D80935E
:101C5000641B9093651B9093691B8093671B089589
:101C60008091711B90E02091671B821B910920914C
:101C7000691B821B91098093641B9093651B917073
:101C80009093691B8093671B08959FEF882341F011
:101C900080FF04C021E0911120E0922F8695F6CFBD
:101CA000892F0895CF93DF931092681B1092691BC0
:101CB00010926A1B10926B1B10926C1B10926D1B82
:101CC00010926E1B10926F1B1092701B1092711B62
:101CD0001092661B1092531B1092521B1092511BB4
:101CE0001092501B26E134E0C0E5D3E0C901AA27D9
:101CF00097FDA095BA2FABBFFC01879189932E5F0A
:101D00003F4F84E12631380789F7DF91CF91FBCE31
:101D10000F931F93CF93DF938091681B81110C94D5
:101D2000A926C091661B4C2F50E0440F551FFA01A5
:101D3000EE5AF44E208131813093631B2093621B55
:101D4000211588E1380728F4F901E05BFC4F808118
:101D500001C08FEF8093671B2F5F3F4F3F70FA01E9
:101D6000EE5AF44E3183208390E0FC01EE58FF4F91
:101D70000C94A22C81E08093681B8091501B909161
:101D8000511B04969093511B8093501B0C94A926D1
:101D900081E08093681B8091501B9091511B0496A9
:101DA0009093511B8093501B0C94A9262091711B7A
:101DB00030E0C901959587958093691B220F331FE9
:101DC000282B2093711B8091501B9091511B0596DD
:101DD0009093511B8093501B0C94A9268091691BF2
:101DE000811105C0EFEFEC0FE770E093661B809167
:101DF000501B9091511B04969093511B8093501B44
:101E00000C94A9261092691B3093631B2093621BCC
:101E1000F901E05BFC4F80818093671BFA01EE5A69
:101E2000F44E2F5F3F4F3F703183208305DF809159
:101E3000671B80936A1B8093711B8091501B90914C
:101E4000511B08969093511B8093501B0C94A9260C
:101E50001092631B1092621BE1E0EC0FE770E093BD
:101E6000661BF0E0EE0FFF1FEE5AF44E1182108257
:101E70008091501B9091511B05969093511B80931C
:101E8000501B0C94A9263093631B2093621BF9010D
:101E9000E05BFC4F80818093671BFA01EE5AF44EA1
:101EA0002F5F3F4F3F70318320838093711B809160
:101EB000501B9091511B08969093511B8093501B7F
:101EC0000C94A926EFEFEC0FE770E093661B80916E
:101ED000501B9091511B05969093511B8093501B62
:101EE0000C94A9268091701B8F5F8093701B809348
:101EF0006A1B8091501B9091511B05969093511B2A
:101F00008093501B0C94A9268091701B8150809364
:101F1000701B80936A1B8091501B9091511B0596FA
:101F20009093511B8093501B0C94A9268091711B98
:101F3000982F91709093691B9795992797958695FF
:101F4000892B8093711B8091501B9091511B05969A
:101F50009093511B8093501B0C94A92680916A1B6F
:101F6000882329F0EFEFEC0FE770E093661B809178
:101F7000501B9091511B04969093511B8093501BC2
:101F80000C94A9263093631B2093621BF901E05B3C
:101F9000FC4F80818093671BFA01EE5AF44E2F5F4D
:101FA0003F4F3F703183208347DE8091671B8093D2
:101FB0006A1B8093711B8091501B9091511B089656
:101FC0009093511B8093501B0C94A92688E090E0BD
:101FD0009093631B8093621BE1E0EC0FE770E0934A
:101FE000661BF0E0EE0FFF1FEE5AF44E91838083E4
:101FF0008091501B9091511B05969093511B80939B
:10200000501B0C94A9263093631B2093621BF9018B
:10201000E05BFC4F80818093671BFA01EE5AF44E1F
:102020002F5F3F4F3F70318320838093701B8091DF
:10203000501B9091511B08969093511B8093501BFD
:102040000C94A926EFEFEC0FE770E093661B8091EC
:10205000501B9091511B05969093511B8093501BE0
:102060000C94A92680916F1B8F5F80936F1B8093C8
:102070006A1B8091501B9091511B05969093511BA8
:102080008093501B0C94A92680916F1B81508093E4
:102090006F1B80936A1B8091501B9091511B05967A
:1020A0009093511B8093501B0C94A9262091711B77
:1020B00030E0C901880F991F4091691B842B9093D0
:1020C000651B8093641B220F232F221F330B209349
:1020D000691B8093711B8091501B9091511B059639
:1020E0009093511B8093501B0C94A92680916A1BDE
:1020F00087FD05C0EFEFEC0FE770E093661B809162
:10210000501B9091511B04969093511B8093501B30
:102110000C94A9261092691B3093631B2093621BB9
:10212000F901E05BFC4F80818093671BFA01EE5A56
:10213000F44E2F5F3F4F3F703183208391DD8091BC
:10214000671B80936A1B8093711B8091501B909139
:10215000511B08969093511B8093501B0C94A926F9
:1021600080E190E09093631B8093621BE1E0EC0FB1
:10217000E770E093661BF0E0EE0FFF1FEE5AF44E9F
:10218000918380838091501B9091511B0596909371
:10219000511B8093501B0C94A9263093631B2093F2
:1021A000621BF901E05BFC4F80818093671BFA01A1
:1021B000EE5AF44E2F5F3F4F3F7031832083809360
:1021C0006F1B8091501B9091511B08969093511B4F
:1021D0008093501B0C94A926EFEFEC0FE770E0936F
:1021E000661B8091501B9091511B05969093511B3B
:1021F0008093501B0C94A92680916E1B8F5F809357
:102200006E1B80936A1B8091501B9091511B059609
:102210009093511B8093501B0C94A92680916E1BA8
:10222000815080936E1B80936A1B8091501B90910C
:10223000511B05969093511B8093501B0C94A9261B
:102240008091691B90E0982F88272091711B822B29
:102250009093651B8093641B282F21702093691B2A
:10226000969587958093711B8091501B9091511B7F
:1022700005969093511B8093501B0C94A926809136
:102280006A1B03DD811105C0EFEFEC0FE770E093EF
:10229000661B8091501B9091511B04969093511B8B
:1022A0008093501B0C94A9263093631B2093621BD0
:1022B000F901E05BFC4F80818093671BFA01EE5AC5
:1022C000F44E2F5F3F4F3F7031832083C9DC8091F4
:1022D000671B80936A1B8093711B8091501B9091A8
:1022E000511B08969093511B8093501B0C94A92668
:1022F00088E190E09093631B8093621BE1E0EC0F18
:10230000E770E093661BF0E0EE0FFF1FEE5AF44E0D
:10231000918380838091501B9091511B05969093DF
:10232000511B8093501B0C94A9263093631B209360
:10233000621BF901E05BFC4F80818093671BFA010F
:10234000EE5AF44E2F5F3F4F3F70318320838093CE
:102350006E1B8091501B9091511B08969093511BBE
:102360008093501B0C94A926EFEFEC0FE770E093DD
:10237000661B8091501B9091511B05969093511BA9
:102380008093501B0C94A92680916D1B8F5F8093C6
:102390006D1B80936A1B8091501B9091511B059679
:1023A0009093511B8093501B0C94A92680916D1B18
:1023B000815080936D1B80936A1B8091501B90917C
:1023C000511B05969093511B8093501B0C94A9268A
:1023D0008091691B882329F0EFEFEC0FE770E09301
:1023E000661B8091501B9091511B04969093511B3A
:1023F0008093501B0C94A9261092691B3093631B89
:102400002093621BF901E05BFC4F8081FA01EE5AD8
:10241000F44E2F5F3F4F3F70318320839091711BAB
:1024200089238093671B80936A1B8093711B809123
:10243000501B9091511B08969093511B8093501BF9
:102440000C94A92680E290E09093631B8093621B1A
:10245000E1E0EC0FE770E093661BF0E0EE0FFF1F8A
:10246000EE5AF44E918380838091501B9091511BC2
:1024700005969093511B8093501B0C94A926309382
:10248000631B2093621BF901E05BFC4F808180930A
:10249000671BFA01EE5AF44E2F5F3F4F3F703183B6
:1024A000208380936D1B8091501B9091511B089647
:1024B0009093511B8093501B0C94A926EFEFEC0FC7
:1024C000E770E093661B8091501B9091511B05961D
:1024D0009093511B8093501B0C94A92680916C1BE8
:1024E0008F5F80936C1B80936A1B8091501B90912F
:1024F000511B05969093511B8093501B0C94A92659
:1025000080916C1B815080936C1B80936A1B80911F
:10251000501B9091511B05969093511B8093501B1B
:102520000C94A92680916A1B811105C0EFEFEC0F76
:10253000E770E093661B8091501B9091511B0496AD
:102540009093511B8093501B0C94A9261092691BE9
:102550003093631B2093621BF901E05BFC4F808189
:10256000FA01EE5AF44E2F5F3F4F3F7031832083C4
:102570009091711B89278093671B80936A1B8093BE
:10258000711B8091501B9091511B08969093511B89
:102590008093501B0C94A92688E290E09093631BD3
:1025A0008093621BE1E0EC0FE770E093661BF0E0C4
:1025B000EE0FFF1FEE5AF44E918380838091501BE3
:1025C0009091511B05969093511B8093501B0C9436
:1025D000A9263093631B2093621BF901E05BFC4F3B
:1025E00080818093671BFA01EE5AF44E2F5F3F4FB4
:1025F0003F703183208380936C1B8091501B90919E
:10260000511B08969093511B8093501B0C94A92644
:10261000EFEFEC0FE770E093661B8091501B9091F9
:10262000511B05969093511B8093501B0C94A92627
:1026300080916B1B8F5F80936B1B80936A1B8091D3
:10264000501B9091511B05969093511B8093501BEA
:102650000C94A92680916B1B815080936B1B8093F7
:102660006A1B8091501B9091511B05969093511BB2
:102670008093501B0C94A92680916A1B87FF05C08C
:10268000EFEFEC0FE770E093661B8091501B909189
:10269000511B04969093511B8093501B0C94A926B8
:1026A0001092691B3093631B2093621BF901E05B5E
:1026B000FC4F8081FA01EE5AF44E2F5F3F4F3F707E
:1026C000318320839091711B892B8093671B8093AA
:1026D0006A1B8093711B8091501B9091511B08962F
:1026E0009093511B8093501B0C94A92680E390E09B
:1026F0009093631B8093621BE1E0EC0FE770E09323
:10270000661BF0E0EE0FFF1FEE5AF44E91838083BC
:102710008091501B9091511B05969093511B809373
:10272000501B0C94A9263093631B2093621BF90164
:10273000E05BFC4F80818093671BFA01EE5AF44EF8
:102740002F5F3F4F3F703183208380936B1B8091BD
:10275000501B9091511B08969093511B8093501BD6
:102760000C94A926EFEFEC0FE770E093661B8091C5
:10277000501B9091511B05969093511B8093501BB9
:102780000C94A92680916A1B80DA882329F0EFEF48
:10279000EC0FE770E093661B8091501B9091511BEA
:1027A00004969093511B8093501B0C94A926109271
:1027B000691B3093631B2093621BF901E05BFC4FA4
:1027C00080818093671BFA01EE5AF44E2F5F3F4FD2
:1027D0003F703183208344DA8091671B80936A1BAA
:1027E0008091501B9091511B08969093511B8093A0
:1027F000501B0C94A92688E390E09093631B809370
:10280000621BE1E0EC0FE770E093661BF0E0EE0F77
:10281000FF1FEE5AF44E918380838091501B90915C
:10282000511B05969093511B8093501B0C94A92625
:10283000F901E05BFC4F60816093671BFA01EE5A7F
:10284000F44E2F5F3F4F3F703183208380916C1B8C
:1028500090E0982F882720916B1B822B9093631B0D
:102860008093621B811528E1920720F4FC01E05B54
:10287000FC4F60838091501B9091511B099690935F
:10288000511B8093501B0C94A926EFEFEC0FE770BF
:10289000E093661B8091501B9091511B059690937D
:1028A000511B8093501B0C94A926F901E05BFC4F4F
:1028B000808190E09093651B8093641B618160939D
:1028C000671B962B9093631B8093621BFA01EE5A51
:1028D000F44E2E5F3F4F3F70318320832091691B60
:1028E000211102C0918380838091501B9091511BD4
:1028F0000A969093511B8093501B0C94A92610921A
:10290000671B23D98093671B8093711B8091501B99
:102910009091511B08969093511B8093501B0C94DF
:10292000A926F901E05BFC4F808190E09093651B44
:102930008093641B61816093671B962B9093631B4C
:102940008093621BFA01EE5AF44E2E5F3F4F3F70A8
:10295000318320832091691B21110CC0E1E0EC0F31
:10296000E770E093661BF0E0EE0FFF1FEE5AF44EA7
:10297000918380838091501B9091511B0A96909374
:10298000511B8093501B0C94A9261092671B09D9E8
:102990008093671B8093711B8091501B9091511BFA
:1029A00008969093511B8093501B0C94A926F90113
:1029B000E05BFC4F808190E09093651B8093641BEB
:1029C00021812093671B922B9093631B8093621B42
:1029D000FA01EE5AF44E918380838091501B9091BE
:1029E000511B0B969093511B8093501B0C94A9265E
:1029F0001092671B1092711B8091501B9091511B7C
:102A000008969093511B8093501B0C94A926F901B2
:102A1000E05BFC4F808190E09093651B8093641B8A
:102A200061816093671B962B9093631B8093621B5D
:102A3000FA01EE5AF44E2E5F3F4F3F7031832083F0
:102A4000E1E0EC0FE770E093661BF0E0EE0FFF1F94
:102A5000EE5AF44E918380838091501B9091511BCC
:102A60000B969093511B8093501B0C94A9261092A7
:102A7000671B1092711B8091501B9091511B0896FF
:102A80009093511B8093501B0C94A926F901E05B95
:102A9000FC4F808190E09093651B8093641B618163
:102AA0006093671B962B9093631B8093621BFA01C4
:102AB000EE5AF44E2E5F3F4F3F70318320832091BA
:102AC0006A1B222311F0918380838091501B909187
:102AD000511B0A969093511B8093501B0C94A9266E
:102AE0001092671B1092711B8091501B9091511B8B
:102AF00008969093511B8093501B0C94A926F901C2
:102B0000E05BFC4F808190E09093651B8093641B99
:102B100061816093671B962B9093631B8093621B6C
:102B2000FA01EE5AF44E2E5F3F4F3F7031832083FF
:102B300020916A1B222361F0E1E0EC0FE770E09343
:102B4000661BF0E0EE0FFF1FEE5AF44E9183808378
:102B50008091501B9091511B0A969093511B80932A
:102B6000501B0C94A9261092671B1092711B809128
:102B7000501B9091511B08969093511B8093501BB2
:102B80000C94A926F901E05BFC4F808190E09093C2
:102B9000651B8093641B21812093671B922B90936C
:102BA000631B8093621BFA01EE5AF44E918380837B
:102BB0008091501B9091511B0B969093511B8093C9
:102BC000501B0C94A9261092671B1092711B8091C8
:102BD000501B9091511B08969093511B8093501B52
:102BE0000C94A926F901E05BFC4F808190E0909362
:102BF000651B8093641B61816093671B962B909388
:102C0000631B8093621BFA01EE5AF44E2E5F3F4F16
:102C10003F7031832083E1E0EC0FE770E093661BA7
:102C2000F0E0EE0FFF1FEE5AF44E91838083809107
:102C3000501B9091511B0B969093511B8093501BEE
:102C40000C94A9261092671B1092711B8091501B47
:102C50009091511B08969093511B8093501B0C949C
:102C6000A926F901E05BFC4F808190E09093651B01
:102C70008093641B61816093671B962B9093631B09
:102C80008093621BFA01EE5AF44E2E5F3F4F3F7065
:102C90003183208320916A1B27FD02C091838083AA
:102CA0008091501B9091511B0A969093511B8093D9
:102CB000501B0C94A9268091711B8093671B817017
:102CC0000E94CF0D8091501B9091511B06969093BE
:102CD000511B8093501B0C94A926F901E05BFC4F1B
:102CE000808190E09093651B8093641B6181609369
:102CF000671B962B9093631B8093621BFA01EE5A1D
:102D0000F44E2E5F3F4F3F703183208320916A1B2A
:102D100027FD0CC0E1E0EC0FE770E093661BF0E0EC
:102D2000EE0FFF1FEE5AF44E918380838091501B6B
:102D30009091511B0A969093511B8093501B0C94B9
:102D4000A9268091711B8093671B8091501B9091E5
:102D5000511B06969093511B8093501B0C94A926EF
:102D6000F901E05BFC4F808190E09093651B8093BC
:102D7000641B21812093671B922B9093631B80938C
:102D8000621BFA01EE5AF44E918380838091501BAE
:102D90009091511B0B969093511B8093501B0C9458
:102DA000A9268091711B8093671B8091501B909185
:102DB000511B06969093511B8093501B0C94A9268F
:102DC000F901E05BFC4F808190E09093651B80935C
:102DD000641B61816093671B962B9093631B8093A8
:102DE000621BFA01EE5AF44E2E5F3F4F3F70318363
:102DF0002083E1E0EC0FE770E093661BF0E0EE0F5C
:102E0000FF1FEE5AF44E918380838091501B909166
:102E1000511B0B969093511B8093501B0C94A92629
:102E20008091711B8093671B8091501B9091511B67
:102E300006969093511B8093501B0C94A926F90180
:102E4000E05BFC4F008110E01093651B0093641B56
:102E500081818093671B182B1093631B0093621B67
:102E6000EA01CE5AD44E2E5F3F4F3F7039832883FC
:102E700080916A1B0E94450E811102C0198308834C
:102E80008091501B9091511B0A969093511B8093F7
:102E9000501B0C94A9268091711B8093671B809115
:102EA000501B9091511B06969093511B8093501B81
:102EB0000C94A926F901E05BFC4F008110E010930F
:102EC000651B0093641B81818093671B182B1093F3
:102ED000631B0093621BFA01EE5AF44E2E5F3F4FC4
:102EE0003F703183208380916A1B0E94450E8111BF
:102EF0000CC0E1E0EC0FE770E093661BF0E0EE0F32
:102F0000FF1FEE5AF44E118300838091501B909165
:102F1000511B0A969093511B8093501B0C94A92629
:102F20008091711B8093671B8091501B9091511B66
:102F300006969093511B8093501B0C94A926F9017F
:102F4000E05BFC4F808190E09093651B8093641B55
:102F500021812093671B922B9093631B8093621BAC
:102F6000FA01EE5AF44E918380838091501B909128
:102F7000511B0B969093511B8093501B0C94A926C8
:102F80008091711B8093671B0E94AF0D8091501B35
:102F90009091511B06969093511B8093501B0C945B
:102FA000A926F901E05BFC4F808190E09093651BBE
:102FB0008093641B61816093671B962B9093631BC6
:102FC0008093621BFA01EE5AF44E2E5F3F4F3F7022
:102FD00031832083E1E0EC0FE770E093661BF0E0C3
:102FE000EE0FFF1FEE5AF44E918380838091501BA9
:102FF0009091511B0B969093511B8093501B0C94F6
:10300000A9268091711B8093671B8091501B909122
:10301000511B06969093511B8093501B0C94A9262C
:10302000F901E05BFC4F808190E09093651B8093F9
:10303000641B61816093671B962B9093631B809345
:10304000621BFA01EE5AF44E2E5F3F4F3F70318300
:1030500020832091691B222311F09183808380912A
:10306000501B9091511B0A969093511B8093501BBB
:103070000C94A9268091711B8093671B8091501B33
:103080009091511B06969093511B8093501B0C946A
:10309000A926F901E05BFC4F808190E09093651BCD
:1030A0008093641B61816093671B962B9093631BD5
:1030B0008093621BFA01EE5AF44E2E5F3F4F3F7031
:1030C000318320832091691B222361F0E1E0EC0F22
:1030D000E770E093661BF0E0EE0FFF1FEE5AF44E30
:1030E000918380838091501B9091511B0A969093FD
:1030F000511B8093501B0C94A9268091711B8093C7
:10310000671B8091501B9091511B06969093511B09
:103110008093501B0C94A926F901E05BFC4F808141
:1031200090E09093651B8093641B21812093671B23
:10313000922B9093631B8093621BFA01EE5AF44E1C
:10314000918380838091501B9091511B0B9690939B
:10315000511B8093501B0C94A9268091711B809366
:10316000671B8091501B9091511B06969093511BA9
:103170008093501B0C94A926F901E05BFC4F8081E1
:1031800090E09093651B8093641B61816093671B43
:10319000962B9093631B8093621BFA01EE5AF44EB8
:1031A0002E5F3F4F3F7031832083E1E0EC0FE770EB
:1031B000E093661BF0E0EE0FFF1FEE5AF44E918392
:1031C00080838091501B9091511B0B969093511BC3
:1031D0008093501B0C94A9268091711B8093671BD0
:1031E0008091501B9091511B06969093511B809398
:1031F000501B0C94A926F901E05BFC4F808190E004
:103200009093651B8093641B61816093671B962B71
:103210009093631B8093621BFA01EE5AF44E2E5F6B
:103220003F4F3F703183208320916A1B211102C0E0
:10323000918380838091501B9091511B0A969093AB
:10324000511B8093501B0C94A9268091711B809375
:10325000671B8091501B9091511B06969093511BB8
:103260008093501B0C94A926F901E05BFC4F8081F0
:1032700090E09093651B8093641B61816093671B52
:10328000962B9093631B8093621BFA01EE5AF44EC7
:103290002E5F3F4F3F703183208320916A1B2111A5
:1032A0000CC0E1E0EC0FE770E093661BF0E0EE0F7E
:1032B000FF1FEE5AF44E918380838091501B9091B2
:1032C000511B0A969093511B8093501B0C94A92676
:1032D0008091711B8093671B8091501B9091511BB3
:1032E00006969093511B8093501B0C94A926F901CC
:1032F000E05BFC4F808190E09093651B8093641BA2
:1033000021812093671B922B9093631B8093621BF8
:10331000FA01EE5AF44E918380838091501B909174
:10332000511B0B969093511B8093501B0C94A92614
:103330008091711B8093671B8091501B9091511B52
:1033400006969093511B8093501B0C94A926F9016B
:10335000E05BFC4F808190E09093651B8093641B41
:1033600061816093671B962B9093631B8093621B14
:10337000FA01EE5AF44E2E5F3F4F3F7031832083A7
:10338000E1E0EC0FE770E093661BF0E0EE0FFF1F4B
:10339000EE5AF44E918380838091501B9091511B83
:1033A0000B969093511B8093501B0C94A9268091EF
:1033B000711B8093671B8091501B9091511B069647
:1033C0009093511B8093501B0C94A926F901E05B4C
:1033D000FC4F808190E09093651B8093641B61811A
:1033E0006093671B962B9093631B8093621BFA017B
:1033F000EE5AF44E2E5F3F4F3F7031832083209171
:103400006A1B27FF02C0918380838091501B90919B
:10341000511B0A969093511B8093501B0C94A92624
:103420008091711B8093671B8091501B9091511B61
:1034300006969093511B8093501B0C94A926F9017A
:10344000E05BFC4F808190E09093651B8093641B50
:1034500061816093671B962B9093631B8093621B23
:10346000FA01EE5AF44E2E5F3F4F3F7031832083B6
:1034700020916A1B27FF0CC0E1E0EC0FE770E0939E
:10348000661BF0E0EE0FFF1FEE5AF44E918380832F
:103490008091501B9091511B0A969093511B8093E1
:1034A000501B0C94A9268091711B8093671B8091FF
:1034B000501B9091511B06969093511B8093501B6B
:1034C0000C94A926F901E05BFC4F808190E0909379
:1034D000651B8093641B21812093671B922B909323
:1034E000631B8093621BFA01EE5AF44E9183808332
:1034F0008091501B9091511B0B969093511B809380
:10350000501B0C94A9268091711B8093671B80919E
:10351000501B9091511B06969093511B8093501B0A
:103520000C94A926F901E05BFC4F808190E0909318
:10353000651B8093641B61816093671B962B90933E
:10354000631B8093621BFA01EE5AF44E2E5F3F4FCD
:103550003F7031832083E1E0EC0FE770E093661B5E
:10356000F0E0EE0FFF1FEE5AF44E918380838091BE
:10357000501B9091511B0B969093511B8093501BA5
:103580000C94A9268091711B8093671B8091501B1E
:103590009091511B06969093511B8093501B0C9455
:1035A000A926F901E05BFC4F008110E01093651B38
:1035B0000093641B81818093671B182B1093631BFE
:1035C0000093621BEA01CE5AD44E2E5F3F4F3F70EC
:1035D0003983288380916A1B0E94450E882311F04D
:1035E000198308838091501B9091511B0A969093E8
:1035F000511B8093501B0C94A9268091711B8093C2
:10360000671B8091501B9091511B06969093511B04
:103610008093501B0C94A926F901E05BFC4F0081BC
:1036200010E01093651B0093641B81818093671BDE
:10363000182B1093631B0093621BFA01EE5AF44E91
:103640002E5F3F4F3F703183208380916A1B0E9421
:10365000450E882361F0E1E0EC0FE770E093661B14
:10366000F0E0EE0FFF1FEE5AF44E118300838091BD
:10367000501B9091511B0A969093511B8093501BA5
:103680000C94A9268091711B8093671B8091501B1D
:103690009091511B06969093511B8093501B0C9454
:1036A000A926F901E05BFC4F808190E09093651BB7
:1036B0008093641B21812093671B922B9093631B43
:1036C0008093621BFA01EE5AF44E918380838091BD
:1036D000501B9091511B0B969093511B8093501B44
:1036E0000C94A9268091711B8093671B8091501BBD
:1036F0009091511B06969093511B8093501B0C94F4
:10370000A926F901E05BFC4F808190E09093651B56
:103710008093641B61816093671B962B9093631B5E
:103720008093621BFA01EE5AF44E2E5F3F4F3F70BA
:1037300031832083E1E0EC0FE770E093661BF0E05B
:10374000EE0FFF1FEE5AF44E918380838091501B41
:103750009091511B0B969093511B8093501B0C948E
:10376000A9268091711B8093671B8091501B9091BB
:10377000511B06969093511B8093501B0C94A926C5
:103780001092691B8091711B8093671B0E941C0E15
:103790008091671B80936A1B8093711B8091501BE3
:1037A0009091511B05969093511B8093501B0C9444
:1037B000A9261092691B8091701B8093671B0E9441
:1037C0001C0E8091671B80936A1B8093711B8091F4
:1037D000501B9091511B05969093511B8093501B49
:1037E0000C94A9261092691B80916F1B8093671B14
:1037F0000E941C0E8091671B80936A1B8093711B33
:103800008091501B9091511B05969093511B809372
:10381000501B0C94A9261092691B80916E1B8093FB
:10382000671B0E941C0E8091671B80936A1B80930C
:10383000711B8091501B9091511B05969093511BC9
:103840008093501B0C94A9261092691B80916D1BCC
:103850008093671B0E941C0E8091671B80936A1BDC
:103860008093711B8091501B9091511B05969093F2
:10387000511B8093501B0C94A9261092691B8091B8
:103880006C1B8093671B0E941C0E8091671B8093AA
:103890006A1B8093711B8091501B9091511B059660
:1038A0009093511B8093501B0C94A9261092691B76
:1038B00080916B1B8093671B0E941C0E8091671B7D
:1038C00080936A1B8093711B8091501B9091511BB8
:1038D00005969093511B8093501B0C94A92610922F
:1038E000691B80916C1B90E0982F882720916B1B9F
:1038F000822B9093631B8093621B811538E19307A1
:1039000028F4FC01E05BFC4F808101C08FEF8093C5
:10391000671B0E941C0E8091671B80936A1B80931B
:10392000711B8091501B9091511B08969093511BD5
:103930008093501B0C94A9268091711B8093671B68
:103940000E941C0E8091671B80936A1B8093711BE1
:103950008091501B9091511B05969093511B809321
:10396000501B0C94A9268091701B8093671B0E94AA
:103970001C0E8091671B80936A1B8093711B809142
:10398000501B9091511B05969093511B8093501B97
:103990000C94A92680916F1B8093671B0E941C0EBC
:1039A0008091671B80936A1B8093711B8091501BD1
:1039B0009091511B05969093511B8093501B0C9432
:1039C000A92680916E1B8093671B0E941C0E80911C
:1039D000671B80936A1B8093711B8091501B909191
:1039E000511B05969093511B8093501B0C94A92654
:1039F00080916D1B8093671B0E941C0E8091671B3A
:103A000080936A1B8093711B8091501B9091511B76
:103A100005969093511B8093501B0C94A92680917E
:103A20006C1B8093671B0E941C0E8091671B809308
:103A30006A1B8093711B8091501B9091511B0596BE
:103A40009093511B8093501B0C94A92680916B1B63
:103A50008093671B0E941C0E8091671B80936A1BDA
:103A60008093711B8091501B9091511B05969093F0
:103A7000511B8093501B0C94A92680916C1B90E0E5
:103A8000982F882720916B1B822B9093631B809328
:103A9000621B811528E1920728F4FC01E05BFC4FD2
:103AA000808101C08FEF8093671B0E941C0E809164
:103AB000671B80936A1B8093711B8091501B9091B0
:103AC000511B08969093511B8093501B0C94A92670
:103AD0001092691B8091711B8093671B0E94300EAE
:103AE0008091671B80936A1B8093711B8091501B90
:103AF0009091511B05969093511B8093501B0C94F1
:103B0000A9261092691B8091701B8093671B0E94ED
:103B1000300E8091671B80936A1B8093711B80918C
:103B2000501B9091511B05969093511B8093501BF5
:103B30000C94A9261092691B80916F1B8093671BC0
:103B40000E94300E8091671B80936A1B8093711BCB
:103B50008091501B9091511B05969093511B80931F
:103B6000501B0C94A9261092691B80916E1B8093A8
:103B7000671B0E94300E8091671B80936A1B8093A5
:103B8000711B8091501B9091511B05969093511B76
:103B90008093501B0C94A9261092691B80916D1B79
:103BA0008093671B0E94300E8091671B80936A1B75
:103BB0008093711B8091501B9091511B059690939F
:103BC000511B8093501B0C94A9261092691B809165
:103BD0006C1B8093671B0E94300E8091671B809343
:103BE0006A1B8093711B8091501B9091511B05960D
:103BF0009093511B8093501B0C94A9261092691B23
:103C000080916B1B8093671B0E94300E8091671B15
:103C100080936A1B8093711B8091501B9091511B64
:103C200005969093511B8093501B0C94A9261092DB
:103C3000691B80916C1B90E0982F882720916B1B4B
:103C4000822B9093631B8093621B811538E193074D
:103C500028F4FC01E05BFC4F808101C08FEF809372
:103C6000671B0E94300E8091671B80936A1B8093B4
:103C7000711B8091501B9091511B08969093511B82
:103C80008093501B0C94A9268091711B8093671B15
:103C90000E94300E8091671B80936A1B8093711B7A
:103CA0008091501B9091511B05969093511B8093CE
:103CB000501B0C94A9268091701B8093671B0E9457
:103CC000300E8091671B80936A1B8093711B8091DB
:103CD000501B9091511B05969093511B8093501B44
:103CE0000C94A92680916F1B8093671B0E94300E55
:103CF0008091671B80936A1B8093711B8091501B7E
:103D00009091511B05969093511B8093501B0C94DE
:103D1000A92680916E1B8093671B0E94300E8091B4
:103D2000671B80936A1B8093711B8091501B90913D
:103D3000511B05969093511B8093501B0C94A92600
:103D400080916D1B8093671B0E94300E8091671BD2
:103D500080936A1B8093711B8091501B9091511B23
:103D600005969093511B8093501BF3C780916C1B59
:103D70008093671B0E94300E8091671B80936A1BA3
:103D80008093711B8091501B9091511B05969093CD
:103D9000511B8093501BDDC780916B1B8093671B69
:103DA0000E94300E8091671B80936A1B8093711B69
:103DB0008091501B9091511B05969093511B8093BD
:103DC000501BC7C780916C1B90E0982F88272091CB
:103DD0006B1B822B9093631B8093621B811528E1E0
:103DE000920728F4FC01E05BFC4F808101C08FEF5B
:103DF0008093671B0E94300E8091671B80936A1B23
:103E00008093711B8091501B9091511B0896909349
:103E1000511B8093501B9DC71092691B8091711B91
:103E20008093671B80936A1B8091501B9091511B5C
:103E300005969093511B8093501B8BC71092691B62
:103E40008091711B9091701B89238093671B8093D5
:103E50006A1B8093711B8091501B9091511B05969A
:103E60009093511B8093501B74C71092691B8091D3
:103E7000711B90916F1B89238093671B80936A1B32
:103E80008093711B8091501B9091511B05969093CC
:103E9000511B8093501B5DC71092691B8091711B51
:103EA00090916E1B89238093671B80936A1B80937C
:103EB000711B8091501B9091511B05969093511B43
:103EC0008093501B46C71092691B8091711B909183
:103ED0006D1B89238093671B80936A1B8093711BE2
:103EE0008091501B9091511B05969093511B80938C
:103EF000501B2FC71092691B8091711B90916C1BF6
:103F000089238093671B80936A1B8093711B809128
:103F1000501B9091511B05969093511B8093501B01
:103F200018C71092691B8091711B90916B1B89239C
:103F30008093671B80936A1B8093711B8091501B39
:103F40009091511B05969093511B8093501B01C774
:103F50001092691B80916C1B90E0982F882720910C
:103F60006B1B822B9093631B8093621B811538E13E
:103F7000930728F4FC01E05BFC4F908101C09FEFA8
:103F80008091711B89238093671B80936A1B8093A8
:103F9000711B8091501B9091511B08969093511B5F
:103FA0008093501BD6C61092691B1092671B10920B
:103FB0006A1B1092711B8091501B9091511B0596AA
:103FC0009093511B8093501BC4C61092691B809123
:103FD000711B9091701B89278093671B80936A1BCC
:103FE0008093711B8091501B9091511B059690936B
:103FF000511B8093501BADC61092691B8091711BA1
:1040000090916F1B89278093671B80936A1B809315
:10401000711B8091501B9091511B05969093511BE1
:104020008093501B96C61092691B8091711B9091D2
:104030006E1B89278093671B80936A1B8093711B7B
:104040008091501B9091511B05969093511B80932A
:10405000501B7FC61092691B8091711B90916D1B44
:1040600089278093671B80936A1B8093711B8091C3
:10407000501B9091511B05969093511B8093501BA0
:1040800068C61092691B8091711B90916C1B8927E7
:104090008093671B80936A1B8093711B8091501BD8
:1040A0009091511B05969093511B8093501B51C6C4
:1040B0001092691B8091711B90916B1B89278093D3
:1040C000671B80936A1B8093711B8091501B90919A
:1040D000511B05969093511B8093501B3AC610922A
:1040E000691B80916C1B90E0982F882720916B1B97
:1040F000822B9093631B8093621B811528E19207AA
:1041000028F4FC01E05BFC4F908101C09FEF80919F
:10411000711B89278093671B80936A1B8093711B97
:104120008091501B9091511B08969093511B809346
:10413000501B0FC61092691B8091711B8093671BE7
:1041400080936A1B8091501B9091511B0596909310
:10415000511B8093501BFDC51092691B8091711BF0
:104160009091701B892B8093671B80936A1B8093AF
:10417000711B8091501B9091511B05969093511B80
:104180008093501BE6C51092691B8091711B909122
:104190006F1B892B8093671B80936A1B8093711B15
:1041A0008091501B9091511B05969093511B8093C9
:1041B000501BCFC51092691B8091711B90916E1B93
:1041C000892B8093671B80936A1B8093711B80915E
:1041D000501B9091511B05969093511B8093501B3F
:1041E000B8C51092691B8091711B90916D1B892B32
:1041F0008093671B80936A1B8093711B8091501B77
:104200009091511B05969093511B8093501BA1C513
:104210001092691B8091711B90916C1B892B80936C
:10422000671B80936A1B8093711B8091501B909138
:10423000511B05969093511B8093501B8AC5109279
:10424000691B8091711B90916B1B892B8093671B5D
:1042500080936A1B8093711B8091501B9091511B1E
:1042600005969093511B8093501B73C51092691B48
:1042700080916C1B90E0982F882720916B1B822BDC
:104280009093631B8093621B811538E1930728F498
:10429000FC01E05BFC4F908101C09FEF8091711B9E
:1042A000892B8093671B80936A1B8093711B80917D
:1042B000501B9091511B08969093511B8093501B5B
:1042C00048C51092691B8091711B8093671B0E94E7
:1042D000300E8091671B80936A1B8091501B9091D8
:1042E000511B05969093511B8093501B32C5109221
:1042F000691B8091701B8093671B0E94300E809118
:10430000671B80936A1B8091501B9091511B0596EF
:104310009093511B8093501B1CC51092691B809178
:104320006F1B8093671B0E94300E8091671B8093E8
:104330006A1B8091501B9091511B05969093511BC5
:104340008093501B06C51092691B80916E1B809351
:10435000671B0E94300E8091671B80936A1B8091BF
:10436000501B9091511B05969093511B8093501BAD
:10437000F0C41092691B80916D1B8093671B0E9493
:10438000300E8091671B80936A1B8091501B909127
:10439000511B05969093511B8093501BDAC41092C9
:1043A000691B80916C1B8093671B0E94300E80916B
:1043B000671B80936A1B8091501B9091511B05963F
:1043C0009093511B8093501BC4C41092691B809121
:1043D0006B1B8093671B0E94300E8091671B80933C
:1043E0006A1B8091501B9091511B05969093511B15
:1043F0008093501BAEC41092691B80916C1B90E09F
:10440000982F882720916B1B822B9093631B80939E
:10441000621B811528E1920728F4FC01E05BFC4F48
:10442000808101C08FEF8093671B0E94300E8091C6
:10443000671B80936A1B8091501B9091511B0896BB
:104440009093511B8093501B84C48091501B90917A
:10445000511B05969093511B8093501B7AC48091F9
:10446000701B8093711B8091501B9091511B05967E
:104470009093511B8093501B6CC480916F1B809351
:10448000711B8091501B9091511B05969093511B6D
:104490008093501B5EC480916E1B8093711B809132
:1044A000501B9091511B05969093511B8093501B6C
:1044B00050C480916D1B8093711B8091501B909113
:1044C000511B05969093511B8093501B42C48091C1
:1044D0006C1B8093711B8091501B9091511B059612
:1044E0009093511B8093501B34C480916B1B80931D
:1044F000711B8091501B9091511B05969093511BFD
:104500008093501B26C480916C1B90E0982F8827C5
:1045100020916B1B822B9093631B8093621B8115F0
:1045200038E1930728F4FC01E05BFC4F808101C077
:104530008FEF8093671B8093711B8091501B90912C
:10454000511B08969093511B8093501B02C480917D
:10455000711B8093701B8091501B9091511B05968D
:104560009093511B8093501BF4C38091501B9091EA
:10457000511B05969093511B8093501BEAC3809169
:104580006F1B8093701B8091501B9091511B05965F
:104590009093511B8093501BDCC380916E1B8093C2
:1045A000701B8091501B9091511B05969093511B4D
:1045B0008093501BCEC380916D1B8093701B8091A4
:1045C000501B9091511B05969093511B8093501B4B
:1045D000C0C380916C1B8093701B8091501B909185
:1045E000511B05969093511B8093501BB2C3809131
:1045F0006B1B8093701B8091501B9091511B0596F3
:104600009093511B8093501BA4C380916C1B90E02E
:10461000982F882720916B1B822B9093631B80938C
:10462000621B811528E1920728F4FC01E05BFC4F36
:10463000808101C08FEF8093671B8093701B8091F6
:10464000501B9091511B08969093511B8093501BC7
:1046500080C38091711B80936F1B8091501B909140
:10466000511B05969093511B8093501B72C38091F0
:10467000701B80936F1B8091501B9091511B05966E
:104680009093511B8093501B64C38091501B909159
:10469000511B05969093511B8093501B5AC38091D8
:1046A0006E1B80936F1B8091501B9091511B059640
:1046B0009093511B8093501B4CC380916D1B809332
:1046C0006F1B8091501B9091511B05969093511B2D
:1046D0008093501B3EC380916C1B80936F1B809115
:1046E000501B9091511B05969093511B8093501B2A
:1046F00030C380916B1B80936F1B8091501B9091F6
:10470000511B05969093511B8093501B22C380919F
:104710006C1B90E0982F882720916B1B822B909325
:10472000631B8093621B811538E1930728F4FC0119
:10473000E05BFC4F808101C08FEF8093671B80930B
:104740006F1B8091501B9091511B08969093511BA9
:104750008093501BFEC28091711B80936E1B8091D1
:10476000501B9091511B05969093511B8093501BA9
:10477000F0C28091701B80936E1B8091501B9091B2
:10478000511B05969093511B8093501BE2C2809160
:104790006F1B80936E1B8091501B9091511B05964F
:1047A0009093511B8093501BD4C28091501B9091C9
:1047B000511B05969093511B8093501BCAC2809148
:1047C0006D1B80936E1B8091501B9091511B059621
:1047D0009093511B8093501BBCC280916C1B8093A3
:1047E0006E1B8091501B9091511B05969093511B0D
:1047F0008093501BAEC280916B1B80936E1B809187
:10480000501B9091511B05969093511B8093501B08
:10481000A0C280916C1B90E0982F882720916B1B81
:10482000822B9093631B8093621B811528E1920772
:1048300028F4FC01E05BFC4F808101C08FEF809386
:10484000671B80936E1B8091501B9091511B0896A3
:104850009093511B8093501B7CC28091711B80935D
:104860006D1B8091501B9091511B05969093511B8D
:104870008093501B6EC28091701B80936D1B809142
:10488000501B9091511B05969093511B8093501B88
:1048900060C280916F1B80936D1B8091501B909123
:1048A000511B05969093511B8093501B52C28091CF
:1048B0006E1B80936D1B8091501B9091511B059630
:1048C0009093511B8093501B44C28091501B909138
:1048D000511B05969093511B8093501B3AC28091B7
:1048E0006C1B80936D1B8091501B9091511B059602
:1048F0009093511B8093501B2CC280916B1B809313
:104900006D1B8091501B9091511B05969093511BEC
:104910008093501B1EC280916C1B90E0982F8827BB
:1049200020916B1B822B9093631B8093621B8115DC
:1049300038E1930728F4FC01E05BFC4F808101C063
:104940008FEF8093671B80936D1B8091501B90911C
:10495000511B08969093511B8093501BFAC1809174
:10496000711B80936C1B8091501B9091511B05967D
:104970009093511B8093501BECC18091701B8093CE
:104980006C1B8091501B9091511B05969093511B6D
:104990008093501BDEC180916F1B80936C1B8091B4
:1049A000501B9091511B05969093511B8093501B67
:1049B000D0C180916E1B80936C1B8091501B909195
:1049C000511B05969093511B8093501BC2C180913F
:1049D0006D1B80936C1B8091501B9091511B059611
:1049E0009093511B8093501BB4C18091501B9091A8
:1049F000511B05969093511B8093501BAAC1809127
:104A00006B1B80936C1B8091501B9091511B0596E2
:104A10009093511B8093501B9CC180916C1B90E024
:104A2000982F882720916B1B822B9093631B809378
:104A3000621B811528E1920728F4FC01E05BFC4F22
:104A4000808101C08FEF8093671B80936C1B8091E6
:104A5000501B9091511B08969093511B8093501BB3
:104A600078C18091711B80936B1B8091501B90913A
:104A7000511B05969093511B8093501B6AC18091E6
:104A8000701B80936B1B8091501B9091511B05965E
:104A90009093511B8093501B5CC180916F1B80933E
:104AA0006B1B8091501B9091511B05969093511B4D
:104AB0008093501B4EC180916E1B80936B1B809125
:104AC000501B9091511B05969093511B8093501B46
:104AD00040C180916D1B80936B1B8091501B909106
:104AE000511B05969093511B8093501B32C18091AE
:104AF0006C1B80936B1B8091501B9091511B0596F2
:104B00009093511B8093501B24C18091501B909116
:104B1000511B05969093511B8093501B1AC1809195
:104B20006C1B90E0982F882720916B1B822B909311
:104B3000631B8093621B811538E1930728F4FC0105
:104B4000E05BFC4F808101C08FEF8093671B8093F7
:104B50006B1B8091501B9091511B08969093511B99
:104B60008093501BF6C080916C1B90E0982F882793
:104B700020916B1B822B9093631B8093621B20916F
:104B8000711B2093671B811538E1930720F4FC010A
:104B9000E05BFC4F20838091501B9091511B079646
:104BA0009093511B8093501BD4C080916C1B90E05C
:104BB000982F882720916B1B822B9093631B8093E7
:104BC000621B2091701B2093671B811538E19307AE
:104BD00020F4FC01E05BFC4F20838091501B9091FE
:104BE000511B07969093511B8093501BB2C080912C
:104BF0006C1B90E0982F882720916B1B822B909341
:104C0000631B8093621B20916F1B2093671B811590
:104C100038E1930720F4FC01E05BFC4F2083809196
:104C2000501B9091511B07969093511B8093501BE2
:104C300090C080916C1B90E0982F882720916B1B6F
:104C4000822B9093631B8093621B20916E1B209399
:104C5000671B811538E1930720F4FC01E05BFC4FF2
:104C600020838091501B9091511B07969093511B6C
:104C70008093501B6EC080916C1B90E0982F88270A
:104C800020916B1B822B9093631B8093621B20915E
:104C90006D1B2093671B811538E1930720F4FC01FD
:104CA000E05BFC4F20838091501B9091511B079635
:104CB0009093511B8093501B4CC020916C1B822FF2
:104CC00090E0982F882730916B1B832B9093631B68
:104CD0008093621B2093671B811538E1930720F4B2
:104CE000FC01E05BFC4F20838091501B9091511B95
:104CF00007969093511B8093501B2BC020916B1BE8
:104D000030916C1B822F90E0932B9093631B8093C8
:104D1000621B2093671B811538E1930720F4FC0187
:104D2000E05BFC4F20838091501B9091511B0796B4
:104D30009093511B8093501B0CC081E08093681BA3
:104D40008091501B9091511B04969093511B80931E
:104D5000501B8091681B811108C08091501B90915D
:104D6000511B8634904128F412C01092511B1092AE
:104D7000501B8091501B9091511B865490419093F1
:104D8000511B8093501B0E949A0D8CE301C080E060
:104D9000DF91CF911F910F91089561E086E3E7D1F4
:104DA00061E086E31DD261E082E79BE10E94120C84
:104DB00082E79BE10E94C30C1092771B0895E82FB5
:104DC000F0E0F595E795F595E795E858F44E81E024
:104DD00080838093771B0895EF92FF920F931F9328
:104DE000CF93DF938091771B882371F10E94A20DEE
:104DF0007C011092771B08E71BE1C0E0D0E0A8011E
:104E000048575B41F80180818823B9F0108293E014
:104E1000559547959A95E1F7440F440F440FBE010D
:104E20006C717727759567957595679597012C0F28
:104E30003D1F82E79BE10E94E80C0F5F1F4F249605
:104E4000C115F1E0DF07D9F6DF91CF911F910F91E6
:104E5000FF90EF90089520E047E368E382E79BE14D
:104E60000C949D0B46E355E163E082E027C3EFD24B
:104E7000882331F0FFD287FD03C08F3719F00895E2
:104E800080E0089588E0089588EB9BE116C30895BB
:104E900081E0089508950895B5D0FDDF0E94D30DF7
:104EA000C0E0D0E00E94D40D2097E1F30E94000002
:104EB000F9CF1F920F920FB60F9211242F933F93A9
:104EC0008F939F93AF93BF938091BA1B9091BB1B1D
:104ED000A091BC1BB091BD1B3091B91B23E0230FE7
:104EE0002D3720F40196A11DB11D05C026E8230F22
:104EF0000296A11DB11D2093B91B8093BA1B9093FC
:104F0000BB1BA093BC1BB093BD1B8091BE1B90919B
:104F1000BF1BA091C01BB091C11B0196A11DB11D6B
:104F20008093BE1B9093BF1BA093C01BB093C11B6B
:104F3000BF91AF919F918F913F912F910F900FBE95
:104F40000F901F9018952FB7F8946091BA1B70912D
:104F5000BB1B8091BC1B9091BD1B2FBF08953FB719
:104F6000F8948091BE1B9091BF1BA091C01BB09183
:104F7000C11B26B5A89B05C02F3F19F00196A11DA6
:104F8000B11D3FBF6627782F892F9A2F620F711DA1
:104F9000811D911D42E0660F771F881F991F4A955A
:104FA000D1F70895CF92DF92EF92FF92CF93DF93E4
:104FB0006B017C01D4DFEB01C114D104E104F104E5
:104FC00079F06BD1CCDF6C1B7D0B683E7340A0F396
:104FD00081E0C81AD108E108F108C851DC4FECCFD4
:104FE000DF91CF91FF90EF90DF90CF9008950197E0
:104FF000009739F0880F991F880F991F0297019722
:10500000F1F70895789484B5826084BD84B5816099
:1050100084BD85B5826085BD85B5816085BDEEE6C0
:10502000F0E0808181608083E1E8F0E0108280819F
:1050300082608083808181608083E0E8F0E080810D
:1050400081608083E1EBF0E0808184608083E0EB2D
:10505000F0E0808181608083E1E9F0E0808182601E
:105060008083808181608083E0E9F0E080818160DD
:105070008083E1EAF0E080818260808380818160CA
:105080008083E0EAF0E0808181608083E1E2F1E00A
:10509000808182608083808181608083E0E2F1E0B2
:1050A000808181608083EAE7F0E080818460808392
:1050B000808182608083808181608083808180683C
:1050C00080831092C100089590E0FC013197E23195
:1050D000F10508F04BC0EE58FE4F34C480918000BB
:1050E0008F7703C0809180008F7D8093800008952A
:1050F00080918000877FF9CF84B58F7702C084B517
:105100008F7D84BD08958091B0008F7703C080911A
:10511000B0008F7D8093B0000895809190008F77CC
:1051200007C0809190008F7D03C080919000877FA1
:105130008093900008958091A0008F7707C08091A0
:10514000A0008F7D03C08091A000877F8093A00086
:105150000895809120018F7707C0809120018F7D75
:1051600003C080912001877F809320010895CF9311
:10517000DF9390E0FC01E45AFB4E2491FC01EE55D4
:10518000FB4E8491882349F190E0880F991FFC0120
:10519000E45EFA4EA591B4918E5F9A4EFC01C591E2
:1051A000D4919FB7611108C0F8948C912095822307
:1051B0008C93888182230AC0623051F4F8948C91D8
:1051C000322F309583238C938881822B888304C06F
:1051D000F8948C91822B8C939FBFDF91CF9108958F
:1051E0000F931F93CF93DF931F92CDB7DEB7282F76
:1051F00030E0F901EA5EFB4E8491F901E45AFB4E7E
:105200001491F901EE55FB4E04910023C1F088235F
:1052100019F0698359DF6981E02FF0E0EE0FFF1F7D
:10522000EE5FFA4EA591B4919FB7F8948C916111FD
:1052300003C01095812301C0812B8C939FBF0F90D9
:10524000DF91CF911F910F910895CF93DF93282F76
:1052500030E0F901EA5EFB4E8491F901E45AFB4E1D
:10526000D491F901EE55FB4EC491CC2389F0811104
:105270002BDFEC2FF0E0EE0FFF1FE851FB4EA59166
:10528000B4912C912D2381E090E021F480E002C0C4
:1052900080E090E0DF91CF91089508952091C91B9F
:1052A0003091CA1B9091C21BD901A05FBE4F809163
:1052B000CE1B4091CF1B841304C09093C21B80E08F
:1052C00008958F5F8D3208F080E0E82FF0E0E05322
:1052D000F44EE0818093CE1BEE2379F3E03F11F48E
:1052E0009160E5CFE03E11F49260E1CF90FF0EC0F7
:1052F000E23111F49B7F08C0E93511F4977F04C0B7
:10530000E13111F491FD9F7E9C7FD1CFE23111F408
:105310009460CDCFE93511F49860C9CFE13111F433
:1053200091FD906191FF08C0EA54E43318F5F0E074
:10533000EC5EFD4FE0811FC094FF09C08C91882373
:1053400031F0E838B8F4F0E0EF5EFE4F08C0892F86
:105350008C7041F0E83870F4F0E0E857FF4FE20F4E
:10536000F31F06C0E83830F4A9014E0F511DFA01B1
:10537000E49101C0E0E09C7FEE2309F498CF909384
:10538000C21B8E2F0895CF92DF92EF92FF920F9360
:105390001F93CF93DF938091CD1B57DFEC01D3DDBB
:1053A0000091C51B1091C61B2091C71B3091C81BD3
:1053B0006B017C01C01AD10AE20AF30A9701860147
:1053C0000B3F11052105310520F01092C41B1092EE
:1053D000C31B6093C51B7093C61B8093C71B909320
:1053E000C81B9091C41B8FEF890F883050F4DD27C4
:1053F00001C0CC0F8A95EAF78091C31B8C2B809358
:10540000C31B81E0890F8093C41B8B30B9F480915A
:10541000CF1B8F5F8D3208F080E09091CE1B8917F3
:1054200049F0E82FF0E09091C31BE053F44E9083D5
:105430008093CF1B1092C41B1092C31BDF91CF919E
:105440001F910F91FF90EF90DF90CF900895809182
:10545000CC1B81110DC08091CB1B811109C01EDFB7
:10546000982F8093CC1B81E0911103C080E00895B8
:1054700081E008958091CB1B882319F01092CB1BFB
:1054800017C08091CC1B882319F01092CC1B01C04F
:1054900005DF87FF0BC0982F9F7390689093CB1BFD
:1054A0008295869586958370806C02C0882311F062
:1054B00090E008958FEF9FEF08950895CF93DF93C5
:1054C000D82FC62F8093CD1B5093CA1B4093C91B66
:1054D00062E08C2F4CDE62E08D2F49DEC250C43179
:1054E00030F4EC2FF0E0E050FE4F808101C08FEFF0
:1054F0001092CF1B1092CE1B8F3F39F042E050E04C
:1055000063EC79E2DF91CF9103C0DF91CF910895F1
:10551000883008F06CC0E82FF0E0EE0FFF1FE3507A
:10552000F44E7183608390E0FC013197E730F10520
:1055300088F5EC57FE4F06C2809169008C7F842B62
:1055400080936900E89A089580916900440F551F7F
:10555000440F551F837F842B80936900E99A089537
:105560008091690074E0440F551F7A95E1F78F7CB4
:10557000842B80936900EA9A08958091690066E01F
:10558000440F551F6A95E1F78F73842B8093690050
:10559000EB9A089580916A008C7F842B80936A0037
:1055A000EC9A089580916A00440F551F440F551FCF
:1055B000837F842B80936A00ED9A089580916A001E
:1055C00024E0440F551F2A95E1F78F7C842B8093AC
:1055D0006A00EE9A089580916A0096E0440F551F84
:1055E0009A95E1F78F73842B80936A00EF9A089560
:1055F0001F920F920FB60F9211240BB60F922F939A
:105600003F934F935F936F937F938F939F93AF934A
:10561000BF93EF93FF938091011C9091021C892B03
:1056200029F0E091011CF091021C1995FF91EF9176
:10563000BF91AF919F918F917F916F915F914F91AA
:105640003F912F910F900BBE0F900FBE0F901F90A8
:1056500018951F920F920FB60F9211240BB60F924E
:105660002F933F934F935F936F937F938F939F936A
:10567000AF93BF93EF93FF938091031C9091041C11
:10568000892B29F0E091031CF091041C1995FF91DE
:10569000EF91BF91AF919F918F917F916F915F91AA
:1056A0004F913F912F910F900BBE0F900FBE0F9017
:1056B0001F9018951F920F920FB60F9211240BB6E0
:1056C0000F922F933F934F935F936F937F938F939B
:1056D0009F93AF93BF93EF93FF938091051C90919D
:1056E000061C892B29F0E091051CF091061C1995E8
:1056F000FF91EF91BF91AF919F918F917F916F91AA
:105700005F914F913F912F910F900BBE0F900FBE65
:105710000F901F9018951F920F920FB60F921124A1
:105720000BB60F922F933F934F935F936F937F939B
:105730008F939F93AF93BF93EF93FF938091071C39
:105740009091081C892B29F0E091071CF091081C0E
:105750001995FF91EF91BF91AF919F918F917F919B
:105760006F915F914F913F912F910F900BBE0F90D2
:105770000FBE0F901F9018951F920F920FB60F92A9
:1057800011240BB60F922F933F934F935F936F9318
:105790007F938F939F93AF93BF93EF93FF938091EA
:1057A000FD1B9091FE1B892B29F0E091FD1BF091D0
:1057B000FE1B1995FF91EF91BF91AF919F918F9132
:1057C0007F916F915F914F913F912F910F900BBE01
:1057D0000F900FBE0F901F9018951F920F920FB64B
:1057E0000F9211240BB60F922F933F934F935F9319
:1057F0006F937F938F939F93AF93BF93EF93FF9399
:105800008091FF1B9091001C892B29F0E091FF1BD8
:10581000F091001C1995FF91EF91BF91AF919F916D
:105820008F917F916F915F914F913F912F910F9049
:105830000BBE0F900FBE0F901F9018951F920F92E6
:105840000FB60F9211240BB60F922F933F934F93E5
:105850005F936F937F938F939F93AF93BF93EF93D8
:10586000FF938091091C90910A1C892B29F0E091EB
:10587000091CF0910A1C1995FF91EF91BF91AF910E
:105880009F918F917F916F915F914F913F912F9158
:105890000F900BBE0F900FBE0F901F9018951F9288
:1058A0000F920FB60F9211240BB60F922F933F93C6
:1058B0004F935F936F937F938F939F93AF93BF9318
:1058C000EF93FF9380910B1C90910C1C892B29F076
:1058D000E0910B1CF0910C1C1995FF91EF91BF9179
:1058E000AF919F918F917F916F915F914F913F9178
:1058F0002F910F900BBE0F900FBE0F901F90189519
:10590000A1E21A2EAA1BBB1BFD010DC0AA1FBB1FC3
:10591000EE1FFF1FA217B307E407F50720F0A21B35
:10592000B30BE40BF50B661F771F881F991F1A94A2
:1059300069F760957095809590959B01AC01BD01CC
:10594000CF010895EE0FFF1F0590F491E02D1994FB
:0C5950000790F691E02D1994F894FFCF19
:10595C000001FFFFFFFFFFFFFFFFFFFFFFFFFFFF48
:10596C00050403022F0000000000000000000000EE
:10597C00000000000D00000000000000000000000E
:10598C0000000000000800000000007F0A00150B5A
:08599C00000000001A000019D0
:00000001FF
