:100000000C94F20A0C94252D0C94562D0C94872DEB
:100010000C94B82D0C94E92D0C941A2E0C944B2EA4
:100020000C947C2E0C94230B0C94230B0C94230B1C
:100030000C94230B0C94230B0C94230B0C94230B88
:100040000C94230B0C94230B0C94230B0C94230B78
:100050000C94230B0C94230B0C94230B0C948629E7
:100060000C94230B0C94A6280C94DC280C94230BE2
:100070000C94230B0C94230B0C94230B0C94230B48
:100080000C94230B0C94230B0C94230B0C94230B38
:100090000C94230B0C94230B0C94230B0C94230B28
:1000A0000C94230B0C94230B0C94230B0C94230B18
:1000B0000C94230B0C94230B0C94230B0C94230B08
:1000C0000C94230B0C94230B0C94230B0C94230BF8
:1000D0000C94230B0C94230B0C94230B0C94230BE8
:1000E0000C94230BB90DE40DBD0DBE0DBF0DC10D5C
:1000F000D10DD50D050F130F210F390F4D0F730FB4
:100100008E0FAD0FBD0FCF0FE10FF90F0D10311096
:100110004E106D107D108F10A110C110D510FB1066
:1001200018113711471159116B118A119F11C31101
:10013000E011FF110F1221121327331247126D1213
:100140008A12A912B912CB121327DD12F11217135A
:100150003413531363137513132787139B13C1139E
:10016000DE13FD131327132713270D14221446142F
:1001700063149014A014CB14E21417152A154C150F
:100180005B158C159B15C615D5150A1619163B1649
:100190004A167B168A16B516C616FB160A172C17B2
:1001A0003B176C177B17A817B717EE17FD171F180B
:1001B0002E185F186E189918A818DD18EC180E196B
:1001C0001D194E195D1988199719CC19DB19FD19DC
:1001D0000C1A3D1A4C1A771A861ABB1ACA1AEC1A4C
:1001E000FB1A2C1B3B1B681B771BAE1BBD1BDF1BAD
:1001F000EE1B1F1C2E1C471C601C791C921CAB1C88
:10020000C41CDD1C081D1F1D361D4D1D641D7B1DDE
:10021000921DA91DD21DEB1D041E1D1E361E4F1E54
:10022000681E811EAC1EC31EDA1EF11E081F1E1F93
:10023000341F4A1F721F841F9B1FB21FC91FE01F5C
:10024000F71F0E203B204D2064207B209220A92008
:10025000C020D720042116212D2144215B217221A9
:100260008921A021CD21E321F9210F2225223B2242
:10027000512267228F229922A722B522C322D1229E
:10028000DF22ED2211231F23292337234523532364
:1002900061236F239323A123AF23B923C723D5233E
:1002A000E323F1231524232431243F244924572414
:1002B000652473249724A524B324C124CF24D924EE
:1002C000E724F524192527253525432551255F25C4
:1002D000692577259B25A925B725C525D325E125A2
:1002E000EF25F9251D263F2661268326A526C7264C
:1002F000E8260727A92AAC2A9B2A9F2AA52AE32AAF
:10030000B02AB42ABA2ABE2AC22AC82ACC2AD02A9B
:10031000E32AD62ADA2ADE2AFF2CC92CD12CDD2C9E
:10032000EA2C0B2D182D2E00000036001000C700FF
:10033000B000680004000000460011000100300019
:100340004400040000000C008800E0004500430069
:1003500053002D0038003000300038000D000D0033
:10036000480065006C006C006F000D0057006F00C6
:100370006F00080072006C006400200021000D0076
:10038000000000000000000000000000000000006D
:10039000000000000000000000000000000000005D
:1003A000000000000000000000000000000000004D
:1003B000000000000000000000000000000000003D
:1003C000000000000000000000000000000000002D
:1003D000000000000000000000000000000000001D
:1003E000000000000000000000000000000000000D
:1003F00000000000000000000000000000000000FD
:1004000000000000000000000000000000000000EC
:1004100000000000000000000000000000000000DC
:10042000000000000000000080008200A400000026
:10043000DA007D00DF007A00AE008D00D800EE000B
:10044000AA000000A4009400C40091009400D5000C
:10045000D500D200A50011008000C000810010006E
:1004600080008900C8006F00FB009700A600CF0045
:10047000F900E700F900E400DB00E700F300EF001B
:10048000F3002400F900EF00FB00E700FB00100080
:100490008400110084005400C40038008E00110054
:1004A00095008200F9004F00AB00ED00FB00EF006B
:1004B000FA004F00F2006B00BB00CF00F300C90050
:1004C000F3006F00F300ED00DB009700F4002F0055
:1004D000F900ED00DA004F009200ED00DF006D0042
:1004E000FB006F00FB00C900FB00E400FB00DD0027
:1004F000FB00E700F3009200F4006F00DB006A00ED
:10050000DB00FD00DB00AD00DA009200DA008F00B6
:10051000F8004F00F200A40092002700F9009200BA
:10052000AE0007008000C700140004005000070060
:100530000100A800F8000600860051003600000007
:100540002E000000C4000700DD00E6002E000100C0
:1005500036000C00FC0030003000FB00E00006001C
:100560008100510006001800D80051000600380034
:1005700004000500340040005100C400B0007000C9
:10058000CC0001003C006000600036000100140057
:100590002000140020007000B10001008000040061
:1005A0008000F0002E000000C7003000EF00F000D7
:1005B000C5001A00E800C6001A00F000060000009E
:1005C00012002C0085005100C5001A00E800C6008A
:1005D0001A00F0000600000012002C0085005100F7
:1005E000C5001A00E800C6001A00F000060000006E
:1005F00012002C008300510006008000510006000C
:10060000870051005100C500B6003C0001004800C1
:10061000450001002E00010036002000C300040048
:100620000400F8003C003D00600008000100A80044
:100630005100F80036002400C700040006003C000A
:100640003900600092000100A800F800340040006A
:1006500051001E0018000600850051005100510095
:100660005100510051005100510051005100510002
:1006700051005100510051005100190048009A00EA
:1006800001004400080001002E0001003600200097
:100690003C00ED006800840001003C00E8006800B8
:1006A000000001001400EC00480008000100F80000
:1006B00036002400F800D8004400980001002E0005
:1006C00001003600200080005000D60001003600F6
:1006D0002400C40024003F00F8004400080001008A
:1006E000000000000000000000000000000000000A
:1006F00000000000000000000000000000000000FA
:1007000000000000000000000000000000000000E9
:1007100000000000000000000000000000000000D9
:1013200000000000000000000A0B02090C0D0E086E
:10133000070304010000000000000000000000009E
:10134000000000000000000000000000000000009D
:10135000000012111000000000000000000000005A
:10136000000000000000000000000000010210204A
:1013700020080810204010204080020102010804CB
:10138000020101020408102040808040201008045F
:1013900002018004020180402010080402010804B8
:1013A00002010102040810204080010204081020FC
:1013B0004080050505050705080808080202020225
:1013C0000A0A0808040404040101010101010101E1
:1013D0000303030303030303040707070C0C0C0CAC
:1013E0000C0C0C0C02020202060606060606060695
:1013F0000B0B0B0B0B0B0B0B00002000230026002C
:1014000029002C002F00320000010000030106011A
:10141000090100002200250028002B002E003100C9
:10142000340002010000050108010B010000210049
:10143000240027002A002D003000330001010000A5
:10144000040107010A010000000000000000000084
:101450000000000960000000000000713100000081
:101460007A7361773200006378646534330000205A
:10147000766674723500006E626867793600000027
:101480006D6A75373800002C6B696F303900002E9B
:101490002F6C3B702D00000027005B3D000000001A
:1014A0000D5D005C00000000000000007F000031C6
:1014B000003437000000302E323536381B00002B48
:1014C000332D2A3900000000000000000000000059
:1014D0000000000000000000000000097E00000085
:1014E00000000051210000005A53415740000043C2
:1014F0005844452423000020564654522500004EEF
:10150000424847595E0000004D4A55262A00003CDB
:101510004B494F292800003E3F4C3A505F000000E5
:1015200022007B2B000000000D7D007C00000000ED
:10153000000000007F000031003437000000302E32
:10154000323536381B00002B332D2A3900000000BD
:10155000000000000000000000000000000000008B
:10156000000000000000000000000000000000007B
:10157000000000000000000000000000000000006B
:10158000000000000000000000000000000000005B
:10159000000000000000000000000000000000004B
:1015A000000000000000000000000000000000003B
:1015B000000000000000000000000000000000002B
:1015C000000000000000000000000000000000001B
:1015D000000000000000000000000000000000000B
:1015E000E50D0E2911241FBECFEFD1E2DEBFCDBF26
:1015F00000E00CBF12E0A0E0B2E0E6EBFDE500E0A9
:101600000BBF02C007900D92A837B107D9F72DE1A3
:10161000A8E7B2E001C01D92AF3DB207E1F715E1C6
:10162000C4EED5E100E006C022970109FE010BBF20
:101630000E94D52EC03ED10780E00807A9F70E947E
:101640007A290C94D92E0C940000FC012283638328
:1016500044830895CF93DF93FC01438150E0FA0166
:10166000EE54FC4EE491F0E0EE0FFF1FEE5EFB4EF9
:10167000A591B491FC01248130E0F901EE54FC4EB7
:10168000849190E0880F991F8E5E9B4EFC01C5915E
:10169000D491FA01E459FC4E4491F901E459FC4E0D
:1016A00024913FB7F89488E0722F7095542F50958D
:1016B000988167FF02C0922B01C0972398839C9169
:1016C000942B9C939C9195239C93660F815081F75A
:1016D0003FBFDF91CF9108951F93CF93DF93EC012C
:1016E000142F8A81882389F06EBD0DB407FEFDCFCB
:1016F000812F807F8EBD0DB407FEFDCF1295107F28
:101700001EBD0DB407FEFDCF0EC0CE01A3DF612FBD
:10171000607FCE019FDF612F6295607FCE01DF91F8
:10172000CF911F9197CFDF91CF911F910895462FB1
:1017300068EFD2CFCF93DF93EC0160E08B810E9402
:101740001D2B60E08C810E941D2B61E08B810E942B
:10175000E42A61E08C810E94E42A8A81882311F0C6
:1017600081E58CBD188260E2CE01E1DF61E070E0CE
:1017700080E090E00E94FF2960E2CE01D8DF80E3A4
:1017800090E00E94242A66E0CE01D1DF80E390E061
:101790000E94242A198281E088836CE0CE01C7DF91
:1017A00080E390E0DF91CF910C94242A462F6AEFDA
:1017B00093CFCF93DF93EC01898181110EC0888193
:1017C000882311F066E201C064E2CE01B0DF80E35D
:1017D00090E00E94242A81E08983DF91CF910895CF
:1017E000EF92FF920F931F93CF93DF931F92CDB78A
:1017F000DEB77C018B01FC018081882301F1C701E8
:101800004983D7DF602F6F716068C70190DF49811E
:10181000642F6068C8018072992796958795969580
:101820008795682BC70183DF80E390E00F90DF91FD
:10183000CF911F910F91FF90EF900C94242A0F905D
:10184000DF91CF911F910F91FF90EF900895CF926C
:10185000DF92EF92FF920F931F93CF93DF931F922C
:101860001F92CDB7DEB77C01842F462F50E0682F42
:1018700070E0C70129833A83B3DF2981C22E3A8100
:10188000D32E020F0C15E1F0F60111916F01E12F3B
:10189000F0E0A4E0F595E795AA95E1F7EE0FFF1FBC
:1018A000E050FE4F6081C70181DF1F70E12FF0E043
:1018B000EE0FFF1FE050FE4F6081C70177DFE2CFE0
:1018C0008AE090E00F900F90DF91CF911F910F91E0
:1018D000FF90EF90DF90CF900C94242AFF920F930B
:1018E0001F93CF93DF938C01C0E0D0E040E050E045
:1018F000BE01C80175DF88E0F82E60E0C80156DF40
:1019000060E0C80153DF8AE090E00E94242AFA9444
:10191000A1F72196C034D10549F7DF91CF911F91EE
:101920000F91FF9008958091C404811123C081E03C
:101930008093C4041092C30426E040E855E260E0BE
:1019400070E08EEE9CE10E94462861E086E30E94F2
:10195000E42A61E086E30E941D2B61E089EB92E0BE
:10196000E9DE89EB92E0BADF46E454E163E082E02D
:101970000C948B2C0895EF92FF920F931F93CF93AB
:10198000DF930E94542C8823A1F00E94672C87FDCE
:1019900003C08093C30402C01092C3048091C304A7
:1019A0008F3719F488E08093C3048091C3048111B8
:1019B000D7D19091C102992319F01092C20205C0AB
:1019C0008091C2028F5F8093C20280917802882347
:1019D000E9F09923D9F010927802C9E7D2E083ECBC
:1019E000E82E82E0F82E10E08881882341F01882EA
:1019F00008E09701412F60E089EB92E028DF1F5F4C
:101A0000219688E0E80EF11C103471F7DF91CF9138
:101A10001F910F91FF90EF9008958091C304882348
:101A200001F11092C3048032E0F0803610F490ECA3
:101A300001C090E82FEB280F2A3108F490E82FE935
:101A4000280F2A3118F4805290EC02C0882329F024
:101A50008D3029F08F73892B08958FEF08958EEFC5
:101A6000089590E4E7CFE091C0022E2F277080E820
:101A700090E002C0959587952A95E2F74091BF02C4
:101A8000F0E093E0F595E7959A95E1F7242F30E0A3
:101A900058E0459FE00DF11D1124ED53FD4F4081AD
:101AA000542F582349F4842B8083F901E758FD4FC4
:101AB00081E08083809378020895E091C0022E2F08
:101AC000277080E890E002C0959587952A95E2F707
:101AD0004091BF02F0E023E0F595E7952A95E1F704
:101AE000242F30E058E0459FE00DF11D1124ED5307
:101AF000FD4F4081542F582351F0809584238083DB
:101B0000F901E758FD4F81E08083809378020895C2
:101B1000282F8091C102882339F0277C213809F0D1
:101B200053C01092C1020895822F90E036E095953F
:101B300087953A95E1F78130910551F08230910512
:101B400059F0892B09F040C02F732093C0020895EB
:101B50002F732093BF020895822F877C90E0FC01B1
:101B6000E058F109E830F10578F5EE58FF4F0C9494
:101B7000CF2E8091BF02815010C075CF9ECF73DFF2
:101B800001C09BDF8091C0028F5F8F738093C00282
:101B900081111AC08091BF028F5F8F738093BF0243
:101BA000089581E08093C10208959091C00291113F
:101BB00006C08091BF0281508F738093BF028FEF68
:101BC000890F8F738093C00208958EEB92E00E947C
:101BD0008A2C20E047E368E389EB92E036CD7EC0B3
:101BE000CF92DF92EF92FF92CF93DF9300D01F92BC
:101BF000CDB7DEB7B9D0282F30E040E050E0211556
:101C000031054105510549F129833A834B835C83B2
:101C10000E94D029C090C504D090C604E090C704AB
:101C2000F090C80429813A814B815C816C157D0557
:101C30008E059F0548F368EE73E080E090E00E9417
:101C4000AD2E2C0D3D1D4E1D5F1D2093C504309300
:101C5000C6044093C7045093C8040F900F900F9090
:101C60000F90DF91CF91FF90EF90DF90CF9008958C
:101C70002091ED1C8091E21C90E0820F911D20913B
:101C8000E51C820F911D8093DE1C9093DF1C9093C6
:101C9000E51C8093E21C08958091ED1C90E020915A
:101CA000E21C821B91092091E51C821B9109809303
:101CB000DE1C9093DF1C91709093E51C8093E21CD6
:101CC00008959FEF882341F080FF04C021E0911127
:101CD00020E0922F8695F6CF892F0895CF93DF933A
:101CE0001092E41C1092E51C1092E61C1092E71C66
:101CF0001092E81C1092E91C1092EA1C1092EB1C46
:101D00001092EC1C1092ED1C1092E11C1092CD1C54
:101D10001092CC1C1092CB1C1092CA1C1092E01C8A
:101D20001092E31C00DE8091C904811116C081E08D
:101D30008093C90426E233E0CAECD4E0C901AA27A3
:101D400097FDA095BA2FABBFFC01879189932E5FB9
:101D50003F4F83E12632380789F7DF91CF9108950D
:101D600081E08093E01C08950F931F93CF93DF933E
:101D70008091E01C8823D9F01092E01C8091E31C34
:101D80008823A9F01092E41C1092DD1C1092DC1C38
:101D9000E091E11CEF5FE770E093E11CF0E0EE0FF3
:101DA000FF1FE453F34E118210820C94312780916F
:101DB000E41C81110C941327C091E11C4C2F50E0BE
:101DC000440F551FFA01E453F34E208131813093C3
:101DD000DD1C2093DC1C211588E1380730F4F90163
:101DE000E653FB4F80818093E21C2F5F3F4F3F7093
:101DF000FA01E453F34E318320838091E21C90E09A
:101E0000FC01E658FF4F0C94CF2E81E08093E41C38
:101E10008091CA1C9091CB1C04969093CB1C80930C
:101E2000CA1C0C94132781E08093E41C8091CA1C87
:101E30009091CB1C04969093CB1C8093CA1C0C945D
:101E400013272091ED1C30E0C9019595879580936B
:101E5000E51C220F331F282B2093ED1C8091CA1CF8
:101E60009091CB1C05969093CB1C8093CA1C0C942C
:101E700013278091E51C811105C0EFEFEC0FE7708F
:101E8000E093E11C8091CA1C9091CB1C0496909326
:101E9000CB1C8093CA1C0C9413271092E51C309322
:101EA000DD1C2093DC1CF901E653FB4F80818093FD
:101EB000E21CFA01E453F34E2F5F3F4F3F70318332
:101EC0002083D6DE8091E21C8093E61C8093ED1C7B
:101ED0008091CA1C9091CB1C08969093CB1C809348
:101EE000CA1C0C9413271092DD1C1092DC1CE1E03C
:101EF000EC0FE770E093E11CF0E0EE0FFF1FE453FE
:101F0000F34E118210828091CA1C9091CB1C0596D1
:101F10009093CB1C8093CA1C0C9413273093DD1C28
:101F20002093DC1CF901E653FB4F80818093E21C77
:101F3000FA01E453F34E2F5F3F4F3F70318320830C
:101F40008093ED1C8091CA1C9091CB1C08969093B5
:101F5000CB1C8093CA1C0C941327EFEFEC0FE77097
:101F6000E093E11C8091CA1C9091CB1C0596909344
:101F7000CB1C8093CA1C0C9413278091EC1C8F5FA0
:101F80008093EC1C8093E61C8091CA1C9091CB1C22
:101F900005969093CB1C8093CA1C0C9413278091B8
:101FA000EC1C81508093EC1C8093E61C8091CA1C31
:101FB0009091CB1C05969093CB1C8093CA1C0C94DB
:101FC00013278091ED1C982F91709093E51C9795A5
:101FD000992797958695892B8093ED1C8091CA1C33
:101FE0009091CB1C05969093CB1C8093CA1C0C94AB
:101FF00013278091E61C882329F0EFEFEC0FE770A0
:10200000E093E11C8091CA1C9091CB1C04969093A4
:10201000CB1C8093CA1C0C9413273093DD1C209397
:10202000DC1CF901E653FB4F80818093E21CFA012E
:10203000E453F34E2F5F3F4F3F703183208318DE10
:102040008091E21C8093E61C8093ED1C8091CA1C59
:102050009091CB1C08969093CB1C8093CA1C0C9437
:10206000132788E090E09093DD1C8093DC1CE1E076
:10207000EC0FE770E093E11CF0E0EE0FFF1FE4537C
:10208000F34E918380838091CA1C9091CB1C05965E
:102090009093CB1C8093CA1C0C9413273093DD1CA7
:1020A0002093DC1CF901E653FB4F80818093E21CF6
:1020B000FA01E453F34E2F5F3F4F3F70318320838B
:1020C0008093EC1C8091CA1C9091CB1C0896909335
:1020D000CB1C8093CA1C0C941327EFEFEC0FE77016
:1020E000E093E11C8091CA1C9091CB1C05969093C3
:1020F000CB1C8093CA1C0C9413278091EB1C8F5F20
:102100008093EB1C8093E61C8091CA1C9091CB1CA1
:1021100005969093CB1C8093CA1C0C941327809136
:10212000EB1C81508093EB1C8093E61C8091CA1CB1
:102130009091CB1C05969093CB1C8093CA1C0C9459
:1021400013272091ED1C30E0C901880F991F4091A1
:10215000E51C842B9093DF1C8093DE1C220F232F21
:10216000221F330B2093E51C8093ED1C8091CA1C29
:102170009091CB1C05969093CB1C8093CA1C0C9419
:1021800013278091E61C87FD05C0EFEFEC0FE77089
:10219000E093E11C8091CA1C9091CB1C0496909313
:1021A000CB1C8093CA1C0C9413271092E51C30930F
:1021B000DD1C2093DC1CF901E653FB4F80818093EA
:1021C000E21CFA01E453F34E2F5F3F4F3F7031831F
:1021D000208362DD8091E21C8093E61C8093ED1CDD
:1021E0008091CA1C9091CB1C08969093CB1C809335
:1021F000CA1C0C94132780E190E09093DD1C80931F
:10220000DC1CE1E0EC0FE770E093E11CF0E0EE0F86
:10221000FF1FE453F34E918380838091CA1C9091F9
:10222000CB1C05969093CB1C8093CA1C0C9413274F
:102230003093DD1C2093DC1CF901E653FB4F8081B9
:102240008093E21CFA01E453F34E2F5F3F4F3F703F
:10225000318320838093EB1C8091CA1C9091CB1C0E
:1022600008969093CB1C8093CA1C0C941327EFEF15
:10227000EC0FE770E093E11C8091CA1C9091CB1C9D
:1022800005969093CB1C8093CA1C0C9413278091C5
:10229000EA1C8F5F8093EA1C8093E61C8091CA1C25
:1022A0009091CB1C05969093CB1C8093CA1C0C94E8
:1022B00013278091EA1C81508093EA1C8093E61CCE
:1022C0008091CA1C9091CB1C05969093CB1C809357
:1022D000CA1C0C9413278091E51C90E0982F882746
:1022E0002091ED1C822B9093DF1C8093DE1C282F05
:1022F00021702093E51C969587958093ED1C809125
:10230000CA1C9091CB1C05969093CB1C8093CA1C41
:102310000C9413278091E61CD4DC811105C0EFEFEB
:10232000EC0FE770E093E11C8091CA1C9091CB1CEC
:1023300004969093CB1C8093CA1C0C941327309363
:10234000DD1C2093DC1CF901E653FB4F8081809358
:10235000E21CFA01E453F34E2F5F3F4F3F7031838D
:1023600020839ADC8091E21C8093E61C8093ED1C14
:102370008091CA1C9091CB1C08969093CB1C8093A3
:10238000CA1C0C94132788E190E09093DD1C809385
:10239000DC1CE1E0EC0FE770E093E11CF0E0EE0FF5
:1023A000FF1FE453F34E918380838091CA1C909168
:1023B000CB1C05969093CB1C8093CA1C0C941327BE
:1023C0003093DD1C2093DC1CF901E653FB4F808128
:1023D0008093E21CFA01E453F34E2F5F3F4F3F70AE
:1023E000318320838093EA1C8091CA1C9091CB1C7E
:1023F00008969093CB1C8093CA1C0C941327EFEF84
:10240000EC0FE770E093E11C8091CA1C9091CB1C0B
:1024100005969093CB1C8093CA1C0C941327809133
:10242000E91C8F5F8093E91C8093E61C8091CA1C95
:102430009091CB1C05969093CB1C8093CA1C0C9456
:1024400013278091E91C81508093E91C8093E61C3E
:102450008091CA1C9091CB1C05969093CB1C8093C5
:10246000CA1C0C9413278091E51C882329F0EFEFF8
:10247000EC0FE770E093E11C8091CA1C9091CB1C9B
:1024800004969093CB1C8093CA1C0C941327109233
:10249000E51C3093DD1C2093DC1CF901E653FB4F57
:1024A0008081FA01E453F34E2F5F3F4F3F70318339
:1024B00020839091ED1C89238093E21C8093E61C7D
:1024C0008093ED1C8091CA1C9091CB1C0896909330
:1024D000CB1C8093CA1C0C94132780E290E090934D
:1024E000DD1C8093DC1CE1E0EC0FE770E093E11C65
:1024F000F0E0EE0FFF1FE453F34E91838083809151
:10250000CA1C9091CB1C05969093CB1C8093CA1C3F
:102510000C9413273093DD1C2093DC1CF901E65347
:10252000FB4F80818093E21CFA01E453F34E2F5F4E
:102530003F4F3F70318320838093E91C8091CA1CF8
:102540009091CB1C08969093CB1C8093CA1C0C9442
:102550001327EFEFEC0FE770E093E11C8091CA1CAA
:102560009091CB1C05969093CB1C8093CA1C0C9425
:1025700013278091E81C8F5F8093E81C8093E61CF2
:102580008091CA1C9091CB1C05969093CB1C809394
:10259000CA1C0C9413278091E81C81508093E81C7E
:1025A0008093E61C8091CA1C9091CB1C0596909359
:1025B000CB1C8093CA1C0C9413278091E61C8111BC
:1025C00005C0EFEFEC0FE770E093E11C8091CA1CAF
:1025D0009091CB1C04969093CB1C8093CA1C0C94B6
:1025E00013271092E51C3093DD1C2093DC1CF901AD
:1025F000E653FB4F8081FA01E453F34E2F5F3F4FC8
:102600003F70318320839091ED1C89278093E21CD9
:102610008093E61C8093ED1C8091CA1C9091CB1C8A
:1026200008969093CB1C8093CA1C0C94132788E2C5
:1026300090E09093DD1C8093DC1CE1E0EC0FE770F0
:10264000E093E11CF0E0EE0FFF1FE453F34E9183A3
:1026500080838091CA1C9091CB1C05969093CB1CD3
:102660008093CA1C0C9413273093DD1C2093DC1C30
:10267000F901E653FB4F80818093E21CFA01E45399
:10268000F34E2F5F3F4F3F70318320838093E81CD0
:102690008091CA1C9091CB1C08969093CB1C809380
:1026A000CA1C0C941327EFEFEC0FE770E093E11CCA
:1026B0008091CA1C9091CB1C05969093CB1C809363
:1026C000CA1C0C9413278091E71C8F5F8093E71C32
:1026D0008093E61C8091CA1C9091CB1C0596909328
:1026E000CB1C8093CA1C0C9413278091E71C81504B
:1026F0008093E71C8093E61C8091CA1C9091CB1CB0
:1027000005969093CB1C8093CA1C0C941327809140
:10271000E61C87FF05C0EFEFEC0FE770E093E11CCC
:102720008091CA1C9091CB1C04969093CB1C8093F3
:10273000CA1C0C9413271092E51C3093DD1C2093C7
:10274000DC1CF901E653FB4F8081FA01E453F34EA0
:102750002F5F3F4F3F70318320839091ED1C892B79
:102760008093E21C8093E61C8093ED1C8091CA1C30
:102770009091CB1C08969093CB1C8093CA1C0C9410
:10278000132780E390E09093DD1C8093DC1CE1E054
:10279000EC0FE770E093E11CF0E0EE0FFF1FE45355
:1027A000F34E918380838091CA1C9091CB1C059637
:1027B0009093CB1C8093CA1C0C9413273093DD1C80
:1027C0002093DC1CF901E653FB4F80818093E21CCF
:1027D000FA01E453F34E2F5F3F4F3F703183208364
:1027E0008093E71C8091CA1C9091CB1C0896909313
:1027F000CB1C8093CA1C0C941327EFEFEC0FE770EF
:10280000E093E11C8091CA1C9091CB1C059690939B
:10281000CB1C8093CA1C0C9413278091E61C51DAC0
:10282000882329F0EFEFEC0FE770E093E11C809133
:10283000CA1C9091CB1C04969093CB1C8093CA1C0D
:102840000C9413271092E51C3093DD1C2093DC1CA4
:10285000F901E653FB4F80818093E21CFA01E453B7
:10286000F34E2F5F3F4F3F703183208315DA809105
:10287000E21C8093E61C8091CA1C9091CB1C0896A8
:102880009093CB1C8093CA1C0C94132788E390E090
:102890009093DD1C8093DC1CE1E0EC0FE770E0938B
:1028A000E11CF0E0EE0FFF1FE453F34E91838083B1
:1028B0008091CA1C9091CB1C05969093CB1C809361
:1028C000CA1C0C941327F901E653FB4F60816093F7
:1028D000E21CFA01E453F34E2F5F3F4F3F70318308
:1028E00020838091E81C90E0982F88272091E71C96
:1028F000822B9093DD1C8093DC1C811528E19207CC
:1029000020F4FC01E653FB4F60838091CA1C909138
:10291000CB1C09969093CB1C8093CA1C0C94132754
:10292000EFEFEC0FE770E093E11C8091CA1C9091EF
:10293000CB1C05969093CB1C8093CA1C0C94132738
:10294000F901E653FB4F808190E09093DF1C809368
:10295000DE1C61816093E21C962B9093DD1C8093BA
:10296000DC1CFA01E453F34E2E5F3F4F3F7031837E
:1029700020832091E51C211103C09F7391838083E4
:102980008091CA1C9091CB1C0A969093CB1C80938B
:10299000CA1C0C9413278091ED1C81FF03C0817029
:1029A0008093E31C81E08093E21C8093ED1C809176
:1029B000CA1C9091CB1C08969093CB1C8093CA1C88
:1029C0000C941327F901E653FB4F808190E090931C
:1029D000DF1C8093DE1C61816093E21C962B909338
:1029E000DD1C8093DC1CFA01E453F34E2E5F3F4F55
:1029F0003F70318320832091E51C21110DC0E1E05F
:102A0000EC0FE770E093E11CF0E0EE0FFF1FE453E2
:102A1000F34E9F73918380838091CA1C9091CB1C4D
:102A20000A969093CB1C8093CA1C0C941327109287
:102A3000E21C0E940D0D8093E21C8093ED1C80919E
:102A4000CA1C9091CB1C08969093CB1C8093CA1CF7
:102A50000C941327F901E653FB4F808190E090938B
:102A6000DF1C8093DE1C21812093E21C922B90932B
:102A7000DD1C8093DC1CFA01E453F34E9F739183B9
:102A800080838091CA1C9091CB1C0B969093CB1C99
:102A90008093CA1C0C9413271092E21C1092ED1C18
:102AA0008091CA1C9091CB1C08969093CB1C80936C
:102AB000CA1C0C941327F901E653FB4F808190E068
:102AC0009093DF1C8093DE1C61816093E21C962B47
:102AD0009093DD1C8093DC1CFA01E453F34E2E5FCF
:102AE0003F4F3F7031832083E1E0EC0FE770E093CC
:102AF000E11CF0E0EE0FFF1FE453F34E9F73918350
:102B000080838091CA1C9091CB1C0B969093CB1C18
:102B10008093CA1C0C9413271092E21C1092ED1C97
:102B20008091CA1C9091CB1C08969093CB1C8093EB
:102B3000CA1C0C941327F901E653FB4F808190E0E7
:102B40009093DF1C8093DE1C61816093E21C962BC6
:102B50009093DD1C8093DC1CFA01E453F34E2E5F4E
:102B60003F4F3F70318320832091E61C222319F0D0
:102B70009F73918380838091CA1C9091CB1C0A968D
:102B80009093CB1C8093CA1C0C9413271092E21CC8
:102B90001092ED1C8091CA1C9091CB1C08969093CA
:102BA000CB1C8093CA1C0C941327F901E653FB4FEE
:102BB000808190E09093DF1C8093DE1C61816093A4
:102BC000E21C962B9093DD1C8093DC1CFA01E453ED
:102BD000F34E2E5F3F4F3F70318320832091E61CE0
:102BE000222369F0E1E0EC0FE770E093E11CF0E0F4
:102BF000EE0FFF1FE453F34E9F7391838083809108
:102C0000CA1C9091CB1C0A969093CB1C8093CA1C33
:102C10000C9413271092E21C1092ED1C8091CA1C98
:102C20009091CB1C08969093CB1C8093CA1C0C945B
:102C30001327F901E653FB4F808190E09093DF1C4E
:102C40008093DE1C21812093E21C922B9093DD1C4B
:102C50008093DC1CFA01E453F34E9F7391838083CD
:102C60008091CA1C9091CB1C0B969093CB1C8093A7
:102C7000CA1C0C9413271092E21C1092ED1C809138
:102C8000CA1C9091CB1C08969093CB1C8093CA1CB5
:102C90000C941327F901E653FB4F808190E0909349
:102CA000DF1C8093DE1C61816093E21C962B909365
:102CB000DD1C8093DC1CFA01E453F34E2E5F3F4F82
:102CC0003F7031832083E1E0EC0FE770E093E11C7B
:102CD000F0E0EE0FFF1FE453F34E9F739183808368
:102CE0008091CA1C9091CB1C0B969093CB1C809327
:102CF000CA1C0C9413271092E21C1092ED1C8091B8
:102D0000CA1C9091CB1C08969093CB1C8093CA1C34
:102D10000C941327F901E653FB4F808190E09093C8
:102D2000DF1C8093DE1C61816093E21C962B9093E4
:102D3000DD1C8093DC1CFA01E453F34E2E5F3F4F01
:102D40003F70318320832091E61C27FD03C09F73D1
:102D5000918380838091CA1C9091CB1C0A9690939A
:102D6000CB1C8093CA1C0C9413278091ED1C80937C
:102D7000E21C0E94880D8091CA1C9091CB1C069683
:102D80009093CB1C8093CA1C0C941327F901E65333
:102D9000FB4F808190E09093DF1C8093DE1C61816B
:102DA0006093E21C962B9093DD1C8093DC1CFA014F
:102DB000E453F34E2E5F3F4F3F70318320832091C9
:102DC000E61C27FD0DC0E1E0EC0FE770E093E11C8D
:102DD000F0E0EE0FFF1FE453F34E9F739183808367
:102DE0008091CA1C9091CB1C0A969093CB1C809327
:102DF000CA1C0C9413278091ED1C8093E21C8091D7
:102E0000CA1C9091CB1C06969093CB1C8093CA1C35
:102E10000C941327F901E653FB4F808190E09093C7
:102E2000DF1C8093DE1C21812093E21C922B909367
:102E3000DD1C8093DC1CFA01E453F34E9F739183F5
:102E400080838091CA1C9091CB1C0B969093CB1CD5
:102E50008093CA1C0C9413278091ED1C8093E21C74
:102E60008091CA1C9091CB1C06969093CB1C8093AA
:102E7000CA1C0C941327F901E653FB4F808190E0A4
:102E80009093DF1C8093DE1C61816093E21C962B83
:102E90009093DD1C8093DC1CFA01E453F34E2E5F0B
:102EA0003F4F3F7031832083E1E0EC0FE770E09308
:102EB000E11CF0E0EE0FFF1FE453F34E9F7391838C
:102EC00080838091CA1C9091CB1C0B969093CB1C55
:102ED0008093CA1C0C9413278091ED1C8093E21CF4
:102EE0008091CA1C9091CB1C06969093CB1C80932A
:102EF000CA1C0C941327F901E653FB4F008110E024
:102F00001093DF1C0093DE1C81818093E21C182B40
:102F10001093DD1C0093DC1CEA01C453D34E2E5FDA
:102F20003F4F3F70398328838091E61C0E94610ED9
:102F3000811103C01F73198308838091CA1C90916B
:102F4000CB1C0A969093CB1C8093CA1C0C9413271D
:102F50008091ED1C8093E21C8091CA1C9091CB1C47
:102F600006969093CB1C8093CA1C0C941327F901EE
:102F7000E653FB4F008110E01093DF1C0093DE1C32
:102F800081818093E21C182B1093DD1C0093DC1CC4
:102F9000FA01E453F34E2E5F3F4F3F70318320839D
:102FA0008091E61C0E94610E81110DC0E1E0EC0FE2
:102FB000E770E093E11CF0E0EE0FFF1FE453F34EE7
:102FC0001F73118300838091CA1C9091CB1C0A96B9
:102FD0009093CB1C8093CA1C0C9413278091ED1CFA
:102FE0008093E21C8091CA1C9091CB1C0696909312
:102FF000CB1C8093CA1C0C941327F901E653FB4F9A
:10300000808190E09093DF1C8093DE1C21812093CF
:10301000E21C922B9093DD1C8093DC1CFA01E4539C
:10302000F34E9F73918380838091CA1C9091CB1C37
:103030000B969093CB1C8093CA1C0C941327809101
:10304000ED1C8093E21C8091CA1C9091CB1C0696CB
:103050009093CB1C8093CA1C0C941327F901E65360
:10306000FB4F808190E09093DF1C8093DE1C618198
:103070006093E21C962B9093DD1C8093DC1CFA017C
:10308000E453F34E2E5F3F4F3F7031832083E1E0E6
:10309000EC0FE770E093E11CF0E0EE0FFF1FE4534C
:1030A000F34E9F73918380838091CA1C9091CB1CB7
:1030B0000B969093CB1C8093CA1C0C941327809181
:1030C000ED1C8093E21C8091CA1C9091CB1C06964B
:1030D0009093CB1C8093CA1C0C941327F901E653E0
:1030E000FB4F808190E09093DF1C8093DE1C618118
:1030F0006093E21C962B9093DD1C8093DC1CFA01FC
:10310000E453F34E2E5F3F4F3F7031832083209175
:10311000E51C222319F09F73918380838091CA1C40
:103120009091CB1C0A969093CB1C8093CA1C0C9454
:1031300013278091ED1C8093E21C8091CA1C909112
:10314000CB1C06969093CB1C8093CA1C0C9413271F
:10315000F901E653FB4F808190E09093DF1C809350
:10316000DE1C61816093E21C962B9093DD1C8093A2
:10317000DC1CFA01E453F34E2E5F3F4F3F70318366
:1031800020832091E51C222369F0E1E0EC0FE77039
:10319000E093E11CF0E0EE0FFF1FE453F34E9F734A
:1031A000918380838091CA1C9091CB1C0A96909346
:1031B000CB1C8093CA1C0C9413278091ED1C809328
:1031C000E21C8091CA1C9091CB1C06969093CB1C5C
:1031D0008093CA1C0C941327F901E653FB4F80819E
:1031E00090E09093DF1C8093DE1C21812093E21CF1
:1031F000922B9093DD1C8093DC1CFA01E453F34E78
:103200009F73918380838091CA1C9091CB1C0B96F5
:103210009093CB1C8093CA1C0C9413278091ED1CB7
:103220008093E21C8091CA1C9091CB1C06969093CF
:10323000CB1C8093CA1C0C941327F901E653FB4F57
:10324000808190E09093DF1C8093DE1C618160930D
:10325000E21C962B9093DD1C8093DC1CFA01E45356
:10326000F34E2E5F3F4F3F7031832083E1E0EC0F40
:10327000E770E093E11CF0E0EE0FFF1FE453F34E24
:103280009F73918380838091CA1C9091CB1C0B9675
:103290009093CB1C8093CA1C0C9413278091ED1C37
:1032A0008093E21C8091CA1C9091CB1C069690934F
:1032B000CB1C8093CA1C0C941327F901E653FB4FD7
:1032C000808190E09093DF1C8093DE1C618160938D
:1032D000E21C962B9093DD1C8093DC1CFA01E453D6
:1032E000F34E2E5F3F4F3F70318320832091E61CC9
:1032F000211103C09F73918380838091CA1C909198
:10330000CB1C0A969093CB1C8093CA1C0C94132759
:103310008091ED1C8093E21C8091CA1C9091CB1C83
:1033200006969093CB1C8093CA1C0C941327F9012A
:10333000E653FB4F808190E09093DF1C8093DE1C6E
:1033400061816093E21C962B9093DD1C8093DC1CC2
:10335000FA01E453F34E2E5F3F4F3F7031832083D9
:103360002091E61C21110DC0E1E0EC0FE770E09325
:10337000E11CF0E0EE0FFF1FE453F34E9F739183C7
:1033800080838091CA1C9091CB1C0A969093CB1C91
:103390008093CA1C0C9413278091ED1C8093E21C2F
:1033A0008091CA1C9091CB1C06969093CB1C809365
:1033B000CA1C0C941327F901E653FB4F808190E05F
:1033C0009093DF1C8093DE1C21812093E21C922BC2
:1033D0009093DD1C8093DC1CFA01E453F34E9F7341
:1033E000918380838091CA1C9091CB1C0B96909303
:1033F000CB1C8093CA1C0C9413278091ED1C8093E6
:10340000E21C8091CA1C9091CB1C06969093CB1C19
:103410008093CA1C0C941327F901E653FB4F80815B
:1034200090E09093DF1C8093DE1C61816093E21C2E
:10343000962B9093DD1C8093DC1CFA01E453F34E31
:103440002E5F3F4F3F7031832083E1E0EC0FE77048
:10345000E093E11CF0E0EE0FFF1FE453F34E9F7387
:10346000918380838091CA1C9091CB1C0B96909382
:10347000CB1C8093CA1C0C9413278091ED1C809365
:10348000E21C8091CA1C9091CB1C06969093CB1C99
:103490008093CA1C0C941327F901E653FB4F8081DB
:1034A00090E09093DF1C8093DE1C61816093E21CAE
:1034B000962B9093DD1C8093DC1CFA01E453F34EB1
:1034C0002E5F3F4F3F70318320832091E61C27FF02
:1034D00003C09F73918380838091CA1C9091CB1C01
:1034E0000A969093CB1C8093CA1C0C94132780914E
:1034F000ED1C8093E21C8091CA1C9091CB1C069617
:103500009093CB1C8093CA1C0C941327F901E653AB
:10351000FB4F808190E09093DF1C8093DE1C6181E3
:103520006093E21C962B9093DD1C8093DC1CFA01C7
:10353000E453F34E2E5F3F4F3F7031832083209141
:10354000E61C27FF0DC0E1E0EC0FE770E093E11C03
:10355000F0E0EE0FFF1FE453F34E9F7391838083DF
:103560008091CA1C9091CB1C0A969093CB1C80939F
:10357000CA1C0C9413278091ED1C8093E21C80914F
:10358000CA1C9091CB1C06969093CB1C8093CA1CAE
:103590000C941327F901E653FB4F808190E0909340
:1035A000DF1C8093DE1C21812093E21C922B9093E0
:1035B000DD1C8093DC1CFA01E453F34E9F7391836E
:1035C00080838091CA1C9091CB1C0B969093CB1C4E
:1035D0008093CA1C0C9413278091ED1C8093E21CED
:1035E0008091CA1C9091CB1C06969093CB1C809323
:1035F000CA1C0C941327F901E653FB4F808190E01D
:103600009093DF1C8093DE1C61816093E21C962BFB
:103610009093DD1C8093DC1CFA01E453F34E2E5F83
:103620003F4F3F7031832083E1E0EC0FE770E09380
:10363000E11CF0E0EE0FFF1FE453F34E9F73918304
:1036400080838091CA1C9091CB1C0B969093CB1CCD
:103650008093CA1C0C9413278091ED1C8093E21C6C
:103660008091CA1C9091CB1C06969093CB1C8093A2
:10367000CA1C0C941327F901E653FB4F008110E09C
:103680001093DF1C0093DE1C81818093E21C182BB9
:103690001093DD1C0093DC1CEA01C453D34E2E5F53
:1036A0003F4F3F70398328838091E61C0E94610E52
:1036B000882319F01F73198308838091CA1C909185
:1036C000CB1C0A969093CB1C8093CA1C0C94132796
:1036D0008091ED1C8093E21C8091CA1C9091CB1CC0
:1036E00006969093CB1C8093CA1C0C941327F90167
:1036F000E653FB4F008110E01093DF1C0093DE1CAB
:1037000081818093E21C182B1093DD1C0093DC1C3C
:10371000FA01E453F34E2E5F3F4F3F703183208315
:103720008091E61C0E94610E882369F0E1E0EC0FB5
:10373000E770E093E11CF0E0EE0FFF1FE453F34E5F
:103740001F73118300838091CA1C9091CB1C0A9631
:103750009093CB1C8093CA1C0C9413278091ED1C72
:103760008093E21C8091CA1C9091CB1C069690938A
:10377000CB1C8093CA1C0C941327F901E653FB4F12
:10378000808190E09093DF1C8093DE1C2181209348
:10379000E21C922B9093DD1C8093DC1CFA01E45315
:1037A000F34E9F73918380838091CA1C9091CB1CB0
:1037B0000B969093CB1C8093CA1C0C94132780917A
:1037C000ED1C8093E21C8091CA1C9091CB1C069644
:1037D0009093CB1C8093CA1C0C941327F901E653D9
:1037E000FB4F808190E09093DF1C8093DE1C618111
:1037F0006093E21C962B9093DD1C8093DC1CFA01F5
:10380000E453F34E2E5F3F4F3F7031832083E1E05E
:10381000EC0FE770E093E11CF0E0EE0FFF1FE453C4
:10382000F34E9F73918380838091CA1C9091CB1C2F
:103830000B969093CB1C8093CA1C0C9413278091F9
:10384000ED1C8093E21C8091CA1C9091CB1C0696C3
:103850009093CB1C8093CA1C0C9413271092E51CE8
:103860008091ED1C8093E21C0E94380E8091E21C36
:103870008093E61C8093ED1C8091CA1C9091CB1C18
:1038800005969093CB1C8093CA1C0C94132710921E
:10389000E51C8091EC1C8093E21C0E94380E809104
:1038A000E21C8093E61C8093ED1C8091CA1C9091D1
:1038B000CB1C05969093CB1C8093CA1C0C941327A9
:1038C0001092E51C8091EB1C8093E21C0E94380E44
:1038D0008091E21C8093E61C8093ED1C8091CA1CB1
:1038E0009091CB1C05969093CB1C8093CA1C0C9492
:1038F00013271092E51C8091EA1C8093E21C0E9421
:10390000380E8091E21C8093E61C8093ED1C809120
:10391000CA1C9091CB1C05969093CB1C8093CA1C1B
:103920000C9413271092E51C8091E91C8093E21CF3
:103930000E94380E8091E21C8093E61C8093ED1C5F
:103940008091CA1C9091CB1C05969093CB1C8093C0
:10395000CA1C0C9413271092E51C8091E81C8093DC
:10396000E21C0E94380E8091E21C8093E61C80933A
:10397000ED1C8091CA1C9091CB1C05969093CB1C9A
:103980008093CA1C0C9413271092E51C8091E71CAD
:103990008093E21C0E94380E8091E21C8093E61C0A
:1039A0008093ED1C8091CA1C9091CB1C059690933E
:1039B000CB1C8093CA1C0C9413271092E51C809199
:1039C000E81C90E0982F88272091E71C822B909389
:1039D000DD1C8093DC1C811538E1930730F4FC0179
:1039E000E653FB4F80818093E21C0E94380E809149
:1039F000E21C8093E61C8093ED1C8091CA1C909180
:103A0000CB1C08969093CB1C8093CA1C0C94132754
:103A10008091ED1C8093E21C0E94380E8091E21C84
:103A20008093E61C8093ED1C8091CA1C9091CB1C66
:103A300005969093CB1C8093CA1C0C9413278091FD
:103A4000EC1C8093E21C0E94380E8091E21C809353
:103A5000E61C8093ED1C8091CA1C9091CB1C0596AE
:103A60009093CB1C8093CA1C0C9413278091EB1C61
:103A70008093E21C0E94380E8091E21C8093E61C29
:103A80008093ED1C8091CA1C9091CB1C059690935D
:103A9000CB1C8093CA1C0C9413278091EA1C809342
:103AA000E21C0E94380E8091E21C8093E61C8093F9
:103AB000ED1C8091CA1C9091CB1C05969093CB1C59
:103AC0008093CA1C0C9413278091E91C8093E21CFC
:103AD0000E94380E8091E21C8093E61C8093ED1CBE
:103AE0008091CA1C9091CB1C05969093CB1C80931F
:103AF000CA1C0C9413278091E81C8093E21C0E943E
:103B0000380E8091E21C8093E61C8093ED1C80911E
:103B1000CA1C9091CB1C05969093CB1C8093CA1C19
:103B20000C9413278091E71C8093E21C0E94380EAE
:103B30008091E21C8093E61C8093ED1C8091CA1C4E
:103B40009091CB1C05969093CB1C8093CA1C0C942F
:103B500013278091E81C90E0982F88272091E71C7C
:103B6000822B9093DD1C8093DC1C811528E1920749
:103B700030F4FC01E653FB4F80818093E21C0E94ED
:103B8000380E8091E21C8093E61C8093ED1C80919E
:103B9000CA1C9091CB1C08969093CB1C8093CA1C96
:103BA0000C9413271092E51C8091ED1C8093E21C6D
:103BB0000E944C0E8091E21C8093E61C8093ED1CC9
:103BC0008091CA1C9091CB1C05969093CB1C80933E
:103BD000CA1C0C9413271092E51C8091EC1C809356
:103BE000E21C0E944C0E8091E21C8093E61C8093A4
:103BF000ED1C8091CA1C9091CB1C05969093CB1C18
:103C00008093CA1C0C9413271092E51C8091EB1C26
:103C10008093E21C0E944C0E8091E21C8093E61C73
:103C20008093ED1C8091CA1C9091CB1C05969093BB
:103C3000CB1C8093CA1C0C9413271092E51C809116
:103C4000EA1C8093E21C0E944C0E8091E21C80933F
:103C5000E61C8093ED1C8091CA1C9091CB1C0596AC
:103C60009093CB1C8093CA1C0C9413271092E51CD4
:103C70008091E91C8093E21C0E944C0E8091E21C12
:103C80008093E61C8093ED1C8091CA1C9091CB1C04
:103C900005969093CB1C8093CA1C0C94132710920A
:103CA000E51C8091E81C8093E21C0E944C0E8091E0
:103CB000E21C8093E61C8093ED1C8091CA1C9091BD
:103CC000CB1C05969093CB1C8093CA1C0C94132795
:103CD0001092E51C8091E71C8093E21C0E944C0E20
:103CE0008091E21C8093E61C8093ED1C8091CA1C9D
:103CF0009091CB1C05969093CB1C8093CA1C0C947E
:103D000013271092E51C8091E81C90E0982F8827DB
:103D10002091E71C822B9093DD1C8093DC1C811585
:103D200038E1930730F4FC01E653FB4F8081809328
:103D3000E21C0E944C0E8091E21C8093E61C809352
:103D4000ED1C8091CA1C9091CB1C08969093CB1CC3
:103D50008093CA1C0C9413278091ED1C8093E21C65
:103D60000E944C0E8091E21C8093E61C8093ED1C17
:103D70008091CA1C9091CB1C05969093CB1C80938C
:103D8000CA1C0C9413278091EC1C8093E21C0E94A7
:103D90004C0E8091E21C8093E61C8093ED1C809178
:103DA000CA1C9091CB1C05969093CB1C8093CA1C87
:103DB0000C9413278091EB1C8093E21C0E944C0E04
:103DC0008091E21C8093E61C8093ED1C8091CA1CBC
:103DD0009091CB1C05969093CB1C8093CA1C0C949D
:103DE00013278091EA1C8093E21C0E944C0E809164
:103DF000E21C8093E61C8093ED1C8091CA1C90917C
:103E0000CB1C05969093CB1C8093CA1C0C94132753
:103E10008091E91C8093E21C0E944C0E8091E21C70
:103E20008093E61C8093ED1C8091CA1C9091CB1C62
:103E300005969093CB1C8093CA1CF5C78091E81C13
:103E40008093E21C0E944C0E8091E21C8093E61C41
:103E50008093ED1C8091CA1C9091CB1C0596909389
:103E6000CB1C8093CA1CDFC78091E71C8093E21CA7
:103E70000E944C0E8091E21C8093E61C8093ED1C06
:103E80008091CA1C9091CB1C05969093CB1C80937B
:103E9000CA1CC9C78091E81C90E0982F8827209100
:103EA000E71C822B9093DD1C8093DC1C811528E19C
:103EB000920730F4FC01E653FB4F80818093E21CB3
:103EC0000E944C0E8091E21C8093E61C8093ED1CB6
:103ED0008091CA1C9091CB1C08969093CB1C809328
:103EE000CA1CA1C71092E51C8091ED1C8093E21CB6
:103EF0008093E61C8091CA1C9091CB1C05969093F0
:103F0000CB1C8093CA1C8FC71092E51C8091ED1CBE
:103F10009091EC1C89238093E21C8093E61C809393
:103F2000ED1C8091CA1C9091CB1C05969093CB1CE4
:103F30008093CA1C78C71092E51C8091ED1C90916B
:103F4000EB1C89238093E21C8093E61C8093ED1C7C
:103F50008091CA1C9091CB1C05969093CB1C8093AA
:103F6000CA1C61C71092E51C8091ED1C9091EA1C5F
:103F700089238093E21C8093E61C8093ED1C809142
:103F8000CA1C9091CB1C05969093CB1C8093CA1CA5
:103F90004AC71092E51C8091ED1C9091E91C892381
:103FA0008093E21C8093E61C8093ED1C8091CA1CD8
:103FB0009091CB1C05969093CB1C8093CA1C33C761
:103FC0001092E51C8091ED1C9091E81C8923809350
:103FD000E21C8093E61C8093ED1C8091CA1C90919A
:103FE000CB1C05969093CB1C8093CA1C1CC71092C7
:103FF000E51C8091ED1C9091E71C89238093E21CC5
:104000008093E61C8093ED1C8091CA1C9091CB1C80
:1040100005969093CB1C8093CA1C05C71092E51C93
:104020008091E81C90E0982F88272091E71C822B34
:104030009093DD1C8093DC1C811538E1930730F4EC
:10404000FC01E653FB4F80818093E21C8091ED1CC4
:104050009091E21C89238093E21C8093E61C80935C
:10406000ED1C8091CA1C9091CB1C08969093CB1CA0
:104070008093CA1CD8C61092E51C1092E21C1092C4
:10408000E61C1092ED1C8091CA1C9091CB1C0596E9
:104090009093CB1C8093CA1CC6C61092E51C8091DD
:1040A000ED1C9091EC1C89278093E21C8093E61C08
:1040B0008093ED1C8091CA1C9091CB1C0596909327
:1040C000CB1C8093CA1CAFC61092E51C8091ED1CDE
:1040D0009091EB1C89278093E21C8093E61C8093CF
:1040E000ED1C8091CA1C9091CB1C05969093CB1C23
:1040F0008093CA1C98C61092E51C8091ED1C90918B
:10410000EA1C89278093E21C8093E61C8093ED1CB7
:104110008091CA1C9091CB1C05969093CB1C8093E8
:10412000CA1C81C61092E51C8091ED1C9091E91C7F
:1041300089278093E21C8093E61C8093ED1C80917C
:10414000CA1C9091CB1C05969093CB1C8093CA1CE3
:104150006AC61092E51C8091ED1C9091E81C89279D
:104160008093E21C8093E61C8093ED1C8091CA1C16
:104170009091CB1C05969093CB1C8093CA1C53C680
:104180001092E51C8091ED1C9091E71C892780938B
:10419000E21C8093E61C8093ED1C8091CA1C9091D8
:1041A000CB1C05969093CB1C8093CA1C3CC61092E6
:1041B000E51C8091E81C90E0982F88272091E71C4F
:1041C000822B9093DD1C8093DC1C811528E19207E3
:1041D00030F4FC01E653FB4F80818093E21C809118
:1041E000ED1C9091E21C89278093E21C8093E61CD1
:1041F0008093ED1C8091CA1C9091CB1C08969093E3
:10420000CB1C8093CA1C0FC61092E51C8091ED1C3C
:104210008093E21C8093E61C8091CA1C9091CB1C79
:1042200005969093CB1C8093CA1CFDC51092E51C8B
:104230008091ED1C9091EC1C892B8093E21C809363
:10424000E61C8093ED1C8091CA1C9091CB1C0596B6
:104250009093CB1C8093CA1CE6C51092E51C8091FC
:10426000ED1C9091EB1C892B8093E21C8093E61C43
:104270008093ED1C8091CA1C9091CB1C0596909365
:10428000CB1C8093CA1CCFC51092E51C8091ED1CFD
:104290009091EA1C892B8093E21C8093E61C80930A
:1042A000ED1C8091CA1C9091CB1C05969093CB1C61
:1042B0008093CA1CB8C51092E51C8091ED1C9091AA
:1042C000E91C892B8093E21C8093E61C8093ED1CF3
:1042D0008091CA1C9091CB1C05969093CB1C809327
:1042E000CA1CA1C51092E51C8091ED1C9091E81CA0
:1042F000892B8093E21C8093E61C8093ED1C8091B7
:10430000CA1C9091CB1C05969093CB1C8093CA1C21
:104310008AC51092E51C8091ED1C9091E71C892BB9
:104320008093E21C8093E61C8093ED1C8091CA1C54
:104330009091CB1C05969093CB1C8093CA1C73C59F
:104340001092E51C8091E81C90E0982F882720911E
:10435000E71C822B9093DD1C8093DC1C811538E1D7
:10436000930730F4FC01E653FB4F80818093E21CFD
:104370008091ED1C9091E21C892B8093E21C80932C
:10438000E61C8093ED1C8091CA1C9091CB1C089672
:104390009093CB1C8093CA1C46C51092E51C80915B
:1043A000ED1C8093E21C0E944C0E8091E21C8093D5
:1043B000E61C8091CA1C9091CB1C05969093CB1C57
:1043C0008093CA1C30C51092E51C8091EC1C809330
:1043D000E21C0E944C0E8091E21C8093E61C8091AE
:1043E000CA1C9091CB1C05969093CB1C8093CA1C41
:1043F0001AC51092E51C8091EB1C8093E21C0E9470
:104400004C0E8091E21C8093E61C8091CA1C909116
:10441000CB1C05969093CB1C8093CA1C04C51092AC
:10442000E51C8091EA1C8093E21C0E944C0E809156
:10443000E21C8093E61C8091CA1C9091CB1C0596CF
:104440009093CB1C8093CA1CEEC41092E51C809103
:10445000E91C8093E21C0E944C0E8091E21C809328
:10446000E61C8091CA1C9091CB1C05969093CB1CA6
:104470008093CA1CD8C41092E51C8091E81C8093DC
:10448000E21C0E944C0E8091E21C8093E61C8091FD
:10449000CA1C9091CB1C05969093CB1C8093CA1C90
:1044A000C2C41092E51C8091E71C8093E21C0E941C
:1044B0004C0E8091E21C8093E61C8091CA1C909166
:1044C000CB1C05969093CB1C8093CA1CACC4109255
:1044D000E51C8091E81C90E0982F88272091E71C2C
:1044E000822B9093DD1C8093DC1C811528E19207C0
:1044F00030F4FC01E653FB4F80818093E21C0E9464
:104500004C0E8091E21C8093E61C8091CA1C909115
:10451000CB1C08969093CB1C8093CA1C84C48091BA
:10452000CA1C9091CB1C05969093CB1C8093CA1CFF
:104530007AC48091EC1C8093ED1C8091CA1C9091F0
:10454000CB1C05969093CB1C8093CA1C6CC48091A5
:10455000EB1C8093ED1C8091CA1C9091CB1C05969E
:104560009093CB1C8093CA1C5EC48091EA1C8093FC
:10457000ED1C8091CA1C9091CB1C05969093CB1C8E
:104580008093CA1C50C48091E91C8093ED1C8091DB
:10459000CA1C9091CB1C05969093CB1C8093CA1C8F
:1045A00042C48091E81C8093ED1C8091CA1C9091BC
:1045B000CB1C05969093CB1C8093CA1C34C480916D
:1045C000E71C8093ED1C8091CA1C9091CB1C059632
:1045D0009093CB1C8093CA1C26C48091E81C90E069
:1045E000982F88272091E71C822B9093DD1C8093C5
:1045F000DC1C811538E1930730F4FC01E653FB4FD6
:1046000080818093E21C8091E21C8093ED1C80915C
:10461000CA1C9091CB1C08969093CB1C8093CA1C0B
:1046200002C48091ED1C8093EC1C8091CA1C909177
:10463000CB1C05969093CB1C8093CA1CF4C380912D
:10464000CA1C9091CB1C05969093CB1C8093CA1CDE
:10465000EAC38091EB1C8093EC1C8091CA1C909162
:10466000CB1C05969093CB1C8093CA1CDCC3809115
:10467000EA1C8093EC1C8091CA1C9091CB1C05967F
:104680009093CB1C8093CA1CCEC38091E91C80936D
:10469000EC1C8091CA1C9091CB1C05969093CB1C6E
:1046A0008093CA1CC0C38091E81C8093EC1C80914D
:1046B000CA1C9091CB1C05969093CB1C8093CA1C6E
:1046C000B2C38091E71C8093EC1C8091CA1C90912E
:1046D000CB1C05969093CB1C8093CA1CA4C38091DD
:1046E000E81C90E0982F88272091E71C822B90935C
:1046F000DD1C8093DC1C811528E1920730F4FC015D
:10470000E653FB4F80818093E21C8091E21C8093F2
:10471000EC1C8091CA1C9091CB1C08969093CB1CEA
:104720008093CA1C80C38091ED1C8093EB1C809108
:10473000CA1C9091CB1C05969093CB1C8093CA1CED
:1047400072C38091EC1C8093EB1C8091CA1C9091E9
:10475000CB1C05969093CB1C8093CA1C64C380919C
:10476000CA1C9091CB1C05969093CB1C8093CA1CBD
:104770005AC38091EA1C8093EB1C8091CA1C9091D3
:10478000CB1C05969093CB1C8093CA1C4CC3809184
:10479000E91C8093EB1C8091CA1C9091CB1C059660
:1047A0009093CB1C8093CA1C3EC38091E81C8093DD
:1047B000EB1C8091CA1C9091CB1C05969093CB1C4E
:1047C0008093CA1C30C38091E71C8093EB1C8091BE
:1047D000CA1C9091CB1C05969093CB1C8093CA1C4D
:1047E00022C38091E81C90E0982F88272091E71C35
:1047F000822B9093DD1C8093DC1C811538E193079C
:1048000030F4FC01E653FB4F80818093E21C8091E1
:10481000E21C8093EB1C8091CA1C9091CB1C0896E3
:104820009093CB1C8093CA1CFEC28091ED1C809398
:10483000EA1C8091CA1C9091CB1C05969093CB1CCE
:104840008093CA1CF0C28091EC1C8093EA1C80917A
:10485000CA1C9091CB1C05969093CB1C8093CA1CCC
:10486000E2C28091EB1C8093EA1C8091CA1C90915B
:10487000CB1C05969093CB1C8093CA1CD4C280910C
:10488000CA1C9091CB1C05969093CB1C8093CA1C9C
:10489000CAC28091E91C8093EA1C8091CA1C909145
:1048A000CB1C05969093CB1C8093CA1CBCC28091F4
:1048B000E81C8093EA1C8091CA1C9091CB1C059641
:1048C0009093CB1C8093CA1CAEC28091E71C80934E
:1048D000EA1C8091CA1C9091CB1C05969093CB1C2E
:1048E0008093CA1CA0C28091E81C90E0982F882772
:1048F0002091E71C822B9093DD1C8093DC1C81159A
:1049000028E1920730F4FC01E653FB4F808180934D
:10491000E21C8091E21C8093EA1C8091CA1C909159
:10492000CB1C08969093CB1C8093CA1C7CC28091B0
:10493000ED1C8093E91C8091CA1C9091CB1C0596BC
:104940009093CB1C8093CA1C6EC28091EC1C809308
:10495000E91C8091CA1C9091CB1C05969093CB1CAE
:104960008093CA1C60C28091EB1C8093E91C8091EB
:10497000CA1C9091CB1C05969093CB1C8093CA1CAB
:1049800052C28091EA1C8093E91C8091CA1C9091CC
:10499000CB1C05969093CB1C8093CA1C44C280917B
:1049A000CA1C9091CB1C05969093CB1C8093CA1C7B
:1049B0003AC28091E81C8093E91C8091CA1C9091B6
:1049C000CB1C05969093CB1C8093CA1C2CC2809163
:1049D000E71C8093E91C8091CA1C9091CB1C059622
:1049E0009093CB1C8093CA1C1EC28091E81C90E05F
:1049F000982F88272091E71C822B9093DD1C8093B1
:104A0000DC1C811538E1930730F4FC01E653FB4FC1
:104A100080818093E21C8091E21C8093E91C80914C
:104A2000CA1C9091CB1C08969093CB1C8093CA1CF7
:104A3000FAC18091ED1C8093E81C8091CA1C909172
:104A4000CB1C05969093CB1C8093CA1CECC1809123
:104A5000EC1C8093E81C8091CA1C9091CB1C05969D
:104A60009093CB1C8093CA1CDEC18091EB1C809379
:104A7000E81C8091CA1C9091CB1C05969093CB1C8E
:104A80008093CA1CD0C18091EA1C8093E81C80915D
:104A9000CA1C9091CB1C05969093CB1C8093CA1C8A
:104AA000C2C18091E91C8093E81C8091CA1C90913E
:104AB000CB1C05969093CB1C8093CA1CB4C18091EB
:104AC000CA1C9091CB1C05969093CB1C8093CA1C5A
:104AD000AAC18091E71C8093E81C8091CA1C909128
:104AE000CB1C05969093CB1C8093CA1C9CC18091D3
:104AF000E81C90E0982F88272091E71C822B909348
:104B0000DD1C8093DC1C811528E1920730F4FC0148
:104B1000E653FB4F80818093E21C8091E21C8093DE
:104B2000E81C8091CA1C9091CB1C08969093CB1CDA
:104B30008093CA1C78C18091ED1C8093E71C809102
:104B4000CA1C9091CB1C05969093CB1C8093CA1CD9
:104B50006AC18091EC1C8093E71C8091CA1C9091E3
:104B6000CB1C05969093CB1C8093CA1C5CC1809192
:104B7000EB1C8093E71C8091CA1C9091CB1C05967E
:104B80009093CB1C8093CA1C4EC18091EA1C8093E9
:104B9000E71C8091CA1C9091CB1C05969093CB1C6E
:104BA0008093CA1C40C18091E91C8093E71C8091CE
:104BB000CA1C9091CB1C05969093CB1C8093CA1C69
:104BC00032C18091E81C8093E71C8091CA1C9091AF
:104BD000CB1C05969093CB1C8093CA1C24C180915A
:104BE000CA1C9091CB1C05969093CB1C8093CA1C39
:104BF0001AC18091E81C90E0982F88272091E71C2B
:104C0000822B9093DD1C8093DC1C811538E1930787
:104C100030F4FC01E653FB4F80818093E21C8091CD
:104C2000E21C8093E71C8091CA1C9091CB1C0896D3
:104C30009093CB1C8093CA1CF6C08091E81C90E036
:104C4000982F88272091E71C822B9093DD1C80935E
:104C5000DC1C2091ED1C2093E21C811538E19307A8
:104C600020F4FC01E653FB4F20838091CA1C9091F5
:104C7000CB1C07969093CB1C8093CA1CD4C0809108
:104C8000E81C90E0982F88272091E71C822B9093B6
:104C9000DD1C8093DC1C2091EC1C2093E21C811510
:104CA00038E1930720F4FC01E653FB4F2083809109
:104CB000CA1C9091CB1C07969093CB1C8093CA1C66
:104CC000B2C08091E81C90E0982F88272091E71CC3
:104CD000822B9093DD1C8093DC1C2091EB1C209395
:104CE000E21C811538E1930720F4FC01E653FB4FE9
:104CF00020838091CA1C9091CB1C07969093CB1C6B
:104D00008093CA1C90C08091E81C90E0982F88275F
:104D10002091E71C822B9093DD1C8093DC1C20915A
:104D2000EA1C2093E21C811538E1930720F4FC0172
:104D3000E653FB4F20838091CA1C9091CB1C0796B1
:104D40009093CB1C8093CA1C6EC08091E81C90E0AD
:104D5000982F88272091E71C822B9093DD1C80934D
:104D6000DC1C2091E91C2093E21C811538E193079B
:104D700020F4FC01E653FB4F20838091CA1C9091E4
:104D8000CB1C07969093CB1C8093CA1C4CC02091DF
:104D9000E81C822F90E0982F88273091E71C832B06
:104DA0009093DD1C8093DC1C2093E21C811538E17C
:104DB000930720F4FC01E653FB4F20838091CA1C2B
:104DC0009091CB1C07969093CB1C8093CA1C2BC050
:104DD0002091E71C3091E81C822F90E0932B909358
:104DE000DD1C8093DC1C2093E21C811538E19307C5
:104DF00020F4FC01E653FB4F20838091CA1C909164
:104E0000CB1C07969093CB1C8093CA1C0CC081E0EE
:104E10008093E41C8091CA1C9091CB1C04969093C3
:104E2000CB1C8093CA1C8091E41C811108C0809126
:104E3000CA1C9091CB1C8634904128F412C0109269
:104E4000CB1C1092CA1C8091CA1C9091CB1C86541A
:104E500090419093CB1C8093CA1C0E94BB0C8CE3A6
:104E600001C080E0DF91CF911F910F910895FC0167
:104E7000818D228D90E0805C9F4F821B91098F7302
:104E800099270895FC01918D828D981731F0828DBC
:104E9000E80FF11D858D90E008958FEF9FEF089545
:104EA000FC01918D828D981761F0828DDF01A80F32
:104EB000B11D5D968C91928D9F5F9F73928F90E054
:104EC00008958FEF9FEF089585E099E2892B39F0DF
:104ED00080E090E0892B19F098D1811125C080E005
:104EE00090E0892B41F080E090E0892B21F00E9436
:104EF000000081111CC080E090E0892B41F080E02F
:104F000090E0892B21F00E940000811113C080E005
:104F100090E0892BA1F080E090E0892B81F00E9445
:104F2000000081110AC008950E940000D8CF0E949D
:104F30000000E1CF0E940000EACF0C940000089529
:104F4000FC01848DDF01A80FB11DA35ABF4F2C9126
:104F5000848D90E001968F739927848FA689B789F5
:104F60002C93A089B1898C9180648C93938D848DCE
:104F7000981306C00288F389E02D80818F7D80839D
:104F80000895CF93DF93EC01888D8823C1F0EA89DF
:104F9000FB89808185FD05C0A889B9898C9186FD32
:104FA0000EC00FB607FCF5CF808185FFF2CFA88930
:104FB000B9898C9185FFEDCFCE01C2DFE8CFDF91BB
:104FC000CF910895CF92DF92FF920F931F93CF93CB
:104FD000DF931F92CDB7DEB76C01DC015B969C912D
:104FE0005B975C968C915C97981307C05096ED91F7
:104FF000FC915197808185FD31C0F601038D10E051
:105000000F5F1F4F0F731127F02EF601848DF812DA
:1050100010C00FB607FCF9CFD6015096ED91FC9168
:105020005197808185FFF1CFC601698389DF69814E
:10503000ECCF838DE80FF11DE35AFF4F6083D6015B
:105040005B960C935B975296ED91FC915397808100
:105050008062808381E058968C930DC0D60156966D
:10506000ED91FC91579760835096ED91FC9151978B
:1050700080818064808381E090E00F90DF91CF9108
:105080001F910F91FF90DF90CF900895BF92CF9224
:10509000DF92EF92FF92CF93DF93EC016A017B01E5
:1050A000B22EE889F98982E08083411581EE5807A4
:1050B0006105710599F060E079E08DE390E0A7016A
:1050C00096014BD621503109410951095695479512
:1050D00037952795211580E1380790F0E889F989FF
:1050E000108260E874E88EE190E0A701960135D661
:1050F0002150310941095109569547953795279512
:10510000EC85FD853083EE85FF852083188EEC8944
:10511000FD89B082EA89FB89808180618083EA8988
:10512000FB89808188608083EA89FB89808180682F
:105130008083EA89FB8980818F7D8083DF91CF9195
:10514000FF90EF90DF90CF90BF9008951F920F9245
:105150000FB60F9211240BB60F922F938F939F933C
:10516000EF93FF93E091FE1CF091FF1C8081E09192
:10517000041DF091051D82FD12C090818091071DD4
:105180008F5F8F732091081D821751F0E091071DEA
:10519000F0E0E251F34E958F8093071D01C08081AE
:1051A000FF91EF919F918F912F910F900BBE0F90D8
:1051B0000FBE0F901F9018951F920F920FB60F926F
:1051C00011240BB60F922F933F934F935F936F93DE
:1051D0007F938F939F93AF93BF93EF93FF938EEE45
:1051E0009CE1AEDEFF91EF91BF91AF919F918F91C6
:1051F0007F916F915F914F913F912F910F900BBED7
:105200000F900FBE0F901F9018958EEE9CE12FDE31
:1052100021E0892B09F420E0822F08951092F11CDF
:105220001092F01C88EE93E0A0E0B0E08093F21CB6
:105230009093F31CA093F41CB093F51C84E292E0CD
:105240009093EF1C8093EE1C85EC90E09093FB1CF8
:105250008093FA1C84EC90E09093FD1C8093FC1CDE
:1052600080EC90E09093FF1C8093FE1C81EC90E01A
:105270009093011D8093001D82EC90E09093031D9C
:105280008093021D86EC90E09093051D8093041D91
:105290001092071D1092081D1092091D10920A1DF0
:1052A0000895CF92DF92EF92FF920F931F93CF93C7
:1052B000DF936C017A01EB01E60EF71E00E010E0CF
:1052C000CE15DF0561F06991D601ED91FC91019059
:1052D000F081E02DC6011995080F191FF1CFC80103
:1052E000DF91CF911F910F91FF90EF90DF90CF90C2
:1052F00008950895B4D0FDDF0E94EF0DC4E6D7E213
:105300000E94F00D2097E1F3DFDDFACF1F920F929C
:105310000FB60F9211242F933F938F939F93AF93C8
:10532000BF9380918C1D90918D1DA0918E1DB09189
:105330008F1D30918B1D23E0230F2D3720F4019614
:10534000A11DB11D05C026E8230F0296A11DB11DA8
:1053500020938B1D80938C1D90938D1DA0938E1D8B
:10536000B0938F1D8091901D9091911DA091921DE1
:10537000B091931D0196A11DB11D8093901D909336
:10538000911DA093921DB093931DBF91AF919F91DA
:105390008F913F912F910F900FBE0F901F901895F6
:1053A0002FB7F89460918C1D70918D1D80918E1D8A
:1053B00090918F1D2FBF08953FB7F8948091901D55
:1053C0009091911DA091921DB091931D26B5A89B1F
:1053D00005C02F3F19F00196A11DB11D3FBF6627E3
:1053E000782F892F9A2F620F711D811D911D42E028
:1053F000660F771F881F991F4A95D1F70895CF929E
:10540000DF92EF92FF92CF93DF936B017C01D4DFA9
:10541000EB01C114D104E104F10479F06BD1CCDFCC
:105420006C1B7D0B683E7340A0F381E0C81AD10865
:10543000E108F108C851DC4FECCFDF91CF91FF902C
:10544000EF90DF90CF9008950197009739F0880F83
:10545000991F880F991F02970197F1F70895789483
:1054600084B5826084BD84B5816084BD85B5826069
:1054700085BD85B5816085BDEEE6F0E08081816007
:105480008083E1E8F0E01082808182608083808107
:1054900081608083E0E8F0E0808181608083E1EBDF
:1054A000F0E0808184608083E0EBF0E080818160C7
:1054B0008083E1E9F0E08081826080838081816087
:1054C0008083E0E9F0E0808181608083E1EAF0E0C0
:1054D000808182608083808181608083E0EAF0E067
:1054E000808181608083E1E2F1E08081826080835D
:1054F000808181608083E0E2F1E08081816080834F
:10550000EAE7F0E08081846080838081826080832C
:105510008081816080838081806880831092C10057
:10552000089590E0FC013197E231F10508F04BC09D
:10553000E658FE4F34C4809180008F7703C080917D
:1055400080008F7D80938000089580918000877F08
:10555000F9CF84B58F7702C084B58F7D84BD08955F
:105560008091B0008F7703C08091B0008F7D8093D1
:10557000B0000895809190008F7707C080919000CF
:105580008F7D03C080919000877F80939000089565
:105590008091A0008F7707C08091A0008F7D03C00D
:1055A0008091A000877F8093A000089580912001C2
:1055B0008F7707C0809120018F7D03C080912001EB
:1055C000877F809320010895CF93DF9390E0FC01C3
:1055D000E459FC4E2491FC01EE54FC4E8491882346
:1055E00049F190E0880F991FFC01E45DFB4EA59105
:1055F000B4918E5E9B4EFC01C591D4919FB7611111
:1056000008C0F8948C91209582238C938881822302
:105610000AC0623051F4F8948C91322F3095832374
:105620008C938881822B888304C0F8948C91822B80
:105630008C939FBFDF91CF9108950F931F93CF93CA
:10564000DF931F92CDB7DEB7282F30E0F901EA5D76
:10565000FC4E8491F901E459FC4E1491F901EE5489
:10566000FC4E04910023C1F0882319F0698359DFAF
:105670006981E02FF0E0EE0FFF1FEE5EFB4EA5917B
:10568000B4919FB7F8948C91611103C01095812358
:1056900001C0812B8C939FBF0F90DF91CF911F9101
:1056A0000F910895CF93DF93282F30E0F901EA5D41
:1056B000FC4E8491F901E459FC4ED491F901EE5469
:1056C000FC4EC491CC2389F081112BDFEC2FF0E04C
:1056D000EE0FFF1FE850FC4EA591B4912C912D23A5
:1056E00081E090E021F480E002C080E090E0DF9172
:1056F000CF910895089520919B1D30919C1D90910C
:10570000941DD901A05FBE4F8091A01D4091A11DA5
:10571000841304C09093941D80E008958F5F8D32B0
:1057200008F080E0E82FF0E0EE55F24EE081809343
:10573000A01DEE2379F3E03F11F49160E5CFE03E48
:1057400011F49260E1CF90FF0EC0E23111F49B7F23
:1057500008C0E93511F4977F04C0E13111F491FDDF
:105760009F7E9C7FD1CFE23111F49460CDCFE9359B
:1057700011F49860C9CFE13111F491FD906191FF6E
:1057800008C0EA54E43318F5F0E0EC5BFD4FE0812B
:105790001FC094FF09C08C91882331F0E838B8F419
:1057A000F0E0EF5EFE4F08C0892F8C7041F0E838C2
:1057B00070F4F0E0E857FF4FE20FF31F06C0E8383F
:1057C00030F4A9014E0F511DFA01E49101C0E0E04F
:1057D0009C7FEE2309F498CF9093941D8E2F08950B
:1057E000CF92DF92EF92FF920F931F93CF93DF93AD
:1057F00080919F1D57DFEC01D3DD0091971D109123
:10580000981D2091991D30919A1D6B017C01C01A41
:10581000D10AE20AF30A970186010B3F110521051F
:10582000310520F01092961D1092951D6093971DE2
:105830007093981D8093991D90939A1D9091961D39
:105840008FEF890F883050F4DD2701C0CC0F8A9587
:10585000EAF78091951D8C2B8093951D81E0890F2F
:105860008093961D8B30B9F48091A11D8F5F8D328E
:1058700008F080E09091A01D891749F0E82FF0E032
:105880009091951DEE55F24E90838093A11D10923C
:10589000961D1092951DDF91CF911F910F91FF9052
:1058A000EF90DF90CF90089580919E1D81110DC0E3
:1058B00080919D1D811109C01EDF982F80939E1D30
:1058C00081E0911103C080E0089581E00895809106
:1058D0009D1D882319F010929D1D17C080919E1D5B
:1058E000882319F010929E1D01C005DF87FF0BC0B1
:1058F000982F9F73906890939D1D829586958695AD
:105900008370806C02C0882311F090E008958FEFBF
:105910009FEF08950895CF93DF93D82FC62F8093DC
:105920009F1D50939C1D40939B1D62E08C2F4CDE6D
:1059300062E08D2F49DEC250C43130F4EC2FF0E02C
:10594000E05DFD4F808101C08FEF1092A11D10928C
:10595000A01D8F3F39F042E050E060EF7BE2DF9125
:10596000CF9103C0DF91CF910895883008F06CC0CB
:10597000E82FF0E0EE0FFF1FE153F24E71836083DA
:1059800090E0FC013197E730F10588F5E457FE4FD0
:1059900006C2809169008C7F842B80936900E89A0D
:1059A000089580916900440F551F440F551F837F50
:1059B000842B80936900E99A08958091690074E0CE
:1059C000440F551F7A95E1F78F7C842B80936900F3
:1059D000EA9A08958091690066E0440F551F6A9520
:1059E000E1F78F73842B80936900EB9A089580917F
:1059F0006A008C7F842B80936A00EC9A08958091D2
:105A00006A00440F551F440F551F837F842B8093DA
:105A10006A00ED9A089580916A0024E0440F551FB2
:105A20002A95E1F78F7C842B80936A00EE9A089583
:105A300080916A0096E0440F551F9A95E1F78F73A5
:105A4000842B80936A00EF9A08951F920F920FB6ED
:105A50000F9211240BB60F922F933F934F935F93A6
:105A60006F937F938F939F93AF93BF93EF93FF9326
:105A70008091D31D9091D41D892B29F0E091D31DE5
:105A8000F091D41D1995FF91EF91BF91AF919F9126
:105A90008F917F916F915F914F913F912F910F90D7
:105AA0000BBE0F900FBE0F901F9018951F920F9274
:105AB0000FB60F9211240BB60F922F933F934F9373
:105AC0005F936F937F938F939F93AF93BF93EF9366
:105AD000FF938091D51D9091D61D892B29F0E091DF
:105AE000D51DF091D61D1995FF91EF91BF91AF9102
:105AF0009F918F917F916F915F914F913F912F91E6
:105B00000F900BBE0F900FBE0F901F9018951F9215
:105B10000F920FB60F9211240BB60F922F933F9353
:105B20004F935F936F937F938F939F93AF93BF93A5
:105B3000EF93FF938091D71D9091D81D892B29F069
:105B4000E091D71DF091D81D1995FF91EF91BF916C
:105B5000AF919F918F917F916F915F914F913F9105
:105B60002F910F900BBE0F900FBE0F901F901895A6
:105B70001F920F920FB60F9211240BB60F922F9314
:105B80003F934F935F936F937F938F939F93AF93C5
:105B9000BF93EF93FF938091D91D9091DA1D892BCC
:105BA00029F0E091D91DF091DA1D1995FF91EF913F
:105BB000BF91AF919F918F917F916F915F914F9125
:105BC0003F912F910F900BBE0F900FBE0F901F9023
:105BD00018951F920F920FB60F9211240BB60F92C9
:105BE0002F933F934F935F936F937F938F939F93E5
:105BF000AF93BF93EF93FF938091CF1D9091D01DF2
:105C0000892B29F0E091CF1DF091D01D1995FF91BE
:105C1000EF91BF91AF919F918F917F916F915F9124
:105C20004F913F912F910F900BBE0F900FBE0F9091
:105C30001F9018951F920F920FB60F9211240BB65A
:105C40000F922F933F934F935F936F937F938F9315
:105C50009F93AF93BF93EF93FF938091D11D90914A
:105C6000D21D892B29F0E091D11DF091D21D1995FB
:105C7000FF91EF91BF91AF919F918F917F916F9124
:105C80005F914F913F912F910F900BBE0F900FBEE0
:105C90000F901F9018951F920F920FB60F9211241C
:105CA0000BB60F922F933F934F935F936F937F9316
:105CB0008F939F93AF93BF93EF93FF938091DB1DDF
:105CC0009091DC1D892B29F0E091DB1DF091DC1D0A
:105CD0001995FF91EF91BF91AF919F918F917F9116
:105CE0006F915F914F913F912F910F900BBE0F904D
:105CF0000FBE0F901F9018951F920F920FB60F9224
:105D000011240BB60F922F933F934F935F936F9392
:105D10007F938F939F93AF93BF93EF93FF93809164
:105D2000DD1D9091DE1D892B29F0E091DD1DF091A4
:105D3000DE1D1995FF91EF91BF91AF919F918F91CA
:105D40007F916F915F914F913F912F910F900BBE7B
:105D50000F900FBE0F901F901895A1E21A2EAA1B4C
:105D6000BB1BFD010DC0AA1FBB1FEE1FFF1FA2170B
:105D7000B307E407F50720F0A21BB30BE40BF50B08
:105D8000661F771F881F991F1A9469F76095709591
:105D9000809590959B01AC01BD01CF010895EE0F58
:105DA000FF1F0590F491E02D19940790F691E02DD6
:065DB0001994F894FFCFE6
:105DB600000003000C000F00300033003C003F00E1
:105DC600C000C300CC00CF00F000F300FC00FF00D1
:105DD60000000000E2275129372750274227C12714
:105DE6000001FFFFFFFFFFFFFFFFFFFFFFFFFFFFBA
:105DF600050403022F000000000000000000000060
:105E0600000000000D00000000000000000000007F
:105E160000000000000800000000007F0A00150BCB
:085E2600000000001A00001941
:00000001FF
