:1000000007C1000033C1000031C100002FC1000052
:100010002DC100002BC1000029C1000027C1000034
:1000200025C1000023C1000021C100001FC1000044
:100030001DC100001BC1000019C1000017C1000054
:1000400015C1000013C1000011C100000FC1000064
:100050000DC100000BC1000009C10000A9C20000D1
:1000600005C1000003C1000001C10000FFC0000085
:10007000FDC00000FBC00000F9C00000F7C0000098
:10008000F5C00000F3C00000F1C00000EFC00000A8
:10009000EDC00000EBC00000E9C00000E7C00000B8
:1000A000E5C00000E3C00000E1C00000DFC00000C8
:1000B000DDC00000DBC00000D9C00000D7C00000D8
:1000C000D5C00000D3C00000D1C00000CFC00000E8
:1000D000CDC00000CBC00000C9C00000C7C00000F8
:1000E000C5C00000EF03F203E103E503EB032904BD
:1000F000F603FA030004040408040E0412041604B0
:1001000029041C042004240400000A0B02090C0D1D
:100110000E080703040100000000000000000000BA
:1001200000000000000000000000000000000000CF
:10013000000000001211100000000000000000008C
:1001400000000000000000000000000000000102AC
:1001500010202008081020401020408002010201D9
:100160000804020101020408102040808040201091
:1001700008040201800402018040201008040201EA
:100180000804020101020408102040800102040852
:10019000102040800505050507050808080802022B
:1001A00002020A0A08080404040401010101010111
:1001B00001010303030303030303040707070C0CF4
:1001C0000C0C0C0C0C0C02020202060606060606BB
:1001D00006060B0B0B0B0B0B0B0B00002200250074
:1001E00028002B002E003100340002010000050120
:1001F00008010B0100002100240027002A002D0027
:100200003000330001010000040107010A01C602A9
:1002100011241FBECFEFD1E2DEBFCDBF00E00CBF87
:1002200022E0A4E0B2E001C01D92A231B207E1F7E2
:1002300012E0A0E0B2E0E2EBFAE000E00BBF02C0A7
:1002400007900D92A430B107D9F712E0C0E1D2E0D7
:1002500000E005C022970109FE010BBF70D3CE302C
:10026000D10780E00807B1F798D121C4C9CEFC01BD
:100270002283638344830895CF93DF93FC014381FA
:1002800050E0FA01EC56FE4FE491F0E0EE0FFF1F54
:10029000E652FE4FA591B491FC01248130E0F901B2
:1002A000EC56FE4F849190E0880F991F86529E4F26
:1002B000FC01C591D491FA01E25BFE4F4491F90132
:1002C000E25BFE4F24913FB7F89488E0722F70955F
:1002D000542F5095988167FF02C0922B01C097233D
:1002E00098839C91942B9C939C9195239C93660F4F
:1002F000815081F73FBFDF91CF9108951F93CF9336
:10030000DF93EC01142F8A81882389F06EBD0DB430
:1003100007FEFDCF812F807F8EBD0DB407FEFDCF80
:100320001295107F1EBD0DB407FEFDCF0EC0CE018D
:10033000A3DF612F607FCE019FDF612F6295607F19
:10034000CE01DF91CF911F9197CFDF91CF911F9178
:100350000895462F68EFD2CFCF93DF93EC0160E092
:100360008B81B1D260E08C81AED261E08B8172D2A0
:1003700061E08C816FD28A81882311F081E58CBD88
:10038000188260E2CE01E5DF61E070E080E090E09D
:100390007CD160E2CE01DDDF80E390E09BD166E0BE
:1003A000CE01D7DF80E390E095D1198281E0888388
:1003B0006CE0CE01CEDF80E390E0DF91CF918AC187
:1003C000462F6AEF9BCFCF93DF93EC018981811198
:1003D0000DC08881882311F066E201C064E2CE017D
:1003E000B8DF80E390E076D181E08983DF91CF911F
:1003F0000895EF92FF920F931F93CF93DF931F9275
:10040000CDB7DEB77C018B01FC0180818823F9F038
:10041000C7014983D8DF602F6F716068C70199DF1A
:100420004981642F6068C8018072992796958795E5
:1004300096958795682BC7018CDF80E390E00F903D
:10044000DF91CF911F910F91FF90EF9043C10F90DB
:10045000DF91CF911F910F91FF90EF900895CF9270
:10046000DF92EF92FF920F93CF93DF931F921F9231
:10047000CDB7DEB77C01842F462F50E0682F70E0A7
:10048000C70129833A83B5DF2981C22E3A81D32E51
:10049000020F0C1531F0F60161916F01C70190DF79
:1004A000F8CF8AE090E00F900F90DF91CF910F91FD
:1004B000FF90EF90DF90CF900DC1FF920F931F93AD
:1004C000CF93DF938C01C0E0D0E040E050E0BE016C
:1004D000C8018FDFF8E0FF2E60E0C80171DF60E047
:1004E000C8016EDF8AE090E0F5D0FA94A9F7219672
:1004F000C034D10551F7DF91CF911F910F91FF903B
:1005000008950F931F93CF93DF9300D01F92CDB721
:10051000DEB761E086E39ED161E086E3D4D161E09D
:1005200084E092E019DF84E092E0C7DF10E054D26B
:100530008F73805E898350D28F73805E8A834CD2A2
:100540008F73805E8B8348D28F73805E8C8304E0D0
:100550009E012F5F3F4F412F60E084E092E07FDFFC
:1005600041E0410F9E012F5F3F4F60E084E092E049
:1005700076DF1C5F1832D9F60F900F900F900F9016
:10058000DF91CF911F910F910895089520E047E3E7
:1005900068E384E092E06BCE0895A7D0FDDFB1DF81
:1005A000C0E0D0E0F2DF2097E9F30E940000FACF2C
:1005B0001F920F920FB60F9211242F933F938F9398
:1005C0009F93AF93BF9380910A0290910B02A091E9
:1005D0000C02B0910D023091090223E0230F2D3758
:1005E00020F40196A11DB11D05C026E8230F029637
:1005F000A11DB11D2093090280930A0290930B0262
:10060000A0930C02B0930D0280910E0290910F0204
:10061000A0911002B09111020196A11DB11D80930D
:100620000E0290930F02A0931002B0931102BF919B
:10063000AF919F918F913F912F910F900FBE0F908F
:100640001F9018953FB7F89480910E0290910F0279
:10065000A0911002B091110226B5A89B05C02F3FB2
:1006600019F00196A11DB11D3FBF6627782F892F74
:100670009A2F620F711D811D911D42E0660F771F39
:10068000881F991F4A95D1F70895CF92DF92EF9274
:10069000FF92CF93DF936B017C01D4DFEB01C11498
:1006A000D104E104F10479F043D1CCDF6C1B7D0B64
:1006B000683E7340A0F381E0C81AD108E108F10850
:1006C000C851DC4FECCFDF91CF91FF90EF90DF90DE
:1006D000CF9008950197009739F0880F991F880FE0
:1006E000991F02970197F1F70895789484B5826075
:1006F00084BD84B5816084BD85B5826085BD85B5C6
:10070000816085BDEEE6F0E0808181608083E1E874
:10071000F0E01082808182608083808181608083AC
:10072000E0E8F0E0808181608083E1EBF0E08081AF
:1007300084608083E0EBF0E0808181608083E1E988
:10074000F0E0808182608083808181608083E0E945
:10075000F0E0808181608083E1EAF0E08081826066
:100760008083808181608083E0EAF0E08081816025
:100770008083E1E2F1E0808182608083808181601A
:100780008083E0E2F1E0808181608083EAE7F0E04D
:1007900080818460808380818260808380818160A9
:1007A00080838081806880831092C100089590E0EA
:1007B000FC013197E231F10508F04BC0EE58FF4FD4
:1007C000B8C0809180008F7703C0809180008F7DBA
:1007D00080938000089580918000877FF9CF84B551
:1007E0008F7702C084B58F7D84BD08958091B0005D
:1007F0008F7703C08091B0008F7D8093B000089503
:10080000809190008F7707C0809190008F7D03C00A
:1008100080919000877F8093900008958091A00040
:100820008F7707C08091A0008F7D03C08091A000CA
:10083000877F8093A0000895809120018F7707C063
:10084000809120018F7D03C080912001877F80935C
:1008500020010895CF93DF9390E0FC01E25BFE4F0F
:100860002491FC01EC56FE4F8491882349F190E0DD
:10087000880F991FFC01EC50FE4FA591B491865250
:100880009E4FFC01C591D4919FB7611108C0F894A7
:100890008C91209582238C93888182230AC06230B8
:1008A00051F4F8948C91322F309583238C93888166
:1008B000822B888304C0F8948C91822B8C939FBFE9
:1008C000DF91CF9108950F931F93CF93DF931F92E2
:1008D000CDB7DEB7282F30E0F901E85FFE4F8491F5
:1008E000F901E25BFE4F1491F901EC56FE4F0491C1
:1008F0000023C1F0882319F0698359DF6981E02F53
:10090000F0E0EE0FFF1FE652FE4FA591B4919FB7A6
:10091000F8948C91611103C01095812301C0812B43
:100920008C939FBF0F90DF91CF911F910F910895EE
:100930000895EE0FFF1F0590F491E02D1994079094
:10094000F691E02D19948F929F92AF92BF92CF9221
:10095000DF92EF92FF92CF93DF93EC016881798170
:100960008A819B81611571058105910521F464E2FD
:1009700079ED8BE597E02DE133EF41E050E03AD09F
:1009800049015A019B01AC01A7EAB1E44FD06B01C8
:100990007C01ACEEB4EFA501940154D0C60ED71E75
:1009A000E81EF91EF7FE06C081E0C81AD108E1086A
:1009B00080E8F80AC882D982EA82FB82C6019F7762
:1009C000DF91CF91FF90EF90DF90CF90BF90AF90ED
:1009D0009F908F900895B7CF80E092E0B4CFA0E0D1
:1009E000B0E08093000290930102A0930202B093C2
:1009F00003020895052E97FB16F400940FD057FDBF
:100A000005D024D007FC02D046F408C0509540958C
:100A1000309521953F4F4F4F5F4F089590958095AA
:100A2000709561957F4F8F4F9F4F089531D0A59F4F
:100A3000900DB49F900DA49F800D911D11240895D9
:100A4000B7FFF4CFF3DF821B930B0895A1E21A2EB8
:100A5000AA1BBB1BFD010DC0AA1FBB1FEE1FFF1F62
:100A6000A217B307E407F50720F0A21BB30BE40BB2
:100A7000F50B661F771F881F991F1A9469F76095F9
:100A80007095809590959B01AC01BD01CF010895B3
:100A9000A29FB001B39FC001A39F700D811D1124BF
:100AA000911DB29F700D811D1124911D0895F89420
:020AB000FFCF76
:040AB200010000003F
:00000001FF
